{
  "address": "0x42B39e8fd8A63203869C9BB59583c70176192540",
  "abi": [
    {
      "inputs": [],
      "stateMutability": "nonpayable",
      "type": "constructor"
    },
    {
      "inputs": [],
      "name": "AccessControlBadConfirmation",
      "type": "error"
    },
    {
      "inputs": [
        {
          "internalType": "address",
          "name": "account",
          "type": "address"
        },
        {
          "internalType": "bytes32",
          "name": "neededRole",
          "type": "bytes32"
        }
      ],
      "name": "AccessControlUnauthorizedAccount",
      "type": "error"
    },
    {
      "inputs": [],
      "name": "InvalidInitialization",
      "type": "error"
    },
    {
      "inputs": [],
      "name": "NotInitializing",
      "type": "error"
    },
    {
      "anonymous": false,
      "inputs": [
        {
          "indexed": false,
          "internalType": "uint64",
          "name": "version",
          "type": "uint64"
        }
      ],
      "name": "Initialized",
      "type": "event"
    },
    {
      "anonymous": false,
      "inputs": [
        {
          "indexed": true,
          "internalType": "bytes32",
          "name": "role",
          "type": "bytes32"
        },
        {
          "indexed": true,
          "internalType": "bytes32",
          "name": "previousAdminRole",
          "type": "bytes32"
        },
        {
          "indexed": true,
          "internalType": "bytes32",
          "name": "newAdminRole",
          "type": "bytes32"
        }
      ],
      "name": "RoleAdminChanged",
      "type": "event"
    },
    {
      "anonymous": false,
      "inputs": [
        {
          "indexed": true,
          "internalType": "bytes32",
          "name": "role",
          "type": "bytes32"
        },
        {
          "indexed": true,
          "internalType": "address",
          "name": "account",
          "type": "address"
        },
        {
          "indexed": true,
          "internalType": "address",
          "name": "sender",
          "type": "address"
        }
      ],
      "name": "RoleGranted",
      "type": "event"
    },
    {
      "anonymous": false,
      "inputs": [
        {
          "indexed": true,
          "internalType": "bytes32",
          "name": "role",
          "type": "bytes32"
        },
        {
          "indexed": true,
          "internalType": "address",
          "name": "account",
          "type": "address"
        },
        {
          "indexed": true,
          "internalType": "address",
          "name": "sender",
          "type": "address"
        }
      ],
      "name": "RoleRevoked",
      "type": "event"
    },
    {
      "inputs": [],
      "name": "AGENT_ROLE",
      "outputs": [
        {
          "internalType": "bytes32",
          "name": "",
          "type": "bytes32"
        }
      ],
      "stateMutability": "view",
      "type": "function"
    },
    {
      "inputs": [],
      "name": "DEFAULT_ADMIN_ROLE",
      "outputs": [
        {
          "internalType": "bytes32",
          "name": "",
          "type": "bytes32"
        }
      ],
      "stateMutability": "view",
      "type": "function"
    },
    {
      "inputs": [],
      "name": "VALIDATOR_ROLE",
      "outputs": [
        {
          "internalType": "bytes32",
          "name": "",
          "type": "bytes32"
        }
      ],
      "stateMutability": "view",
      "type": "function"
    },
    {
      "inputs": [
        {
          "internalType": "address",
          "name": "_validator",
          "type": "address"
        }
      ],
      "name": "addValidator",
      "outputs": [],
      "stateMutability": "nonpayable",
      "type": "function"
    },
    {
      "inputs": [
        {
          "internalType": "bytes32",
          "name": "role",
          "type": "bytes32"
        }
      ],
      "name": "getRoleAdmin",
      "outputs": [
        {
          "internalType": "bytes32",
          "name": "",
          "type": "bytes32"
        }
      ],
      "stateMutability": "view",
      "type": "function"
    },
    {
      "inputs": [
        {
          "internalType": "bytes32",
          "name": "role",
          "type": "bytes32"
        },
        {
          "internalType": "address",
          "name": "account",
          "type": "address"
        }
      ],
      "name": "grantRole",
      "outputs": [],
      "stateMutability": "nonpayable",
      "type": "function"
    },
    {
      "inputs": [
        {
          "internalType": "address",
          "name": "_address",
          "type": "address"
        }
      ],
      "name": "hasAdminRole",
      "outputs": [
        {
          "internalType": "bool",
          "name": "",
          "type": "bool"
        }
      ],
      "stateMutability": "view",
      "type": "function"
    },
    {
      "inputs": [
        {
          "internalType": "bytes32",
          "name": "role",
          "type": "bytes32"
        },
        {
          "internalType": "address",
          "name": "account",
          "type": "address"
        }
      ],
      "name": "hasRole",
      "outputs": [
        {
          "internalType": "bool",
          "name": "",
          "type": "bool"
        }
      ],
      "stateMutability": "view",
      "type": "function"
    },
    {
      "inputs": [
        {
          "internalType": "address",
          "name": "_address",
          "type": "address"
        }
      ],
      "name": "hasValidatorRole",
      "outputs": [
        {
          "internalType": "bool",
          "name": "",
          "type": "bool"
        }
      ],
      "stateMutability": "view",
      "type": "function"
    },
    {
      "inputs": [
        {
          "internalType": "address",
          "name": "admin",
          "type": "address"
        }
      ],
      "name": "initialize",
      "outputs": [],
      "stateMutability": "nonpayable",
      "type": "function"
    },
    {
      "inputs": [
        {
          "internalType": "address",
          "name": "_validator",
          "type": "address"
        }
      ],
      "name": "removeValidator",
      "outputs": [],
      "stateMutability": "nonpayable",
      "type": "function"
    },
    {
      "inputs": [
        {
          "internalType": "bytes32",
          "name": "role",
          "type": "bytes32"
        },
        {
          "internalType": "address",
          "name": "callerConfirmation",
          "type": "address"
        }
      ],
      "name": "renounceRole",
      "outputs": [],
      "stateMutability": "nonpayable",
      "type": "function"
    },
    {
      "inputs": [
        {
          "internalType": "bytes32",
          "name": "role",
          "type": "bytes32"
        },
        {
          "internalType": "address",
          "name": "account",
          "type": "address"
        }
      ],
      "name": "revokeRole",
      "outputs": [],
      "stateMutability": "nonpayable",
      "type": "function"
    },
    {
      "inputs": [
        {
          "internalType": "bytes4",
          "name": "_interfaceId",
          "type": "bytes4"
        }
      ],
      "name": "supportsInterface",
      "outputs": [
        {
          "internalType": "bool",
          "name": "",
          "type": "bool"
        }
      ],
      "stateMutability": "view",
      "type": "function"
    }
  ],
  "bytecode": "0x608060405234801561001057600080fd5b5061001961001e565b6100d0565b7ff0c57e16840df040f15088dc2f81fe391c3923bec73e23a9662efc9c229c6a00805468010000000000000000900460ff161561006e5760405163f92ee8a960e01b815260040160405180910390fd5b80546001600160401b03908116146100cd5780546001600160401b0319166001600160401b0390811782556040519081527fc7f505b2f371ae2175ee4913f4499e1f2633a7b5936321eed1cdaeb6115181d29060200160405180910390a15b50565b61082a806100df6000396000f3fe608060405234801561001057600080fd5b50600436106100ea5760003560e01c806391d148541161008c578063c395fcb311610066578063c395fcb3146101db578063c49baebe146101ee578063c4d66de814610203578063d547741f1461021657600080fd5b806391d14854146101ad578063940e1570146101c0578063a217fddf146101d357600080fd5b80632f2ff15d116100c85780632f2ff15d1461015f57806336568abe1461017457806340a141ff146101875780634d238c8e1461019a57600080fd5b806301ffc9a7146100ef57806322459e1814610117578063248a9ca31461014c575b600080fd5b6101026100fd36600461069a565b610229565b60405190151581526020015b60405180910390f35b61013e7fcab5a0bfe0b79d2c4b1c2e02599fa044d115b7511f9659307cb427695096770981565b60405190815260200161010e565b61013e61015a3660046106cb565b61023a565b61017261016d366004610700565b61025c565b005b610172610182366004610700565b61027e565b61017261019536600461072c565b6102b6565b6101726101a836600461072c565b610316565b6101026101bb366004610700565b61036d565b6101026101ce36600461072c565b6103a5565b61013e600081565b6101026101e936600461072c565b6103bf565b61013e6000805160206107b583398151915281565b61017261021136600461072c565b6103cb565b610172610224366004610700565b6104de565b6000610234826104fa565b92915050565b60009081526000805160206107d5833981519152602052604090206001015490565b6102658261023a565b61026e8161052f565b610278838361053c565b50505050565b6001600160a01b03811633146102a75760405163334bd91960e11b815260040160405180910390fd5b6102b182826105e1565b505050565b6340a141ff60e01b6102c960003361036d565b806102d957506102d9813361036d565b6102fe5760405162461bcd60e51b81526004016102f590610747565b60405180910390fd5b6102b16000805160206107b5833981519152836105e1565b632691c64760e11b61032960003361036d565b806103395750610339813361036d565b6103555760405162461bcd60e51b81526004016102f590610747565b6102b16000805160206107b58339815191528361053c565b60009182526000805160206107d5833981519152602090815260408084206001600160a01b0393909316845291905290205460ff1690565b60006102346000805160206107b58339815191528361036d565b6000610234818361036d565b7ff0c57e16840df040f15088dc2f81fe391c3923bec73e23a9662efc9c229c6a008054600160401b810460ff16159067ffffffffffffffff166000811580156104115750825b905060008267ffffffffffffffff16600114801561042e5750303b155b90508115801561043c575080155b1561045a5760405163f92ee8a960e01b815260040160405180910390fd5b845467ffffffffffffffff19166001178555831561048457845460ff60401b1916600160401b1785555b61048f60008761053c565b5083156104d657845460ff60401b19168555604051600181527fc7f505b2f371ae2175ee4913f4499e1f2633a7b5936321eed1cdaeb6115181d29060200160405180910390a15b505050505050565b6104e78261023a565b6104f08161052f565b61027883836105e1565b60006001600160e01b03198216637965db0b60e01b148061023457506301ffc9a760e01b6001600160e01b0319831614610234565b610539813361065d565b50565b60006000805160206107d5833981519152610557848461036d565b6105d7576000848152602082815260408083206001600160a01b03871684529091529020805460ff1916600117905561058d3390565b6001600160a01b0316836001600160a01b0316857f2f8788117e7eff1d82e926ec794901d17c78024a50270940304540a733656f0d60405160405180910390a46001915050610234565b6000915050610234565b60006000805160206107d58339815191526105fc848461036d565b156105d7576000848152602082815260408083206001600160a01b0387168085529252808320805460ff1916905551339287917ff6391f5c32d9c69d2a47ea670b442974b53935d1edc7fd64eb21e047a839171b9190a46001915050610234565b610667828261036d565b6106965760405163e2517d3f60e01b81526001600160a01b0382166004820152602481018390526044016102f5565b5050565b6000602082840312156106ac57600080fd5b81356001600160e01b0319811681146106c457600080fd5b9392505050565b6000602082840312156106dd57600080fd5b5035919050565b80356001600160a01b03811681146106fb57600080fd5b919050565b6000806040838503121561071357600080fd5b82359150610723602084016106e4565b90509250929050565b60006020828403121561073e57600080fd5b6106c4826106e4565b60208082526047908201527f5b4163636573734d616e6167656d656e745d204f6e6c79207468652041646d6960408201527f6e206f722066756e6374696f6e206772616e74656420757365722063616e20696060820152661b9d195c9858dd60ca1b608082015260a0019056fe21702c8af46127c7fa207f89d0b0a8441bb32959a0ac7df790e9ab1a25c9892602dd7bc7dec4dceedda775e58dd541e08a116c6c53815c0bd028192f7b626800a26469706673582212204d0c0db10e5468d9482fd444f75a3aa9362e7f04027d79b6a62b933ef552b77c64736f6c63430008140033"
}