{
  "address": "0xAd48c73B7144255f949aF4514a31DD1729B74931",
  "abi": [
    {
      "inputs": [],
      "stateMutability": "nonpayable",
      "type": "constructor"
    },
    {
      "inputs": [
        {
          "internalType": "address",
          "name": "sender",
          "type": "address"
        },
        {
          "internalType": "uint256",
          "name": "tokenId",
          "type": "uint256"
        },
        {
          "internalType": "address",
          "name": "owner",
          "type": "address"
        }
      ],
      "name": "ERC721IncorrectOwner",
      "type": "error"
    },
    {
      "inputs": [
        {
          "internalType": "address",
          "name": "operator",
          "type": "address"
        },
        {
          "internalType": "uint256",
          "name": "tokenId",
          "type": "uint256"
        }
      ],
      "name": "ERC721InsufficientApproval",
      "type": "error"
    },
    {
      "inputs": [
        {
          "internalType": "address",
          "name": "approver",
          "type": "address"
        }
      ],
      "name": "ERC721InvalidApprover",
      "type": "error"
    },
    {
      "inputs": [
        {
          "internalType": "address",
          "name": "operator",
          "type": "address"
        }
      ],
      "name": "ERC721InvalidOperator",
      "type": "error"
    },
    {
      "inputs": [
        {
          "internalType": "address",
          "name": "owner",
          "type": "address"
        }
      ],
      "name": "ERC721InvalidOwner",
      "type": "error"
    },
    {
      "inputs": [
        {
          "internalType": "address",
          "name": "receiver",
          "type": "address"
        }
      ],
      "name": "ERC721InvalidReceiver",
      "type": "error"
    },
    {
      "inputs": [
        {
          "internalType": "address",
          "name": "sender",
          "type": "address"
        }
      ],
      "name": "ERC721InvalidSender",
      "type": "error"
    },
    {
      "inputs": [
        {
          "internalType": "uint256",
          "name": "tokenId",
          "type": "uint256"
        }
      ],
      "name": "ERC721NonexistentToken",
      "type": "error"
    },
    {
      "inputs": [],
      "name": "InvalidInitialization",
      "type": "error"
    },
    {
      "inputs": [],
      "name": "NotInitializing",
      "type": "error"
    },
    {
      "anonymous": false,
      "inputs": [
        {
          "indexed": true,
          "internalType": "address",
          "name": "owner",
          "type": "address"
        },
        {
          "indexed": true,
          "internalType": "address",
          "name": "approved",
          "type": "address"
        },
        {
          "indexed": true,
          "internalType": "uint256",
          "name": "tokenId",
          "type": "uint256"
        }
      ],
      "name": "Approval",
      "type": "event"
    },
    {
      "anonymous": false,
      "inputs": [
        {
          "indexed": true,
          "internalType": "address",
          "name": "owner",
          "type": "address"
        },
        {
          "indexed": true,
          "internalType": "address",
          "name": "operator",
          "type": "address"
        },
        {
          "indexed": false,
          "internalType": "bool",
          "name": "approved",
          "type": "bool"
        }
      ],
      "name": "ApprovalForAll",
      "type": "event"
    },
    {
      "anonymous": false,
      "inputs": [
        {
          "indexed": false,
          "internalType": "uint256",
          "name": "_fromTokenId",
          "type": "uint256"
        },
        {
          "indexed": false,
          "internalType": "uint256",
          "name": "_toTokenId",
          "type": "uint256"
        }
      ],
      "name": "BatchMetadataUpdate",
      "type": "event"
    },
    {
      "anonymous": false,
      "inputs": [
        {
          "indexed": false,
          "internalType": "uint256",
          "name": "deedId",
          "type": "uint256"
        },
        {
          "indexed": false,
          "internalType": "enum DeedNFT.AssetType",
          "name": "newAssetType",
          "type": "uint8"
        }
      ],
      "name": "DeedNFTAssetTypeChanged",
      "type": "event"
    },
    {
      "anonymous": false,
      "inputs": [
        {
          "indexed": false,
          "internalType": "uint256",
          "name": "deedId",
          "type": "uint256"
        }
      ],
      "name": "DeedNFTBurned",
      "type": "event"
    },
    {
      "anonymous": false,
      "inputs": [
        {
          "indexed": false,
          "internalType": "uint256",
          "name": "deedId",
          "type": "uint256"
        },
        {
          "components": [
            {
              "internalType": "enum DeedNFT.AssetType",
              "name": "assetType",
              "type": "uint8"
            },
            {
              "internalType": "bool",
              "name": "isValidated",
              "type": "bool"
            }
          ],
          "indexed": false,
          "internalType": "struct DeedNFT.DeedInfo",
          "name": "deedInfo",
          "type": "tuple"
        },
        {
          "indexed": false,
          "internalType": "address",
          "name": "minter",
          "type": "address"
        },
        {
          "indexed": false,
          "internalType": "string",
          "name": "uri",
          "type": "string"
        }
      ],
      "name": "DeedNFTMinted",
      "type": "event"
    },
    {
      "anonymous": false,
      "inputs": [
        {
          "indexed": false,
          "internalType": "uint256",
          "name": "deedId",
          "type": "uint256"
        },
        {
          "indexed": false,
          "internalType": "string",
          "name": "newIpfsDetailsHash",
          "type": "string"
        }
      ],
      "name": "DeedNFTUriChanged",
      "type": "event"
    },
    {
      "anonymous": false,
      "inputs": [
        {
          "indexed": false,
          "internalType": "uint256",
          "name": "deedId",
          "type": "uint256"
        },
        {
          "indexed": false,
          "internalType": "bool",
          "name": "isValid",
          "type": "bool"
        }
      ],
      "name": "DeedNFTValidatedChanged",
      "type": "event"
    },
    {
      "anonymous": false,
      "inputs": [
        {
          "indexed": false,
          "internalType": "uint64",
          "name": "version",
          "type": "uint64"
        }
      ],
      "name": "Initialized",
      "type": "event"
    },
    {
      "anonymous": false,
      "inputs": [
        {
          "indexed": false,
          "internalType": "uint256",
          "name": "_tokenId",
          "type": "uint256"
        }
      ],
      "name": "MetadataUpdate",
      "type": "event"
    },
    {
      "anonymous": false,
      "inputs": [
        {
          "indexed": true,
          "internalType": "address",
          "name": "from",
          "type": "address"
        },
        {
          "indexed": true,
          "internalType": "address",
          "name": "to",
          "type": "address"
        },
        {
          "indexed": true,
          "internalType": "uint256",
          "name": "tokenId",
          "type": "uint256"
        }
      ],
      "name": "Transfer",
      "type": "event"
    },
    {
      "inputs": [
        {
          "internalType": "address",
          "name": "to",
          "type": "address"
        },
        {
          "internalType": "uint256",
          "name": "tokenId",
          "type": "uint256"
        }
      ],
      "name": "approve",
      "outputs": [],
      "stateMutability": "nonpayable",
      "type": "function"
    },
    {
      "inputs": [
        {
          "internalType": "address",
          "name": "owner",
          "type": "address"
        }
      ],
      "name": "balanceOf",
      "outputs": [
        {
          "internalType": "uint256",
          "name": "",
          "type": "uint256"
        }
      ],
      "stateMutability": "view",
      "type": "function"
    },
    {
      "inputs": [
        {
          "internalType": "uint256",
          "name": "_deedId",
          "type": "uint256"
        }
      ],
      "name": "burn",
      "outputs": [],
      "stateMutability": "nonpayable",
      "type": "function"
    },
    {
      "inputs": [
        {
          "internalType": "uint256",
          "name": "_deedId",
          "type": "uint256"
        }
      ],
      "name": "canSubdivide",
      "outputs": [
        {
          "internalType": "bool",
          "name": "",
          "type": "bool"
        }
      ],
      "stateMutability": "view",
      "type": "function"
    },
    {
      "inputs": [
        {
          "internalType": "uint256",
          "name": "tokenId",
          "type": "uint256"
        }
      ],
      "name": "getApproved",
      "outputs": [
        {
          "internalType": "address",
          "name": "",
          "type": "address"
        }
      ],
      "stateMutability": "view",
      "type": "function"
    },
    {
      "inputs": [
        {
          "internalType": "uint256",
          "name": "_deedId",
          "type": "uint256"
        }
      ],
      "name": "getDeedInfo",
      "outputs": [
        {
          "components": [
            {
              "internalType": "enum DeedNFT.AssetType",
              "name": "assetType",
              "type": "uint8"
            },
            {
              "internalType": "bool",
              "name": "isValidated",
              "type": "bool"
            }
          ],
          "internalType": "struct DeedNFT.DeedInfo",
          "name": "",
          "type": "tuple"
        }
      ],
      "stateMutability": "view",
      "type": "function"
    },
    {
      "inputs": [],
      "name": "hasAdminRole",
      "outputs": [
        {
          "internalType": "bool",
          "name": "",
          "type": "bool"
        }
      ],
      "stateMutability": "view",
      "type": "function"
    },
    {
      "inputs": [
        {
          "internalType": "bytes32",
          "name": "_role",
          "type": "bytes32"
        },
        {
          "internalType": "address",
          "name": "_address",
          "type": "address"
        }
      ],
      "name": "hasRole",
      "outputs": [
        {
          "internalType": "bool",
          "name": "",
          "type": "bool"
        }
      ],
      "stateMutability": "view",
      "type": "function"
    },
    {
      "inputs": [],
      "name": "hasValidatorRole",
      "outputs": [
        {
          "internalType": "bool",
          "name": "",
          "type": "bool"
        }
      ],
      "stateMutability": "view",
      "type": "function"
    },
    {
      "inputs": [
        {
          "internalType": "address",
          "name": "admin",
          "type": "address"
        }
      ],
      "name": "initialize",
      "outputs": [],
      "stateMutability": "nonpayable",
      "type": "function"
    },
    {
      "inputs": [
        {
          "internalType": "address",
          "name": "owner",
          "type": "address"
        },
        {
          "internalType": "address",
          "name": "operator",
          "type": "address"
        }
      ],
      "name": "isApprovedForAll",
      "outputs": [
        {
          "internalType": "bool",
          "name": "",
          "type": "bool"
        }
      ],
      "stateMutability": "view",
      "type": "function"
    },
    {
      "inputs": [
        {
          "internalType": "address",
          "name": "_owner",
          "type": "address"
        },
        {
          "internalType": "string",
          "name": "_ipfsDetailsHash",
          "type": "string"
        },
        {
          "internalType": "enum DeedNFT.AssetType",
          "name": "_assetType",
          "type": "uint8"
        }
      ],
      "name": "mintAsset",
      "outputs": [
        {
          "internalType": "uint256",
          "name": "",
          "type": "uint256"
        }
      ],
      "stateMutability": "nonpayable",
      "type": "function"
    },
    {
      "inputs": [],
      "name": "name",
      "outputs": [
        {
          "internalType": "string",
          "name": "",
          "type": "string"
        }
      ],
      "stateMutability": "view",
      "type": "function"
    },
    {
      "inputs": [],
      "name": "nextDeedId",
      "outputs": [
        {
          "internalType": "uint256",
          "name": "",
          "type": "uint256"
        }
      ],
      "stateMutability": "view",
      "type": "function"
    },
    {
      "inputs": [
        {
          "internalType": "uint256",
          "name": "tokenId",
          "type": "uint256"
        }
      ],
      "name": "ownerOf",
      "outputs": [
        {
          "internalType": "address",
          "name": "",
          "type": "address"
        }
      ],
      "stateMutability": "view",
      "type": "function"
    },
    {
      "inputs": [
        {
          "internalType": "address",
          "name": "from",
          "type": "address"
        },
        {
          "internalType": "address",
          "name": "to",
          "type": "address"
        },
        {
          "internalType": "uint256",
          "name": "tokenId",
          "type": "uint256"
        }
      ],
      "name": "safeTransferFrom",
      "outputs": [],
      "stateMutability": "nonpayable",
      "type": "function"
    },
    {
      "inputs": [
        {
          "internalType": "address",
          "name": "from",
          "type": "address"
        },
        {
          "internalType": "address",
          "name": "to",
          "type": "address"
        },
        {
          "internalType": "uint256",
          "name": "tokenId",
          "type": "uint256"
        },
        {
          "internalType": "bytes",
          "name": "data",
          "type": "bytes"
        }
      ],
      "name": "safeTransferFrom",
      "outputs": [],
      "stateMutability": "nonpayable",
      "type": "function"
    },
    {
      "inputs": [
        {
          "internalType": "address",
          "name": "operator",
          "type": "address"
        },
        {
          "internalType": "bool",
          "name": "approved",
          "type": "bool"
        }
      ],
      "name": "setApprovalForAll",
      "outputs": [],
      "stateMutability": "nonpayable",
      "type": "function"
    },
    {
      "inputs": [
        {
          "internalType": "uint256",
          "name": "_deedId",
          "type": "uint256"
        },
        {
          "internalType": "enum DeedNFT.AssetType",
          "name": "_assetType",
          "type": "uint8"
        }
      ],
      "name": "setAssetType",
      "outputs": [],
      "stateMutability": "nonpayable",
      "type": "function"
    },
    {
      "inputs": [
        {
          "internalType": "uint256",
          "name": "_deedId",
          "type": "uint256"
        },
        {
          "internalType": "bool",
          "name": "_isValid",
          "type": "bool"
        }
      ],
      "name": "setAssetValidation",
      "outputs": [],
      "stateMutability": "nonpayable",
      "type": "function"
    },
    {
      "inputs": [
        {
          "internalType": "uint256",
          "name": "_deedId",
          "type": "uint256"
        },
        {
          "internalType": "string",
          "name": "_ipfsDetailsHash",
          "type": "string"
        }
      ],
      "name": "setIpfsDetailsHash",
      "outputs": [],
      "stateMutability": "nonpayable",
      "type": "function"
    },
    {
      "inputs": [
        {
          "internalType": "bytes4",
          "name": "_interfaceId",
          "type": "bytes4"
        }
      ],
      "name": "supportsInterface",
      "outputs": [
        {
          "internalType": "bool",
          "name": "",
          "type": "bool"
        }
      ],
      "stateMutability": "view",
      "type": "function"
    },
    {
      "inputs": [],
      "name": "symbol",
      "outputs": [
        {
          "internalType": "string",
          "name": "",
          "type": "string"
        }
      ],
      "stateMutability": "view",
      "type": "function"
    },
    {
      "inputs": [
        {
          "internalType": "uint256",
          "name": "_deedId",
          "type": "uint256"
        }
      ],
      "name": "tokenURI",
      "outputs": [
        {
          "internalType": "string",
          "name": "",
          "type": "string"
        }
      ],
      "stateMutability": "view",
      "type": "function"
    },
    {
      "inputs": [
        {
          "internalType": "address",
          "name": "from",
          "type": "address"
        },
        {
          "internalType": "address",
          "name": "to",
          "type": "address"
        },
        {
          "internalType": "uint256",
          "name": "tokenId",
          "type": "uint256"
        }
      ],
      "name": "transferFrom",
      "outputs": [],
      "stateMutability": "nonpayable",
      "type": "function"
    }
  ],
  "bytecode": "0x60806040523480156200001157600080fd5b506200001c6200002c565b620000266200002c565b620000e0565b7ff0c57e16840df040f15088dc2f81fe391c3923bec73e23a9662efc9c229c6a00805468010000000000000000900460ff16156200007d5760405163f92ee8a960e01b815260040160405180910390fd5b80546001600160401b0390811614620000dd5780546001600160401b0319166001600160401b0390811782556040519081527fc7f505b2f371ae2175ee4913f4499e1f2633a7b5936321eed1cdaeb6115181d29060200160405180910390a15b50565b61245680620000f06000396000f3fe608060405234801561001057600080fd5b50600436106101735760003560e01c806370a08231116100de578063b82c356911610097578063c4d66de811610071578063c4d66de814610328578063c87b56dd1461033b578063e985e9c51461034e578063f1bc66731461036157600080fd5b8063b82c3569146102fa578063b88d4fde1461030d578063b99c23e31461032057600080fd5b806370a08231146102a857806389b9e75f146102bb57806391d14854146102c357806395d89b41146102d6578063985e3a64146102de578063a22cb465146102e757600080fd5b806342842e0e1161013057806342842e0e1461022957806342966c681461023c57806362d402bc1461024f5780636352211e1461026f578063682ece02146102825780636f6c15dd1461029557600080fd5b806301ffc9a71461017857806306fdde03146101a0578063081812fc146101b5578063095ea7b3146101e05780631a6c41e2146101f557806323b872dd14610216575b600080fd5b61018b610186366004611c21565b610374565b60405190151581526020015b60405180910390f35b6101a8610385565b6040516101979190611c8e565b6101c86101c3366004611ca1565b610429565b6040516001600160a01b039091168152602001610197565b6101f36101ee366004611cd6565b61043e565b005b610208610203366004611dbb565b61044d565b604051908152602001610197565b6101f3610224366004611e19565b610618565b6101f3610237366004611e19565b6106a3565b6101f361024a366004611ca1565b6106c3565b61026261025d366004611ca1565b610768565b6040516101979190611e8d565b6101c861027d366004611ca1565b610838565b6101f3610290366004611eb0565b610843565b6101f36102a3366004611eea565b610982565b6102086102b6366004611f1a565b610b05565b61018b610b61565b61018b6102d1366004611f35565b610be2565b6101a8610c58565b61020860015481565b6101f36102f5366004611f58565b610c97565b61018b610308366004611ca1565b610ca2565b6101f361031b366004611f84565b610ce8565b61018b610cff565b6101f3610336366004611f1a565b610d17565b6101a8610349366004611ca1565b610e79565b61018b61035c366004612000565b610e84565b6101f361036f36600461202a565b610ed1565b600061037f82610fe8565b92915050565b60008051602061240183398151915280546060919081906103a590612071565b80601f01602080910402602001604051908101604052809291908181526020018280546103d190612071565b801561041e5780601f106103f35761010080835404028352916020019161041e565b820191906000526020600020905b81548152906001019060200180831161040157829003601f168201915b505050505091505090565b60006104348261100d565b5061037f82611045565b61044982823361107f565b5050565b600080546040805163624dd75f60e11b815290516001600160a01b03909216916391d1485491839163c49baebe916004808201926020929091908290030181865afa1580156104a0573d6000803e3d6000fd5b505050506040513d601f19601f820116820180604052508101906104c491906120a5565b336040516001600160e01b031960e085901b16815260048101929092526001600160a01b03166024820152604401602060405180830381865afa15801561050f573d6000803e3d6000fd5b505050506040513d601f19601f8201168201806040525081019061053391906120be565b6105585760405162461bcd60e51b815260040161054f906120db565b60405180910390fd5b6105648460015461108c565b600180546000908152600260205260409020805490918491839160ff199091169083600381111561059757610597611e55565b02179055506105a8600154856110f1565b805461ff0019166101001781556001547fbf8cef3e4176d20e585d4241660feac7fa0ed46be9e9ef2563203d2cef5d995490826105e23390565b876040516105f3949392919061212d565b60405180910390a1600180546106089161217f565b60018190559150505b9392505050565b6001600160a01b03821661064257604051633250574960e11b81526000600482015260240161054f565b600061064f838333611165565b9050836001600160a01b0316816001600160a01b03161461069d576040516364283d7b60e01b81526001600160a01b038086166004830152602482018490528216604482015260640161054f565b50505050565b6106be83838360405180602001604052806000815250610ce8565b505050565b806106cd8161126f565b6001600160a01b0316336001600160a01b0316146106ea826112a9565b6040516020016106fa91906121a0565b604051602081830303815290604052906107275760405162461bcd60e51b815260040161054f9190611c8e565b506107318261133c565b6040518281527f61c6643f6e835939ae6da3352c52e1b29a86e4ee6599ab73c5d9a416f75d6ed09060200160405180910390a15050565b60408051808201909152600080825260208201528160006107888261126f565b6001600160a01b0316141561079c826112a9565b6040516020016107ac91906121fa565b604051602081830303815290604052906107d95760405162461bcd60e51b815260040161054f9190611c8e565b506000838152600260205260409081902081518083019092528054829060ff16600381111561080a5761080a611e55565b600381111561081b5761081b611e55565b81529054610100900460ff16151560209091015291505b50919050565b600061037f8261100d565b81600061084f8261126f565b6001600160a01b03161415610863826112a9565b60405160200161087391906121fa565b604051602081830303815290604052906108a05760405162461bcd60e51b815260040161054f9190611c8e565b50826108ab8161126f565b6001600160a01b0316336001600160a01b0316146108c8826112a9565b6040516020016108d891906121a0565b604051602081830303815290604052906109055760405162461bcd60e51b815260040161054f9190611c8e565b50600084815260026020526040902080548490829060ff1916600183600381111561093257610932611e55565b0217905550610942856000611377565b7f0ed549f5e55ca444d100349be44584b8ad027eded8936b4b6248776ddcb93d1a858560405161097392919061224e565b60405180910390a15050505050565b6000546040805163624dd75f60e11b815290516001600160a01b03909216916391d1485491839163c49baebe916004808201926020929091908290030181865afa1580156109d4573d6000803e3d6000fd5b505050506040513d601f19601f820116820180604052508101906109f891906120a5565b336040516001600160e01b031960e085901b16815260048101929092526001600160a01b03166024820152604401602060405180830381865afa158015610a43573d6000803e3d6000fd5b505050506040513d601f19601f82011682018060405250810190610a6791906120be565b610a835760405162461bcd60e51b815260040161054f906120db565b33610a8d8361126f565b6001600160a01b031603610afb5760405162461bcd60e51b815260206004820152602f60248201527f5b446565644e46545d204f776e65722063616e6e6f742076616c69646174652060448201526e1d1a195a5c881bdddb88185cdcd95d608a1b606482015260840161054f565b6104498282611377565b60006000805160206124018339815191526001600160a01b038316610b40576040516322718ad960e21b81526000600482015260240161054f565b6001600160a01b039092166000908152600390920160205250604090205490565b600080546001600160a01b031663940e1570335b6040516001600160e01b031960e084901b1681526001600160a01b039091166004820152602401602060405180830381865afa158015610bb9573d6000803e3d6000fd5b505050506040513d601f19601f82011682018060405250810190610bdd91906120be565b905090565b60008054604051632474521560e21b8152600481018590526001600160a01b038481166024830152909116906391d1485490604401602060405180830381865afa158015610c34573d6000803e3d6000fd5b505050506040513d601f19601f8201168201806040525081019061061191906120be565b7f80bb2b638cc20bc4d0a60d66940f3ab4a00c1d7b313497ca82fb0b4ab00793018054606091600080516020612401833981519152916103a590612071565b6104493383836113d1565b600080610cae83610768565b5190506000816003811115610cc557610cc5611e55565b148061061157506002816003811115610ce057610ce0611e55565b149392505050565b610cf3848484610618565b61069d84848484611482565b600080546001600160a01b031663c395fcb333610b75565b7ff0c57e16840df040f15088dc2f81fe391c3923bec73e23a9662efc9c229c6a008054600160401b810460ff16159067ffffffffffffffff16600081158015610d5d5750825b905060008267ffffffffffffffff166001148015610d7a5750303b155b905081158015610d88575080155b15610da65760405163f92ee8a960e01b815260040160405180910390fd5b845467ffffffffffffffff191660011785558315610dd057845460ff60401b1916600160401b1785555b610dd86115ab565b610e1d604051806040016040528060078152602001661119595913919560ca1b815250604051806040016040528060048152602001631111515160e21b8152506115b5565b610e26866115c7565b600180558315610e7157845460ff60401b19168555604051600181527fc7f505b2f371ae2175ee4913f4499e1f2633a7b5936321eed1cdaeb6115181d2906020015b60405180910390a15b505050505050565b606061037f826116dd565b6001600160a01b0391821660009081527f80bb2b638cc20bc4d0a60d66940f3ab4a00c1d7b313497ca82fb0b4ab00793056020908152604080832093909416825291909152205460ff1690565b816000610edd8261126f565b6001600160a01b03161415610ef1826112a9565b604051602001610f0191906121fa565b60405160208183030381529060405290610f2e5760405162461bcd60e51b815260040161054f9190611c8e565b5082610f398161126f565b6001600160a01b0316336001600160a01b031614610f56826112a9565b604051602001610f6691906121a0565b60405160208183030381529060405290610f935760405162461bcd60e51b815260040161054f9190611c8e565b50610f9e84846110f1565b610fa9846000611377565b7ff0466cb4b529fe609c0a35fb0c8bb9a36ffb6c775a7fe7f83dec314f36bc5c918484604051610fda929190612262565b60405180910390a150505050565b60006001600160e01b03198216632483248360e11b148061037f575061037f82611812565b6000806110198361126f565b90506001600160a01b03811661037f57604051637e27328960e01b81526004810184905260240161054f565b60009081527f80bb2b638cc20bc4d0a60d66940f3ab4a00c1d7b313497ca82fb0b4ab007930460205260409020546001600160a01b031690565b6106be8383836001611862565b6001600160a01b0382166110b657604051633250574960e11b81526000600482015260240161054f565b60006110c483836000611165565b90506001600160a01b038116156106be576040516339e3563760e11b81526000600482015260240161054f565b60008281527f0542a41881ee128a365a727b282c86fa859579490b9bb45aab8503648c8e79006020819052604090912061112b83826122c1565b506040518381527ff8e1a15aba9398e019f0b49df1a4fde98ee17ae345cb5f6b5e2c27f5033e8ce7906020015b60405180910390a1505050565b6000600080516020612401833981519152816111808561126f565b90506001600160a01b0384161561119c5761119c818587611978565b6001600160a01b038116156111dc576111b9600086600080611862565b6001600160a01b0381166000908152600383016020526040902080546000190190555b6001600160a01b0386161561120d576001600160a01b03861660009081526003830160205260409020805460010190555b600085815260028301602052604080822080546001600160a01b0319166001600160a01b038a811691821790925591518893918516917fddf252ad1be2c89b69c2b068fc378daa952ba7f163c4a11628f55a4df523b3ef91a495945050505050565b60009081527f80bb2b638cc20bc4d0a60d66940f3ab4a00c1d7b313497ca82fb0b4ab007930260205260409020546001600160a01b031690565b606060006112b6836119dc565b600101905060008167ffffffffffffffff8111156112d6576112d6611d00565b6040519080825280601f01601f191660200182016040528015611300576020820181803683370190505b5090508181016020015b600019016f181899199a1a9b1b9c1cb0b131b232b360811b600a86061a8153600a850494508461130a57509392505050565b600061134b6000836000611165565b90506001600160a01b03811661044957604051637e27328960e01b81526004810183905260240161054f565b600082815260026020908152604091829020805461ff001916610100851515908102919091178255835186815292830152917f6bed93006e6710fb84e37d9194eff400299d02ba0557551cc2245c1f1d8183ce9101611158565b6000805160206124018339815191526001600160a01b03831661141257604051630b61174360e31b81526001600160a01b038416600482015260240161054f565b6001600160a01b038481166000818152600584016020908152604080832094881680845294825291829020805460ff191687151590811790915591519182527f17307eab39ab6107e8899845ad3d59bd9653f200f220920489ca2b5937696c31910160405180910390a350505050565b6001600160a01b0383163b1561069d57604051630a85bd0160e11b81526001600160a01b0384169063150b7a02906114c4903390889087908790600401612381565b6020604051808303816000875af19250505080156114ff575060408051601f3d908101601f191682019092526114fc918101906123b4565b60015b611568573d80801561152d576040519150601f19603f3d011682016040523d82523d6000602084013e611532565b606091505b50805160000361156057604051633250574960e11b81526001600160a01b038516600482015260240161054f565b805181602001fd5b6001600160e01b03198116630a85bd0160e11b146115a457604051633250574960e11b81526001600160a01b038516600482015260240161054f565b5050505050565b6115b3611ab4565b565b6115bd611ab4565b6104498282611afd565b7ff0c57e16840df040f15088dc2f81fe391c3923bec73e23a9662efc9c229c6a008054600160401b810460ff16159067ffffffffffffffff1660008115801561160d5750825b905060008267ffffffffffffffff16600114801561162a5750303b155b905081158015611638575080155b156116565760405163f92ee8a960e01b815260040160405180910390fd5b845467ffffffffffffffff19166001178555831561168057845460ff60401b1916600160401b1785555b600080546001600160a01b0319166001600160a01b0388161790558315610e7157845460ff60401b19168555604051600181527fc7f505b2f371ae2175ee4913f4499e1f2633a7b5936321eed1cdaeb6115181d290602001610e68565b60607f0542a41881ee128a365a727b282c86fa859579490b9bb45aab8503648c8e79006117098361100d565b506000838152602082905260408120805461172390612071565b80601f016020809104026020016040519081016040528092919081815260200182805461174f90612071565b801561179c5780601f106117715761010080835404028352916020019161179c565b820191906000526020600020905b81548152906001019060200180831161177f57829003601f168201915b5050505050905060006117ba60408051602081019091526000815290565b905080516000036117cd57509392505050565b8151156118005780826040516020016117e79291906123d1565b6040516020818303038152906040529350505050919050565b61180985611b2e565b95945050505050565b60006001600160e01b031982166380ac58cd60e01b148061184357506001600160e01b03198216635b5e139f60e01b145b8061037f57506301ffc9a760e01b6001600160e01b031983161461037f565b600080516020612401833981519152818061188557506001600160a01b03831615155b156119475760006118958561100d565b90506001600160a01b038416158015906118c15750836001600160a01b0316816001600160a01b031614155b80156118d457506118d28185610e84565b155b156118fd5760405163a9fbf51f60e01b81526001600160a01b038516600482015260240161054f565b82156119455784866001600160a01b0316826001600160a01b03167f8c5be1e5ebec7d5bd14f71427d1e84f3dd0314c0f7b2291e5b200ac8c7c3b92560405160405180910390a45b505b600093845260040160205250506040902080546001600160a01b0319166001600160a01b0392909216919091179055565b611983838383611ba2565b6106be576001600160a01b0383166119b157604051637e27328960e01b81526004810182905260240161054f565b60405163177e802f60e01b81526001600160a01b03831660048201526024810182905260440161054f565b60008072184f03e93ff9f4daa797ed6e38ed64bf6a1f0160401b8310611a1b5772184f03e93ff9f4daa797ed6e38ed64bf6a1f0160401b830492506040015b6d04ee2d6d415b85acef81000000008310611a47576d04ee2d6d415b85acef8100000000830492506020015b662386f26fc100008310611a6557662386f26fc10000830492506010015b6305f5e1008310611a7d576305f5e100830492506008015b6127108310611a9157612710830492506004015b60648310611aa3576064830492506002015b600a831061037f5760010192915050565b7ff0c57e16840df040f15088dc2f81fe391c3923bec73e23a9662efc9c229c6a0054600160401b900460ff166115b357604051631afcd79f60e31b815260040160405180910390fd5b611b05611ab4565b60008051602061240183398151915280611b1f84826122c1565b506001810161069d83826122c1565b6060611b398261100d565b506000611b5160408051602081019091526000815290565b90506000815111611b715760405180602001604052806000815250610611565b80611b7b846112a9565b604051602001611b8c9291906123d1565b6040516020818303038152906040529392505050565b60006001600160a01b03831615801590611c005750826001600160a01b0316846001600160a01b03161480611bdc5750611bdc8484610e84565b80611c005750826001600160a01b0316611bf583611045565b6001600160a01b0316145b949350505050565b6001600160e01b031981168114611c1e57600080fd5b50565b600060208284031215611c3357600080fd5b813561061181611c08565b60005b83811015611c59578181015183820152602001611c41565b50506000910152565b60008151808452611c7a816020860160208601611c3e565b601f01601f19169290920160200192915050565b6020815260006106116020830184611c62565b600060208284031215611cb357600080fd5b5035919050565b80356001600160a01b0381168114611cd157600080fd5b919050565b60008060408385031215611ce957600080fd5b611cf283611cba565b946020939093013593505050565b634e487b7160e01b600052604160045260246000fd5b600067ffffffffffffffff80841115611d3157611d31611d00565b604051601f8501601f19908116603f01168101908282118183101715611d5957611d59611d00565b81604052809350858152868686011115611d7257600080fd5b858560208301376000602087830101525050509392505050565b600082601f830112611d9d57600080fd5b61061183833560208501611d16565b803560048110611cd157600080fd5b600080600060608486031215611dd057600080fd5b611dd984611cba565b9250602084013567ffffffffffffffff811115611df557600080fd5b611e0186828701611d8c565b925050611e1060408501611dac565b90509250925092565b600080600060608486031215611e2e57600080fd5b611e3784611cba565b9250611e4560208501611cba565b9150604084013590509250925092565b634e487b7160e01b600052602160045260246000fd5b60048110611e8957634e487b7160e01b600052602160045260246000fd5b9052565b6000604082019050611ea0828451611e6b565b6020928301511515919092015290565b60008060408385031215611ec357600080fd5b82359150611ed360208401611dac565b90509250929050565b8015158114611c1e57600080fd5b60008060408385031215611efd57600080fd5b823591506020830135611f0f81611edc565b809150509250929050565b600060208284031215611f2c57600080fd5b61061182611cba565b60008060408385031215611f4857600080fd5b82359150611ed360208401611cba565b60008060408385031215611f6b57600080fd5b611f7483611cba565b91506020830135611f0f81611edc565b60008060008060808587031215611f9a57600080fd5b611fa385611cba565b9350611fb160208601611cba565b925060408501359150606085013567ffffffffffffffff811115611fd457600080fd5b8501601f81018713611fe557600080fd5b611ff487823560208401611d16565b91505092959194509250565b6000806040838503121561201357600080fd5b61201c83611cba565b9150611ed360208401611cba565b6000806040838503121561203d57600080fd5b82359150602083013567ffffffffffffffff81111561205b57600080fd5b61206785828601611d8c565b9150509250929050565b600181811c9082168061208557607f821691505b60208210810361083257634e487b7160e01b600052602260045260246000fd5b6000602082840312156120b757600080fd5b5051919050565b6000602082840312156120d057600080fd5b815161061181611edc565b60208082526032908201527f5b4163636573734d616e6167656d656e745d204f6e6c79207468652076616c6960408201527119185d1bdc8818d85b881a5b9d195c9858dd60721b606082015260800190565b848152600084546121446020840160ff8316611e6b565b60081c60ff16151560408301526001600160a01b038416606083015260a06080830181905261217590830184611c62565b9695505050505050565b8082018082111561037f57634e487b7160e01b600052601160045260246000fd5b7f5b446565644e46545d204d757374206265206f776e6572206f6620746865204481526b032b2b2103bb4ba341034b2160a51b6020820152600082516121ed81602c850160208701611c3e565b91909101602c0192915050565b7f5b446565644e46545d204465656420646f6573206e6f7420657869737420776981526503a341034b2160d51b602082015260008251612241816026850160208701611c3e565b9190910160260192915050565b828152604081016106116020830184611e6b565b828152604060208201526000611c006040830184611c62565b601f8211156106be57600081815260208120601f850160051c810160208610156122a25750805b601f850160051c820191505b81811015610e71578281556001016122ae565b815167ffffffffffffffff8111156122db576122db611d00565b6122ef816122e98454612071565b8461227b565b602080601f831160018114612324576000841561230c5750858301515b600019600386901b1c1916600185901b178555610e71565b600085815260208120601f198616915b8281101561235357888601518255948401946001909101908401612334565b50858210156123715787850151600019600388901b60f8161c191681555b5050505050600190811b01905550565b6001600160a01b038581168252841660208201526040810183905260806060820181905260009061217590830184611c62565b6000602082840312156123c657600080fd5b815161061181611c08565b600083516123e3818460208801611c3e565b8351908301906123f7818360208801611c3e565b0194935050505056fe80bb2b638cc20bc4d0a60d66940f3ab4a00c1d7b313497ca82fb0b4ab0079300a264697066735822122064387d6be5bbb1ff4445f08778e1e35a1d4672d3afd1768c172d48c4f89188b164736f6c63430008140033"
}