{
  "address": "0x5F544cbeE8Fdb8de7730A1352136a700080D1828",
  "abi": [
    {
      "inputs": [
        {
          "internalType": "address",
          "name": "_leaseNFT",
          "type": "address"
        },
        {
          "internalType": "address",
          "name": "_paymentToken",
          "type": "address"
        },
        {
          "internalType": "address",
          "name": "_deedNFT",
          "type": "address"
        },
        {
          "internalType": "address",
          "name": "_subdivisionNFT",
          "type": "address"
        },
        {
          "internalType": "address",
          "name": "_fundsManager",
          "type": "address"
        },
        {
          "internalType": "address",
          "name": "_accessManager",
          "type": "address"
        }
      ],
      "stateMutability": "nonpayable",
      "type": "constructor"
    },
    {
      "inputs": [],
      "name": "ReentrancyGuardReentrantCall",
      "type": "error"
    },
    {
      "anonymous": false,
      "inputs": [
        {
          "indexed": false,
          "internalType": "uint256",
          "name": "leaseId",
          "type": "uint256"
        },
        {
          "components": [
            {
              "internalType": "address[]",
              "name": "lesseeList",
              "type": "address[]"
            },
            {
              "internalType": "uint256",
              "name": "rentAmount",
              "type": "uint256"
            },
            {
              "components": [
                {
                  "internalType": "uint256",
                  "name": "amount",
                  "type": "uint256"
                },
                {
                  "internalType": "bool",
                  "name": "paid",
                  "type": "bool"
                }
              ],
              "internalType": "struct LeaseAgreement.Deposit",
              "name": "securityDeposit",
              "type": "tuple"
            },
            {
              "internalType": "uint256",
              "name": "latePaymentFee",
              "type": "uint256"
            },
            {
              "internalType": "uint32",
              "name": "gracePeriod",
              "type": "uint32"
            },
            {
              "components": [
                {
                  "internalType": "uint256",
                  "name": "startDate",
                  "type": "uint256"
                },
                {
                  "internalType": "uint256",
                  "name": "endDate",
                  "type": "uint256"
                },
                {
                  "internalType": "uint256",
                  "name": "rentDueDate",
                  "type": "uint256"
                },
                {
                  "internalType": "uint256",
                  "name": "distributableDate",
                  "type": "uint256"
                }
              ],
              "internalType": "struct LeaseAgreement.LeaseDates",
              "name": "dates",
              "type": "tuple"
            },
            {
              "internalType": "uint256",
              "name": "extensionCount",
              "type": "uint256"
            },
            {
              "internalType": "uint256",
              "name": "deedId",
              "type": "uint256"
            },
            {
              "internalType": "address",
              "name": "manager",
              "type": "address"
            },
            {
              "internalType": "uint8",
              "name": "managerPercentage",
              "type": "uint8"
            },
            {
              "internalType": "uint256",
              "name": "unclaimedRentAmount",
              "type": "uint256"
            },
            {
              "internalType": "bool",
              "name": "isArchived",
              "type": "bool"
            }
          ],
          "indexed": false,
          "internalType": "struct LeaseAgreement.Lease",
          "name": "lease",
          "type": "tuple"
        }
      ],
      "name": "LeaseCreated",
      "type": "event"
    },
    {
      "anonymous": false,
      "inputs": [
        {
          "indexed": false,
          "internalType": "uint256",
          "name": "leaseId",
          "type": "uint256"
        },
        {
          "indexed": false,
          "internalType": "uint256",
          "name": "amount",
          "type": "uint256"
        }
      ],
      "name": "LeaseDepositSubmited",
      "type": "event"
    },
    {
      "anonymous": false,
      "inputs": [
        {
          "indexed": false,
          "internalType": "uint256",
          "name": "leaseId",
          "type": "uint256"
        },
        {
          "indexed": false,
          "internalType": "uint256",
          "name": "newDueDate",
          "type": "uint256"
        }
      ],
      "name": "LeaseDueDateChanged",
      "type": "event"
    },
    {
      "anonymous": false,
      "inputs": [
        {
          "indexed": false,
          "internalType": "uint256",
          "name": "leaseId",
          "type": "uint256"
        },
        {
          "indexed": false,
          "internalType": "uint256",
          "name": "endDate",
          "type": "uint256"
        },
        {
          "indexed": false,
          "internalType": "uint256",
          "name": "rentAmount",
          "type": "uint256"
        },
        {
          "indexed": false,
          "internalType": "uint256",
          "name": "extensionCount",
          "type": "uint256"
        }
      ],
      "name": "LeaseExtended",
      "type": "event"
    },
    {
      "anonymous": false,
      "inputs": [
        {
          "indexed": false,
          "internalType": "address",
          "name": "fundsManager",
          "type": "address"
        }
      ],
      "name": "LeaseFundsManagerSet",
      "type": "event"
    },
    {
      "anonymous": false,
      "inputs": [
        {
          "indexed": false,
          "internalType": "uint256",
          "name": "leaseId",
          "type": "uint256"
        },
        {
          "indexed": false,
          "internalType": "address",
          "name": "manager",
          "type": "address"
        },
        {
          "indexed": false,
          "internalType": "uint256",
          "name": "percentage",
          "type": "uint256"
        }
      ],
      "name": "LeaseManagerSet",
      "type": "event"
    },
    {
      "anonymous": false,
      "inputs": [
        {
          "indexed": false,
          "internalType": "uint256",
          "name": "leaseId",
          "type": "uint256"
        }
      ],
      "name": "LeaseManagerUnset",
      "type": "event"
    },
    {
      "anonymous": false,
      "inputs": [
        {
          "indexed": false,
          "internalType": "uint256",
          "name": "leaseId",
          "type": "uint256"
        },
        {
          "indexed": false,
          "internalType": "uint256",
          "name": "amount",
          "type": "uint256"
        },
        {
          "indexed": false,
          "internalType": "uint256",
          "name": "unclaimedRentAmount",
          "type": "uint256"
        }
      ],
      "name": "LeasePaymentMade",
      "type": "event"
    },
    {
      "anonymous": false,
      "inputs": [
        {
          "indexed": false,
          "internalType": "address",
          "name": "paymentToken",
          "type": "address"
        }
      ],
      "name": "LeasePaymentTokenSet",
      "type": "event"
    },
    {
      "anonymous": false,
      "inputs": [
        {
          "indexed": false,
          "internalType": "uint256",
          "name": "leaseId",
          "type": "uint256"
        },
        {
          "indexed": false,
          "internalType": "uint256",
          "name": "lessorAmount",
          "type": "uint256"
        },
        {
          "indexed": false,
          "internalType": "uint256",
          "name": "managerAmount",
          "type": "uint256"
        },
        {
          "indexed": false,
          "internalType": "uint256",
          "name": "distributableDate",
          "type": "uint256"
        }
      ],
      "name": "LeaseRentDistributed",
      "type": "event"
    },
    {
      "anonymous": false,
      "inputs": [
        {
          "indexed": false,
          "internalType": "uint256",
          "name": "leaseId",
          "type": "uint256"
        }
      ],
      "name": "LeaseTerminated",
      "type": "event"
    },
    {
      "inputs": [
        {
          "internalType": "uint256",
          "name": "_leaseId",
          "type": "uint256"
        }
      ],
      "name": "burnLease",
      "outputs": [],
      "stateMutability": "nonpayable",
      "type": "function"
    },
    {
      "inputs": [
        {
          "internalType": "uint256",
          "name": "_leaseId",
          "type": "uint256"
        }
      ],
      "name": "calculateRentPaymentInfo",
      "outputs": [
        {
          "components": [
            {
              "internalType": "uint256",
              "name": "rentAmount",
              "type": "uint256"
            },
            {
              "internalType": "uint256",
              "name": "totalBalance",
              "type": "uint256"
            },
            {
              "internalType": "uint32",
              "name": "unpaidMonths",
              "type": "uint32"
            },
            {
              "internalType": "uint256",
              "name": "rentDueDate",
              "type": "uint256"
            }
          ],
          "internalType": "struct LeaseAgreement.RentPaymentInfo",
          "name": "rentInfo",
          "type": "tuple"
        }
      ],
      "stateMutability": "view",
      "type": "function"
    },
    {
      "inputs": [
        {
          "internalType": "address[]",
          "name": "_lesseeList",
          "type": "address[]"
        },
        {
          "internalType": "uint256",
          "name": "_startDate",
          "type": "uint256"
        },
        {
          "internalType": "uint256",
          "name": "_endDate",
          "type": "uint256"
        },
        {
          "internalType": "uint256",
          "name": "_rentAmount",
          "type": "uint256"
        },
        {
          "internalType": "uint256",
          "name": "_securityDepositAmount",
          "type": "uint256"
        },
        {
          "internalType": "uint256",
          "name": "_deedId",
          "type": "uint256"
        },
        {
          "internalType": "uint256",
          "name": "_latePaymentFee",
          "type": "uint256"
        },
        {
          "internalType": "uint32",
          "name": "_gracePeriod",
          "type": "uint32"
        }
      ],
      "name": "createLease",
      "outputs": [],
      "stateMutability": "nonpayable",
      "type": "function"
    },
    {
      "inputs": [],
      "name": "deedNFT",
      "outputs": [
        {
          "internalType": "contract DeedNFT",
          "name": "",
          "type": "address"
        }
      ],
      "stateMutability": "view",
      "type": "function"
    },
    {
      "inputs": [
        {
          "internalType": "uint256",
          "name": "_leaseId",
          "type": "uint256"
        }
      ],
      "name": "distributeRent",
      "outputs": [],
      "stateMutability": "nonpayable",
      "type": "function"
    },
    {
      "inputs": [
        {
          "internalType": "uint256",
          "name": "_leaseId",
          "type": "uint256"
        },
        {
          "internalType": "uint256",
          "name": "_extensionPeriod",
          "type": "uint256"
        }
      ],
      "name": "extendLease",
      "outputs": [],
      "stateMutability": "nonpayable",
      "type": "function"
    },
    {
      "inputs": [],
      "name": "fundsManager",
      "outputs": [
        {
          "internalType": "contract FundsManager",
          "name": "",
          "type": "address"
        }
      ],
      "stateMutability": "view",
      "type": "function"
    },
    {
      "inputs": [
        {
          "internalType": "uint256",
          "name": "_leaseId",
          "type": "uint256"
        }
      ],
      "name": "getLesseeList",
      "outputs": [
        {
          "internalType": "address[]",
          "name": "",
          "type": "address[]"
        }
      ],
      "stateMutability": "view",
      "type": "function"
    },
    {
      "inputs": [],
      "name": "hasAdminRole",
      "outputs": [
        {
          "internalType": "bool",
          "name": "",
          "type": "bool"
        }
      ],
      "stateMutability": "view",
      "type": "function"
    },
    {
      "inputs": [
        {
          "internalType": "bytes32",
          "name": "_role",
          "type": "bytes32"
        },
        {
          "internalType": "address",
          "name": "_address",
          "type": "address"
        }
      ],
      "name": "hasRole",
      "outputs": [
        {
          "internalType": "bool",
          "name": "",
          "type": "bool"
        }
      ],
      "stateMutability": "view",
      "type": "function"
    },
    {
      "inputs": [],
      "name": "hasValidatorRole",
      "outputs": [
        {
          "internalType": "bool",
          "name": "",
          "type": "bool"
        }
      ],
      "stateMutability": "view",
      "type": "function"
    },
    {
      "inputs": [],
      "name": "leaseCounter",
      "outputs": [
        {
          "internalType": "uint256",
          "name": "",
          "type": "uint256"
        }
      ],
      "stateMutability": "view",
      "type": "function"
    },
    {
      "inputs": [],
      "name": "leaseNFT",
      "outputs": [
        {
          "internalType": "contract LeaseNFT",
          "name": "",
          "type": "address"
        }
      ],
      "stateMutability": "view",
      "type": "function"
    },
    {
      "inputs": [
        {
          "internalType": "uint256",
          "name": "",
          "type": "uint256"
        }
      ],
      "name": "leases",
      "outputs": [
        {
          "internalType": "uint256",
          "name": "rentAmount",
          "type": "uint256"
        },
        {
          "components": [
            {
              "internalType": "uint256",
              "name": "amount",
              "type": "uint256"
            },
            {
              "internalType": "bool",
              "name": "paid",
              "type": "bool"
            }
          ],
          "internalType": "struct LeaseAgreement.Deposit",
          "name": "securityDeposit",
          "type": "tuple"
        },
        {
          "internalType": "uint256",
          "name": "latePaymentFee",
          "type": "uint256"
        },
        {
          "internalType": "uint32",
          "name": "gracePeriod",
          "type": "uint32"
        },
        {
          "components": [
            {
              "internalType": "uint256",
              "name": "startDate",
              "type": "uint256"
            },
            {
              "internalType": "uint256",
              "name": "endDate",
              "type": "uint256"
            },
            {
              "internalType": "uint256",
              "name": "rentDueDate",
              "type": "uint256"
            },
            {
              "internalType": "uint256",
              "name": "distributableDate",
              "type": "uint256"
            }
          ],
          "internalType": "struct LeaseAgreement.LeaseDates",
          "name": "dates",
          "type": "tuple"
        },
        {
          "internalType": "uint256",
          "name": "extensionCount",
          "type": "uint256"
        },
        {
          "internalType": "uint256",
          "name": "deedId",
          "type": "uint256"
        },
        {
          "internalType": "address",
          "name": "manager",
          "type": "address"
        },
        {
          "internalType": "uint8",
          "name": "managerPercentage",
          "type": "uint8"
        },
        {
          "internalType": "uint256",
          "name": "unclaimedRentAmount",
          "type": "uint256"
        },
        {
          "internalType": "bool",
          "name": "isArchived",
          "type": "bool"
        }
      ],
      "stateMutability": "view",
      "type": "function"
    },
    {
      "inputs": [
        {
          "internalType": "uint256",
          "name": "_leaseId",
          "type": "uint256"
        }
      ],
      "name": "payRent",
      "outputs": [],
      "stateMutability": "nonpayable",
      "type": "function"
    },
    {
      "inputs": [],
      "name": "paymentToken",
      "outputs": [
        {
          "internalType": "contract IERC20",
          "name": "",
          "type": "address"
        }
      ],
      "stateMutability": "view",
      "type": "function"
    },
    {
      "inputs": [
        {
          "internalType": "uint256",
          "name": "_leaseId",
          "type": "uint256"
        },
        {
          "internalType": "uint256",
          "name": "_newDueDate",
          "type": "uint256"
        }
      ],
      "name": "setDueDate",
      "outputs": [],
      "stateMutability": "nonpayable",
      "type": "function"
    },
    {
      "inputs": [
        {
          "internalType": "address",
          "name": "_fundsManager",
          "type": "address"
        }
      ],
      "name": "setFundsManager",
      "outputs": [],
      "stateMutability": "nonpayable",
      "type": "function"
    },
    {
      "inputs": [
        {
          "internalType": "uint256",
          "name": "_leaseId",
          "type": "uint256"
        },
        {
          "internalType": "address",
          "name": "_manager",
          "type": "address"
        },
        {
          "internalType": "uint8",
          "name": "_percentage",
          "type": "uint8"
        }
      ],
      "name": "setManager",
      "outputs": [],
      "stateMutability": "nonpayable",
      "type": "function"
    },
    {
      "inputs": [
        {
          "internalType": "address",
          "name": "_paymentToken",
          "type": "address"
        }
      ],
      "name": "setPaymentToken",
      "outputs": [],
      "stateMutability": "nonpayable",
      "type": "function"
    },
    {
      "inputs": [],
      "name": "subdivisionNFT",
      "outputs": [
        {
          "internalType": "contract SubdivisionNFT",
          "name": "",
          "type": "address"
        }
      ],
      "stateMutability": "view",
      "type": "function"
    },
    {
      "inputs": [
        {
          "internalType": "uint256",
          "name": "_leaseId",
          "type": "uint256"
        }
      ],
      "name": "submitDeposit",
      "outputs": [],
      "stateMutability": "nonpayable",
      "type": "function"
    },
    {
      "inputs": [
        {
          "internalType": "uint256",
          "name": "_leaseId",
          "type": "uint256"
        }
      ],
      "name": "terminateLease",
      "outputs": [],
      "stateMutability": "nonpayable",
      "type": "function"
    },
    {
      "inputs": [
        {
          "internalType": "uint256",
          "name": "_leaseId",
          "type": "uint256"
        },
        {
          "internalType": "address[]",
          "name": "_newLesseeList",
          "type": "address[]"
        }
      ],
      "name": "transferLease",
      "outputs": [],
      "stateMutability": "nonpayable",
      "type": "function"
    },
    {
      "inputs": [
        {
          "internalType": "uint256",
          "name": "_leaseId",
          "type": "uint256"
        }
      ],
      "name": "unsetManager",
      "outputs": [],
      "stateMutability": "nonpayable",
      "type": "function"
    },
    {
      "inputs": [
        {
          "internalType": "uint256",
          "name": "_leaseId",
          "type": "uint256"
        }
      ],
      "name": "withdrawDeposit",
      "outputs": [],
      "stateMutability": "nonpayable",
      "type": "function"
    }
  ],
  "transactionHash": "0xbe6f23875372f5348c68000c7260c70509a417bc612a57acc0c10647ba565ad1",
  "args": [
    "0xCC82d565D99a238e97D85f18ed55A0671aBE2981",
    "0x2d467a24095B262787f58ce97d9B130ce7232B57",
    "0xF462BcA1e685337feAA4Cd6C3710c7fc535DAAF3",
    "0xb53cf6D852722b8c59330B0167AEbCD30763f6Ea",
    "0x51D2F339404E431831315Cb3A52533370032F954",
    "0xCD4e41B590F3052F9420D69842FCe4ce4E83a797"
  ],
  "numDeployments": 1,
  "solcInputHash": "9a595a16aee481b19c9cc69826d97edc",
  "bytecode": "0x60806040523480156200001157600080fd5b506040516200314a3803806200314a8339810160408190526200003491620002fe565b6001600081905580546001600160a01b0319166001600160a01b03838116919091179091558616620000c05760405162461bcd60e51b815260206004820152602a60248201527f5b4c656173652041677265656d656e745d20496e76616c6964204c656173654e6044820152694654206164647265737360b01b60648201526084015b60405180910390fd5b6001600160a01b038516620001285760405162461bcd60e51b815260206004820152602760248201527f5b4c656173652041677265656d656e745d20496e76616c696420746f6b656e206044820152666164647265737360c81b6064820152608401620000b7565b6001600160a01b038416620001925760405162461bcd60e51b815260206004820152602960248201527f5b4c656173652041677265656d656e745d20496e76616c696420446565644e4660448201526854206164647265737360b81b6064820152608401620000b7565b6001600160a01b038316620002035760405162461bcd60e51b815260206004820152603060248201527f5b4c656173652041677265656d656e745d20496e76616c69642053756264697660448201526f6973696f6e4e4654206164647265737360801b6064820152608401620000b7565b600480546001600160a01b038881166001600160a01b03199283161790925560068054878416908316179055600780548684169083161790556005805492881692909116821790556040519081527ff316d79ea0865efd761a7a55594999c1d875d637946382fe22c8054d0fd767389060200160405180910390a1600880546001600160a01b0319166001600160a01b0384169081179091556040519081527fb0c676f9d7afa1a44d28b367dc30782ead78d7f8679914a2ba86d8565e6ba4d19060200160405180910390a150506000600355506200037f92505050565b80516001600160a01b0381168114620002f957600080fd5b919050565b60008060008060008060c087890312156200031857600080fd5b6200032387620002e1565b95506200033360208801620002e1565b94506200034360408801620002e1565b93506200035360608801620002e1565b92506200036360808801620002e1565b91506200037360a08801620002e1565b90509295509295509295565b612dbb806200038f6000396000f3fe608060405234801561001057600080fd5b506004361061018e5760003560e01c80637cf9f990116100de5780639e80977011610097578063b99c23e311610071578063b99c23e31461046d578063c7f01cac14610475578063d9e8843f14610488578063dbeb20121461049b57600080fd5b80639e809770146103fb578063ac0c3a931461040e578063b1a9cb1f1461042157600080fd5b80637cf9f990146102ba578063806d4a72146102cd5780638927a106146102e057806389b9e75f146103bd57806391d14854146103d557806399c7e2e8146103e857600080fd5b8063326a4eff1161014b578063588e00a511610125578063588e00a51461026e5780635e53e4fc146102815780636a326ab11461029457806376a57da9146102a757600080fd5b8063326a4eff1461023557806333289a46146102485780633c29ce321461025b57600080fd5b806304368923146101935780630d116652146101af5780630e931f9f146101da578063115511e9146101fa5780632eb9f7881461020f5780633013ce2914610222575b600080fd5b61019c60035481565b6040519081526020015b60405180910390f35b6008546101c2906001600160a01b031681565b6040516001600160a01b0390911681526020016101a6565b6101ed6101e8366004612679565b6104ae565b6040516101a69190612692565b61020d6102083660046127bc565b61051f565b005b61020d61021d366004612803565b6105f1565b6005546101c2906001600160a01b031681565b61020d610243366004612825565b61078e565b61020d610256366004612679565b61091e565b61020d610269366004612679565b610b44565b61020d61027c366004612679565b610fff565b6007546101c2906001600160a01b031681565b61020d6102a236600461286d565b611276565b6004546101c2906001600160a01b031681565b61020d6102c8366004612679565b611379565b61020d6102db366004612803565b6114ed565b6103a66102ee366004612679565b600260208181526000928352604092839020600181015484518086018652938201548452600382015460ff9081161515858501526004830154600584015487516080810189526006860154815260078601549681019690965260088501549786019790975260098401546060860152600a840154600b850154600c860154600d870154600e909701549599939763ffffffff909416969395929491936001600160a01b03821693600160a01b9092048316929091168b565b6040516101a69b9a99989796959493929190612891565b6103c5611779565b60405190151581526020016101a6565b6103c56103e336600461293c565b6117fc565b61020d6103f636600461286d565b61187c565b61020d61040936600461296c565b61194d565b61020d61041c366004612679565b611c78565b61043461042f366004612679565b611e13565b6040516101a69190815181526020808301519082015260408083015163ffffffff16908201526060918201519181019190915260800190565b6103c5611f28565b6006546101c2906001600160a01b031681565b61020d610496366004612679565b611f42565b61020d6104a9366004612679565b612280565b6000818152600260209081526040918290208054835181840281018401909452808452606093919283919083018282801561051257602002820191906000526020600020905b81546001600160a01b031681526001909101906020018083116104f4575b5050505050915050919050565b600480546040516331a9108f60e11b815291820184905283916001600160a01b0390911690636352211e90602401602060405180830381865afa15801561056a573d6000803e3d6000fd5b505050506040513d601f19601f8201168201806040525081019061058e9190612a01565b6001600160a01b0316336001600160a01b0316146105c75760405162461bcd60e51b81526004016105be90612a1e565b60405180910390fd5b6000838152600260209081526040909120835190916105ea9183918601906125ff565b5050505050565b600480546040516331a9108f60e11b815291820184905283916001600160a01b0390911690636352211e90602401602060405180830381865afa15801561063c573d6000803e3d6000fd5b505050506040513d601f19601f820116820180604052508101906106609190612a01565b6001600160a01b0316336001600160a01b0316146106905760405162461bcd60e51b81526004016105be90612a1e565b60008381526002602052604090206106ac622835c06001612a7b565b60088201546106bb9190612a92565b8310156107475760405162461bcd60e51b815260206004820152604e60248201527f5b4c656173652041677265656d656e745d204e65772072656e7420647565206460448201527f617465206d757374206265206174206c656173742061206d6f6e74682061667460648201526d65722063757272656e74206f6e6560901b608482015260a4016105be565b6008810183905560408051858152602081018590527f73cbadd90979700c98b0b0afcdb764c8e7f9ef93fed005c4c56b518cadf16c5e91015b60405180910390a150505050565b600480546040516331a9108f60e11b815291820185905284916001600160a01b0390911690636352211e90602401602060405180830381865afa1580156107d9573d6000803e3d6000fd5b505050506040513d601f19601f820116820180604052508101906107fd9190612a01565b6001600160a01b0316336001600160a01b03161461082d5760405162461bcd60e51b81526004016105be90612a1e565b600084815260026020526040902060648360ff1611156108a45760405162461bcd60e51b815260206004820152602c60248201527f5b4c656173652041677265656d656e745d20496e76616c6964204d616e61676560448201526b722070657263656e7461676560a01b60648201526084016105be565b600c810180546001600160a01b0386166001600160a81b03199091168117600160a01b60ff8716908102919091179092556040805188815260208101929092528101919091527fa420ecd2d752d1dc944f88752a923fa27a28d142c4d7f32f8ea95355ca3f03f99060600160405180910390a15050505050565b6109266124a9565b6000818152600260205260409020600e81015460ff168061094a5750600781015442115b6109bc5760405162461bcd60e51b815260206004820152603f60248201527f5b4c656173652041677265656d656e745d2043616e6e6f74207769746864726160448201527f77206465706f736974206966204c65617365207374696c6c206163746976650060648201526084016105be565b610a2881600001805480602002602001604051908101604052809291908181526020018280548015610a1757602002820191906000526020600020905b81546001600160a01b031681526001909101906020018083116109f9575b5050505050610a233390565b6124d3565b610a905760405162461bcd60e51b815260206004820152603360248201527f5b4c656173652041677265656d656e745d2043616c6c6572206d757374206265604482015272206f6e65206f6620746865206c65737365657360681b60648201526084016105be565b6000610a9b83611e13565b905060006003826040015163ffffffff161015905080610b27576008546005546002850154604051635f0f48bd60e01b81526001600160a01b0393841693635f0f48bd93610af4938a9392909116913390600401612aa5565b600060405180830381600087803b158015610b0e57600080fd5b505af1158015610b22573d6000803e3d6000fd5b505050505b5050600e01805460ff19166001179055610b416001600055565b50565b610b4c6124a9565b600081815260026020526040908190206004805492516331a9108f60e11b815290810184905290916001600160a01b031690636352211e90602401602060405180830381865afa158015610ba4573d6000803e3d6000fd5b505050506040513d601f19601f82011682018060405250810190610bc89190612a01565b6001600160a01b0316336001600160a01b03161480610bfc5750600c8101546001600160a01b0316336001600160a01b0316145b610c6e5760405162461bcd60e51b815260206004820152603a60248201527f5b4c656173652041677265656d656e745d2043616c6c6572206d75737420626560448201527f20746865204c6573736f72206f7220746865204d616e6167657200000000000060648201526084016105be565b600081600d015411610cd25760405162461bcd60e51b815260206004820152602760248201527f5b4c656173652041677265656d656e745d204e6f2072656e7420746f206469736044820152667472696275746560c81b60648201526084016105be565b60098101546000904211610d615760405162461bcd60e51b815260206004820152604a60248201527f5b4c656173652041677265656d656e745d2052656e742063616e206f6e6c792060448201527f62652064697374726962757465642070617374207468652064697374726962756064820152697461626c65206461746560b01b608482015260a4016105be565b610d6f622835c06001612a7b565b6009830154610d7e9042612acc565b610d889190612adf565b610d93906001612a92565b600d830154600c840154919250906000906001600160a01b031615610e5c57600c840154606490610dce90600160a01b900460ff1684612a7b565b610dd89190612adf565b600854600554600c870154604051635f0f48bd60e01b8152600481018a90526001600160a01b03928316602482015263ffffffff8516604482015290821660648201529293501690635f0f48bd90608401600060405180830381600087803b158015610e4357600080fd5b505af1158015610e57573d6000803e3d6000fd5b505050505b6000610e688284612acc565b600854600554600480546040516331a9108f60e11b81529182018b90529394506001600160a01b0392831693635f0f48bd938b9381169287929190911690636352211e90602401602060405180830381865afa158015610ecc573d6000803e3d6000fd5b505050506040513d601f19601f82011682018060405250810190610ef09190612a01565b6040516001600160e01b031960e087901b16815260048101949094526001600160a01b03928316602485015263ffffffff919091166044840152166064820152608401600060405180830381600087803b158015610f4d57600080fd5b505af1158015610f61573d6000803e3d6000fd5b50506000600d88015550610f7b9050622835c06001612a7b565b610f859085612a7b565b600986018054600090610f99908490612a92565b909155505060098501546040805188815263ffffffff84811660208301528516818301526060810192909252517f1a69d265dcc92f1f5ebe48293744cff6c23a10b54757d101368e5dfcc197455a9181900360800190a15050505050610b416001600055565b6110076124a9565b600480546040516331a9108f60e11b815291820183905282916001600160a01b0390911690636352211e90602401602060405180830381865afa158015611052573d6000803e3d6000fd5b505050506040513d601f19601f820116820180604052508101906110769190612a01565b6001600160a01b0316336001600160a01b0316146110a65760405162461bcd60e51b81526004016105be90612a1e565b6000828152600260205260409020600681015442101561111c5760405162461bcd60e51b815260206004820152602b60248201527f5b4c656173652041677265656d656e745d204c6561736520686173206e6f742060448201526a1cdd185c9d1959081e595d60aa1b60648201526084016105be565b600061112784611e13565b905060006003826040015163ffffffff1610159050801561121f576008546005546002850154600480546040516331a9108f60e11b81529182018a90526001600160a01b0394851694635f0f48bd948b949082169390929190911690636352211e90602401602060405180830381865afa1580156111a9573d6000803e3d6000fd5b505050506040513d601f19601f820116820180604052508101906111cd9190612a01565b6040518563ffffffff1660e01b81526004016111ec9493929190612aa5565b600060405180830381600087803b15801561120657600080fd5b505af115801561121a573d6000803e3d6000fd5b505050505b600e8301805460ff191660011790556040517f903320d9d82a125a682f110695a1306646295d73a1f595ea334d198446086d8c906112609087815260200190565b60405180910390a150505050610b416001600055565b6001546040805163a217fddf60e01b81529051636a326ab160e01b926112f7926001600160a01b039091169163a217fddf916004808201926020929091908290030181865afa1580156112cd573d6000803e3d6000fd5b505050506040513d601f19601f820116820180604052508101906112f19190612b01565b336117fc565b80611307575061130781336117fc565b6113235760405162461bcd60e51b81526004016105be90612b1a565b600580546001600160a01b0319166001600160a01b0384169081179091556040519081527ff316d79ea0865efd761a7a55594999c1d875d637946382fe22c8054d0fd76738906020015b60405180910390a15050565b600081815260026020526040908190206004805492516331a9108f60e11b815290810184905290916001600160a01b031690636352211e90602401602060405180830381865afa1580156113d1573d6000803e3d6000fd5b505050506040513d601f19601f820116820180604052508101906113f59190612a01565b6001600160a01b0316336001600160a01b031614806114295750600c8101546001600160a01b0316336001600160a01b0316145b6114ab5760405162461bcd60e51b815260206004820152604760248201527f5b4c656173652041677265656d656e745d204f6e6c7920746865204c6573736f60448201527f72206f7220746865204d616e616765722063616e2072656d6f7665207468652060648201526626b0b730b3b2b960c91b608482015260a4016105be565b600c810180546001600160a81b03191690556040518281527fd5e25901100960f260695b30300c70d714e4f1e70dca7612394f20f0eeb68c549060200161136d565b600480546040516331a9108f60e11b815291820184905283916001600160a01b0390911690636352211e90602401602060405180830381865afa158015611538573d6000803e3d6000fd5b505050506040513d601f19601f8201168201806040525081019061155c9190612a01565b6001600160a01b0316336001600160a01b03161461158c5760405162461bcd60e51b81526004016105be90612a1e565b6000838152600260205260409020600e81015460ff16156115bf5760405162461bcd60e51b81526004016105be90612b87565b60078101546115d290623b538090612acc565b4210156116555760405162461bcd60e51b815260206004820152604560248201527f5b4c656173652041677265656d656e745d20457874656e73696f6e2063616e2060448201527f6f6e6c792062652072657175657374656420696e20746865206c617374203435606482015264206461797360d81b608482015260a4016105be565b600281600a0154106116be5760405162461bcd60e51b815260206004820152602c60248201527f5b4c656173652041677265656d656e745d204d6178696d756d20657874656e7360448201526b1a5bdb9cc81c995858da195960a21b60648201526084016105be565b828160060160010160008282546116d59190612a92565b909155505060018101546064906116ed906003612a7b565b6116f79190612adf565b81600101600082825461170a9190612a92565b9091555050600a8101805490600061172183612bd0565b909155505060078101546001820154600a83015460408051888152602081019490945283019190915260608201527f33687519bb2ab0520901057529f171472e2a36ae6179d81a50e5cc40798fe30490608001610780565b6001546000906001600160a01b031663940e1570335b6040516001600160e01b031960e084901b1681526001600160a01b039091166004820152602401602060405180830381865afa1580156117d3573d6000803e3d6000fd5b505050506040513d601f19601f820116820180604052508101906117f79190612be9565b905090565b600154604051632474521560e21b8152600481018490526001600160a01b03838116602483015260009216906391d14854906044015b602060405180830381865afa15801561184f573d6000803e3d6000fd5b505050506040513d601f19601f820116820180604052508101906118739190612be9565b90505b92915050565b6001546040805163a217fddf60e01b81529051631338fc5d60e31b926118d3926001600160a01b039091169163a217fddf916004808201926020929091908290030181865afa1580156112cd573d6000803e3d6000fd5b806118e357506118e381336117fc565b6118ff5760405162461bcd60e51b81526004016105be90612b1a565b600880546001600160a01b0319166001600160a01b0384169081179091556040519081527fb0c676f9d7afa1a44d28b367dc30782ead78d7f8679914a2ba86d8565e6ba4d19060200161136d565b8587106119b25760405162461bcd60e51b815260206004820152602d60248201527f5b4c656173652041677265656d656e745d20496e76616c69642073746172742060448201526c616e6420656e6420646174657360981b60648201526084016105be565b6119c0622835c06001612a7b565b6119ca8888612acc565b11611a485760405162461bcd60e51b815260206004820152604260248201527f5b4c656173652041677265656d656e745d20456e64206461746520616e64207360448201527f7461727420646174652073686f756c642062652031206d6f6e746820617070616064820152611c9d60f21b608482015260a4016105be565b60038163ffffffff161015611a5c57600080fd5b600f821115611a6a57600080fd5b6000611a763385612536565b90506000611a8433866125c5565b90508180611a8f5750805b611af65760405162461bcd60e51b815260206004820152603260248201527f5b4c656173652041677265656d656e745d204c6573736f72206d757374206f776044820152711b881d1a19481c1c9bdc195c9d1e4813919560721b60648201526084016105be565b600380549081906000611b0883612bd0565b909155505060008181526002602090815260409091208c519091611b309183918f01906125ff565b50600681018b9055600781018a905560018082018a905560028201899055611b5c90622835c090612a7b565b611b66908c612a92565b60088201556000600a820155600b8101879055600381018054891560ff1991821617909155600480830188905560058301805463ffffffff191663ffffffff8916179055600e83018054909216909155546001600160a01b03166340c10f19336040516001600160e01b031960e084901b1681526001600160a01b03909116600482015260248101859052604401600060405180830381600087803b158015611c0e57600080fd5b505af1158015611c22573d6000803e3d6000fd5b50505060088201546009830155506040517fd49c0e4c8d3cc20343f7638374606b650aa572502b847d73335d9e9db4b4f6af90611c629084908490612c54565b60405180910390a1505050505050505050505050565b600081815260026020526040908190206004805492516331a9108f60e11b815290810184905290916001600160a01b031690636352211e90602401602060405180830381865afa158015611cd0573d6000803e3d6000fd5b505050506040513d601f19601f82011682018060405250810190611cf49190612a01565b6001600160a01b0316336001600160a01b03161480611d285750600c8101546001600160a01b0316336001600160a01b0316145b611d8f5760405162461bcd60e51b815260206004820152603260248201527f5b4c656173652041677265656d656e745d2053656e646572206d7573742062656044820152711036b0b730b3b2b91037b9103632b9b9b7b960711b60648201526084016105be565b600e81015460ff16611db35760405162461bcd60e51b81526004016105be90612b87565b60048054604051630852cd8d60e31b81529182018490526001600160a01b0316906342966c6890602401600060405180830381600087803b158015611df757600080fd5b505af1158015611e0b573d6000803e3d6000fd5b505050505050565b611e4460405180608001604052806000815260200160008152602001600063ffffffff168152602001600081525090565b6000828152600260205260409020600181015482526005810154611e719063ffffffff1662015180612d47565b6008820154611e869163ffffffff1690612a92565b421115611f1357606481600401548260010154611ea39190612a7b565b611ead9190612adf565b82518390611ebc908390612a92565b905250611ecd622835c06001612a7b565b6008820154611edc9042612acc565b611ee69190612adf565b611ef1906001612a92565b63ffffffff16604083018190528251611f0991612a7b565b6020830152611f22565b60016040830152815160208301525b50919050565b6001546000906001600160a01b031663c395fcb33361178f565b611f4a6124a9565b60008181526002602090815260409182902080548351818402810184019094528084529092611fba9290918491830182828015610a17576020028201919060005260206000209081546001600160a01b031681526001909101906020018083116109f9575050505050610a233390565b61201d5760405162461bcd60e51b815260206004820152602e60248201527f5b4c656173652041677265656d656e745d204f6e6c7920746865204c6573736560448201526d194818d85b881c185e481c995b9d60921b60648201526084016105be565b600381015460ff1661208f5760405162461bcd60e51b815260206004820152603560248201527f5b4c656173652041677265656d656e745d205365637572697479206465706f736044820152741a5d081b5d5cdd081899481c185a5908199a5c9cdd605a1b60648201526084016105be565b600681015442108015906120a7575060078101544211155b6121075760405162461bcd60e51b815260206004820152602b60248201527f5b4c656173652041677265656d656e745d204f757473696465206f66206c656160448201526a39b290323ab930ba34b7b760a91b60648201526084016105be565b600061211283611e13565b9050806020015182600d01600082825461212c9190612a92565b909155506121409050622835c06001612a7b565b816040015163ffffffff166121559190612a7b565b600883018054600090612169908490612a92565b90915550506008546005546020830151604051634671b0e360e01b81526001600160a01b0393841693634671b0e3936121ad93899392909116913390600401612aa5565b600060405180830381600087803b1580156121c757600080fd5b505af11580156121db573d6000803e3d6000fd5b50505060088301546040517f73cbadd90979700c98b0b0afcdb764c8e7f9ef93fed005c4c56b518cadf16c5e925061221b91868252602082015260400190565b60405180910390a16020810151600d8301546040517f3238c0c9490ceb260a0b0b63c836df59652b9d663e364c9155ee07bfea24f3f09261226c928783526020830191909152604082015260600190565b60405180910390a15050610b416001600055565b6122886124a9565b600081815260026020908152604091829020805483518184028101840190945280845290926122f89290918491830182828015610a17576020028201919060005260206000209081546001600160a01b031681526001909101906020018083116109f9575050505050610a233390565b61236a5760405162461bcd60e51b815260206004820152603860248201527f5b4c656173652041677265656d656e745d204f6e6c7920746865204c6573736560448201527f652063616e207375626d697420746865206465706f736974000000000000000060648201526084016105be565b600381015460ff16156123d75760405162461bcd60e51b815260206004820152602f60248201527f5b4c656173652041677265656d656e745d205365637572697479206465706f7360448201526e1a5d08185b1c9958591e481c185a59608a1b60648201526084016105be565b6008546005546002830154604051634671b0e360e01b81526001600160a01b0393841693634671b0e39361241693889392909116913390600401612aa5565b600060405180830381600087803b15801561243057600080fd5b505af1158015612444573d6000803e3d6000fd5b50505060038201805460ff191660011790555060028101546040517fdf8484d85a50945d4406aa408d13dbbe5b5c8e89da96e4c19cd0e855baadd8b69161249691859190918252602082015260400190565b60405180910390a150610b416001600055565b6002600054036124cc57604051633ee5aeb560e01b815260040160405180910390fd5b6002600055565b600080805b845181101561252e57836001600160a01b03168582815181106124fd576124fd612d6f565b60200260200101516001600160a01b03160361251c576001915061252e565b8061252681612bd0565b9150506124d8565b509392505050565b6006546040516331a9108f60e11b8152600481018390526000916001600160a01b031690636352211e90602401602060405180830381865afa92505050801561259c575060408051601f3d908101601f1916820190925261259991810190612a01565b60015b6125a857506000611876565b836001600160a01b0316816001600160a01b031614915050611876565b600754604051631ae3d99d60e11b81526001600160a01b0384811660048301526024820184905260009216906335c7b33a90604401611832565b828054828255906000526020600020908101928215612654579160200282015b8281111561265457825182546001600160a01b0319166001600160a01b0390911617825560209092019160019091019061261f565b50612660929150612664565b5090565b5b808211156126605760008155600101612665565b60006020828403121561268b57600080fd5b5035919050565b6020808252825182820181905260009190848201906040850190845b818110156126d35783516001600160a01b0316835292840192918401916001016126ae565b50909695505050505050565b634e487b7160e01b600052604160045260246000fd5b6001600160a01b0381168114610b4157600080fd5b8035612715816126f5565b919050565b600082601f83011261272b57600080fd5b8135602067ffffffffffffffff80831115612748576127486126df565b8260051b604051601f19603f8301168101818110848211171561276d5761276d6126df565b60405293845285810183019383810192508785111561278b57600080fd5b83870191505b848210156127b1576127a28261270a565b83529183019190830190612791565b979650505050505050565b600080604083850312156127cf57600080fd5b82359150602083013567ffffffffffffffff8111156127ed57600080fd5b6127f98582860161271a565b9150509250929050565b6000806040838503121561281657600080fd5b50508035926020909101359150565b60008060006060848603121561283a57600080fd5b83359250602084013561284c816126f5565b9150604084013560ff8116811461286257600080fd5b809150509250925092565b60006020828403121561287f57600080fd5b813561288a816126f5565b9392505050565b60006101e0820190508c82528b51602083015260208c0151151560408301528a606083015263ffffffff8a166080830152885160a0830152602089015160c0830152604089015160e08301526060890151610100830152876101208301528661014083015261290c6101608301876001600160a01b03169052565b60ff8516610180830152836101a083015261292c6101c083018415159052565b9c9b505050505050505050505050565b6000806040838503121561294f57600080fd5b823591506020830135612961816126f5565b809150509250929050565b600080600080600080600080610100898b03121561298957600080fd5b883567ffffffffffffffff8111156129a057600080fd5b6129ac8b828c0161271a565b9850506020890135965060408901359550606089013594506080890135935060a0890135925060c0890135915060e089013563ffffffff811681146129f057600080fd5b809150509295985092959890939650565b600060208284031215612a1357600080fd5b815161288a816126f5565b60208082526027908201527f5b4c656173652041677265656d656e745d2053656e646572206d757374206265604082015266102632b9b9b7b960c91b606082015260800190565b634e487b7160e01b600052601160045260246000fd5b808202811582820484141761187657611876612a65565b8082018082111561187657611876612a65565b9384526001600160a01b039283166020850152604084019190915216606082015260800190565b8181038181111561187657611876612a65565b600082612afc57634e487b7160e01b600052601260045260246000fd5b500490565b600060208284031215612b1357600080fd5b5051919050565b60208082526047908201527f5b4163636573734d616e6167656d656e745d204f6e6c79207468652041646d6960408201527f6e206f722066756e6374696f6e206772616e74656420757365722063616e20696060820152661b9d195c9858dd60ca1b608082015260a00190565b60208082526029908201527f5b4c656173652041677265656d656e745d204c6561736520686173206265656e60408201526808185c98da1a5d995960ba1b606082015260800190565b600060018201612be257612be2612a65565b5060010190565b600060208284031215612bfb57600080fd5b8151801515811461288a57600080fd5b6000815480845260208085019450836000528060002060005b83811015612c495781546001600160a01b031687529582019560019182019101612c24565b509495945050505050565b828152604060208201526000610200806040840152612c77610240840185612c0b565b6001850154606085015260028501546080850152600385015460ff16151560a0850152600485015460c0850152600585015463ffffffff1663ffffffff811660e0860152506006850154610100850152600785015461012085015260088501546101408501526009850154610160850152600a850154610180850152600b8501546101a0850152600c8501546001600160a01b0381166101c086015260a081901c60ff166101e086015250600d85015484830152600e85015460ff16801515610220860152915095945050505050565b63ffffffff818116838216028082169190828114612d6757612d67612a65565b505092915050565b634e487b7160e01b600052603260045260246000fdfea264697066735822122030bcae3055a7164c63d92d315c89812ee62015f73590226d65a5cd6ca87fbe0964736f6c63430008140033",
  "devdoc": {
    "errors": {
      "ReentrancyGuardReentrantCall()": [
        {
          "details": "Unauthorized reentrant call."
        }
      ]
    },
    "kind": "dev",
    "methods": {},
    "version": 1
  },
  "userdoc": {
    "kind": "user",
    "methods": {},
    "version": 1
  },
  "storageLayout": {
    "storage": [
      {
        "astId": 4491,
        "contract": "contracts/LeaseAgreement.sol:LeaseAgreement",
        "label": "_status",
        "offset": 0,
        "slot": "0",
        "type": "t_uint256"
      },
      {
        "astId": 6241,
        "contract": "contracts/LeaseAgreement.sol:LeaseAgreement",
        "label": "accessManager",
        "offset": 0,
        "slot": "1",
        "type": "t_contract(AccessManager)6236"
      },
      {
        "astId": 7170,
        "contract": "contracts/LeaseAgreement.sol:LeaseAgreement",
        "label": "leases",
        "offset": 0,
        "slot": "2",
        "type": "t_mapping(t_uint256,t_struct(Lease)7112_storage)"
      },
      {
        "astId": 7172,
        "contract": "contracts/LeaseAgreement.sol:LeaseAgreement",
        "label": "leaseCounter",
        "offset": 0,
        "slot": "3",
        "type": "t_uint256"
      },
      {
        "astId": 7175,
        "contract": "contracts/LeaseAgreement.sol:LeaseAgreement",
        "label": "leaseNFT",
        "offset": 0,
        "slot": "4",
        "type": "t_contract(LeaseNFT)8711"
      },
      {
        "astId": 7178,
        "contract": "contracts/LeaseAgreement.sol:LeaseAgreement",
        "label": "paymentToken",
        "offset": 0,
        "slot": "5",
        "type": "t_contract(IERC20)2372"
      },
      {
        "astId": 7181,
        "contract": "contracts/LeaseAgreement.sol:LeaseAgreement",
        "label": "deedNFT",
        "offset": 0,
        "slot": "6",
        "type": "t_contract(DeedNFT)6783"
      },
      {
        "astId": 7184,
        "contract": "contracts/LeaseAgreement.sol:LeaseAgreement",
        "label": "subdivisionNFT",
        "offset": 0,
        "slot": "7",
        "type": "t_contract(SubdivisionNFT)9067"
      },
      {
        "astId": 7187,
        "contract": "contracts/LeaseAgreement.sol:LeaseAgreement",
        "label": "fundsManager",
        "offset": 0,
        "slot": "8",
        "type": "t_contract(FundsManager)7037"
      }
    ],
    "types": {
      "t_address": {
        "encoding": "inplace",
        "label": "address",
        "numberOfBytes": "20"
      },
      "t_array(t_address)dyn_storage": {
        "base": "t_address",
        "encoding": "dynamic_array",
        "label": "address[]",
        "numberOfBytes": "32"
      },
      "t_bool": {
        "encoding": "inplace",
        "label": "bool",
        "numberOfBytes": "1"
      },
      "t_contract(AccessManager)6236": {
        "encoding": "inplace",
        "label": "contract AccessManager",
        "numberOfBytes": "20"
      },
      "t_contract(DeedNFT)6783": {
        "encoding": "inplace",
        "label": "contract DeedNFT",
        "numberOfBytes": "20"
      },
      "t_contract(FundsManager)7037": {
        "encoding": "inplace",
        "label": "contract FundsManager",
        "numberOfBytes": "20"
      },
      "t_contract(IERC20)2372": {
        "encoding": "inplace",
        "label": "contract IERC20",
        "numberOfBytes": "20"
      },
      "t_contract(LeaseNFT)8711": {
        "encoding": "inplace",
        "label": "contract LeaseNFT",
        "numberOfBytes": "20"
      },
      "t_contract(SubdivisionNFT)9067": {
        "encoding": "inplace",
        "label": "contract SubdivisionNFT",
        "numberOfBytes": "20"
      },
      "t_mapping(t_uint256,t_struct(Lease)7112_storage)": {
        "encoding": "mapping",
        "key": "t_uint256",
        "label": "mapping(uint256 => struct LeaseAgreement.Lease)",
        "numberOfBytes": "32",
        "value": "t_struct(Lease)7112_storage"
      },
      "t_struct(Deposit)7084_storage": {
        "encoding": "inplace",
        "label": "struct LeaseAgreement.Deposit",
        "members": [
          {
            "astId": 7081,
            "contract": "contracts/LeaseAgreement.sol:LeaseAgreement",
            "label": "amount",
            "offset": 0,
            "slot": "0",
            "type": "t_uint256"
          },
          {
            "astId": 7083,
            "contract": "contracts/LeaseAgreement.sol:LeaseAgreement",
            "label": "paid",
            "offset": 0,
            "slot": "1",
            "type": "t_bool"
          }
        ],
        "numberOfBytes": "64"
      },
      "t_struct(Lease)7112_storage": {
        "encoding": "inplace",
        "label": "struct LeaseAgreement.Lease",
        "members": [
          {
            "astId": 7087,
            "contract": "contracts/LeaseAgreement.sol:LeaseAgreement",
            "label": "lesseeList",
            "offset": 0,
            "slot": "0",
            "type": "t_array(t_address)dyn_storage"
          },
          {
            "astId": 7089,
            "contract": "contracts/LeaseAgreement.sol:LeaseAgreement",
            "label": "rentAmount",
            "offset": 0,
            "slot": "1",
            "type": "t_uint256"
          },
          {
            "astId": 7092,
            "contract": "contracts/LeaseAgreement.sol:LeaseAgreement",
            "label": "securityDeposit",
            "offset": 0,
            "slot": "2",
            "type": "t_struct(Deposit)7084_storage"
          },
          {
            "astId": 7094,
            "contract": "contracts/LeaseAgreement.sol:LeaseAgreement",
            "label": "latePaymentFee",
            "offset": 0,
            "slot": "4",
            "type": "t_uint256"
          },
          {
            "astId": 7096,
            "contract": "contracts/LeaseAgreement.sol:LeaseAgreement",
            "label": "gracePeriod",
            "offset": 0,
            "slot": "5",
            "type": "t_uint32"
          },
          {
            "astId": 7099,
            "contract": "contracts/LeaseAgreement.sol:LeaseAgreement",
            "label": "dates",
            "offset": 0,
            "slot": "6",
            "type": "t_struct(LeaseDates)7079_storage"
          },
          {
            "astId": 7101,
            "contract": "contracts/LeaseAgreement.sol:LeaseAgreement",
            "label": "extensionCount",
            "offset": 0,
            "slot": "10",
            "type": "t_uint256"
          },
          {
            "astId": 7103,
            "contract": "contracts/LeaseAgreement.sol:LeaseAgreement",
            "label": "deedId",
            "offset": 0,
            "slot": "11",
            "type": "t_uint256"
          },
          {
            "astId": 7105,
            "contract": "contracts/LeaseAgreement.sol:LeaseAgreement",
            "label": "manager",
            "offset": 0,
            "slot": "12",
            "type": "t_address"
          },
          {
            "astId": 7107,
            "contract": "contracts/LeaseAgreement.sol:LeaseAgreement",
            "label": "managerPercentage",
            "offset": 20,
            "slot": "12",
            "type": "t_uint8"
          },
          {
            "astId": 7109,
            "contract": "contracts/LeaseAgreement.sol:LeaseAgreement",
            "label": "unclaimedRentAmount",
            "offset": 0,
            "slot": "13",
            "type": "t_uint256"
          },
          {
            "astId": 7111,
            "contract": "contracts/LeaseAgreement.sol:LeaseAgreement",
            "label": "isArchived",
            "offset": 0,
            "slot": "14",
            "type": "t_bool"
          }
        ],
        "numberOfBytes": "480"
      },
      "t_struct(LeaseDates)7079_storage": {
        "encoding": "inplace",
        "label": "struct LeaseAgreement.LeaseDates",
        "members": [
          {
            "astId": 7072,
            "contract": "contracts/LeaseAgreement.sol:LeaseAgreement",
            "label": "startDate",
            "offset": 0,
            "slot": "0",
            "type": "t_uint256"
          },
          {
            "astId": 7074,
            "contract": "contracts/LeaseAgreement.sol:LeaseAgreement",
            "label": "endDate",
            "offset": 0,
            "slot": "1",
            "type": "t_uint256"
          },
          {
            "astId": 7076,
            "contract": "contracts/LeaseAgreement.sol:LeaseAgreement",
            "label": "rentDueDate",
            "offset": 0,
            "slot": "2",
            "type": "t_uint256"
          },
          {
            "astId": 7078,
            "contract": "contracts/LeaseAgreement.sol:LeaseAgreement",
            "label": "distributableDate",
            "offset": 0,
            "slot": "3",
            "type": "t_uint256"
          }
        ],
        "numberOfBytes": "128"
      },
      "t_uint256": {
        "encoding": "inplace",
        "label": "uint256",
        "numberOfBytes": "32"
      },
      "t_uint32": {
        "encoding": "inplace",
        "label": "uint32",
        "numberOfBytes": "4"
      },
      "t_uint8": {
        "encoding": "inplace",
        "label": "uint8",
        "numberOfBytes": "1"
      }
    }
  }
}