{
  "address": "0xD5fF48D41866a89490AE964F2000dcB6c0ca1Acd",
  "abi": [
    {
      "inputs": [
        {
          "internalType": "address",
          "name": "_deedNFT",
          "type": "address"
        },
        {
          "internalType": "address",
          "name": "_accessManager",
          "type": "address"
        }
      ],
      "stateMutability": "nonpayable",
      "type": "constructor"
    },
    {
      "inputs": [
        {
          "internalType": "address",
          "name": "sender",
          "type": "address"
        },
        {
          "internalType": "uint256",
          "name": "balance",
          "type": "uint256"
        },
        {
          "internalType": "uint256",
          "name": "needed",
          "type": "uint256"
        },
        {
          "internalType": "uint256",
          "name": "tokenId",
          "type": "uint256"
        }
      ],
      "name": "ERC1155InsufficientBalance",
      "type": "error"
    },
    {
      "inputs": [
        {
          "internalType": "address",
          "name": "approver",
          "type": "address"
        }
      ],
      "name": "ERC1155InvalidApprover",
      "type": "error"
    },
    {
      "inputs": [
        {
          "internalType": "uint256",
          "name": "idsLength",
          "type": "uint256"
        },
        {
          "internalType": "uint256",
          "name": "valuesLength",
          "type": "uint256"
        }
      ],
      "name": "ERC1155InvalidArrayLength",
      "type": "error"
    },
    {
      "inputs": [
        {
          "internalType": "address",
          "name": "operator",
          "type": "address"
        }
      ],
      "name": "ERC1155InvalidOperator",
      "type": "error"
    },
    {
      "inputs": [
        {
          "internalType": "address",
          "name": "receiver",
          "type": "address"
        }
      ],
      "name": "ERC1155InvalidReceiver",
      "type": "error"
    },
    {
      "inputs": [
        {
          "internalType": "address",
          "name": "sender",
          "type": "address"
        }
      ],
      "name": "ERC1155InvalidSender",
      "type": "error"
    },
    {
      "inputs": [
        {
          "internalType": "address",
          "name": "operator",
          "type": "address"
        },
        {
          "internalType": "address",
          "name": "owner",
          "type": "address"
        }
      ],
      "name": "ERC1155MissingApprovalForAll",
      "type": "error"
    },
    {
      "anonymous": false,
      "inputs": [
        {
          "indexed": true,
          "internalType": "address",
          "name": "account",
          "type": "address"
        },
        {
          "indexed": true,
          "internalType": "address",
          "name": "operator",
          "type": "address"
        },
        {
          "indexed": false,
          "internalType": "bool",
          "name": "approved",
          "type": "bool"
        }
      ],
      "name": "ApprovalForAll",
      "type": "event"
    },
    {
      "anonymous": false,
      "inputs": [
        {
          "indexed": false,
          "internalType": "address",
          "name": "account",
          "type": "address"
        },
        {
          "indexed": false,
          "internalType": "uint256",
          "name": "subdivisionId",
          "type": "uint256"
        },
        {
          "indexed": false,
          "internalType": "uint256",
          "name": "deedId",
          "type": "uint256"
        },
        {
          "indexed": false,
          "internalType": "bytes",
          "name": "ipfsDetailsHash",
          "type": "bytes"
        }
      ],
      "name": "SubdivisionBurned",
      "type": "event"
    },
    {
      "anonymous": false,
      "inputs": [
        {
          "indexed": false,
          "internalType": "uint256",
          "name": "tokenId",
          "type": "uint256"
        },
        {
          "components": [
            {
              "internalType": "bytes",
              "name": "ipfsDetailsHash",
              "type": "bytes"
            },
            {
              "internalType": "address",
              "name": "owner",
              "type": "address"
            },
            {
              "internalType": "uint256",
              "name": "parentDeed",
              "type": "uint256"
            }
          ],
          "indexed": false,
          "internalType": "struct SubdivisionNFT.SubdivisionInfo",
          "name": "info",
          "type": "tuple"
        }
      ],
      "name": "SubdivisionInfoSet",
      "type": "event"
    },
    {
      "anonymous": false,
      "inputs": [
        {
          "indexed": false,
          "internalType": "address",
          "name": "subdivisionOwner",
          "type": "address"
        },
        {
          "indexed": false,
          "internalType": "uint256",
          "name": "subdivisionId",
          "type": "uint256"
        },
        {
          "indexed": false,
          "internalType": "uint256",
          "name": "deedId",
          "type": "uint256"
        },
        {
          "indexed": false,
          "internalType": "bytes",
          "name": "ipfsDetailsHash",
          "type": "bytes"
        },
        {
          "indexed": false,
          "internalType": "address",
          "name": "minter",
          "type": "address"
        }
      ],
      "name": "SubdivisionMinted",
      "type": "event"
    },
    {
      "anonymous": false,
      "inputs": [
        {
          "indexed": true,
          "internalType": "address",
          "name": "operator",
          "type": "address"
        },
        {
          "indexed": true,
          "internalType": "address",
          "name": "from",
          "type": "address"
        },
        {
          "indexed": true,
          "internalType": "address",
          "name": "to",
          "type": "address"
        },
        {
          "indexed": false,
          "internalType": "uint256[]",
          "name": "ids",
          "type": "uint256[]"
        },
        {
          "indexed": false,
          "internalType": "uint256[]",
          "name": "values",
          "type": "uint256[]"
        }
      ],
      "name": "TransferBatch",
      "type": "event"
    },
    {
      "anonymous": false,
      "inputs": [
        {
          "indexed": true,
          "internalType": "address",
          "name": "operator",
          "type": "address"
        },
        {
          "indexed": true,
          "internalType": "address",
          "name": "from",
          "type": "address"
        },
        {
          "indexed": true,
          "internalType": "address",
          "name": "to",
          "type": "address"
        },
        {
          "indexed": false,
          "internalType": "uint256",
          "name": "id",
          "type": "uint256"
        },
        {
          "indexed": false,
          "internalType": "uint256",
          "name": "value",
          "type": "uint256"
        }
      ],
      "name": "TransferSingle",
      "type": "event"
    },
    {
      "anonymous": false,
      "inputs": [
        {
          "indexed": false,
          "internalType": "string",
          "name": "value",
          "type": "string"
        },
        {
          "indexed": true,
          "internalType": "uint256",
          "name": "id",
          "type": "uint256"
        }
      ],
      "name": "URI",
      "type": "event"
    },
    {
      "inputs": [],
      "name": "MINTER_ROLE",
      "outputs": [
        {
          "internalType": "bytes32",
          "name": "",
          "type": "bytes32"
        }
      ],
      "stateMutability": "view",
      "type": "function"
    },
    {
      "inputs": [
        {
          "internalType": "address",
          "name": "account",
          "type": "address"
        },
        {
          "internalType": "uint256",
          "name": "id",
          "type": "uint256"
        }
      ],
      "name": "balanceOf",
      "outputs": [
        {
          "internalType": "uint256",
          "name": "",
          "type": "uint256"
        }
      ],
      "stateMutability": "view",
      "type": "function"
    },
    {
      "inputs": [
        {
          "internalType": "address[]",
          "name": "accounts",
          "type": "address[]"
        },
        {
          "internalType": "uint256[]",
          "name": "ids",
          "type": "uint256[]"
        }
      ],
      "name": "balanceOfBatch",
      "outputs": [
        {
          "internalType": "uint256[]",
          "name": "",
          "type": "uint256[]"
        }
      ],
      "stateMutability": "view",
      "type": "function"
    },
    {
      "inputs": [
        {
          "components": [
            {
              "internalType": "bytes",
              "name": "ipfsDetailsHash",
              "type": "bytes"
            },
            {
              "internalType": "address",
              "name": "owner",
              "type": "address"
            },
            {
              "internalType": "uint256",
              "name": "parentDeed",
              "type": "uint256"
            }
          ],
          "internalType": "struct SubdivisionNFT.SubdivisionInfo[]",
          "name": "_infos",
          "type": "tuple[]"
        }
      ],
      "name": "batchMint",
      "outputs": [],
      "stateMutability": "nonpayable",
      "type": "function"
    },
    {
      "inputs": [
        {
          "internalType": "uint256",
          "name": "_subTokenId",
          "type": "uint256"
        }
      ],
      "name": "burnSubdivision",
      "outputs": [],
      "stateMutability": "nonpayable",
      "type": "function"
    },
    {
      "inputs": [],
      "name": "deedNFT",
      "outputs": [
        {
          "internalType": "contract DeedNFT",
          "name": "",
          "type": "address"
        }
      ],
      "stateMutability": "view",
      "type": "function"
    },
    {
      "inputs": [
        {
          "internalType": "uint256",
          "name": "_subTokenId",
          "type": "uint256"
        }
      ],
      "name": "getParentDeed",
      "outputs": [
        {
          "internalType": "uint256",
          "name": "",
          "type": "uint256"
        }
      ],
      "stateMutability": "view",
      "type": "function"
    },
    {
      "inputs": [],
      "name": "hasAdminRole",
      "outputs": [
        {
          "internalType": "bool",
          "name": "",
          "type": "bool"
        }
      ],
      "stateMutability": "view",
      "type": "function"
    },
    {
      "inputs": [
        {
          "internalType": "bytes32",
          "name": "_role",
          "type": "bytes32"
        },
        {
          "internalType": "address",
          "name": "_address",
          "type": "address"
        }
      ],
      "name": "hasRole",
      "outputs": [
        {
          "internalType": "bool",
          "name": "",
          "type": "bool"
        }
      ],
      "stateMutability": "view",
      "type": "function"
    },
    {
      "inputs": [],
      "name": "hasValidatorRole",
      "outputs": [
        {
          "internalType": "bool",
          "name": "",
          "type": "bool"
        }
      ],
      "stateMutability": "view",
      "type": "function"
    },
    {
      "inputs": [
        {
          "internalType": "address",
          "name": "account",
          "type": "address"
        },
        {
          "internalType": "address",
          "name": "operator",
          "type": "address"
        }
      ],
      "name": "isApprovedForAll",
      "outputs": [
        {
          "internalType": "bool",
          "name": "",
          "type": "bool"
        }
      ],
      "stateMutability": "view",
      "type": "function"
    },
    {
      "inputs": [
        {
          "internalType": "address",
          "name": "_owner",
          "type": "address"
        },
        {
          "internalType": "uint256",
          "name": "_subTokenId",
          "type": "uint256"
        }
      ],
      "name": "isOwnerOfSubdivision",
      "outputs": [
        {
          "internalType": "bool",
          "name": "",
          "type": "bool"
        }
      ],
      "stateMutability": "view",
      "type": "function"
    },
    {
      "inputs": [
        {
          "components": [
            {
              "internalType": "bytes",
              "name": "ipfsDetailsHash",
              "type": "bytes"
            },
            {
              "internalType": "address",
              "name": "owner",
              "type": "address"
            },
            {
              "internalType": "uint256",
              "name": "parentDeed",
              "type": "uint256"
            }
          ],
          "internalType": "struct SubdivisionNFT.SubdivisionInfo",
          "name": "_info",
          "type": "tuple"
        }
      ],
      "name": "mintSubdivision",
      "outputs": [],
      "stateMutability": "nonpayable",
      "type": "function"
    },
    {
      "inputs": [
        {
          "internalType": "address",
          "name": "from",
          "type": "address"
        },
        {
          "internalType": "address",
          "name": "to",
          "type": "address"
        },
        {
          "internalType": "uint256[]",
          "name": "ids",
          "type": "uint256[]"
        },
        {
          "internalType": "uint256[]",
          "name": "values",
          "type": "uint256[]"
        },
        {
          "internalType": "bytes",
          "name": "data",
          "type": "bytes"
        }
      ],
      "name": "safeBatchTransferFrom",
      "outputs": [],
      "stateMutability": "nonpayable",
      "type": "function"
    },
    {
      "inputs": [
        {
          "internalType": "address",
          "name": "from",
          "type": "address"
        },
        {
          "internalType": "address",
          "name": "to",
          "type": "address"
        },
        {
          "internalType": "uint256",
          "name": "id",
          "type": "uint256"
        },
        {
          "internalType": "uint256",
          "name": "value",
          "type": "uint256"
        },
        {
          "internalType": "bytes",
          "name": "data",
          "type": "bytes"
        }
      ],
      "name": "safeTransferFrom",
      "outputs": [],
      "stateMutability": "nonpayable",
      "type": "function"
    },
    {
      "inputs": [
        {
          "internalType": "address",
          "name": "operator",
          "type": "address"
        },
        {
          "internalType": "bool",
          "name": "approved",
          "type": "bool"
        }
      ],
      "name": "setApprovalForAll",
      "outputs": [],
      "stateMutability": "nonpayable",
      "type": "function"
    },
    {
      "inputs": [
        {
          "internalType": "uint256",
          "name": "_subTokenId",
          "type": "uint256"
        },
        {
          "components": [
            {
              "internalType": "bytes",
              "name": "ipfsDetailsHash",
              "type": "bytes"
            },
            {
              "internalType": "address",
              "name": "owner",
              "type": "address"
            },
            {
              "internalType": "uint256",
              "name": "parentDeed",
              "type": "uint256"
            }
          ],
          "internalType": "struct SubdivisionNFT.SubdivisionInfo",
          "name": "_newInfo",
          "type": "tuple"
        }
      ],
      "name": "setInfo",
      "outputs": [],
      "stateMutability": "nonpayable",
      "type": "function"
    },
    {
      "inputs": [
        {
          "internalType": "bytes4",
          "name": "_interfaceId",
          "type": "bytes4"
        }
      ],
      "name": "supportsInterface",
      "outputs": [
        {
          "internalType": "bool",
          "name": "",
          "type": "bool"
        }
      ],
      "stateMutability": "view",
      "type": "function"
    },
    {
      "inputs": [
        {
          "internalType": "uint256",
          "name": "",
          "type": "uint256"
        }
      ],
      "name": "uri",
      "outputs": [
        {
          "internalType": "string",
          "name": "",
          "type": "string"
        }
      ],
      "stateMutability": "view",
      "type": "function"
    }
  ],
  "transactionHash": "0x089d04ebc050f4177de2372a0f150d5cb7007fbaad419116e59afe1a99345439",
  "args": [
    "0x215c20C0b355AB8b4c109c3FA88ab6B22B8ee80F",
    "0xCD4e41B590F3052F9420D69842FCe4ce4E83a797"
  ],
  "numDeployments": 3,
  "solcInputHash": "c539a49b1aefee233566f7faf33b52cb",
  "bytecode": "0x60806040523480156200001157600080fd5b506040516200206f3803806200206f83398101604081905262000034916200012c565b60408051602081019091526000815281906200005081620000fd565b50600380546001600160a01b0319166001600160a01b039283161790558216620000d15760405162461bcd60e51b815260206004820152602860248201527f5b5375626469766973696f6e4e46545d20496e76616c696420446565644e4654604482015267206164647265737360c01b606482015260840160405180910390fd5b506001600455600680546001600160a01b0319166001600160a01b0392909216919091179055620002d5565b60026200010b828262000209565b5050565b80516001600160a01b03811681146200012757600080fd5b919050565b600080604083850312156200014057600080fd5b6200014b836200010f565b91506200015b602084016200010f565b90509250929050565b634e487b7160e01b600052604160045260246000fd5b600181811c908216806200018f57607f821691505b602082108103620001b057634e487b7160e01b600052602260045260246000fd5b50919050565b601f8211156200020457600081815260208120601f850160051c81016020861015620001df5750805b601f850160051c820191505b818110156200020057828155600101620001eb565b5050505b505050565b81516001600160401b0381111562000225576200022562000164565b6200023d816200023684546200017a565b84620001b6565b602080601f8311600181146200027557600084156200025c5750858301515b600019600386901b1c1916600185901b17855562000200565b600085815260208120601f198616915b82811015620002a65788860151825594840194600190910190840162000285565b5085821015620002c55787850151600019600388901b60f8161c191681555b5050505050600190811b01905550565b611d8a80620002e56000396000f3fe608060405234801561001057600080fd5b50600436106101205760003560e01c806391d14854116100ad578063c7f01cac11610071578063c7f01cac14610268578063d539139314610293578063e552a251146102ba578063e985e9c5146102cd578063f242432a146102e057600080fd5b806391d14854146102045780639a2be06914610217578063a22cb4651461022a578063b2e2f20b1461023d578063b99c23e31461026057600080fd5b806333bafc0f116100f457806333bafc0f146101a357806335c7b33a146101b657806343f02a55146101c95780634e1273f4146101dc57806389b9e75f146101fc57600080fd5b8062fdd58e1461012557806301ffc9a71461014b5780630e89341c1461016e5780632eb2c2d61461018e575b600080fd5b6101386101333660046112d2565b6102f3565b6040519081526020015b60405180910390f35b61015e610159366004611314565b61031b565b6040519015158152602001610142565b61018161017c366004611331565b610326565b6040516101429190611390565b6101a161019c3660046114e9565b6103ba565b005b6101a16101b1366004611619565b610426565b61015e6101c43660046112d2565b6106c1565b6101a16101d7366004611331565b6106d6565b6101ef6101ea366004611656565b6107c1565b6040516101429190611753565b61015e610896565b61015e610212366004611766565b610919565b6101a1610225366004611796565b610996565b6101a16102383660046117e1565b610aa7565b61013861024b366004611331565b60009081526005602052604090206002015490565b61015e610ab6565b60065461027b906001600160a01b031681565b6040516001600160a01b039091168152602001610142565b6101387f9f2df0fed2c77648de5860a4cc508cd0818c85b8b8a1ab4ceeef8d981c8956a681565b6101a16102c836600461180f565b610ad0565b61015e6102db3660046118c0565b610b10565b6101a16102ee3660046118ee565b610b3e565b6000818152602081815260408083206001600160a01b03861684529091529020545b92915050565b600061031582610b9d565b60606002805461033590611957565b80601f016020809104026020016040519081016040528092919081815260200182805461036190611957565b80156103ae5780601f10610383576101008083540402835291602001916103ae565b820191906000526020600020905b81548152906001019060200180831161039157829003601f168201915b50505050509050919050565b336001600160a01b03861681148015906103db57506103d98682610b10565b155b156104115760405163711bec9160e11b81526001600160a01b038083166004830152871660248201526044015b60405180910390fd5b61041e8686868686610bed565b505050505050565b60065460408083015190516331a9108f60e11b81526001600160a01b0390921691636352211e9161045d9160040190815260200190565b602060405180830381865afa15801561047a573d6000803e3d6000fd5b505050506040513d601f19601f8201168201806040525081019061049e9190611991565b6001600160a01b0316336001600160a01b0316146105245760405162461bcd60e51b815260206004820152603c60248201527f5b5375626469766973696f6e4e46545d2053656e646572206d7573742062652060448201527f746865206f776e6572206f662074686520706172656e742064656564000000006064820152608401610408565b600654604080830151905163b82c356960e01b81526001600160a01b039092169163b82c35699161055b9160040190815260200190565b602060405180830381865afa158015610578573d6000803e3d6000fd5b505050506040513d601f19601f8201168201806040525081019061059c91906119ae565b6106045760405162461bcd60e51b815260206004820152603360248201527f5b5375626469766973696f6e4e46545d20506172656e742064656564206d757360448201527274206265206c616e64206f722065737461746560681b6064820152608401610408565b61061b816020015160045460018460000151610c54565b60045460009081526005602052604090208151819061063a9082611a16565b5060208201516001820180546001600160a01b0319166001600160a01b03831617905560408301516002830181905560045484517fbc54ac92f20f9659877e75b13d50d5476432987420822b3c4e6f863b58a23fd4939290336040516106a4959493929190611ad6565b60405180910390a16004546106ba906001611b2f565b6004555050565b6000806106ce84846102f3565b119392505050565b6106e033826106c1565b15156001146107635760405162461bcd60e51b815260206004820152604360248201527f5b5375626469766973696f6e4e46545d2053656e646572206d7573742062652060448201527f6f776e6572206f6620746865207375626469766973696f6e20746f206275726e606482015262081a5d60ea1b608482015260a401610408565b61076f33826001610cb1565b7fb909c32df26127183a7030ec03442037e16cc04ea6977d9dcce5848f0d26c82e3360008381526005602052604090819020600281015491516107b6939286929091611b42565b60405180910390a150565b606081518351146107f25781518351604051635b05999160e01b815260048101929092526024820152604401610408565b6000835167ffffffffffffffff81111561080e5761080e6113a3565b604051908082528060200260200182016040528015610837578160200160208202803683370190505b50905060005b845181101561088e57602080820286010151610861906020808402870101516102f3565b82828151811061087357610873611beb565b602090810291909101015261088781611c01565b905061083d565b509392505050565b6003546000906001600160a01b031663940e1570335b6040516001600160e01b031960e084901b1681526001600160a01b039091166004820152602401602060405180830381865afa1580156108f0573d6000803e3d6000fd5b505050506040513d601f19601f8201168201806040525081019061091491906119ae565b905090565b600354604051632474521560e21b8152600481018490526001600160a01b03838116602483015260009216906391d1485490604401602060405180830381865afa15801561096b573d6000803e3d6000fd5b505050506040513d601f19601f8201168201806040525081019061098f91906119ae565b9392505050565b6109a033836106c1565b1515600114610a19576040805162461bcd60e51b81526020600482015260248101919091527f5b5375626469766973696f6e4e46545d2053656e646572204d7573742062652060448201527f6f776e6572206f66207375626469766973696f6e20746f2073657420696e666f6064820152608401610408565b600082815260056020526040902081518291908190610a389082611a16565b5060208201516001820180546001600160a01b0319166001600160a01b03909216919091179055604091820151600290910155517f21ed0e57b83a7d39842ea0927c2fb61a955a02c8685b35f5e0a352504a393e9890610a9b9084908490611c1a565b60405180910390a15050565b610ab2338383610d19565b5050565b6003546000906001600160a01b031663c395fcb3336108ac565b60005b8151811015610ab257610afe828281518110610af157610af1611beb565b6020026020010151610426565b80610b0881611c01565b915050610ad3565b6001600160a01b03918216600090815260016020908152604080832093909416825291909152205460ff1690565b336001600160a01b0386168114801590610b5f5750610b5d8682610b10565b155b15610b905760405163711bec9160e11b81526001600160a01b03808316600483015287166024820152604401610408565b61041e8686868686610daf565b60006001600160e01b03198216636cdb3d1360e11b1480610bce57506001600160e01b031982166303a24d0760e21b145b8061031557506301ffc9a760e01b6001600160e01b0319831614610315565b6001600160a01b038416610c1757604051632bfa23e760e11b815260006004820152602401610408565b6001600160a01b038516610c4057604051626a0d4560e21b815260006004820152602401610408565b610c4d8585858585610e3d565b5050505050565b6001600160a01b038416610c7e57604051632bfa23e760e11b815260006004820152602401610408565b6040805160018082526020820186905281830190815260608201859052608082019092529061041e600087848487610e3d565b6001600160a01b038316610cda57604051626a0d4560e21b815260006004820152602401610408565b604080516001808252602082018590528183019081526060820184905260a08201909252600060808201818152919291610c4d91879185908590610e3d565b6001600160a01b038216610d425760405162ced3e160e81b815260006004820152602401610408565b6001600160a01b03838116600081815260016020908152604080832094871680845294825291829020805460ff191686151590811790915591519182527f17307eab39ab6107e8899845ad3d59bd9653f200f220920489ca2b5937696c31910160405180910390a3505050565b6001600160a01b038416610dd957604051632bfa23e760e11b815260006004820152602401610408565b6001600160a01b038516610e0257604051626a0d4560e21b815260006004820152602401610408565b60408051600180825260208201869052818301908152606082018590526080820190925290610e348787848487610e3d565b50505050505050565b610e4985858585610e90565b6001600160a01b03841615610c4d5782513390600103610e825760208481015190840151610e7b8389898585896110ad565b505061041e565b61041e8187878787876111d1565b8051825114610ebf5781518151604051635b05999160e01b815260048101929092526024820152604401610408565b3360005b8351811015610fce576020818102858101820151908501909101516001600160a01b03881615610f76576000828152602081815260408083206001600160a01b038c16845290915290205481811015610f4f576040516303dee4c560e01b81526001600160a01b038a166004820152602481018290526044810183905260648101849052608401610408565b6000838152602081815260408083206001600160a01b038d16845290915290209082900390555b6001600160a01b03871615610fbb576000828152602081815260408083206001600160a01b038b16845290915281208054839290610fb5908490611b2f565b90915550505b505080610fc790611c01565b9050610ec3565b50825160010361104f5760208301516000906020840151909150856001600160a01b0316876001600160a01b0316846001600160a01b03167fc3d58168c5ae7397731d063d5bbf3d657854427343f4c083240f7aacaa2d0f628585604051611040929190918252602082015260400190565b60405180910390a45050610c4d565b836001600160a01b0316856001600160a01b0316826001600160a01b03167f4a39dc06d4c0dbc64b70af90fd698a233a518aa5d07e595d983b8c0526c8f7fb868660405161109e929190611c66565b60405180910390a45050505050565b6001600160a01b0384163b1561041e5760405163f23a6e6160e01b81526001600160a01b0385169063f23a6e61906110f19089908990889088908890600401611c94565b6020604051808303816000875af192505050801561112c575060408051601f3d908101601f1916820190925261112991810190611cd9565b60015b611195573d80801561115a576040519150601f19603f3d011682016040523d82523d6000602084013e61115f565b606091505b50805160000361118d57604051632bfa23e760e11b81526001600160a01b0386166004820152602401610408565b805181602001fd5b6001600160e01b0319811663f23a6e6160e01b14610e3457604051632bfa23e760e11b81526001600160a01b0386166004820152602401610408565b6001600160a01b0384163b1561041e5760405163bc197c8160e01b81526001600160a01b0385169063bc197c81906112159089908990889088908890600401611cf6565b6020604051808303816000875af1925050508015611250575060408051601f3d908101601f1916820190925261124d91810190611cd9565b60015b61127e573d80801561115a576040519150601f19603f3d011682016040523d82523d6000602084013e61115f565b6001600160e01b0319811663bc197c8160e01b14610e3457604051632bfa23e760e11b81526001600160a01b0386166004820152602401610408565b6001600160a01b03811681146112cf57600080fd5b50565b600080604083850312156112e557600080fd5b82356112f0816112ba565b946020939093013593505050565b6001600160e01b0319811681146112cf57600080fd5b60006020828403121561132657600080fd5b813561098f816112fe565b60006020828403121561134357600080fd5b5035919050565b6000815180845260005b8181101561137057602081850181015186830182015201611354565b506000602082860101526020601f19601f83011685010191505092915050565b60208152600061098f602083018461134a565b634e487b7160e01b600052604160045260246000fd5b604051601f8201601f1916810167ffffffffffffffff811182821017156113e2576113e26113a3565b604052919050565b600067ffffffffffffffff821115611404576114046113a3565b5060051b60200190565b600082601f83011261141f57600080fd5b8135602061143461142f836113ea565b6113b9565b82815260059290921b8401810191818101908684111561145357600080fd5b8286015b8481101561146e5780358352918301918301611457565b509695505050505050565b600082601f83011261148a57600080fd5b813567ffffffffffffffff8111156114a4576114a46113a3565b6114b7601f8201601f19166020016113b9565b8181528460208386010111156114cc57600080fd5b816020850160208301376000918101602001919091529392505050565b600080600080600060a0868803121561150157600080fd5b853561150c816112ba565b9450602086013561151c816112ba565b9350604086013567ffffffffffffffff8082111561153957600080fd5b61154589838a0161140e565b9450606088013591508082111561155b57600080fd5b61156789838a0161140e565b9350608088013591508082111561157d57600080fd5b5061158a88828901611479565b9150509295509295909350565b6000606082840312156115a957600080fd5b6040516060810167ffffffffffffffff82821081831117156115cd576115cd6113a3565b8160405282935084359150808211156115e557600080fd5b506115f285828601611479565b8252506020830135611603816112ba565b6020820152604092830135920191909152919050565b60006020828403121561162b57600080fd5b813567ffffffffffffffff81111561164257600080fd5b61164e84828501611597565b949350505050565b6000806040838503121561166957600080fd5b823567ffffffffffffffff8082111561168157600080fd5b818501915085601f83011261169557600080fd5b813560206116a561142f836113ea565b82815260059290921b840181019181810190898411156116c457600080fd5b948201945b838610156116eb5785356116dc816112ba565b825294820194908201906116c9565b9650508601359250508082111561170157600080fd5b5061170e8582860161140e565b9150509250929050565b600081518084526020808501945080840160005b838110156117485781518752958201959082019060010161172c565b509495945050505050565b60208152600061098f6020830184611718565b6000806040838503121561177957600080fd5b82359150602083013561178b816112ba565b809150509250929050565b600080604083850312156117a957600080fd5b82359150602083013567ffffffffffffffff8111156117c757600080fd5b61170e85828601611597565b80151581146112cf57600080fd5b600080604083850312156117f457600080fd5b82356117ff816112ba565b9150602083013561178b816117d3565b6000602080838503121561182257600080fd5b823567ffffffffffffffff8082111561183a57600080fd5b818501915085601f83011261184e57600080fd5b813561185c61142f826113ea565b81815260059190911b8301840190848101908883111561187b57600080fd5b8585015b838110156118b3578035858111156118975760008081fd5b6118a58b89838a0101611597565b84525091860191860161187f565b5098975050505050505050565b600080604083850312156118d357600080fd5b82356118de816112ba565b9150602083013561178b816112ba565b600080600080600060a0868803121561190657600080fd5b8535611911816112ba565b94506020860135611921816112ba565b93506040860135925060608601359150608086013567ffffffffffffffff81111561194b57600080fd5b61158a88828901611479565b600181811c9082168061196b57607f821691505b60208210810361198b57634e487b7160e01b600052602260045260246000fd5b50919050565b6000602082840312156119a357600080fd5b815161098f816112ba565b6000602082840312156119c057600080fd5b815161098f816117d3565b601f821115611a1157600081815260208120601f850160051c810160208610156119f25750805b601f850160051c820191505b8181101561041e578281556001016119fe565b505050565b815167ffffffffffffffff811115611a3057611a306113a3565b611a4481611a3e8454611957565b846119cb565b602080601f831160018114611a795760008415611a615750858301515b600019600386901b1c1916600185901b17855561041e565b600085815260208120601f198616915b82811015611aa857888601518255948401946001909101908401611a89565b5085821015611ac65787850151600019600388901b60f8161c191681555b5050505050600190811b01905550565b600060018060a01b03808816835286602084015285604084015260a06060840152611b0460a084018661134a565b91508084166080840152509695505050505050565b634e487b7160e01b600052601160045260246000fd5b8082018082111561031557610315611b19565b60018060a01b03851681526000602085818401528460408401526080606084015260008454611b7081611957565b80608087015260a0600180841660008114611b925760018114611bac57611bda565b60ff1985168984015283151560051b890183019550611bda565b896000528660002060005b85811015611bd25781548b8201860152908301908801611bb7565b8a0184019650505b50939b9a5050505050505050505050565b634e487b7160e01b600052603260045260246000fd5b600060018201611c1357611c13611b19565b5060010190565b828152604060208201526000825160606040840152611c3c60a084018261134a565b60208501516001600160a01b03166060850152604090940151608090930192909252509092915050565b604081526000611c796040830185611718565b8281036020840152611c8b8185611718565b95945050505050565b6001600160a01b03868116825285166020820152604081018490526060810183905260a060808201819052600090611cce9083018461134a565b979650505050505050565b600060208284031215611ceb57600080fd5b815161098f816112fe565b6001600160a01b0386811682528516602082015260a060408201819052600090611d2290830186611718565b8281036060840152611d348186611718565b90508281036080840152611d48818561134a565b9897505050505050505056fea264697066735822122025835af348fe0973da11dd3f024c552602eeef9098d540db78303cd04ecb560064736f6c63430008140033",
  "devdoc": {
    "errors": {
      "ERC1155InsufficientBalance(address,uint256,uint256,uint256)": [
        {
          "details": "Indicates an error related to the current `balance` of a `sender`. Used in transfers.",
          "params": {
            "balance": "Current balance for the interacting account.",
            "needed": "Minimum amount required to perform a transfer.",
            "sender": "Address whose tokens are being transferred.",
            "tokenId": "Identifier number of a token."
          }
        }
      ],
      "ERC1155InvalidApprover(address)": [
        {
          "details": "Indicates a failure with the `approver` of a token to be approved. Used in approvals.",
          "params": {
            "approver": "Address initiating an approval operation."
          }
        }
      ],
      "ERC1155InvalidArrayLength(uint256,uint256)": [
        {
          "details": "Indicates an array length mismatch between ids and values in a safeBatchTransferFrom operation. Used in batch transfers.",
          "params": {
            "idsLength": "Length of the array of token identifiers",
            "valuesLength": "Length of the array of token amounts"
          }
        }
      ],
      "ERC1155InvalidOperator(address)": [
        {
          "details": "Indicates a failure with the `operator` to be approved. Used in approvals.",
          "params": {
            "operator": "Address that may be allowed to operate on tokens without being their owner."
          }
        }
      ],
      "ERC1155InvalidReceiver(address)": [
        {
          "details": "Indicates a failure with the token `receiver`. Used in transfers.",
          "params": {
            "receiver": "Address to which tokens are being transferred."
          }
        }
      ],
      "ERC1155InvalidSender(address)": [
        {
          "details": "Indicates a failure with the token `sender`. Used in transfers.",
          "params": {
            "sender": "Address whose tokens are being transferred."
          }
        }
      ],
      "ERC1155MissingApprovalForAll(address,address)": [
        {
          "details": "Indicates a failure with the `operator`s approval. Used in transfers.",
          "params": {
            "operator": "Address that may be allowed to operate on tokens without being their owner.",
            "owner": "Address of the current owner of a token."
          }
        }
      ]
    },
    "events": {
      "ApprovalForAll(address,address,bool)": {
        "details": "Emitted when `account` grants or revokes permission to `operator` to transfer their tokens, according to `approved`."
      },
      "TransferBatch(address,address,address,uint256[],uint256[])": {
        "details": "Equivalent to multiple {TransferSingle} events, where `operator`, `from` and `to` are the same for all transfers."
      },
      "TransferSingle(address,address,address,uint256,uint256)": {
        "details": "Emitted when `value` amount of tokens of type `id` are transferred from `from` to `to` by `operator`."
      },
      "URI(string,uint256)": {
        "details": "Emitted when the URI for token type `id` changes to `value`, if it is a non-programmatic URI. If an {URI} event was emitted for `id`, the standard https://eips.ethereum.org/EIPS/eip-1155#metadata-extensions[guarantees] that `value` will equal the value returned by {IERC1155MetadataURI-uri}."
      }
    },
    "kind": "dev",
    "methods": {
      "balanceOf(address,uint256)": {
        "details": "See {IERC1155-balanceOf}."
      },
      "balanceOfBatch(address[],uint256[])": {
        "details": "See {IERC1155-balanceOfBatch}. Requirements: - `accounts` and `ids` must have the same length."
      },
      "isApprovedForAll(address,address)": {
        "details": "See {IERC1155-isApprovedForAll}."
      },
      "safeBatchTransferFrom(address,address,uint256[],uint256[],bytes)": {
        "details": "See {IERC1155-safeBatchTransferFrom}."
      },
      "safeTransferFrom(address,address,uint256,uint256,bytes)": {
        "details": "See {IERC1155-safeTransferFrom}."
      },
      "setApprovalForAll(address,bool)": {
        "details": "See {IERC1155-setApprovalForAll}."
      },
      "uri(uint256)": {
        "details": "See {IERC1155MetadataURI-uri}. This implementation returns the same URI for *all* token types. It relies on the token type ID substitution mechanism https://eips.ethereum.org/EIPS/eip-1155#metadata[defined in the EIP]. Clients calling this function must replace the `\\{id\\}` substring with the actual token type ID."
      }
    },
    "version": 1
  },
  "userdoc": {
    "kind": "user",
    "methods": {},
    "version": 1
  },
  "storageLayout": {
    "storage": [
      {
        "astId": 589,
        "contract": "contracts/SubdivisionNFT.sol:SubdivisionNFT",
        "label": "_balances",
        "offset": 0,
        "slot": "0",
        "type": "t_mapping(t_uint256,t_mapping(t_address,t_uint256))"
      },
      {
        "astId": 595,
        "contract": "contracts/SubdivisionNFT.sol:SubdivisionNFT",
        "label": "_operatorApprovals",
        "offset": 0,
        "slot": "1",
        "type": "t_mapping(t_address,t_mapping(t_address,t_bool))"
      },
      {
        "astId": 597,
        "contract": "contracts/SubdivisionNFT.sol:SubdivisionNFT",
        "label": "_uri",
        "offset": 0,
        "slot": "2",
        "type": "t_string_storage"
      },
      {
        "astId": 5700,
        "contract": "contracts/SubdivisionNFT.sol:SubdivisionNFT",
        "label": "accessManager",
        "offset": 0,
        "slot": "3",
        "type": "t_contract(AccessManager)5695"
      },
      {
        "astId": 8191,
        "contract": "contracts/SubdivisionNFT.sol:SubdivisionNFT",
        "label": "_nextsubTokenID",
        "offset": 0,
        "slot": "4",
        "type": "t_uint256"
      },
      {
        "astId": 8196,
        "contract": "contracts/SubdivisionNFT.sol:SubdivisionNFT",
        "label": "subdivisionInfoMap",
        "offset": 0,
        "slot": "5",
        "type": "t_mapping(t_uint256,t_struct(SubdivisionInfo)8189_storage)"
      },
      {
        "astId": 8204,
        "contract": "contracts/SubdivisionNFT.sol:SubdivisionNFT",
        "label": "deedNFT",
        "offset": 0,
        "slot": "6",
        "type": "t_contract(DeedNFT)6244"
      }
    ],
    "types": {
      "t_address": {
        "encoding": "inplace",
        "label": "address",
        "numberOfBytes": "20"
      },
      "t_bool": {
        "encoding": "inplace",
        "label": "bool",
        "numberOfBytes": "1"
      },
      "t_bytes_storage": {
        "encoding": "bytes",
        "label": "bytes",
        "numberOfBytes": "32"
      },
      "t_contract(AccessManager)5695": {
        "encoding": "inplace",
        "label": "contract AccessManager",
        "numberOfBytes": "20"
      },
      "t_contract(DeedNFT)6244": {
        "encoding": "inplace",
        "label": "contract DeedNFT",
        "numberOfBytes": "20"
      },
      "t_mapping(t_address,t_bool)": {
        "encoding": "mapping",
        "key": "t_address",
        "label": "mapping(address => bool)",
        "numberOfBytes": "32",
        "value": "t_bool"
      },
      "t_mapping(t_address,t_mapping(t_address,t_bool))": {
        "encoding": "mapping",
        "key": "t_address",
        "label": "mapping(address => mapping(address => bool))",
        "numberOfBytes": "32",
        "value": "t_mapping(t_address,t_bool)"
      },
      "t_mapping(t_address,t_uint256)": {
        "encoding": "mapping",
        "key": "t_address",
        "label": "mapping(address => uint256)",
        "numberOfBytes": "32",
        "value": "t_uint256"
      },
      "t_mapping(t_uint256,t_mapping(t_address,t_uint256))": {
        "encoding": "mapping",
        "key": "t_uint256",
        "label": "mapping(uint256 => mapping(address => uint256))",
        "numberOfBytes": "32",
        "value": "t_mapping(t_address,t_uint256)"
      },
      "t_mapping(t_uint256,t_struct(SubdivisionInfo)8189_storage)": {
        "encoding": "mapping",
        "key": "t_uint256",
        "label": "mapping(uint256 => struct SubdivisionNFT.SubdivisionInfo)",
        "numberOfBytes": "32",
        "value": "t_struct(SubdivisionInfo)8189_storage"
      },
      "t_string_storage": {
        "encoding": "bytes",
        "label": "string",
        "numberOfBytes": "32"
      },
      "t_struct(SubdivisionInfo)8189_storage": {
        "encoding": "inplace",
        "label": "struct SubdivisionNFT.SubdivisionInfo",
        "members": [
          {
            "astId": 8184,
            "contract": "contracts/SubdivisionNFT.sol:SubdivisionNFT",
            "label": "ipfsDetailsHash",
            "offset": 0,
            "slot": "0",
            "type": "t_bytes_storage"
          },
          {
            "astId": 8186,
            "contract": "contracts/SubdivisionNFT.sol:SubdivisionNFT",
            "label": "owner",
            "offset": 0,
            "slot": "1",
            "type": "t_address"
          },
          {
            "astId": 8188,
            "contract": "contracts/SubdivisionNFT.sol:SubdivisionNFT",
            "label": "parentDeed",
            "offset": 0,
            "slot": "2",
            "type": "t_uint256"
          }
        ],
        "numberOfBytes": "96"
      },
      "t_uint256": {
        "encoding": "inplace",
        "label": "uint256",
        "numberOfBytes": "32"
      }
    }
  }
}