{
  "address": "0xCe4Ec1d7EcfA897424888F68f9742F7988225B09",
  "abi": [
    {
      "inputs": [],
      "stateMutability": "nonpayable",
      "type": "constructor"
    },
    {
      "anonymous": false,
      "inputs": [
        {
          "indexed": true,
          "internalType": "address",
          "name": "owner",
          "type": "address"
        },
        {
          "indexed": true,
          "internalType": "address",
          "name": "approved",
          "type": "address"
        },
        {
          "indexed": true,
          "internalType": "uint256",
          "name": "tokenId",
          "type": "uint256"
        }
      ],
      "name": "Approval",
      "type": "event"
    },
    {
      "anonymous": false,
      "inputs": [
        {
          "indexed": true,
          "internalType": "address",
          "name": "owner",
          "type": "address"
        },
        {
          "indexed": true,
          "internalType": "address",
          "name": "operator",
          "type": "address"
        },
        {
          "indexed": false,
          "internalType": "bool",
          "name": "approved",
          "type": "bool"
        }
      ],
      "name": "ApprovalForAll",
      "type": "event"
    },
    {
      "anonymous": false,
      "inputs": [
        {
          "components": [
            {
              "internalType": "string",
              "name": "ipfsDetailsHash",
              "type": "string"
            },
            {
              "internalType": "enum DeedNFT.AssetType",
              "name": "assetType",
              "type": "uint8"
            },
            {
              "internalType": "uint256",
              "name": "price",
              "type": "uint256"
            },
            {
              "internalType": "string",
              "name": "deedAddress",
              "type": "string"
            }
          ],
          "indexed": false,
          "internalType": "struct DeedNFT.DeedInfo",
          "name": "_deedInfo",
          "type": "tuple"
        }
      ],
      "name": "DeedMinted",
      "type": "event"
    },
    {
      "anonymous": false,
      "inputs": [
        {
          "indexed": true,
          "internalType": "bytes32",
          "name": "role",
          "type": "bytes32"
        },
        {
          "indexed": true,
          "internalType": "bytes32",
          "name": "previousAdminRole",
          "type": "bytes32"
        },
        {
          "indexed": true,
          "internalType": "bytes32",
          "name": "newAdminRole",
          "type": "bytes32"
        }
      ],
      "name": "RoleAdminChanged",
      "type": "event"
    },
    {
      "anonymous": false,
      "inputs": [
        {
          "indexed": true,
          "internalType": "bytes32",
          "name": "role",
          "type": "bytes32"
        },
        {
          "indexed": true,
          "internalType": "address",
          "name": "account",
          "type": "address"
        },
        {
          "indexed": true,
          "internalType": "address",
          "name": "sender",
          "type": "address"
        }
      ],
      "name": "RoleGranted",
      "type": "event"
    },
    {
      "anonymous": false,
      "inputs": [
        {
          "indexed": true,
          "internalType": "bytes32",
          "name": "role",
          "type": "bytes32"
        },
        {
          "indexed": true,
          "internalType": "address",
          "name": "account",
          "type": "address"
        },
        {
          "indexed": true,
          "internalType": "address",
          "name": "sender",
          "type": "address"
        }
      ],
      "name": "RoleRevoked",
      "type": "event"
    },
    {
      "anonymous": false,
      "inputs": [
        {
          "indexed": true,
          "internalType": "address",
          "name": "from",
          "type": "address"
        },
        {
          "indexed": true,
          "internalType": "address",
          "name": "to",
          "type": "address"
        },
        {
          "indexed": true,
          "internalType": "uint256",
          "name": "tokenId",
          "type": "uint256"
        }
      ],
      "name": "Transfer",
      "type": "event"
    },
    {
      "inputs": [],
      "name": "DEFAULT_ADMIN_ROLE",
      "outputs": [
        {
          "internalType": "bytes32",
          "name": "",
          "type": "bytes32"
        }
      ],
      "stateMutability": "view",
      "type": "function"
    },
    {
      "inputs": [],
      "name": "VALIDATOR_ROLE",
      "outputs": [
        {
          "internalType": "bytes32",
          "name": "",
          "type": "bytes32"
        }
      ],
      "stateMutability": "view",
      "type": "function"
    },
    {
      "inputs": [
        {
          "internalType": "address",
          "name": "minter",
          "type": "address"
        }
      ],
      "name": "addValidator",
      "outputs": [],
      "stateMutability": "nonpayable",
      "type": "function"
    },
    {
      "inputs": [
        {
          "internalType": "address",
          "name": "to",
          "type": "address"
        },
        {
          "internalType": "uint256",
          "name": "tokenId",
          "type": "uint256"
        }
      ],
      "name": "approve",
      "outputs": [],
      "stateMutability": "nonpayable",
      "type": "function"
    },
    {
      "inputs": [
        {
          "internalType": "address",
          "name": "owner",
          "type": "address"
        }
      ],
      "name": "balanceOf",
      "outputs": [
        {
          "internalType": "uint256",
          "name": "",
          "type": "uint256"
        }
      ],
      "stateMutability": "view",
      "type": "function"
    },
    {
      "inputs": [
        {
          "internalType": "uint256",
          "name": "tokenId",
          "type": "uint256"
        }
      ],
      "name": "canSubdivide",
      "outputs": [
        {
          "internalType": "bool",
          "name": "",
          "type": "bool"
        }
      ],
      "stateMutability": "view",
      "type": "function"
    },
    {
      "inputs": [
        {
          "internalType": "uint256",
          "name": "tokenId",
          "type": "uint256"
        }
      ],
      "name": "getApproved",
      "outputs": [
        {
          "internalType": "address",
          "name": "",
          "type": "address"
        }
      ],
      "stateMutability": "view",
      "type": "function"
    },
    {
      "inputs": [
        {
          "internalType": "uint256",
          "name": "_tokenId",
          "type": "uint256"
        }
      ],
      "name": "getDeedInfo",
      "outputs": [
        {
          "components": [
            {
              "internalType": "string",
              "name": "ipfsDetailsHash",
              "type": "string"
            },
            {
              "internalType": "enum DeedNFT.AssetType",
              "name": "assetType",
              "type": "uint8"
            },
            {
              "internalType": "uint256",
              "name": "price",
              "type": "uint256"
            },
            {
              "internalType": "string",
              "name": "deedAddress",
              "type": "string"
            }
          ],
          "internalType": "struct DeedNFT.DeedInfo",
          "name": "",
          "type": "tuple"
        }
      ],
      "stateMutability": "view",
      "type": "function"
    },
    {
      "inputs": [
        {
          "internalType": "bytes32",
          "name": "role",
          "type": "bytes32"
        }
      ],
      "name": "getRoleAdmin",
      "outputs": [
        {
          "internalType": "bytes32",
          "name": "",
          "type": "bytes32"
        }
      ],
      "stateMutability": "view",
      "type": "function"
    },
    {
      "inputs": [
        {
          "internalType": "bytes32",
          "name": "role",
          "type": "bytes32"
        },
        {
          "internalType": "address",
          "name": "account",
          "type": "address"
        }
      ],
      "name": "grantRole",
      "outputs": [],
      "stateMutability": "nonpayable",
      "type": "function"
    },
    {
      "inputs": [
        {
          "internalType": "bytes32",
          "name": "role",
          "type": "bytes32"
        },
        {
          "internalType": "address",
          "name": "account",
          "type": "address"
        }
      ],
      "name": "hasRole",
      "outputs": [
        {
          "internalType": "bool",
          "name": "",
          "type": "bool"
        }
      ],
      "stateMutability": "view",
      "type": "function"
    },
    {
      "inputs": [
        {
          "internalType": "address",
          "name": "owner",
          "type": "address"
        },
        {
          "internalType": "address",
          "name": "operator",
          "type": "address"
        }
      ],
      "name": "isApprovedForAll",
      "outputs": [
        {
          "internalType": "bool",
          "name": "",
          "type": "bool"
        }
      ],
      "stateMutability": "view",
      "type": "function"
    },
    {
      "inputs": [
        {
          "internalType": "address",
          "name": "_to",
          "type": "address"
        },
        {
          "internalType": "string",
          "name": "_ipfsDetailsHash",
          "type": "string"
        },
        {
          "internalType": "enum DeedNFT.AssetType",
          "name": "_assetType",
          "type": "uint8"
        },
        {
          "internalType": "string",
          "name": "_deedAddress",
          "type": "string"
        }
      ],
      "name": "mintAsset",
      "outputs": [],
      "stateMutability": "nonpayable",
      "type": "function"
    },
    {
      "inputs": [],
      "name": "name",
      "outputs": [
        {
          "internalType": "string",
          "name": "",
          "type": "string"
        }
      ],
      "stateMutability": "view",
      "type": "function"
    },
    {
      "inputs": [
        {
          "internalType": "uint256",
          "name": "tokenId",
          "type": "uint256"
        }
      ],
      "name": "ownerOf",
      "outputs": [
        {
          "internalType": "address",
          "name": "",
          "type": "address"
        }
      ],
      "stateMutability": "view",
      "type": "function"
    },
    {
      "inputs": [
        {
          "internalType": "address",
          "name": "minter",
          "type": "address"
        }
      ],
      "name": "removeValidator",
      "outputs": [],
      "stateMutability": "nonpayable",
      "type": "function"
    },
    {
      "inputs": [
        {
          "internalType": "bytes32",
          "name": "role",
          "type": "bytes32"
        },
        {
          "internalType": "address",
          "name": "account",
          "type": "address"
        }
      ],
      "name": "renounceRole",
      "outputs": [],
      "stateMutability": "nonpayable",
      "type": "function"
    },
    {
      "inputs": [
        {
          "internalType": "bytes32",
          "name": "role",
          "type": "bytes32"
        },
        {
          "internalType": "address",
          "name": "account",
          "type": "address"
        }
      ],
      "name": "revokeRole",
      "outputs": [],
      "stateMutability": "nonpayable",
      "type": "function"
    },
    {
      "inputs": [
        {
          "internalType": "address",
          "name": "from",
          "type": "address"
        },
        {
          "internalType": "address",
          "name": "to",
          "type": "address"
        },
        {
          "internalType": "uint256",
          "name": "tokenId",
          "type": "uint256"
        }
      ],
      "name": "safeTransferFrom",
      "outputs": [],
      "stateMutability": "nonpayable",
      "type": "function"
    },
    {
      "inputs": [
        {
          "internalType": "address",
          "name": "from",
          "type": "address"
        },
        {
          "internalType": "address",
          "name": "to",
          "type": "address"
        },
        {
          "internalType": "uint256",
          "name": "tokenId",
          "type": "uint256"
        },
        {
          "internalType": "bytes",
          "name": "data",
          "type": "bytes"
        }
      ],
      "name": "safeTransferFrom",
      "outputs": [],
      "stateMutability": "nonpayable",
      "type": "function"
    },
    {
      "inputs": [
        {
          "internalType": "address",
          "name": "operator",
          "type": "address"
        },
        {
          "internalType": "bool",
          "name": "approved",
          "type": "bool"
        }
      ],
      "name": "setApprovalForAll",
      "outputs": [],
      "stateMutability": "nonpayable",
      "type": "function"
    },
    {
      "inputs": [
        {
          "internalType": "uint256",
          "name": "_deedId",
          "type": "uint256"
        },
        {
          "internalType": "uint32",
          "name": "_newPrice",
          "type": "uint32"
        }
      ],
      "name": "setPrice",
      "outputs": [],
      "stateMutability": "nonpayable",
      "type": "function"
    },
    {
      "inputs": [
        {
          "internalType": "bytes4",
          "name": "interfaceId",
          "type": "bytes4"
        }
      ],
      "name": "supportsInterface",
      "outputs": [
        {
          "internalType": "bool",
          "name": "",
          "type": "bool"
        }
      ],
      "stateMutability": "view",
      "type": "function"
    },
    {
      "inputs": [],
      "name": "symbol",
      "outputs": [
        {
          "internalType": "string",
          "name": "",
          "type": "string"
        }
      ],
      "stateMutability": "view",
      "type": "function"
    },
    {
      "inputs": [
        {
          "internalType": "uint256",
          "name": "tokenId",
          "type": "uint256"
        }
      ],
      "name": "tokenURI",
      "outputs": [
        {
          "internalType": "string",
          "name": "",
          "type": "string"
        }
      ],
      "stateMutability": "view",
      "type": "function"
    },
    {
      "inputs": [
        {
          "internalType": "address",
          "name": "from",
          "type": "address"
        },
        {
          "internalType": "address",
          "name": "to",
          "type": "address"
        },
        {
          "internalType": "uint256",
          "name": "tokenId",
          "type": "uint256"
        }
      ],
      "name": "transferFrom",
      "outputs": [],
      "stateMutability": "nonpayable",
      "type": "function"
    }
  ],
  "transactionHash": "0x5fb96b95ee65513a980dfece24abe802d4031cf28ea69bf87ffae75a058da4de",
  "args": [],
  "numDeployments": 1,
  "solcInputHash": "96e1bebbcfa186131e90a44efe7f99e2",
  "bytecode": "0x60806040523480156200001157600080fd5b50604051806040016040528060078152602001661119595913919560ca1b815250604051806040016040528060048152602001631111515160e21b81525081600090816200006091906200020f565b5060016200006f82826200020f565b5050600160075550620000a37f21702c8af46127c7fa207f89d0b0a8441bb32959a0ac7df790e9ab1a25c9892633620000b6565b620000b0600033620000b6565b620002db565b620000c28282620000c6565b5050565b60008281526006602090815260408083206001600160a01b038516845290915290205460ff16620000c25760008281526006602090815260408083206001600160a01b03851684529091529020805460ff19166001179055620001263390565b6001600160a01b0316816001600160a01b0316837f2f8788117e7eff1d82e926ec794901d17c78024a50270940304540a733656f0d60405160405180910390a45050565b634e487b7160e01b600052604160045260246000fd5b600181811c908216806200019557607f821691505b602082108103620001b657634e487b7160e01b600052602260045260246000fd5b50919050565b601f8211156200020a57600081815260208120601f850160051c81016020861015620001e55750805b601f850160051c820191505b818110156200020657828155600101620001f1565b5050505b505050565b81516001600160401b038111156200022b576200022b6200016a565b62000243816200023c845462000180565b84620001bc565b602080601f8311600181146200027b5760008415620002625750858301515b600019600386901b1c1916600185901b17855562000206565b600085815260208120601f198616915b82811015620002ac578886015182559484019460019091019084016200028b565b5085821015620002cb5787850151600019600388901b60f8161c191681555b5050505050600190811b01905550565b61223680620002eb6000396000f3fe608060405234801561001057600080fd5b506004361061018e5760003560e01c806370a08231116100de578063b82c356911610097578063c87b56dd11610071578063c87b56dd1461037d578063d547741f14610390578063e6df3254146103a3578063e985e9c5146103b657600080fd5b8063b82c356914610342578063b88d4fde14610355578063c49baebe1461036857600080fd5b806370a08231146102e657806389417635146102f957806391d148541461030c57806395d89b411461031f578063a217fddf14610327578063a22cb4651461032f57600080fd5b80632f2ff15d1161014b57806342842e0e1161012557806342842e0e1461028d5780634d238c8e146102a057806362d402bc146102b35780636352211e146102d357600080fd5b80632f2ff15d1461025457806336568abe1461026757806340a141ff1461027a57600080fd5b806301ffc9a71461019357806306fdde03146101bb578063081812fc146101d0578063095ea7b3146101fb57806323b872dd14610210578063248a9ca314610223575b600080fd5b6101a66101a1366004611930565b6103f2565b60405190151581526020015b60405180910390f35b6101c3610403565b6040516101b2919061199d565b6101e36101de3660046119b0565b610495565b6040516001600160a01b0390911681526020016101b2565b61020e6102093660046119e5565b6104bc565b005b61020e61021e366004611a0f565b6105d6565b6102466102313660046119b0565b60009081526006602052604090206001015490565b6040519081526020016101b2565b61020e610262366004611a4b565b610607565b61020e610275366004611a4b565b61062c565b61020e610288366004611a77565b6106aa565b61020e61029b366004611a0f565b6106cd565b61020e6102ae366004611a77565b6106e8565b6102c66102c13660046119b0565b61070b565b6040516101b29190611aca565b6101e36102e13660046119b0565b610933565b6102466102f4366004611a77565b610993565b61020e610307366004611b29565b610a19565b6101a661031a366004611a4b565b610b32565b6101c3610b5d565b610246600081565b61020e61033d366004611b62565b610b6c565b6101a66103503660046119b0565b610b77565b61020e610363366004611c1f565b610bc1565b6102466000805160206121e183398151915281565b6101c361038b3660046119b0565b610bf9565b61020e61039e366004611a4b565b610c6c565b61020e6103b1366004611cbb565b610c91565b6101a66103c4366004611d3c565b6001600160a01b03918216600090815260056020908152604080832093909416825291909152205460ff1690565b60006103fd82610d59565b92915050565b60606000805461041290611d66565b80601f016020809104026020016040519081016040528092919081815260200182805461043e90611d66565b801561048b5780601f106104605761010080835404028352916020019161048b565b820191906000526020600020905b81548152906001019060200180831161046e57829003601f168201915b5050505050905090565b60006104a082610d7e565b506000908152600460205260409020546001600160a01b031690565b60006104c782610933565b9050806001600160a01b0316836001600160a01b0316036105395760405162461bcd60e51b815260206004820152602160248201527f4552433732313a20617070726f76616c20746f2063757272656e74206f776e656044820152603960f91b60648201526084015b60405180910390fd5b336001600160a01b0382161480610555575061055581336103c4565b6105c75760405162461bcd60e51b815260206004820152603d60248201527f4552433732313a20617070726f76652063616c6c6572206973206e6f7420746f60448201527f6b656e206f776e6572206f7220617070726f76656420666f7220616c6c0000006064820152608401610530565b6105d18383610de0565b505050565b6105e03382610e4e565b6105fc5760405162461bcd60e51b815260040161053090611da0565b6105d1838383610ecd565b6000828152600660205260409020600101546106228161103e565b6105d18383611048565b6001600160a01b038116331461069c5760405162461bcd60e51b815260206004820152602f60248201527f416363657373436f6e74726f6c3a2063616e206f6e6c792072656e6f756e636560448201526e103937b632b9903337b91039b2b63360891b6064820152608401610530565b6106a682826110ce565b5050565b60006106b58161103e565b6106a66000805160206121e183398151915283610c6c565b6105d183838360405180602001604052806000815250610bc1565b60006106f38161103e565b6106a66000805160206121e183398151915283610607565b610737604080516080810190915260608152602081016000815260200160008152602001606081525090565b6000828152600260205260409020546001600160a01b03166107b35760405162461bcd60e51b815260206004820152602f60248201527f4552433732314d657461646174613a2055524920717565727920666f72206e6f60448201526e3732bc34b9ba32b73a103a37b5b2b760891b6064820152608401610530565b600082815260086020526040908190208151608081019092528054829082906107db90611d66565b80601f016020809104026020016040519081016040528092919081815260200182805461080790611d66565b80156108545780601f1061082957610100808354040283529160200191610854565b820191906000526020600020905b81548152906001019060200180831161083757829003601f168201915b5050509183525050600182015460209091019060ff16600381111561087b5761087b611a92565b600381111561088c5761088c611a92565b8152602001600282015481526020016003820180546108aa90611d66565b80601f01602080910402602001604051908101604052809291908181526020018280546108d690611d66565b80156109235780601f106108f857610100808354040283529160200191610923565b820191906000526020600020905b81548152906001019060200180831161090657829003601f168201915b5050505050815250509050919050565b6000818152600260205260408120546001600160a01b0316806103fd5760405162461bcd60e51b8152602060048201526018602482015277115490cdcc8c4e881a5b9d985b1a59081d1bdad95b88125160421b6044820152606401610530565b60006001600160a01b0382166109fd5760405162461bcd60e51b815260206004820152602960248201527f4552433732313a2061646472657373207a65726f206973206e6f7420612076616044820152683634b21037bbb732b960b91b6064820152608401610530565b506001600160a01b031660009081526003602052604090205490565b6000828152600260205260409020546001600160a01b0316610a945760405162461bcd60e51b815260206004820152602e60248201527f4552433732314d657461646174613a20507269636520736574206f66206e6f6e60448201526d32bc34b9ba32b73a103a37b5b2b760911b6064820152608401610530565b610a9d82610933565b6001600160a01b0316336001600160a01b031614610b135760405162461bcd60e51b815260206004820152602d60248201527f4552433732313a204d757374206265206f776e6572206f6620646565644e465460448201526c20746f2073657420707269636560981b6064820152608401610530565b60009182526008602052604090912063ffffffff909116600290910155565b60009182526006602090815260408084206001600160a01b0393909316845291905290205460ff1690565b60606001805461041290611d66565b6106a6338383611135565b600080610b838361070b565b6020015190506000816003811115610b9d57610b9d611a92565b1480610bba57506002816003811115610bb857610bb8611a92565b145b9392505050565b610bcb3383610e4e565b610be75760405162461bcd60e51b815260040161053090611da0565b610bf384848484611203565b50505050565b6060610c0482610d7e565b6000610c1b60408051602081019091526000815290565b90506000815111610c3b5760405180602001604052806000815250610bba565b80610c4584611236565b604051602001610c56929190611ded565b6040516020818303038152906040529392505050565b600082815260066020526040902060010154610c878161103e565b6105d183836110ce565b6000805160206121e1833981519152610ca98161103e565b610cb5856007546112c9565b600754600090815260086020526040902080610cd18682611e6a565b5060018082018054869260ff1990911690836003811115610cf457610cf4611a92565b021790555060038101610d078482611e6a565b50600754610d16906001611f40565b6007556040517fad610f7658c24db7f4beb402dd596b16f095c0a549a7cf1e114ef16e61c1b3e990610d49908390611fd0565b60405180910390a1505050505050565b60006001600160e01b03198216637965db0b60e01b14806103fd57506103fd82611462565b6000818152600260205260409020546001600160a01b0316610ddd5760405162461bcd60e51b8152602060048201526018602482015277115490cdcc8c4e881a5b9d985b1a59081d1bdad95b88125160421b6044820152606401610530565b50565b600081815260046020526040902080546001600160a01b0319166001600160a01b0384169081179091558190610e1582610933565b6001600160a01b03167f8c5be1e5ebec7d5bd14f71427d1e84f3dd0314c0f7b2291e5b200ac8c7c3b92560405160405180910390a45050565b600080610e5a83610933565b9050806001600160a01b0316846001600160a01b03161480610ea157506001600160a01b0380821660009081526005602090815260408083209388168352929052205460ff165b80610ec55750836001600160a01b0316610eba84610495565b6001600160a01b0316145b949350505050565b826001600160a01b0316610ee082610933565b6001600160a01b031614610f065760405162461bcd60e51b815260040161053090612023565b6001600160a01b038216610f685760405162461bcd60e51b8152602060048201526024808201527f4552433732313a207472616e7366657220746f20746865207a65726f206164646044820152637265737360e01b6064820152608401610530565b610f7583838360016114b2565b826001600160a01b0316610f8882610933565b6001600160a01b031614610fae5760405162461bcd60e51b815260040161053090612023565b600081815260046020908152604080832080546001600160a01b03199081169091556001600160a01b0387811680865260038552838620805460001901905590871680865283862080546001019055868652600290945282852080549092168417909155905184937fddf252ad1be2c89b69c2b068fc378daa952ba7f163c4a11628f55a4df523b3ef91a4505050565b610ddd813361153a565b6110528282610b32565b6106a65760008281526006602090815260408083206001600160a01b03851684529091529020805460ff1916600117905561108a3390565b6001600160a01b0316816001600160a01b0316837f2f8788117e7eff1d82e926ec794901d17c78024a50270940304540a733656f0d60405160405180910390a45050565b6110d88282610b32565b156106a65760008281526006602090815260408083206001600160a01b0385168085529252808320805460ff1916905551339285917ff6391f5c32d9c69d2a47ea670b442974b53935d1edc7fd64eb21e047a839171b9190a45050565b816001600160a01b0316836001600160a01b0316036111965760405162461bcd60e51b815260206004820152601960248201527f4552433732313a20617070726f766520746f2063616c6c6572000000000000006044820152606401610530565b6001600160a01b03838116600081815260056020908152604080832094871680845294825291829020805460ff191686151590811790915591519182527f17307eab39ab6107e8899845ad3d59bd9653f200f220920489ca2b5937696c31910160405180910390a3505050565b61120e848484610ecd565b61121a84848484611593565b610bf35760405162461bcd60e51b815260040161053090612068565b6060600061124383611694565b600101905060008167ffffffffffffffff81111561126357611263611b93565b6040519080825280601f01601f19166020018201604052801561128d576020820181803683370190505b5090508181016020015b600019016f181899199a1a9b1b9c1cb0b131b232b360811b600a86061a8153600a850494508461129757509392505050565b6001600160a01b03821661131f5760405162461bcd60e51b815260206004820181905260248201527f4552433732313a206d696e7420746f20746865207a65726f20616464726573736044820152606401610530565b6000818152600260205260409020546001600160a01b0316156113845760405162461bcd60e51b815260206004820152601c60248201527f4552433732313a20746f6b656e20616c7265616479206d696e746564000000006044820152606401610530565b6113926000838360016114b2565b6000818152600260205260409020546001600160a01b0316156113f75760405162461bcd60e51b815260206004820152601c60248201527f4552433732313a20746f6b656e20616c7265616479206d696e746564000000006044820152606401610530565b6001600160a01b038216600081815260036020908152604080832080546001019055848352600290915280822080546001600160a01b0319168417905551839291907fddf252ad1be2c89b69c2b068fc378daa952ba7f163c4a11628f55a4df523b3ef908290a45050565b60006001600160e01b031982166380ac58cd60e01b148061149357506001600160e01b03198216635b5e139f60e01b145b806103fd57506301ffc9a760e01b6001600160e01b03198316146103fd565b6001811115610bf3576001600160a01b038416156114f8576001600160a01b038416600090815260036020526040812080548392906114f29084906120ba565b90915550505b6001600160a01b03831615610bf3576001600160a01b0383166000908152600360205260408120805483929061152f908490611f40565b909155505050505050565b6115448282610b32565b6106a6576115518161176c565b61155c83602061177e565b60405160200161156d9291906120cd565b60408051601f198184030181529082905262461bcd60e51b82526105309160040161199d565b60006001600160a01b0384163b1561168957604051630a85bd0160e11b81526001600160a01b0385169063150b7a02906115d7903390899088908890600401612142565b6020604051808303816000875af1925050508015611612575060408051601f3d908101601f1916820190925261160f9181019061217f565b60015b61166f573d808015611640576040519150601f19603f3d011682016040523d82523d6000602084013e611645565b606091505b5080516000036116675760405162461bcd60e51b815260040161053090612068565b805181602001fd5b6001600160e01b031916630a85bd0160e11b149050610ec5565b506001949350505050565b60008072184f03e93ff9f4daa797ed6e38ed64bf6a1f0160401b83106116d35772184f03e93ff9f4daa797ed6e38ed64bf6a1f0160401b830492506040015b6d04ee2d6d415b85acef810000000083106116ff576d04ee2d6d415b85acef8100000000830492506020015b662386f26fc10000831061171d57662386f26fc10000830492506010015b6305f5e1008310611735576305f5e100830492506008015b612710831061174957612710830492506004015b6064831061175b576064830492506002015b600a83106103fd5760010192915050565b60606103fd6001600160a01b03831660145b6060600061178d83600261219c565b611798906002611f40565b67ffffffffffffffff8111156117b0576117b0611b93565b6040519080825280601f01601f1916602001820160405280156117da576020820181803683370190505b509050600360fc1b816000815181106117f5576117f56121b3565b60200101906001600160f81b031916908160001a905350600f60fb1b81600181518110611824576118246121b3565b60200101906001600160f81b031916908160001a905350600061184884600261219c565b611853906001611f40565b90505b60018111156118cb576f181899199a1a9b1b9c1cb0b131b232b360811b85600f1660108110611887576118876121b3565b1a60f81b82828151811061189d5761189d6121b3565b60200101906001600160f81b031916908160001a90535060049490941c936118c4816121c9565b9050611856565b508315610bba5760405162461bcd60e51b815260206004820181905260248201527f537472696e67733a20686578206c656e67746820696e73756666696369656e746044820152606401610530565b6001600160e01b031981168114610ddd57600080fd5b60006020828403121561194257600080fd5b8135610bba8161191a565b60005b83811015611968578181015183820152602001611950565b50506000910152565b6000815180845261198981602086016020860161194d565b601f01601f19169290920160200192915050565b602081526000610bba6020830184611971565b6000602082840312156119c257600080fd5b5035919050565b80356001600160a01b03811681146119e057600080fd5b919050565b600080604083850312156119f857600080fd5b611a01836119c9565b946020939093013593505050565b600080600060608486031215611a2457600080fd5b611a2d846119c9565b9250611a3b602085016119c9565b9150604084013590509250925092565b60008060408385031215611a5e57600080fd5b82359150611a6e602084016119c9565b90509250929050565b600060208284031215611a8957600080fd5b610bba826119c9565b634e487b7160e01b600052602160045260246000fd5b60048110611ac657634e487b7160e01b600052602160045260246000fd5b9052565b602081526000825160806020840152611ae660a0840182611971565b90506020840151611afa6040850182611aa8565b50604084015160608401526060840151601f19848303016080850152611b208282611971565b95945050505050565b60008060408385031215611b3c57600080fd5b82359150602083013563ffffffff81168114611b5757600080fd5b809150509250929050565b60008060408385031215611b7557600080fd5b611b7e836119c9565b915060208301358015158114611b5757600080fd5b634e487b7160e01b600052604160045260246000fd5b600067ffffffffffffffff80841115611bc457611bc4611b93565b604051601f8501601f19908116603f01168101908282118183101715611bec57611bec611b93565b81604052809350858152868686011115611c0557600080fd5b858560208301376000602087830101525050509392505050565b60008060008060808587031215611c3557600080fd5b611c3e856119c9565b9350611c4c602086016119c9565b925060408501359150606085013567ffffffffffffffff811115611c6f57600080fd5b8501601f81018713611c8057600080fd5b611c8f87823560208401611ba9565b91505092959194509250565b600082601f830112611cac57600080fd5b610bba83833560208501611ba9565b60008060008060808587031215611cd157600080fd5b611cda856119c9565b9350602085013567ffffffffffffffff80821115611cf757600080fd5b611d0388838901611c9b565b94506040870135915060048210611d1957600080fd5b90925060608601359080821115611d2f57600080fd5b50611c8f87828801611c9b565b60008060408385031215611d4f57600080fd5b611d58836119c9565b9150611a6e602084016119c9565b600181811c90821680611d7a57607f821691505b602082108103611d9a57634e487b7160e01b600052602260045260246000fd5b50919050565b6020808252602d908201527f4552433732313a2063616c6c6572206973206e6f7420746f6b656e206f776e6560408201526c1c881bdc88185c1c1c9bdd9959609a1b606082015260800190565b60008351611dff81846020880161194d565b835190830190611e1381836020880161194d565b01949350505050565b601f8211156105d157600081815260208120601f850160051c81016020861015611e435750805b601f850160051c820191505b81811015611e6257828155600101611e4f565b505050505050565b815167ffffffffffffffff811115611e8457611e84611b93565b611e9881611e928454611d66565b84611e1c565b602080601f831160018114611ecd5760008415611eb55750858301515b600019600386901b1c1916600185901b178555611e62565b600085815260208120601f198616915b82811015611efc57888601518255948401946001909101908401611edd565b5085821015611f1a5787850151600019600388901b60f8161c191681555b5050505050600190811b01905550565b634e487b7160e01b600052601160045260246000fd5b808201808211156103fd576103fd611f2a565b60008154611f6081611d66565b808552602060018381168015611f7d5760018114611f9757611fc5565b60ff1985168884015283151560051b880183019550611fc5565b866000528260002060005b85811015611fbd5781548a8201860152908301908401611fa2565b890184019650505b505050505092915050565b60208152608060208201526000611fea60a0830184611f53565b60ff600185015416611fff6040850182611aa8565b5060028401546060840152828103601f19016080840152610ec58160038601611f53565b60208082526025908201527f4552433732313a207472616e736665722066726f6d20696e636f72726563742060408201526437bbb732b960d91b606082015260800190565b60208082526032908201527f4552433732313a207472616e7366657220746f206e6f6e20455243373231526560408201527131b2b4bb32b91034b6b83632b6b2b73a32b960711b606082015260800190565b818103818111156103fd576103fd611f2a565b7f416363657373436f6e74726f6c3a206163636f756e742000000000000000000081526000835161210581601785016020880161194d565b7001034b99036b4b9b9b4b733903937b6329607d1b601791840191820152835161213681602884016020880161194d565b01602801949350505050565b6001600160a01b038581168252841660208201526040810183905260806060820181905260009061217590830184611971565b9695505050505050565b60006020828403121561219157600080fd5b8151610bba8161191a565b80820281158282048414176103fd576103fd611f2a565b634e487b7160e01b600052603260045260246000fd5b6000816121d8576121d8611f2a565b50600019019056fe21702c8af46127c7fa207f89d0b0a8441bb32959a0ac7df790e9ab1a25c98926a26469706673582212202d54b731399c5e6b3392f2020e59e39fda905a939f8abfe2a45ec039b1787c1564736f6c63430008110033",
  "devdoc": {
    "kind": "dev",
    "methods": {
      "approve(address,uint256)": {
        "details": "See {IERC721-approve}."
      },
      "balanceOf(address)": {
        "details": "See {IERC721-balanceOf}."
      },
      "getApproved(uint256)": {
        "details": "See {IERC721-getApproved}."
      },
      "getRoleAdmin(bytes32)": {
        "details": "Returns the admin role that controls `role`. See {grantRole} and {revokeRole}. To change a role's admin, use {_setRoleAdmin}."
      },
      "grantRole(bytes32,address)": {
        "details": "Grants `role` to `account`. If `account` had not been already granted `role`, emits a {RoleGranted} event. Requirements: - the caller must have ``role``'s admin role. May emit a {RoleGranted} event."
      },
      "hasRole(bytes32,address)": {
        "details": "Returns `true` if `account` has been granted `role`."
      },
      "isApprovedForAll(address,address)": {
        "details": "See {IERC721-isApprovedForAll}."
      },
      "name()": {
        "details": "See {IERC721Metadata-name}."
      },
      "ownerOf(uint256)": {
        "details": "See {IERC721-ownerOf}."
      },
      "renounceRole(bytes32,address)": {
        "details": "Revokes `role` from the calling account. Roles are often managed via {grantRole} and {revokeRole}: this function's purpose is to provide a mechanism for accounts to lose their privileges if they are compromised (such as when a trusted device is misplaced). If the calling account had been revoked `role`, emits a {RoleRevoked} event. Requirements: - the caller must be `account`. May emit a {RoleRevoked} event."
      },
      "revokeRole(bytes32,address)": {
        "details": "Revokes `role` from `account`. If `account` had been granted `role`, emits a {RoleRevoked} event. Requirements: - the caller must have ``role``'s admin role. May emit a {RoleRevoked} event."
      },
      "safeTransferFrom(address,address,uint256)": {
        "details": "See {IERC721-safeTransferFrom}."
      },
      "safeTransferFrom(address,address,uint256,bytes)": {
        "details": "See {IERC721-safeTransferFrom}."
      },
      "setApprovalForAll(address,bool)": {
        "details": "See {IERC721-setApprovalForAll}."
      },
      "symbol()": {
        "details": "See {IERC721Metadata-symbol}."
      },
      "tokenURI(uint256)": {
        "details": "See {IERC721Metadata-tokenURI}."
      },
      "transferFrom(address,address,uint256)": {
        "details": "See {IERC721-transferFrom}."
      }
    },
    "version": 1
  },
  "userdoc": {
    "kind": "user",
    "methods": {},
    "version": 1
  },
  "storageLayout": {
    "storage": [
      {
        "astId": 2264,
        "contract": "contracts/DeedNFT.sol:DeedNFT",
        "label": "_name",
        "offset": 0,
        "slot": "0",
        "type": "t_string_storage"
      },
      {
        "astId": 2266,
        "contract": "contracts/DeedNFT.sol:DeedNFT",
        "label": "_symbol",
        "offset": 0,
        "slot": "1",
        "type": "t_string_storage"
      },
      {
        "astId": 2270,
        "contract": "contracts/DeedNFT.sol:DeedNFT",
        "label": "_owners",
        "offset": 0,
        "slot": "2",
        "type": "t_mapping(t_uint256,t_address)"
      },
      {
        "astId": 2274,
        "contract": "contracts/DeedNFT.sol:DeedNFT",
        "label": "_balances",
        "offset": 0,
        "slot": "3",
        "type": "t_mapping(t_address,t_uint256)"
      },
      {
        "astId": 2278,
        "contract": "contracts/DeedNFT.sol:DeedNFT",
        "label": "_tokenApprovals",
        "offset": 0,
        "slot": "4",
        "type": "t_mapping(t_uint256,t_address)"
      },
      {
        "astId": 2284,
        "contract": "contracts/DeedNFT.sol:DeedNFT",
        "label": "_operatorApprovals",
        "offset": 0,
        "slot": "5",
        "type": "t_mapping(t_address,t_mapping(t_address,t_bool))"
      },
      {
        "astId": 24,
        "contract": "contracts/DeedNFT.sol:DeedNFT",
        "label": "_roles",
        "offset": 0,
        "slot": "6",
        "type": "t_mapping(t_bytes32,t_struct(RoleData)19_storage)"
      },
      {
        "astId": 4792,
        "contract": "contracts/DeedNFT.sol:DeedNFT",
        "label": "_nextTokenId",
        "offset": 0,
        "slot": "7",
        "type": "t_uint256"
      },
      {
        "astId": 4797,
        "contract": "contracts/DeedNFT.sol:DeedNFT",
        "label": "deedInfoMap",
        "offset": 0,
        "slot": "8",
        "type": "t_mapping(t_uint256,t_struct(DeedInfo)4790_storage)"
      }
    ],
    "types": {
      "t_address": {
        "encoding": "inplace",
        "label": "address",
        "numberOfBytes": "20"
      },
      "t_bool": {
        "encoding": "inplace",
        "label": "bool",
        "numberOfBytes": "1"
      },
      "t_bytes32": {
        "encoding": "inplace",
        "label": "bytes32",
        "numberOfBytes": "32"
      },
      "t_enum(AssetType)4807": {
        "encoding": "inplace",
        "label": "enum DeedNFT.AssetType",
        "numberOfBytes": "1"
      },
      "t_mapping(t_address,t_bool)": {
        "encoding": "mapping",
        "key": "t_address",
        "label": "mapping(address => bool)",
        "numberOfBytes": "32",
        "value": "t_bool"
      },
      "t_mapping(t_address,t_mapping(t_address,t_bool))": {
        "encoding": "mapping",
        "key": "t_address",
        "label": "mapping(address => mapping(address => bool))",
        "numberOfBytes": "32",
        "value": "t_mapping(t_address,t_bool)"
      },
      "t_mapping(t_address,t_uint256)": {
        "encoding": "mapping",
        "key": "t_address",
        "label": "mapping(address => uint256)",
        "numberOfBytes": "32",
        "value": "t_uint256"
      },
      "t_mapping(t_bytes32,t_struct(RoleData)19_storage)": {
        "encoding": "mapping",
        "key": "t_bytes32",
        "label": "mapping(bytes32 => struct AccessControl.RoleData)",
        "numberOfBytes": "32",
        "value": "t_struct(RoleData)19_storage"
      },
      "t_mapping(t_uint256,t_address)": {
        "encoding": "mapping",
        "key": "t_uint256",
        "label": "mapping(uint256 => address)",
        "numberOfBytes": "32",
        "value": "t_address"
      },
      "t_mapping(t_uint256,t_struct(DeedInfo)4790_storage)": {
        "encoding": "mapping",
        "key": "t_uint256",
        "label": "mapping(uint256 => struct DeedNFT.DeedInfo)",
        "numberOfBytes": "32",
        "value": "t_struct(DeedInfo)4790_storage"
      },
      "t_string_storage": {
        "encoding": "bytes",
        "label": "string",
        "numberOfBytes": "32"
      },
      "t_struct(DeedInfo)4790_storage": {
        "encoding": "inplace",
        "label": "struct DeedNFT.DeedInfo",
        "members": [
          {
            "astId": 4782,
            "contract": "contracts/DeedNFT.sol:DeedNFT",
            "label": "ipfsDetailsHash",
            "offset": 0,
            "slot": "0",
            "type": "t_string_storage"
          },
          {
            "astId": 4785,
            "contract": "contracts/DeedNFT.sol:DeedNFT",
            "label": "assetType",
            "offset": 0,
            "slot": "1",
            "type": "t_enum(AssetType)4807"
          },
          {
            "astId": 4787,
            "contract": "contracts/DeedNFT.sol:DeedNFT",
            "label": "price",
            "offset": 0,
            "slot": "2",
            "type": "t_uint256"
          },
          {
            "astId": 4789,
            "contract": "contracts/DeedNFT.sol:DeedNFT",
            "label": "deedAddress",
            "offset": 0,
            "slot": "3",
            "type": "t_string_storage"
          }
        ],
        "numberOfBytes": "128"
      },
      "t_struct(RoleData)19_storage": {
        "encoding": "inplace",
        "label": "struct AccessControl.RoleData",
        "members": [
          {
            "astId": 16,
            "contract": "contracts/DeedNFT.sol:DeedNFT",
            "label": "members",
            "offset": 0,
            "slot": "0",
            "type": "t_mapping(t_address,t_bool)"
          },
          {
            "astId": 18,
            "contract": "contracts/DeedNFT.sol:DeedNFT",
            "label": "adminRole",
            "offset": 0,
            "slot": "1",
            "type": "t_bytes32"
          }
        ],
        "numberOfBytes": "64"
      },
      "t_uint256": {
        "encoding": "inplace",
        "label": "uint256",
        "numberOfBytes": "32"
      }
    }
  }
}