{
  "address": "0x0fA98D8B8C7325da91aCab3027c5b0A82571EF58",
  "abi": [
    {
      "inputs": [
        {
          "internalType": "address",
          "name": "admin",
          "type": "address"
        }
      ],
      "stateMutability": "nonpayable",
      "type": "constructor"
    },
    {
      "anonymous": false,
      "inputs": [
        {
          "indexed": true,
          "internalType": "bytes32",
          "name": "role",
          "type": "bytes32"
        },
        {
          "indexed": true,
          "internalType": "bytes32",
          "name": "previousAdminRole",
          "type": "bytes32"
        },
        {
          "indexed": true,
          "internalType": "bytes32",
          "name": "newAdminRole",
          "type": "bytes32"
        }
      ],
      "name": "RoleAdminChanged",
      "type": "event"
    },
    {
      "anonymous": false,
      "inputs": [
        {
          "indexed": true,
          "internalType": "bytes32",
          "name": "role",
          "type": "bytes32"
        },
        {
          "indexed": true,
          "internalType": "address",
          "name": "account",
          "type": "address"
        },
        {
          "indexed": true,
          "internalType": "address",
          "name": "sender",
          "type": "address"
        }
      ],
      "name": "RoleGranted",
      "type": "event"
    },
    {
      "anonymous": false,
      "inputs": [
        {
          "indexed": true,
          "internalType": "bytes32",
          "name": "role",
          "type": "bytes32"
        },
        {
          "indexed": true,
          "internalType": "address",
          "name": "account",
          "type": "address"
        },
        {
          "indexed": true,
          "internalType": "address",
          "name": "sender",
          "type": "address"
        }
      ],
      "name": "RoleRevoked",
      "type": "event"
    },
    {
      "inputs": [],
      "name": "AGENT_ROLE",
      "outputs": [
        {
          "internalType": "bytes32",
          "name": "",
          "type": "bytes32"
        }
      ],
      "stateMutability": "view",
      "type": "function"
    },
    {
      "inputs": [],
      "name": "DEFAULT_ADMIN_ROLE",
      "outputs": [
        {
          "internalType": "bytes32",
          "name": "",
          "type": "bytes32"
        }
      ],
      "stateMutability": "view",
      "type": "function"
    },
    {
      "inputs": [],
      "name": "VALIDATOR_ROLE",
      "outputs": [
        {
          "internalType": "bytes32",
          "name": "",
          "type": "bytes32"
        }
      ],
      "stateMutability": "view",
      "type": "function"
    },
    {
      "inputs": [
        {
          "internalType": "address",
          "name": "_validator",
          "type": "address"
        }
      ],
      "name": "addValidator",
      "outputs": [],
      "stateMutability": "nonpayable",
      "type": "function"
    },
    {
      "inputs": [
        {
          "internalType": "bytes32",
          "name": "role",
          "type": "bytes32"
        }
      ],
      "name": "getRoleAdmin",
      "outputs": [
        {
          "internalType": "bytes32",
          "name": "",
          "type": "bytes32"
        }
      ],
      "stateMutability": "view",
      "type": "function"
    },
    {
      "inputs": [
        {
          "internalType": "bytes32",
          "name": "role",
          "type": "bytes32"
        },
        {
          "internalType": "address",
          "name": "account",
          "type": "address"
        }
      ],
      "name": "grantRole",
      "outputs": [],
      "stateMutability": "nonpayable",
      "type": "function"
    },
    {
      "inputs": [
        {
          "internalType": "address",
          "name": "_address",
          "type": "address"
        }
      ],
      "name": "hasAdminRole",
      "outputs": [
        {
          "internalType": "bool",
          "name": "",
          "type": "bool"
        }
      ],
      "stateMutability": "view",
      "type": "function"
    },
    {
      "inputs": [
        {
          "internalType": "bytes32",
          "name": "role",
          "type": "bytes32"
        },
        {
          "internalType": "address",
          "name": "account",
          "type": "address"
        }
      ],
      "name": "hasRole",
      "outputs": [
        {
          "internalType": "bool",
          "name": "",
          "type": "bool"
        }
      ],
      "stateMutability": "view",
      "type": "function"
    },
    {
      "inputs": [
        {
          "internalType": "address",
          "name": "_address",
          "type": "address"
        }
      ],
      "name": "hasValidatorRole",
      "outputs": [
        {
          "internalType": "bool",
          "name": "",
          "type": "bool"
        }
      ],
      "stateMutability": "view",
      "type": "function"
    },
    {
      "inputs": [
        {
          "internalType": "address",
          "name": "_validator",
          "type": "address"
        }
      ],
      "name": "removeValidator",
      "outputs": [],
      "stateMutability": "nonpayable",
      "type": "function"
    },
    {
      "inputs": [
        {
          "internalType": "bytes32",
          "name": "role",
          "type": "bytes32"
        },
        {
          "internalType": "address",
          "name": "account",
          "type": "address"
        }
      ],
      "name": "renounceRole",
      "outputs": [],
      "stateMutability": "nonpayable",
      "type": "function"
    },
    {
      "inputs": [
        {
          "internalType": "bytes32",
          "name": "role",
          "type": "bytes32"
        },
        {
          "internalType": "address",
          "name": "account",
          "type": "address"
        }
      ],
      "name": "revokeRole",
      "outputs": [],
      "stateMutability": "nonpayable",
      "type": "function"
    },
    {
      "inputs": [
        {
          "internalType": "bytes4",
          "name": "_interfaceId",
          "type": "bytes4"
        }
      ],
      "name": "supportsInterface",
      "outputs": [
        {
          "internalType": "bool",
          "name": "",
          "type": "bool"
        }
      ],
      "stateMutability": "view",
      "type": "function"
    }
  ],
  "transactionHash": "0xf7f6e56ba0023042a0bdaf8740d5c68fd6eb1f0d1e219e0fdac5ee752e2659e1",
  "args": [
    "0x91B0d67D3F47A30FBEeB159E67209Ad6cb2cE22E"
  ],
  "numDeployments": 2,
  "solcInputHash": "3c5985a446ae1693d481f1d5eab199c5",
  "bytecode": "0x608060405234801561001057600080fd5b50604051610b04380380610b0483398101604081905261002f916100ec565b61003a600082610040565b5061011c565b61004a828261004e565b5050565b6000828152602081815260408083206001600160a01b038516845290915290205460ff1661004a576000828152602081815260408083206001600160a01b03851684529091529020805460ff191660011790556100a83390565b6001600160a01b0316816001600160a01b0316837f2f8788117e7eff1d82e926ec794901d17c78024a50270940304540a733656f0d60405160405180910390a45050565b6000602082840312156100fe57600080fd5b81516001600160a01b038116811461011557600080fd5b9392505050565b6109d98061012b6000396000f3fe608060405234801561001057600080fd5b50600436106100cf5760003560e01c80634d238c8e1161008c578063a217fddf11610066578063a217fddf146101c8578063c395fcb3146101d0578063c49baebe146101e3578063d547741f146101f857600080fd5b80634d238c8e1461018f57806391d14854146101a2578063940e1570146101b557600080fd5b806301ffc9a7146100d457806322459e18146100fc578063248a9ca3146101315780632f2ff15d1461015457806336568abe1461016957806340a141ff1461017c575b600080fd5b6100e76100e2366004610724565b61020b565b60405190151581526020015b60405180910390f35b6101237fcab5a0bfe0b79d2c4b1c2e02599fa044d115b7511f9659307cb427695096770981565b6040519081526020016100f3565b61012361013f36600461074e565b60009081526020819052604090206001015490565b610167610162366004610783565b61021c565b005b610167610177366004610783565b610246565b61016761018a3660046107af565b6102c9565b61016761019d3660046107af565b610320565b6100e76101b0366004610783565b610377565b6100e76101c33660046107af565b6103a0565b610123600081565b6100e76101de3660046107af565b6103ba565b61012360008051602061098483398151915281565b610167610206366004610783565b6103c6565b6000610216826103eb565b92915050565b60008281526020819052604090206001015461023781610420565b610241838361042d565b505050565b6001600160a01b03811633146102bb5760405162461bcd60e51b815260206004820152602f60248201527f416363657373436f6e74726f6c3a2063616e206f6e6c792072656e6f756e636560448201526e103937b632b9903337b91039b2b63360891b60648201526084015b60405180910390fd5b6102c582826104b1565b5050565b6340a141ff60e01b6102dc600033610377565b806102ec57506102ec8133610377565b6103085760405162461bcd60e51b81526004016102b2906107ca565b6102c5600080516020610984833981519152836103c6565b632691c64760e11b610333600033610377565b8061034357506103438133610377565b61035f5760405162461bcd60e51b81526004016102b2906107ca565b6102c56000805160206109848339815191528361021c565b6000918252602082815260408084206001600160a01b0393909316845291905290205460ff1690565b600061021660008051602061098483398151915283610377565b60006102168183610377565b6000828152602081905260409020600101546103e181610420565b61024183836104b1565b60006001600160e01b03198216637965db0b60e01b148061021657506301ffc9a760e01b6001600160e01b0319831614610216565b61042a8133610516565b50565b6104378282610377565b6102c5576000828152602081815260408083206001600160a01b03851684529091529020805460ff1916600117905561046d3390565b6001600160a01b0316816001600160a01b0316837f2f8788117e7eff1d82e926ec794901d17c78024a50270940304540a733656f0d60405160405180910390a45050565b6104bb8282610377565b156102c5576000828152602081815260408083206001600160a01b0385168085529252808320805460ff1916905551339285917ff6391f5c32d9c69d2a47ea670b442974b53935d1edc7fd64eb21e047a839171b9190a45050565b6105208282610377565b6102c55761052d8161056f565b610538836020610581565b604051602001610549929190610858565b60408051601f198184030181529082905262461bcd60e51b82526102b2916004016108cd565b60606102166001600160a01b03831660145b60606000610590836002610916565b61059b90600261092d565b67ffffffffffffffff8111156105b3576105b3610940565b6040519080825280601f01601f1916602001820160405280156105dd576020820181803683370190505b509050600360fc1b816000815181106105f8576105f8610956565b60200101906001600160f81b031916908160001a905350600f60fb1b8160018151811061062757610627610956565b60200101906001600160f81b031916908160001a905350600061064b846002610916565b61065690600161092d565b90505b60018111156106ce576f181899199a1a9b1b9c1cb0b131b232b360811b85600f166010811061068a5761068a610956565b1a60f81b8282815181106106a0576106a0610956565b60200101906001600160f81b031916908160001a90535060049490941c936106c78161096c565b9050610659565b50831561071d5760405162461bcd60e51b815260206004820181905260248201527f537472696e67733a20686578206c656e67746820696e73756666696369656e7460448201526064016102b2565b9392505050565b60006020828403121561073657600080fd5b81356001600160e01b03198116811461071d57600080fd5b60006020828403121561076057600080fd5b5035919050565b80356001600160a01b038116811461077e57600080fd5b919050565b6000806040838503121561079657600080fd5b823591506107a660208401610767565b90509250929050565b6000602082840312156107c157600080fd5b61071d82610767565b60208082526044908201527f5b4163636573734d616e616765725d204f6e6c79207468652041646d696e206f60408201527f722066756e6374696f6e206772616e74656420757365722063616e20696e74656060820152631c9858dd60e21b608082015260a00190565b60005b8381101561084f578181015183820152602001610837565b50506000910152565b7f416363657373436f6e74726f6c3a206163636f756e7420000000000000000000815260008351610890816017850160208801610834565b7001034b99036b4b9b9b4b733903937b6329607d1b60179184019182015283516108c1816028840160208801610834565b01602801949350505050565b60208152600082518060208401526108ec816040850160208701610834565b601f01601f19169190910160400192915050565b634e487b7160e01b600052601160045260246000fd5b808202811582820484141761021657610216610900565b8082018082111561021657610216610900565b634e487b7160e01b600052604160045260246000fd5b634e487b7160e01b600052603260045260246000fd5b60008161097b5761097b610900565b50600019019056fe21702c8af46127c7fa207f89d0b0a8441bb32959a0ac7df790e9ab1a25c98926a264697066735822122036449faa3fabdc5a07d44c5186c56b4dddd1594996e10f97ecfa5cc1bf000e6d64736f6c63430008110033",
  "devdoc": {
    "kind": "dev",
    "methods": {
      "addValidator(address)": {
        "details": "Add a validator to the contract"
      },
      "getRoleAdmin(bytes32)": {
        "details": "Returns the admin role that controls `role`. See {grantRole} and {revokeRole}. To change a role's admin, use {_setRoleAdmin}."
      },
      "grantRole(bytes32,address)": {
        "details": "Grants `role` to `account`. If `account` had not been already granted `role`, emits a {RoleGranted} event. Requirements: - the caller must have ``role``'s admin role. May emit a {RoleGranted} event."
      },
      "hasAdminRole(address)": {
        "details": "Check if an address has the admin role"
      },
      "hasRole(bytes32,address)": {
        "details": "Returns `true` if `account` has been granted `role`."
      },
      "hasValidatorRole(address)": {
        "details": "Check if an address has the validator role",
        "params": {
          "_address": "The address to check"
        }
      },
      "removeValidator(address)": {
        "details": "Remove a validator from the contract"
      },
      "renounceRole(bytes32,address)": {
        "details": "Revokes `role` from the calling account. Roles are often managed via {grantRole} and {revokeRole}: this function's purpose is to provide a mechanism for accounts to lose their privileges if they are compromised (such as when a trusted device is misplaced). If the calling account had been revoked `role`, emits a {RoleRevoked} event. Requirements: - the caller must be `account`. May emit a {RoleRevoked} event."
      },
      "revokeRole(bytes32,address)": {
        "details": "Revokes `role` from `account`. If `account` had been granted `role`, emits a {RoleRevoked} event. Requirements: - the caller must have ``role``'s admin role. May emit a {RoleRevoked} event."
      },
      "supportsInterface(bytes4)": {
        "details": "See {IERC165-supportsInterface}."
      }
    },
    "version": 1
  },
  "userdoc": {
    "kind": "user",
    "methods": {},
    "version": 1
  },
  "storageLayout": {
    "storage": [
      {
        "astId": 24,
        "contract": "contracts/AccessManager.sol:AccessManager",
        "label": "_roles",
        "offset": 0,
        "slot": "0",
        "type": "t_mapping(t_bytes32,t_struct(RoleData)19_storage)"
      }
    ],
    "types": {
      "t_address": {
        "encoding": "inplace",
        "label": "address",
        "numberOfBytes": "20"
      },
      "t_bool": {
        "encoding": "inplace",
        "label": "bool",
        "numberOfBytes": "1"
      },
      "t_bytes32": {
        "encoding": "inplace",
        "label": "bytes32",
        "numberOfBytes": "32"
      },
      "t_mapping(t_address,t_bool)": {
        "encoding": "mapping",
        "key": "t_address",
        "label": "mapping(address => bool)",
        "numberOfBytes": "32",
        "value": "t_bool"
      },
      "t_mapping(t_bytes32,t_struct(RoleData)19_storage)": {
        "encoding": "mapping",
        "key": "t_bytes32",
        "label": "mapping(bytes32 => struct AccessControl.RoleData)",
        "numberOfBytes": "32",
        "value": "t_struct(RoleData)19_storage"
      },
      "t_struct(RoleData)19_storage": {
        "encoding": "inplace",
        "label": "struct AccessControl.RoleData",
        "members": [
          {
            "astId": 16,
            "contract": "contracts/AccessManager.sol:AccessManager",
            "label": "members",
            "offset": 0,
            "slot": "0",
            "type": "t_mapping(t_address,t_bool)"
          },
          {
            "astId": 18,
            "contract": "contracts/AccessManager.sol:AccessManager",
            "label": "adminRole",
            "offset": 0,
            "slot": "1",
            "type": "t_bytes32"
          }
        ],
        "numberOfBytes": "64"
      }
    }
  }
}