{
  "address": "0xd8D142f13E58dFEedaF96418C0B6843108d46B94",
  "abi": [
    {
      "inputs": [
        {
          "internalType": "address",
          "name": "_accessManager",
          "type": "address"
        }
      ],
      "stateMutability": "nonpayable",
      "type": "constructor"
    },
    {
      "inputs": [
        {
          "internalType": "address",
          "name": "sender",
          "type": "address"
        },
        {
          "internalType": "uint256",
          "name": "tokenId",
          "type": "uint256"
        },
        {
          "internalType": "address",
          "name": "owner",
          "type": "address"
        }
      ],
      "name": "ERC721IncorrectOwner",
      "type": "error"
    },
    {
      "inputs": [
        {
          "internalType": "address",
          "name": "operator",
          "type": "address"
        },
        {
          "internalType": "uint256",
          "name": "tokenId",
          "type": "uint256"
        }
      ],
      "name": "ERC721InsufficientApproval",
      "type": "error"
    },
    {
      "inputs": [
        {
          "internalType": "address",
          "name": "approver",
          "type": "address"
        }
      ],
      "name": "ERC721InvalidApprover",
      "type": "error"
    },
    {
      "inputs": [
        {
          "internalType": "address",
          "name": "operator",
          "type": "address"
        }
      ],
      "name": "ERC721InvalidOperator",
      "type": "error"
    },
    {
      "inputs": [
        {
          "internalType": "address",
          "name": "owner",
          "type": "address"
        }
      ],
      "name": "ERC721InvalidOwner",
      "type": "error"
    },
    {
      "inputs": [
        {
          "internalType": "address",
          "name": "receiver",
          "type": "address"
        }
      ],
      "name": "ERC721InvalidReceiver",
      "type": "error"
    },
    {
      "inputs": [
        {
          "internalType": "address",
          "name": "sender",
          "type": "address"
        }
      ],
      "name": "ERC721InvalidSender",
      "type": "error"
    },
    {
      "inputs": [
        {
          "internalType": "uint256",
          "name": "tokenId",
          "type": "uint256"
        }
      ],
      "name": "ERC721NonexistentToken",
      "type": "error"
    },
    {
      "anonymous": false,
      "inputs": [
        {
          "indexed": true,
          "internalType": "address",
          "name": "owner",
          "type": "address"
        },
        {
          "indexed": true,
          "internalType": "address",
          "name": "approved",
          "type": "address"
        },
        {
          "indexed": true,
          "internalType": "uint256",
          "name": "tokenId",
          "type": "uint256"
        }
      ],
      "name": "Approval",
      "type": "event"
    },
    {
      "anonymous": false,
      "inputs": [
        {
          "indexed": true,
          "internalType": "address",
          "name": "owner",
          "type": "address"
        },
        {
          "indexed": true,
          "internalType": "address",
          "name": "operator",
          "type": "address"
        },
        {
          "indexed": false,
          "internalType": "bool",
          "name": "approved",
          "type": "bool"
        }
      ],
      "name": "ApprovalForAll",
      "type": "event"
    },
    {
      "anonymous": false,
      "inputs": [
        {
          "indexed": false,
          "internalType": "uint256",
          "name": "_fromTokenId",
          "type": "uint256"
        },
        {
          "indexed": false,
          "internalType": "uint256",
          "name": "_toTokenId",
          "type": "uint256"
        }
      ],
      "name": "BatchMetadataUpdate",
      "type": "event"
    },
    {
      "anonymous": false,
      "inputs": [
        {
          "indexed": false,
          "internalType": "uint256",
          "name": "deedId",
          "type": "uint256"
        },
        {
          "indexed": false,
          "internalType": "enum DeedNFT.AssetType",
          "name": "newAssetType",
          "type": "uint8"
        }
      ],
      "name": "DeedNFTAssetTypeSet",
      "type": "event"
    },
    {
      "anonymous": false,
      "inputs": [
        {
          "indexed": false,
          "internalType": "uint256",
          "name": "deedId",
          "type": "uint256"
        },
        {
          "indexed": false,
          "internalType": "bool",
          "name": "isValid",
          "type": "bool"
        }
      ],
      "name": "DeedNFTAssetValidationSet",
      "type": "event"
    },
    {
      "anonymous": false,
      "inputs": [
        {
          "indexed": false,
          "internalType": "uint256",
          "name": "deedId",
          "type": "uint256"
        }
      ],
      "name": "DeedNFTBurned",
      "type": "event"
    },
    {
      "anonymous": false,
      "inputs": [
        {
          "indexed": false,
          "internalType": "uint256",
          "name": "deedId",
          "type": "uint256"
        },
        {
          "indexed": false,
          "internalType": "string",
          "name": "newIpfsDetailsHash",
          "type": "string"
        }
      ],
      "name": "DeedNFTIpfsDetailsSet",
      "type": "event"
    },
    {
      "anonymous": false,
      "inputs": [
        {
          "indexed": false,
          "internalType": "uint256",
          "name": "deedId",
          "type": "uint256"
        },
        {
          "components": [
            {
              "internalType": "enum DeedNFT.AssetType",
              "name": "assetType",
              "type": "uint8"
            },
            {
              "internalType": "uint256",
              "name": "price",
              "type": "uint256"
            },
            {
              "internalType": "bool",
              "name": "isValidated",
              "type": "bool"
            }
          ],
          "indexed": false,
          "internalType": "struct DeedNFT.DeedInfo",
          "name": "deedInfo",
          "type": "tuple"
        },
        {
          "indexed": false,
          "internalType": "address",
          "name": "minter",
          "type": "address"
        }
      ],
      "name": "DeedNFTMinted",
      "type": "event"
    },
    {
      "anonymous": false,
      "inputs": [
        {
          "indexed": false,
          "internalType": "uint256",
          "name": "deedId",
          "type": "uint256"
        },
        {
          "indexed": false,
          "internalType": "uint256",
          "name": "newPrice",
          "type": "uint256"
        }
      ],
      "name": "DeedNFTPriceUpdated",
      "type": "event"
    },
    {
      "anonymous": false,
      "inputs": [
        {
          "indexed": false,
          "internalType": "uint256",
          "name": "_tokenId",
          "type": "uint256"
        }
      ],
      "name": "MetadataUpdate",
      "type": "event"
    },
    {
      "anonymous": false,
      "inputs": [
        {
          "indexed": true,
          "internalType": "address",
          "name": "from",
          "type": "address"
        },
        {
          "indexed": true,
          "internalType": "address",
          "name": "to",
          "type": "address"
        },
        {
          "indexed": true,
          "internalType": "uint256",
          "name": "tokenId",
          "type": "uint256"
        }
      ],
      "name": "Transfer",
      "type": "event"
    },
    {
      "inputs": [
        {
          "internalType": "address",
          "name": "to",
          "type": "address"
        },
        {
          "internalType": "uint256",
          "name": "tokenId",
          "type": "uint256"
        }
      ],
      "name": "approve",
      "outputs": [],
      "stateMutability": "nonpayable",
      "type": "function"
    },
    {
      "inputs": [
        {
          "internalType": "address",
          "name": "owner",
          "type": "address"
        }
      ],
      "name": "balanceOf",
      "outputs": [
        {
          "internalType": "uint256",
          "name": "",
          "type": "uint256"
        }
      ],
      "stateMutability": "view",
      "type": "function"
    },
    {
      "inputs": [
        {
          "internalType": "uint256",
          "name": "_deedId",
          "type": "uint256"
        }
      ],
      "name": "burn",
      "outputs": [],
      "stateMutability": "nonpayable",
      "type": "function"
    },
    {
      "inputs": [
        {
          "internalType": "uint256",
          "name": "_deedId",
          "type": "uint256"
        }
      ],
      "name": "canSubdivide",
      "outputs": [
        {
          "internalType": "bool",
          "name": "",
          "type": "bool"
        }
      ],
      "stateMutability": "view",
      "type": "function"
    },
    {
      "inputs": [
        {
          "internalType": "uint256",
          "name": "tokenId",
          "type": "uint256"
        }
      ],
      "name": "getApproved",
      "outputs": [
        {
          "internalType": "address",
          "name": "",
          "type": "address"
        }
      ],
      "stateMutability": "view",
      "type": "function"
    },
    {
      "inputs": [
        {
          "internalType": "uint256",
          "name": "_deedId",
          "type": "uint256"
        }
      ],
      "name": "getDeedInfo",
      "outputs": [
        {
          "components": [
            {
              "internalType": "enum DeedNFT.AssetType",
              "name": "assetType",
              "type": "uint8"
            },
            {
              "internalType": "uint256",
              "name": "price",
              "type": "uint256"
            },
            {
              "internalType": "bool",
              "name": "isValidated",
              "type": "bool"
            }
          ],
          "internalType": "struct DeedNFT.DeedInfo",
          "name": "",
          "type": "tuple"
        }
      ],
      "stateMutability": "view",
      "type": "function"
    },
    {
      "inputs": [],
      "name": "hasAdminRole",
      "outputs": [
        {
          "internalType": "bool",
          "name": "",
          "type": "bool"
        }
      ],
      "stateMutability": "view",
      "type": "function"
    },
    {
      "inputs": [
        {
          "internalType": "bytes32",
          "name": "_role",
          "type": "bytes32"
        },
        {
          "internalType": "address",
          "name": "_address",
          "type": "address"
        }
      ],
      "name": "hasRole",
      "outputs": [
        {
          "internalType": "bool",
          "name": "",
          "type": "bool"
        }
      ],
      "stateMutability": "view",
      "type": "function"
    },
    {
      "inputs": [],
      "name": "hasValidatorRole",
      "outputs": [
        {
          "internalType": "bool",
          "name": "",
          "type": "bool"
        }
      ],
      "stateMutability": "view",
      "type": "function"
    },
    {
      "inputs": [
        {
          "internalType": "address",
          "name": "owner",
          "type": "address"
        },
        {
          "internalType": "address",
          "name": "operator",
          "type": "address"
        }
      ],
      "name": "isApprovedForAll",
      "outputs": [
        {
          "internalType": "bool",
          "name": "",
          "type": "bool"
        }
      ],
      "stateMutability": "view",
      "type": "function"
    },
    {
      "inputs": [
        {
          "internalType": "address",
          "name": "_owner",
          "type": "address"
        },
        {
          "internalType": "string",
          "name": "_ipfsDetailsHash",
          "type": "string"
        },
        {
          "internalType": "enum DeedNFT.AssetType",
          "name": "_assetType",
          "type": "uint8"
        }
      ],
      "name": "mintAsset",
      "outputs": [],
      "stateMutability": "nonpayable",
      "type": "function"
    },
    {
      "inputs": [],
      "name": "name",
      "outputs": [
        {
          "internalType": "string",
          "name": "",
          "type": "string"
        }
      ],
      "stateMutability": "view",
      "type": "function"
    },
    {
      "inputs": [
        {
          "internalType": "uint256",
          "name": "tokenId",
          "type": "uint256"
        }
      ],
      "name": "ownerOf",
      "outputs": [
        {
          "internalType": "address",
          "name": "",
          "type": "address"
        }
      ],
      "stateMutability": "view",
      "type": "function"
    },
    {
      "inputs": [
        {
          "internalType": "address",
          "name": "from",
          "type": "address"
        },
        {
          "internalType": "address",
          "name": "to",
          "type": "address"
        },
        {
          "internalType": "uint256",
          "name": "tokenId",
          "type": "uint256"
        }
      ],
      "name": "safeTransferFrom",
      "outputs": [],
      "stateMutability": "nonpayable",
      "type": "function"
    },
    {
      "inputs": [
        {
          "internalType": "address",
          "name": "from",
          "type": "address"
        },
        {
          "internalType": "address",
          "name": "to",
          "type": "address"
        },
        {
          "internalType": "uint256",
          "name": "tokenId",
          "type": "uint256"
        },
        {
          "internalType": "bytes",
          "name": "data",
          "type": "bytes"
        }
      ],
      "name": "safeTransferFrom",
      "outputs": [],
      "stateMutability": "nonpayable",
      "type": "function"
    },
    {
      "inputs": [
        {
          "internalType": "address",
          "name": "operator",
          "type": "address"
        },
        {
          "internalType": "bool",
          "name": "approved",
          "type": "bool"
        }
      ],
      "name": "setApprovalForAll",
      "outputs": [],
      "stateMutability": "nonpayable",
      "type": "function"
    },
    {
      "inputs": [
        {
          "internalType": "uint256",
          "name": "_deedId",
          "type": "uint256"
        },
        {
          "internalType": "enum DeedNFT.AssetType",
          "name": "_assetType",
          "type": "uint8"
        }
      ],
      "name": "setAssetType",
      "outputs": [],
      "stateMutability": "nonpayable",
      "type": "function"
    },
    {
      "inputs": [
        {
          "internalType": "uint256",
          "name": "_deedId",
          "type": "uint256"
        },
        {
          "internalType": "bool",
          "name": "_isValid",
          "type": "bool"
        }
      ],
      "name": "setAssetValidation",
      "outputs": [],
      "stateMutability": "nonpayable",
      "type": "function"
    },
    {
      "inputs": [
        {
          "internalType": "uint256",
          "name": "_deedId",
          "type": "uint256"
        },
        {
          "internalType": "string",
          "name": "_ipfsDetailsHash",
          "type": "string"
        }
      ],
      "name": "setIpfsDetailsHash",
      "outputs": [],
      "stateMutability": "nonpayable",
      "type": "function"
    },
    {
      "inputs": [
        {
          "internalType": "uint256",
          "name": "_deedId",
          "type": "uint256"
        },
        {
          "internalType": "uint32",
          "name": "_newPrice",
          "type": "uint32"
        }
      ],
      "name": "setPrice",
      "outputs": [],
      "stateMutability": "nonpayable",
      "type": "function"
    },
    {
      "inputs": [
        {
          "internalType": "bytes4",
          "name": "_interfaceId",
          "type": "bytes4"
        }
      ],
      "name": "supportsInterface",
      "outputs": [
        {
          "internalType": "bool",
          "name": "",
          "type": "bool"
        }
      ],
      "stateMutability": "view",
      "type": "function"
    },
    {
      "inputs": [],
      "name": "symbol",
      "outputs": [
        {
          "internalType": "string",
          "name": "",
          "type": "string"
        }
      ],
      "stateMutability": "view",
      "type": "function"
    },
    {
      "inputs": [
        {
          "internalType": "uint256",
          "name": "_deedId",
          "type": "uint256"
        }
      ],
      "name": "tokenURI",
      "outputs": [
        {
          "internalType": "string",
          "name": "",
          "type": "string"
        }
      ],
      "stateMutability": "view",
      "type": "function"
    },
    {
      "inputs": [
        {
          "internalType": "address",
          "name": "from",
          "type": "address"
        },
        {
          "internalType": "address",
          "name": "to",
          "type": "address"
        },
        {
          "internalType": "uint256",
          "name": "tokenId",
          "type": "uint256"
        }
      ],
      "name": "transferFrom",
      "outputs": [],
      "stateMutability": "nonpayable",
      "type": "function"
    }
  ],
  "transactionHash": "0x9372f84488c9b413da255aa0e52874cea5264c42a92690a68b99980c1598417a",
  "args": [
    "0x351a9ED0C54bb2aFE7Ad1AAB5Ce8732248C99f00"
  ],
  "numDeployments": 13,
  "solcInputHash": "d5cc4ed7f5f73218f2a2102d5a7d11a5",
  "bytecode": "0x608060405234801562000010575f80fd5b506040516200216c3803806200216c8339810160408190526200003391620000c0565b80604051806040016040528060078152602001661119595913919560ca1b815250604051806040016040528060048152602001631111515160e21b815250815f90816200008191906200018f565b5060016200009082826200018f565b5050600780546001600160a01b0319166001600160a01b0393909316929092179091555050600160085562000257565b5f60208284031215620000d1575f80fd5b81516001600160a01b0381168114620000e8575f80fd5b9392505050565b634e487b7160e01b5f52604160045260245ffd5b600181811c908216806200011857607f821691505b6020821081036200013757634e487b7160e01b5f52602260045260245ffd5b50919050565b601f8211156200018a575f81815260208120601f850160051c81016020861015620001655750805b601f850160051c820191505b81811015620001865782815560010162000171565b5050505b505050565b81516001600160401b03811115620001ab57620001ab620000ef565b620001c381620001bc845462000103565b846200013d565b602080601f831160018114620001f9575f8415620001e15750858301515b5f19600386901b1c1916600185901b17855562000186565b5f85815260208120601f198616915b82811015620002295788860151825594840194600190910190840162000208565b50858210156200024757878501515f19600388901b60f8161c191681555b5050505050600190811b01905550565b611f0780620002655f395ff3fe608060405234801561000f575f80fd5b5060043610610153575f3560e01c806370a08231116100bf578063b82c356911610079578063b82c3569146102e3578063b88d4fde146102f6578063b99c23e314610309578063c87b56dd14610311578063e985e9c514610324578063f1bc667314610337575f80fd5b806370a0823114610279578063894176351461029a57806389b9e75f146102ad57806391d14854146102b557806395d89b41146102c8578063a22cb465146102d0575f80fd5b806342842e0e1161011057806342842e0e146101fa57806342966c681461020d57806362d402bc146102205780636352211e14610240578063682ece02146102535780636f6c15dd14610266575f80fd5b806301ffc9a71461015757806306fdde031461017f578063081812fc14610194578063095ea7b3146101bf5780631a6c41e2146101d457806323b872dd146101e7575b5f80fd5b61016a610165366004611749565b61034a565b60405190151581526020015b60405180910390f35b61018761035a565b60405161017691906117b1565b6101a76101a23660046117c3565b6103e9565b6040516001600160a01b039091168152602001610176565b6101d26101cd3660046117f5565b610410565b005b6101d26101e23660046118d0565b61041f565b6101d26101f536600461192a565b6104d1565b6101d261020836600461192a565b61055f565b6101d261021b3660046117c3565b61057e565b61023361022e3660046117c3565b610624565b6040516101769190611997565b6101a761024e3660046117c3565b610709565b6101d26102613660046119c5565b610713565b6101d26102743660046119fc565b61084a565b61028c610287366004611a2a565b6109f1565b604051908152602001610176565b6101d26102a8366004611a43565b610a36565b61016a610b5d565b61016a6102c3366004611a6e565b610bdd565b610187610c57565b6101d26102de366004611a8f565b610c66565b61016a6102f13660046117c3565b610c71565b6101d2610304366004611ab9565b610cb5565b61016a610ccc565b61018761031f3660046117c3565b610ce5565b61016a610332366004611b30565b610cf0565b6101d2610345366004611b58565b610d1d565b5f61035482610e37565b92915050565b60605f805461036890611b9c565b80601f016020809104026020016040519081016040528092919081815260200182805461039490611b9c565b80156103df5780601f106103b6576101008083540402835291602001916103df565b820191905f5260205f20905b8154815290600101906020018083116103c257829003601f168201915b5050505050905090565b5f6103f382610e5b565b505f828152600460205260409020546001600160a01b0316610354565b61041b828233610e93565b5050565b61042b83600854610ea0565b6008545f90815260096020526040902080548290829060ff1916600183600381111561045957610459611963565b021790555060028101805460ff191690556008546104779084610f01565b7f04a79d27ae100d5aa062fcc96dd20ef7ec16900ecc23c8160a990a7973a7cc5f600854826104a33390565b6040516104b293929190611bce565b60405180910390a16008546104c8906001611c1a565b60085550505050565b6001600160a01b0382166104ff57604051633250574960e11b81525f60048201526024015b60405180910390fd5b5f61050b838333610f49565b9050836001600160a01b0316816001600160a01b031614610559576040516364283d7b60e01b81526001600160a01b03808616600483015260248201849052821660448201526064016104f6565b50505050565b61057983838360405180602001604052805f815250610cb5565b505050565b8061058881610709565b6001600160a01b0316336001600160a01b0316146105a58261103b565b6040516020016105b59190611c39565b604051602081830303815290604052906105e25760405162461bcd60e51b81526004016104f691906117b1565b506105ec826110cb565b6040518281527f61c6643f6e835939ae6da3352c52e1b29a86e4ee6599ab73c5d9a416f75d6ed0906020015b60405180910390a15050565b604080516060810182525f80825260208201819052918101919091525f8281526002602052604090205482906001600160a01b031615156106648261103b565b6040516020016106749190611c92565b604051602081830303815290604052906106a15760405162461bcd60e51b81526004016104f691906117b1565b505f83815260096020526040908190208151606081019092528054829060ff1660038111156106d2576106d2611963565b60038111156106e3576106e3611963565b81526001820154602082015260029091015460ff16151560409091015291505b50919050565b5f61035482610e5b565b5f8281526002602052604090205482906001600160a01b031615156107378261103b565b6040516020016107479190611c92565b604051602081830303815290604052906107745760405162461bcd60e51b81526004016104f691906117b1565b508261077f81610709565b6001600160a01b0316336001600160a01b03161461079c8261103b565b6040516020016107ac9190611c39565b604051602081830303815290604052906107d95760405162461bcd60e51b81526004016104f691906117b1565b505f84815260096020526040902080548490829060ff1916600183600381111561080557610805611963565b02179055507f41779e8814a589644c78c07c027c39f8ba699dc2f20bf422c3065cdaa4b8a1b0858560405161083b929190611ce5565b60405180910390a15050505050565b6007546040805163624dd75f60e11b815290516001600160a01b03909216916391d1485491839163c49baebe916004808201926020929091908290030181865afa15801561089a573d5f803e3d5ffd5b505050506040513d601f19601f820116820180604052508101906108be9190611cf9565b336040516001600160e01b031960e085901b16815260048101929092526001600160a01b03166024820152604401602060405180830381865afa158015610907573d5f803e3d5ffd5b505050506040513d601f19601f8201168201806040525081019061092b9190611d10565b6109935760405162461bcd60e51b815260206004820152603360248201527f5b4163636573734d616e61676572426173655d204f6e6c79207468652076616c6044820152721a59185d1bdc8818d85b881a5b9d195c9858dd606a1b60648201526084016104f6565b5f8281526009602090815260409182902060028101805460ff1916851515908117909155835186815292830152917f906235be09503d8fda345aadd07a77160f47ec7155cea0fb9d683684271c4f09910160405180910390a1505050565b5f6001600160a01b038216610a1b576040516322718ad960e21b81525f60048201526024016104f6565b506001600160a01b03165f9081526003602052604090205490565b5f8281526002602052604090205482906001600160a01b03161515610a5a8261103b565b604051602001610a6a9190611c92565b60405160208183030381529060405290610a975760405162461bcd60e51b81526004016104f691906117b1565b5082610aa281610709565b6001600160a01b0316336001600160a01b031614610abf8261103b565b604051602001610acf9190611c39565b60405160208183030381529060405290610afc5760405162461bcd60e51b81526004016104f691906117b1565b505f84815260096020526040812063ffffffff8516600182015590610b2290869061084a565b6040805186815263ffffffff861660208201527f9914de521d038c5fa3fe5baf714ddfb965bb6c921a7865bfec58f416a8148204910161083b565b6007545f906001600160a01b031663940e1570335b6040516001600160e01b031960e084901b1681526001600160a01b039091166004820152602401602060405180830381865afa158015610bb4573d5f803e3d5ffd5b505050506040513d601f19601f82011682018060405250810190610bd89190611d10565b905090565b600754604051632474521560e21b8152600481018490526001600160a01b0383811660248301525f9216906391d1485490604401602060405180830381865afa158015610c2c573d5f803e3d5ffd5b505050506040513d601f19601f82011682018060405250810190610c509190611d10565b9392505050565b60606001805461036890611b9c565b61041b338383611103565b5f80610c7c83610624565b5190505f816003811115610c9257610c92611963565b1480610c5057506002816003811115610cad57610cad611963565b149392505050565b610cc08484846104d1565b610559848484846111a1565b6007545f906001600160a01b031663c395fcb333610b72565b6060610354826112c7565b6001600160a01b039182165f90815260056020908152604080832093909416825291909152205460ff1690565b5f8281526002602052604090205482906001600160a01b03161515610d418261103b565b604051602001610d519190611c92565b60405160208183030381529060405290610d7e5760405162461bcd60e51b81526004016104f691906117b1565b5082610d8981610709565b6001600160a01b0316336001600160a01b031614610da68261103b565b604051602001610db69190611c39565b60405160208183030381529060405290610de35760405162461bcd60e51b81526004016104f691906117b1565b50610dee8484610f01565b610df8845f61084a565b7f3d50eea1c859d5d9795c74b4caf49f4cb0c69ec6b47702a84fab87f23fdc15388484604051610e29929190611d2b565b60405180910390a150505050565b5f6001600160e01b03198216632483248360e11b14806103545750610354826113d2565b5f818152600260205260408120546001600160a01b03168061035457604051637e27328960e01b8152600481018490526024016104f6565b6105798383836001611421565b6001600160a01b038216610ec957604051633250574960e11b81525f60048201526024016104f6565b5f610ed583835f610f49565b90506001600160a01b03811615610579576040516339e3563760e11b81525f60048201526024016104f6565b5f828152600660205260409020610f188282611d90565b506040518281527ff8e1a15aba9398e019f0b49df1a4fde98ee17ae345cb5f6b5e2c27f5033e8ce790602001610618565b5f828152600260205260408120546001600160a01b0390811690831615610f7557610f75818486611525565b6001600160a01b03811615610faf57610f905f855f80611421565b6001600160a01b0381165f90815260036020526040902080545f190190555b6001600160a01b03851615610fdd576001600160a01b0385165f908152600360205260409020805460010190555b5f8481526002602052604080822080546001600160a01b0319166001600160a01b0389811691821790925591518793918516917fddf252ad1be2c89b69c2b068fc378daa952ba7f163c4a11628f55a4df523b3ef91a4949350505050565b60605f61104783611589565b60010190505f8167ffffffffffffffff8111156110665761106661181d565b6040519080825280601f01601f191660200182016040528015611090576020820181803683370190505b5090508181016020015b5f19016f181899199a1a9b1b9c1cb0b131b232b360811b600a86061a8153600a850494508461109a57509392505050565b5f6110d75f835f610f49565b90506001600160a01b03811661041b57604051637e27328960e01b8152600481018390526024016104f6565b6001600160a01b03821661113557604051630b61174360e31b81526001600160a01b03831660048201526024016104f6565b6001600160a01b038381165f81815260056020908152604080832094871680845294825291829020805460ff191686151590811790915591519182527f17307eab39ab6107e8899845ad3d59bd9653f200f220920489ca2b5937696c31910160405180910390a3505050565b6001600160a01b0383163b1561055957604051630a85bd0160e11b81526001600160a01b0384169063150b7a02906111e3903390889087908790600401611e4c565b6020604051808303815f875af192505050801561121d575060408051601f3d908101601f1916820190925261121a91810190611e88565b60015b611284573d80801561124a576040519150601f19603f3d011682016040523d82523d5f602084013e61124f565b606091505b5080515f0361127c57604051633250574960e11b81526001600160a01b03851660048201526024016104f6565b805181602001fd5b6001600160e01b03198116630a85bd0160e11b146112c057604051633250574960e11b81526001600160a01b03851660048201526024016104f6565b5050505050565b60606112d282610e5b565b505f82815260066020526040812080546112eb90611b9c565b80601f016020809104026020016040519081016040528092919081815260200182805461131790611b9c565b80156113625780601f1061133957610100808354040283529160200191611362565b820191905f5260205f20905b81548152906001019060200180831161134557829003601f168201915b505050505090505f61137e60408051602081019091525f815290565b905080515f0361138f575092915050565b8151156113c15780826040516020016113a9929190611ea3565b60405160208183030381529060405292505050919050565b6113ca84611660565b949350505050565b5f6001600160e01b031982166380ac58cd60e01b148061140257506001600160e01b03198216635b5e139f60e01b145b8061035457506301ffc9a760e01b6001600160e01b0319831614610354565b808061143557506001600160a01b03821615155b156114f6575f61144484610e5b565b90506001600160a01b038316158015906114705750826001600160a01b0316816001600160a01b031614155b801561148357506114818184610cf0565b155b156114ac5760405163a9fbf51f60e01b81526001600160a01b03841660048201526024016104f6565b81156114f45783856001600160a01b0316826001600160a01b03167f8c5be1e5ebec7d5bd14f71427d1e84f3dd0314c0f7b2291e5b200ac8c7c3b92560405160405180910390a45b505b50505f90815260046020526040902080546001600160a01b0319166001600160a01b0392909216919091179055565b6115308383836116d0565b610579576001600160a01b03831661155e57604051637e27328960e01b8152600481018290526024016104f6565b60405163177e802f60e01b81526001600160a01b0383166004820152602481018290526044016104f6565b5f8072184f03e93ff9f4daa797ed6e38ed64bf6a1f0160401b83106115c75772184f03e93ff9f4daa797ed6e38ed64bf6a1f0160401b830492506040015b6d04ee2d6d415b85acef810000000083106115f3576d04ee2d6d415b85acef8100000000830492506020015b662386f26fc10000831061161157662386f26fc10000830492506010015b6305f5e1008310611629576305f5e100830492506008015b612710831061163d57612710830492506004015b6064831061164f576064830492506002015b600a83106103545760010192915050565b606061166b82610e5b565b505f61168160408051602081019091525f815290565b90505f81511161169f5760405180602001604052805f815250610c50565b806116a98461103b565b6040516020016116ba929190611ea3565b6040516020818303038152906040529392505050565b5f6001600160a01b038316158015906113ca5750826001600160a01b0316846001600160a01b0316148061170957506117098484610cf0565b806113ca5750505f908152600460205260409020546001600160a01b03908116911614919050565b6001600160e01b031981168114611746575f80fd5b50565b5f60208284031215611759575f80fd5b8135610c5081611731565b5f5b8381101561177e578181015183820152602001611766565b50505f910152565b5f815180845261179d816020860160208601611764565b601f01601f19169290920160200192915050565b602081525f610c506020830184611786565b5f602082840312156117d3575f80fd5b5035919050565b80356001600160a01b03811681146117f0575f80fd5b919050565b5f8060408385031215611806575f80fd5b61180f836117da565b946020939093013593505050565b634e487b7160e01b5f52604160045260245ffd5b5f67ffffffffffffffff8084111561184b5761184b61181d565b604051601f8501601f19908116603f011681019082821181831017156118735761187361181d565b8160405280935085815286868601111561188b575f80fd5b858560208301375f602087830101525050509392505050565b5f82601f8301126118b3575f80fd5b610c5083833560208501611831565b8035600481106117f0575f80fd5b5f805f606084860312156118e2575f80fd5b6118eb846117da565b9250602084013567ffffffffffffffff811115611906575f80fd5b611912868287016118a4565b925050611921604085016118c2565b90509250925092565b5f805f6060848603121561193c575f80fd5b611945846117da565b9250611953602085016117da565b9150604084013590509250925092565b634e487b7160e01b5f52602160045260245ffd5b6004811061199357634e487b7160e01b5f52602160045260245ffd5b9052565b5f6060820190506119a9828451611977565b6020830151602083015260408301511515604083015292915050565b5f80604083850312156119d6575f80fd5b823591506119e6602084016118c2565b90509250929050565b8015158114611746575f80fd5b5f8060408385031215611a0d575f80fd5b823591506020830135611a1f816119ef565b809150509250929050565b5f60208284031215611a3a575f80fd5b610c50826117da565b5f8060408385031215611a54575f80fd5b82359150602083013563ffffffff81168114611a1f575f80fd5b5f8060408385031215611a7f575f80fd5b823591506119e6602084016117da565b5f8060408385031215611aa0575f80fd5b611aa9836117da565b91506020830135611a1f816119ef565b5f805f8060808587031215611acc575f80fd5b611ad5856117da565b9350611ae3602086016117da565b925060408501359150606085013567ffffffffffffffff811115611b05575f80fd5b8501601f81018713611b15575f80fd5b611b2487823560208401611831565b91505092959194509250565b5f8060408385031215611b41575f80fd5b611b4a836117da565b91506119e6602084016117da565b5f8060408385031215611b69575f80fd5b82359150602083013567ffffffffffffffff811115611b86575f80fd5b611b92858286016118a4565b9150509250929050565b600181811c90821680611bb057607f821691505b60208210810361070357634e487b7160e01b5f52602260045260245ffd5b5f60a082019050848252611be96020830160ff865416611977565b6001840154604083015260029093015460ff16151560608201526001600160a01b0391909116608090910152919050565b8082018082111561035457634e487b7160e01b5f52601160045260245ffd5b7f5b446565644e46545d204d757374206265206f776e6572206f6620746865204481526b032b2b2103bb4ba341034b2160a51b60208201525f8251611c8581602c850160208701611764565b91909101602c0192915050565b7f5b446565644e46545d204465656420646f6573206e6f7420657869737420776981526503a341034b2160d51b60208201525f8251611cd8816026850160208701611764565b9190910160260192915050565b82815260408101610c506020830184611977565b5f60208284031215611d09575f80fd5b5051919050565b5f60208284031215611d20575f80fd5b8151610c50816119ef565b828152604060208201525f6113ca6040830184611786565b601f821115610579575f81815260208120601f850160051c81016020861015611d695750805b601f850160051c820191505b81811015611d8857828155600101611d75565b505050505050565b815167ffffffffffffffff811115611daa57611daa61181d565b611dbe81611db88454611b9c565b84611d43565b602080601f831160018114611df1575f8415611dda5750858301515b5f19600386901b1c1916600185901b178555611d88565b5f85815260208120601f198616915b82811015611e1f57888601518255948401946001909101908401611e00565b5085821015611e3c57878501515f19600388901b60f8161c191681555b5050505050600190811b01905550565b6001600160a01b03858116825284166020820152604081018390526080606082018190525f90611e7e90830184611786565b9695505050505050565b5f60208284031215611e98575f80fd5b8151610c5081611731565b5f8351611eb4818460208801611764565b835190830190611ec8818360208801611764565b0194935050505056fea2646970667358221220441650b999f27c81708842ca886315dc30ed9e03adf4360d3498df9c6905881f64736f6c63430008140033",
  "devdoc": {
    "errors": {
      "ERC721IncorrectOwner(address,uint256,address)": [
        {
          "details": "Indicates an error related to the ownership over a particular token. Used in transfers.",
          "params": {
            "owner": "Address of the current owner of a token.",
            "sender": "Address whose tokens are being transferred.",
            "tokenId": "Identifier number of a token."
          }
        }
      ],
      "ERC721InsufficientApproval(address,uint256)": [
        {
          "details": "Indicates a failure with the `operator`s approval. Used in transfers.",
          "params": {
            "operator": "Address that may be allowed to operate on tokens without being their owner.",
            "tokenId": "Identifier number of a token."
          }
        }
      ],
      "ERC721InvalidApprover(address)": [
        {
          "details": "Indicates a failure with the `approver` of a token to be approved. Used in approvals.",
          "params": {
            "approver": "Address initiating an approval operation."
          }
        }
      ],
      "ERC721InvalidOperator(address)": [
        {
          "details": "Indicates a failure with the `operator` to be approved. Used in approvals.",
          "params": {
            "operator": "Address that may be allowed to operate on tokens without being their owner."
          }
        }
      ],
      "ERC721InvalidOwner(address)": [
        {
          "details": "Indicates that an address can't be an owner. For example, `address(0)` is a forbidden owner in EIP-20. Used in balance queries.",
          "params": {
            "owner": "Address of the current owner of a token."
          }
        }
      ],
      "ERC721InvalidReceiver(address)": [
        {
          "details": "Indicates a failure with the token `receiver`. Used in transfers.",
          "params": {
            "receiver": "Address to which tokens are being transferred."
          }
        }
      ],
      "ERC721InvalidSender(address)": [
        {
          "details": "Indicates a failure with the token `sender`. Used in transfers.",
          "params": {
            "sender": "Address whose tokens are being transferred."
          }
        }
      ],
      "ERC721NonexistentToken(uint256)": [
        {
          "details": "Indicates a `tokenId` whose `owner` is the zero address.",
          "params": {
            "tokenId": "Identifier number of a token."
          }
        }
      ]
    },
    "events": {
      "Approval(address,address,uint256)": {
        "details": "Emitted when `owner` enables `approved` to manage the `tokenId` token."
      },
      "ApprovalForAll(address,address,bool)": {
        "details": "Emitted when `owner` enables or disables (`approved`) `operator` to manage all of its assets."
      },
      "BatchMetadataUpdate(uint256,uint256)": {
        "details": "This event emits when the metadata of a range of tokens is changed. So that the third-party platforms such as NFT market could timely update the images and related attributes of the NFTs."
      },
      "MetadataUpdate(uint256)": {
        "details": "This event emits when the metadata of a token is changed. So that the third-party platforms such as NFT market could timely update the images and related attributes of the NFT."
      },
      "Transfer(address,address,uint256)": {
        "details": "Emitted when `tokenId` token is transferred from `from` to `to`."
      }
    },
    "kind": "dev",
    "methods": {
      "approve(address,uint256)": {
        "details": "See {IERC721-approve}."
      },
      "balanceOf(address)": {
        "details": "See {IERC721-balanceOf}."
      },
      "getApproved(uint256)": {
        "details": "See {IERC721-getApproved}."
      },
      "isApprovedForAll(address,address)": {
        "details": "See {IERC721-isApprovedForAll}."
      },
      "name()": {
        "details": "See {IERC721Metadata-name}."
      },
      "ownerOf(uint256)": {
        "details": "See {IERC721-ownerOf}."
      },
      "safeTransferFrom(address,address,uint256)": {
        "details": "See {IERC721-safeTransferFrom}."
      },
      "safeTransferFrom(address,address,uint256,bytes)": {
        "details": "See {IERC721-safeTransferFrom}."
      },
      "setApprovalForAll(address,bool)": {
        "details": "See {IERC721-setApprovalForAll}."
      },
      "symbol()": {
        "details": "See {IERC721Metadata-symbol}."
      },
      "transferFrom(address,address,uint256)": {
        "details": "See {IERC721-transferFrom}."
      }
    },
    "version": 1
  },
  "userdoc": {
    "kind": "user",
    "methods": {},
    "version": 1
  },
  "storageLayout": {
    "storage": [
      {
        "astId": 2757,
        "contract": "contracts/DeedNFT.sol:DeedNFT",
        "label": "_name",
        "offset": 0,
        "slot": "0",
        "type": "t_string_storage"
      },
      {
        "astId": 2759,
        "contract": "contracts/DeedNFT.sol:DeedNFT",
        "label": "_symbol",
        "offset": 0,
        "slot": "1",
        "type": "t_string_storage"
      },
      {
        "astId": 2763,
        "contract": "contracts/DeedNFT.sol:DeedNFT",
        "label": "_owners",
        "offset": 0,
        "slot": "2",
        "type": "t_mapping(t_uint256,t_address)"
      },
      {
        "astId": 2767,
        "contract": "contracts/DeedNFT.sol:DeedNFT",
        "label": "_balances",
        "offset": 0,
        "slot": "3",
        "type": "t_mapping(t_address,t_uint256)"
      },
      {
        "astId": 2771,
        "contract": "contracts/DeedNFT.sol:DeedNFT",
        "label": "_tokenApprovals",
        "offset": 0,
        "slot": "4",
        "type": "t_mapping(t_uint256,t_address)"
      },
      {
        "astId": 2777,
        "contract": "contracts/DeedNFT.sol:DeedNFT",
        "label": "_operatorApprovals",
        "offset": 0,
        "slot": "5",
        "type": "t_mapping(t_address,t_mapping(t_address,t_bool))"
      },
      {
        "astId": 3896,
        "contract": "contracts/DeedNFT.sol:DeedNFT",
        "label": "_tokenURIs",
        "offset": 0,
        "slot": "6",
        "type": "t_mapping(t_uint256,t_string_storage)"
      },
      {
        "astId": 6241,
        "contract": "contracts/DeedNFT.sol:DeedNFT",
        "label": "accessManager",
        "offset": 0,
        "slot": "7",
        "type": "t_contract(AccessManager)6236"
      },
      {
        "astId": 6407,
        "contract": "contracts/DeedNFT.sol:DeedNFT",
        "label": "nextDeedId",
        "offset": 0,
        "slot": "8",
        "type": "t_uint256"
      },
      {
        "astId": 6412,
        "contract": "contracts/DeedNFT.sol:DeedNFT",
        "label": "deedInfoMap",
        "offset": 0,
        "slot": "9",
        "type": "t_mapping(t_uint256,t_struct(DeedInfo)6405_storage)"
      }
    ],
    "types": {
      "t_address": {
        "encoding": "inplace",
        "label": "address",
        "numberOfBytes": "20"
      },
      "t_bool": {
        "encoding": "inplace",
        "label": "bool",
        "numberOfBytes": "1"
      },
      "t_contract(AccessManager)6236": {
        "encoding": "inplace",
        "label": "contract AccessManager",
        "numberOfBytes": "20"
      },
      "t_enum(AssetType)6417": {
        "encoding": "inplace",
        "label": "enum DeedNFT.AssetType",
        "numberOfBytes": "1"
      },
      "t_mapping(t_address,t_bool)": {
        "encoding": "mapping",
        "key": "t_address",
        "label": "mapping(address => bool)",
        "numberOfBytes": "32",
        "value": "t_bool"
      },
      "t_mapping(t_address,t_mapping(t_address,t_bool))": {
        "encoding": "mapping",
        "key": "t_address",
        "label": "mapping(address => mapping(address => bool))",
        "numberOfBytes": "32",
        "value": "t_mapping(t_address,t_bool)"
      },
      "t_mapping(t_address,t_uint256)": {
        "encoding": "mapping",
        "key": "t_address",
        "label": "mapping(address => uint256)",
        "numberOfBytes": "32",
        "value": "t_uint256"
      },
      "t_mapping(t_uint256,t_address)": {
        "encoding": "mapping",
        "key": "t_uint256",
        "label": "mapping(uint256 => address)",
        "numberOfBytes": "32",
        "value": "t_address"
      },
      "t_mapping(t_uint256,t_string_storage)": {
        "encoding": "mapping",
        "key": "t_uint256",
        "label": "mapping(uint256 => string)",
        "numberOfBytes": "32",
        "value": "t_string_storage"
      },
      "t_mapping(t_uint256,t_struct(DeedInfo)6405_storage)": {
        "encoding": "mapping",
        "key": "t_uint256",
        "label": "mapping(uint256 => struct DeedNFT.DeedInfo)",
        "numberOfBytes": "32",
        "value": "t_struct(DeedInfo)6405_storage"
      },
      "t_string_storage": {
        "encoding": "bytes",
        "label": "string",
        "numberOfBytes": "32"
      },
      "t_struct(DeedInfo)6405_storage": {
        "encoding": "inplace",
        "label": "struct DeedNFT.DeedInfo",
        "members": [
          {
            "astId": 6400,
            "contract": "contracts/DeedNFT.sol:DeedNFT",
            "label": "assetType",
            "offset": 0,
            "slot": "0",
            "type": "t_enum(AssetType)6417"
          },
          {
            "astId": 6402,
            "contract": "contracts/DeedNFT.sol:DeedNFT",
            "label": "price",
            "offset": 0,
            "slot": "1",
            "type": "t_uint256"
          },
          {
            "astId": 6404,
            "contract": "contracts/DeedNFT.sol:DeedNFT",
            "label": "isValidated",
            "offset": 0,
            "slot": "2",
            "type": "t_bool"
          }
        ],
        "numberOfBytes": "96"
      },
      "t_uint256": {
        "encoding": "inplace",
        "label": "uint256",
        "numberOfBytes": "32"
      }
    }
  }
}