{
  "address": "0x4E0325c42449b7457A7124264Ab8a2Bc13964B5C",
  "abi": [
    {
      "inputs": [],
      "stateMutability": "nonpayable",
      "type": "constructor"
    },
    {
      "anonymous": false,
      "inputs": [
        {
          "indexed": true,
          "internalType": "address",
          "name": "owner",
          "type": "address"
        },
        {
          "indexed": true,
          "internalType": "address",
          "name": "approved",
          "type": "address"
        },
        {
          "indexed": true,
          "internalType": "uint256",
          "name": "tokenId",
          "type": "uint256"
        }
      ],
      "name": "Approval",
      "type": "event"
    },
    {
      "anonymous": false,
      "inputs": [
        {
          "indexed": true,
          "internalType": "address",
          "name": "owner",
          "type": "address"
        },
        {
          "indexed": true,
          "internalType": "address",
          "name": "operator",
          "type": "address"
        },
        {
          "indexed": false,
          "internalType": "bool",
          "name": "approved",
          "type": "bool"
        }
      ],
      "name": "ApprovalForAll",
      "type": "event"
    },
    {
      "anonymous": false,
      "inputs": [
        {
          "indexed": false,
          "internalType": "uint256",
          "name": "deedId",
          "type": "uint256"
        },
        {
          "indexed": false,
          "internalType": "enum DeedNFT.AssetType",
          "name": "newAssetType",
          "type": "uint8"
        }
      ],
      "name": "DeedNFTAssetTypeSet",
      "type": "event"
    },
    {
      "anonymous": false,
      "inputs": [
        {
          "indexed": false,
          "internalType": "uint256",
          "name": "deedId",
          "type": "uint256"
        },
        {
          "indexed": false,
          "internalType": "bool",
          "name": "isValid",
          "type": "bool"
        }
      ],
      "name": "DeedNFTAssetValidationSet",
      "type": "event"
    },
    {
      "anonymous": false,
      "inputs": [
        {
          "indexed": false,
          "internalType": "uint256",
          "name": "deedId",
          "type": "uint256"
        },
        {
          "indexed": false,
          "internalType": "bytes",
          "name": "newIpfsDetailsHash",
          "type": "bytes"
        }
      ],
      "name": "DeedNFTIpfsDetailsSet",
      "type": "event"
    },
    {
      "anonymous": false,
      "inputs": [
        {
          "indexed": false,
          "internalType": "uint256",
          "name": "deedId",
          "type": "uint256"
        },
        {
          "components": [
            {
              "internalType": "bytes",
              "name": "ipfsDetailsHash",
              "type": "bytes"
            },
            {
              "internalType": "enum DeedNFT.AssetType",
              "name": "assetType",
              "type": "uint8"
            },
            {
              "internalType": "uint256",
              "name": "price",
              "type": "uint256"
            },
            {
              "internalType": "string",
              "name": "deedAddress",
              "type": "string"
            },
            {
              "internalType": "bool",
              "name": "isValidated",
              "type": "bool"
            }
          ],
          "indexed": false,
          "internalType": "struct DeedNFT.DeedInfo",
          "name": "deedInfo",
          "type": "tuple"
        }
      ],
      "name": "DeedNFTMinted",
      "type": "event"
    },
    {
      "anonymous": false,
      "inputs": [
        {
          "indexed": false,
          "internalType": "uint256",
          "name": "deedId",
          "type": "uint256"
        },
        {
          "indexed": false,
          "internalType": "uint256",
          "name": "newPrice",
          "type": "uint256"
        }
      ],
      "name": "DeedNFTPriceUpdated",
      "type": "event"
    },
    {
      "anonymous": false,
      "inputs": [
        {
          "indexed": true,
          "internalType": "bytes32",
          "name": "role",
          "type": "bytes32"
        },
        {
          "indexed": true,
          "internalType": "bytes32",
          "name": "previousAdminRole",
          "type": "bytes32"
        },
        {
          "indexed": true,
          "internalType": "bytes32",
          "name": "newAdminRole",
          "type": "bytes32"
        }
      ],
      "name": "RoleAdminChanged",
      "type": "event"
    },
    {
      "anonymous": false,
      "inputs": [
        {
          "indexed": true,
          "internalType": "bytes32",
          "name": "role",
          "type": "bytes32"
        },
        {
          "indexed": true,
          "internalType": "address",
          "name": "account",
          "type": "address"
        },
        {
          "indexed": true,
          "internalType": "address",
          "name": "sender",
          "type": "address"
        }
      ],
      "name": "RoleGranted",
      "type": "event"
    },
    {
      "anonymous": false,
      "inputs": [
        {
          "indexed": true,
          "internalType": "bytes32",
          "name": "role",
          "type": "bytes32"
        },
        {
          "indexed": true,
          "internalType": "address",
          "name": "account",
          "type": "address"
        },
        {
          "indexed": true,
          "internalType": "address",
          "name": "sender",
          "type": "address"
        }
      ],
      "name": "RoleRevoked",
      "type": "event"
    },
    {
      "anonymous": false,
      "inputs": [
        {
          "indexed": true,
          "internalType": "address",
          "name": "from",
          "type": "address"
        },
        {
          "indexed": true,
          "internalType": "address",
          "name": "to",
          "type": "address"
        },
        {
          "indexed": true,
          "internalType": "uint256",
          "name": "tokenId",
          "type": "uint256"
        }
      ],
      "name": "Transfer",
      "type": "event"
    },
    {
      "inputs": [],
      "name": "DEFAULT_ADMIN_ROLE",
      "outputs": [
        {
          "internalType": "bytes32",
          "name": "",
          "type": "bytes32"
        }
      ],
      "stateMutability": "view",
      "type": "function"
    },
    {
      "inputs": [],
      "name": "VALIDATOR_ROLE",
      "outputs": [
        {
          "internalType": "bytes32",
          "name": "",
          "type": "bytes32"
        }
      ],
      "stateMutability": "view",
      "type": "function"
    },
    {
      "inputs": [
        {
          "internalType": "address",
          "name": "minter",
          "type": "address"
        }
      ],
      "name": "addValidator",
      "outputs": [],
      "stateMutability": "nonpayable",
      "type": "function"
    },
    {
      "inputs": [
        {
          "internalType": "address",
          "name": "to",
          "type": "address"
        },
        {
          "internalType": "uint256",
          "name": "tokenId",
          "type": "uint256"
        }
      ],
      "name": "approve",
      "outputs": [],
      "stateMutability": "nonpayable",
      "type": "function"
    },
    {
      "inputs": [
        {
          "internalType": "address",
          "name": "owner",
          "type": "address"
        }
      ],
      "name": "balanceOf",
      "outputs": [
        {
          "internalType": "uint256",
          "name": "",
          "type": "uint256"
        }
      ],
      "stateMutability": "view",
      "type": "function"
    },
    {
      "inputs": [
        {
          "internalType": "uint256",
          "name": "tokenId",
          "type": "uint256"
        }
      ],
      "name": "canSubdivide",
      "outputs": [
        {
          "internalType": "bool",
          "name": "",
          "type": "bool"
        }
      ],
      "stateMutability": "view",
      "type": "function"
    },
    {
      "inputs": [
        {
          "internalType": "uint256",
          "name": "tokenId",
          "type": "uint256"
        }
      ],
      "name": "getApproved",
      "outputs": [
        {
          "internalType": "address",
          "name": "",
          "type": "address"
        }
      ],
      "stateMutability": "view",
      "type": "function"
    },
    {
      "inputs": [
        {
          "internalType": "uint256",
          "name": "_deedId",
          "type": "uint256"
        }
      ],
      "name": "getDeedInfo",
      "outputs": [
        {
          "components": [
            {
              "internalType": "bytes",
              "name": "ipfsDetailsHash",
              "type": "bytes"
            },
            {
              "internalType": "enum DeedNFT.AssetType",
              "name": "assetType",
              "type": "uint8"
            },
            {
              "internalType": "uint256",
              "name": "price",
              "type": "uint256"
            },
            {
              "internalType": "string",
              "name": "deedAddress",
              "type": "string"
            },
            {
              "internalType": "bool",
              "name": "isValidated",
              "type": "bool"
            }
          ],
          "internalType": "struct DeedNFT.DeedInfo",
          "name": "",
          "type": "tuple"
        }
      ],
      "stateMutability": "view",
      "type": "function"
    },
    {
      "inputs": [
        {
          "internalType": "bytes32",
          "name": "role",
          "type": "bytes32"
        }
      ],
      "name": "getRoleAdmin",
      "outputs": [
        {
          "internalType": "bytes32",
          "name": "",
          "type": "bytes32"
        }
      ],
      "stateMutability": "view",
      "type": "function"
    },
    {
      "inputs": [
        {
          "internalType": "bytes32",
          "name": "role",
          "type": "bytes32"
        },
        {
          "internalType": "address",
          "name": "account",
          "type": "address"
        }
      ],
      "name": "grantRole",
      "outputs": [],
      "stateMutability": "nonpayable",
      "type": "function"
    },
    {
      "inputs": [
        {
          "internalType": "bytes32",
          "name": "role",
          "type": "bytes32"
        },
        {
          "internalType": "address",
          "name": "account",
          "type": "address"
        }
      ],
      "name": "hasRole",
      "outputs": [
        {
          "internalType": "bool",
          "name": "",
          "type": "bool"
        }
      ],
      "stateMutability": "view",
      "type": "function"
    },
    {
      "inputs": [
        {
          "internalType": "address",
          "name": "owner",
          "type": "address"
        },
        {
          "internalType": "address",
          "name": "operator",
          "type": "address"
        }
      ],
      "name": "isApprovedForAll",
      "outputs": [
        {
          "internalType": "bool",
          "name": "",
          "type": "bool"
        }
      ],
      "stateMutability": "view",
      "type": "function"
    },
    {
      "inputs": [
        {
          "internalType": "address",
          "name": "_owner",
          "type": "address"
        },
        {
          "internalType": "bytes",
          "name": "_ipfsDetailsHash",
          "type": "bytes"
        },
        {
          "internalType": "enum DeedNFT.AssetType",
          "name": "_assetType",
          "type": "uint8"
        },
        {
          "internalType": "string",
          "name": "_deedAddress",
          "type": "string"
        }
      ],
      "name": "mintAsset",
      "outputs": [],
      "stateMutability": "nonpayable",
      "type": "function"
    },
    {
      "inputs": [],
      "name": "name",
      "outputs": [
        {
          "internalType": "string",
          "name": "",
          "type": "string"
        }
      ],
      "stateMutability": "view",
      "type": "function"
    },
    {
      "inputs": [
        {
          "internalType": "uint256",
          "name": "tokenId",
          "type": "uint256"
        }
      ],
      "name": "ownerOf",
      "outputs": [
        {
          "internalType": "address",
          "name": "",
          "type": "address"
        }
      ],
      "stateMutability": "view",
      "type": "function"
    },
    {
      "inputs": [
        {
          "internalType": "address",
          "name": "minter",
          "type": "address"
        }
      ],
      "name": "removeValidator",
      "outputs": [],
      "stateMutability": "nonpayable",
      "type": "function"
    },
    {
      "inputs": [
        {
          "internalType": "bytes32",
          "name": "role",
          "type": "bytes32"
        },
        {
          "internalType": "address",
          "name": "account",
          "type": "address"
        }
      ],
      "name": "renounceRole",
      "outputs": [],
      "stateMutability": "nonpayable",
      "type": "function"
    },
    {
      "inputs": [
        {
          "internalType": "bytes32",
          "name": "role",
          "type": "bytes32"
        },
        {
          "internalType": "address",
          "name": "account",
          "type": "address"
        }
      ],
      "name": "revokeRole",
      "outputs": [],
      "stateMutability": "nonpayable",
      "type": "function"
    },
    {
      "inputs": [
        {
          "internalType": "address",
          "name": "from",
          "type": "address"
        },
        {
          "internalType": "address",
          "name": "to",
          "type": "address"
        },
        {
          "internalType": "uint256",
          "name": "tokenId",
          "type": "uint256"
        }
      ],
      "name": "safeTransferFrom",
      "outputs": [],
      "stateMutability": "nonpayable",
      "type": "function"
    },
    {
      "inputs": [
        {
          "internalType": "address",
          "name": "from",
          "type": "address"
        },
        {
          "internalType": "address",
          "name": "to",
          "type": "address"
        },
        {
          "internalType": "uint256",
          "name": "tokenId",
          "type": "uint256"
        },
        {
          "internalType": "bytes",
          "name": "data",
          "type": "bytes"
        }
      ],
      "name": "safeTransferFrom",
      "outputs": [],
      "stateMutability": "nonpayable",
      "type": "function"
    },
    {
      "inputs": [
        {
          "internalType": "address",
          "name": "operator",
          "type": "address"
        },
        {
          "internalType": "bool",
          "name": "approved",
          "type": "bool"
        }
      ],
      "name": "setApprovalForAll",
      "outputs": [],
      "stateMutability": "nonpayable",
      "type": "function"
    },
    {
      "inputs": [
        {
          "internalType": "uint256",
          "name": "_deedId",
          "type": "uint256"
        },
        {
          "internalType": "bool",
          "name": "_isValid",
          "type": "bool"
        }
      ],
      "name": "setAssetValidation",
      "outputs": [],
      "stateMutability": "nonpayable",
      "type": "function"
    },
    {
      "inputs": [
        {
          "internalType": "uint256",
          "name": "_deedId",
          "type": "uint256"
        },
        {
          "internalType": "bytes",
          "name": "_ipfsDetailsHash",
          "type": "bytes"
        }
      ],
      "name": "setIpfsDetailsHash",
      "outputs": [],
      "stateMutability": "nonpayable",
      "type": "function"
    },
    {
      "inputs": [
        {
          "internalType": "uint256",
          "name": "_deedId",
          "type": "uint256"
        },
        {
          "internalType": "uint32",
          "name": "_newPrice",
          "type": "uint32"
        }
      ],
      "name": "setPrice",
      "outputs": [],
      "stateMutability": "nonpayable",
      "type": "function"
    },
    {
      "inputs": [
        {
          "internalType": "bytes4",
          "name": "interfaceId",
          "type": "bytes4"
        }
      ],
      "name": "supportsInterface",
      "outputs": [
        {
          "internalType": "bool",
          "name": "",
          "type": "bool"
        }
      ],
      "stateMutability": "view",
      "type": "function"
    },
    {
      "inputs": [],
      "name": "symbol",
      "outputs": [
        {
          "internalType": "string",
          "name": "",
          "type": "string"
        }
      ],
      "stateMutability": "view",
      "type": "function"
    },
    {
      "inputs": [
        {
          "internalType": "uint256",
          "name": "tokenId",
          "type": "uint256"
        }
      ],
      "name": "tokenURI",
      "outputs": [
        {
          "internalType": "string",
          "name": "",
          "type": "string"
        }
      ],
      "stateMutability": "view",
      "type": "function"
    },
    {
      "inputs": [
        {
          "internalType": "address",
          "name": "from",
          "type": "address"
        },
        {
          "internalType": "address",
          "name": "to",
          "type": "address"
        },
        {
          "internalType": "uint256",
          "name": "tokenId",
          "type": "uint256"
        }
      ],
      "name": "transferFrom",
      "outputs": [],
      "stateMutability": "nonpayable",
      "type": "function"
    }
  ],
  "transactionHash": "0xa916c18048b2575acac6767996ab504de2ac83b1e2af4bb0db6ec49ddf00a3eb",
  "args": [],
  "numDeployments": 6,
  "solcInputHash": "3c80441400cdeb3e9d0d4eb02166498d",
  "bytecode": "0x60806040523480156200001157600080fd5b50604051806040016040528060078152602001661119595913919560ca1b815250604051806040016040528060048152602001631111515160e21b81525081600090816200006091906200020f565b5060016200006f82826200020f565b5050600160075550620000a37f21702c8af46127c7fa207f89d0b0a8441bb32959a0ac7df790e9ab1a25c9892633620000b6565b620000b0600033620000b6565b620002db565b620000c28282620000c6565b5050565b60008281526006602090815260408083206001600160a01b038516845290915290205460ff16620000c25760008281526006602090815260408083206001600160a01b03851684529091529020805460ff19166001179055620001263390565b6001600160a01b0316816001600160a01b0316837f2f8788117e7eff1d82e926ec794901d17c78024a50270940304540a733656f0d60405160405180910390a45050565b634e487b7160e01b600052604160045260246000fd5b600181811c908216806200019557607f821691505b602082108103620001b657634e487b7160e01b600052602260045260246000fd5b50919050565b601f8211156200020a57600081815260208120601f850160051c81016020861015620001e55750805b601f850160051c820191505b818110156200020657828155600101620001f1565b5050505b505050565b81516001600160401b038111156200022b576200022b6200016a565b62000243816200023c845462000180565b84620001bc565b602080601f8311600181146200027b5760008415620002625750858301515b600019600386901b1c1916600185901b17855562000206565b600085815260208120601f198616915b82811015620002ac578886015182559484019460019091019084016200028b565b5085821015620002cb5787850151600019600388901b60f8161c191681555b5050505050600190811b01905550565b61254080620002eb6000396000f3fe608060405234801561001057600080fd5b50600436106101c45760003560e01c806370a08231116100f9578063b82c356911610097578063c87b56dd11610071578063c87b56dd146103d9578063d547741f146103ec578063db9c22db146103ff578063e985e9c51461041257600080fd5b8063b82c35691461039e578063b88d4fde146103b1578063c49baebe146103c457600080fd5b806391d14854116100d357806391d148541461036857806395d89b411461037b578063a217fddf14610383578063a22cb4651461038b57600080fd5b806370a082311461032f5780638277d78a14610342578063894176351461035557600080fd5b806336568abe116101665780634d238c8e116101405780634d238c8e146102d657806362d402bc146102e95780636352211e146103095780636f6c15dd1461031c57600080fd5b806336568abe1461029d57806340a141ff146102b057806342842e0e146102c357600080fd5b8063095ea7b3116101a2578063095ea7b31461023157806323b872dd14610246578063248a9ca3146102595780632f2ff15d1461028a57600080fd5b806301ffc9a7146101c957806306fdde03146101f1578063081812fc14610206575b600080fd5b6101dc6101d7366004611acb565b61044e565b60405190151581526020015b60405180910390f35b6101f961045f565b6040516101e89190611b38565b610219610214366004611b4b565b6104f1565b6040516001600160a01b0390911681526020016101e8565b61024461023f366004611b80565b610518565b005b610244610254366004611baa565b610632565b61027c610267366004611b4b565b60009081526006602052604090206001015490565b6040519081526020016101e8565b610244610298366004611be6565b610663565b6102446102ab366004611be6565b610688565b6102446102be366004611c12565b610706565b6102446102d1366004611baa565b610729565b6102446102e4366004611c12565b610744565b6102fc6102f7366004611b4b565b610767565b6040516101e89190611c65565b610219610317366004611b4b565b610975565b61024461032a366004611ce4565b6109d5565b61027c61033d366004611c12565b610a4d565b610244610350366004611db3565b610ad3565b610244610363366004611e54565b610b91565b6101dc610376366004611be6565b610ca4565b6101f9610ccf565b61027c600081565b610244610399366004611e8d565b610cde565b6101dc6103ac366004611b4b565b610ce9565b6102446103bf366004611eb7565b610d33565b61027c6000805160206124eb83398151915281565b6101f96103e7366004611b4b565b610d6b565b6102446103fa366004611be6565b610dde565b61024461040d366004611f13565b610e03565b6101dc610420366004611f5a565b6001600160a01b03918216600090815260056020908152604080832093909416825291909152205460ff1690565b600061045982610f04565b92915050565b60606000805461046e90611f84565b80601f016020809104026020016040519081016040528092919081815260200182805461049a90611f84565b80156104e75780601f106104bc576101008083540402835291602001916104e7565b820191906000526020600020905b8154815290600101906020018083116104ca57829003601f168201915b5050505050905090565b60006104fc82610f29565b506000908152600460205260409020546001600160a01b031690565b600061052382610975565b9050806001600160a01b0316836001600160a01b0316036105955760405162461bcd60e51b815260206004820152602160248201527f4552433732313a20617070726f76616c20746f2063757272656e74206f776e656044820152603960f91b60648201526084015b60405180910390fd5b336001600160a01b03821614806105b157506105b18133610420565b6106235760405162461bcd60e51b815260206004820152603d60248201527f4552433732313a20617070726f76652063616c6c6572206973206e6f7420746f60448201527f6b656e206f776e6572206f7220617070726f76656420666f7220616c6c000000606482015260840161058c565b61062d8383610f7c565b505050565b61063c3382610fea565b6106585760405162461bcd60e51b815260040161058c90611fb8565b61062d838383611069565b60008281526006602052604090206001015461067e816111da565b61062d83836111e4565b6001600160a01b03811633146106f85760405162461bcd60e51b815260206004820152602f60248201527f416363657373436f6e74726f6c3a2063616e206f6e6c792072656e6f756e636560448201526e103937b632b9903337b91039b2b63360891b606482015260840161058c565b610702828261126a565b5050565b6000610711816111da565b6107026000805160206124eb83398151915283610dde565b61062d83838360405180602001604052806000815250610d33565b600061074f816111da565b6107026000805160206124eb83398151915283610663565b6040805160a08101825260608082526000602083018190529282018390528082015260808101919091528161079b816112d1565b6107a4826112ee565b6040516020016107b49190612005565b604051602081830303815290604052906107e15760405162461bcd60e51b815260040161058c9190611b38565b5060008381526008602052604090819020815160a0810190925280548290829061080a90611f84565b80601f016020809104026020016040519081016040528092919081815260200182805461083690611f84565b80156108835780601f1061085857610100808354040283529160200191610883565b820191906000526020600020905b81548152906001019060200180831161086657829003601f168201915b5050509183525050600182015460209091019060ff1660038111156108aa576108aa611c2d565b60038111156108bb576108bb611c2d565b8152602001600282015481526020016003820180546108d990611f84565b80601f016020809104026020016040519081016040528092919081815260200182805461090590611f84565b80156109525780601f1061092757610100808354040283529160200191610952565b820191906000526020600020905b81548152906001019060200180831161093557829003601f168201915b50505091835250506004919091015460ff16151560209091015291505b50919050565b6000818152600260205260408120546001600160a01b0316806104595760405162461bcd60e51b8152602060048201526018602482015277115490cdcc8c4e881a5b9d985b1a59081d1bdad95b88125160421b604482015260640161058c565b6000805160206124eb8339815191526109ed816111da565b60008381526008602090815260409182902060048101805460ff1916861515908117909155835187815292830152917f906235be09503d8fda345aadd07a77160f47ec7155cea0fb9d683684271c4f09910160405180910390a150505050565b60006001600160a01b038216610ab75760405162461bcd60e51b815260206004820152602960248201527f4552433732313a2061646472657373207a65726f206973206e6f7420612076616044820152683634b21037bbb732b960b91b606482015260840161058c565b506001600160a01b031660009081526003602052604090205490565b610adf84600754611381565b600754600090815260086020526040902080610afb85826120ad565b5060018082018054859260ff1990911690836003811115610b1e57610b1e611c2d565b021790555060038101610b3183826120ad565b5060048101805460ff191690556007546040517f48d15cfe0e2f54e7680be6e32022c52731125465c6a494bcff82b548e8a1bfbe91610b719184906121ea565b60405180910390a1600754610b87906001612275565b6007555050505050565b81610b9b816112d1565b610ba4826112ee565b604051602001610bb49190612005565b60405160208183030381529060405290610be15760405162461bcd60e51b815260040161058c9190611b38565b5082610bec81610975565b6001600160a01b0316336001600160a01b031614610c09826112ee565b604051602001610c199190612288565b60405160208183030381529060405290610c465760405162461bcd60e51b815260040161058c9190611b38565b5060008481526008602090815260409182902063ffffffff861660028201819055835188815292830152917f9914de521d038c5fa3fe5baf714ddfb965bb6c921a7865bfec58f416a814820491015b60405180910390a15050505050565b60009182526006602090815260408084206001600160a01b0393909316845291905290205460ff1690565b60606001805461046e90611f84565b6107023383836114fc565b600080610cf583610767565b6020015190506000816003811115610d0f57610d0f611c2d565b1480610d2c57506002816003811115610d2a57610d2a611c2d565b145b9392505050565b610d3d3383610fea565b610d595760405162461bcd60e51b815260040161058c90611fb8565b610d65848484846115ca565b50505050565b6060610d7682610f29565b6000610d8d60408051602081019091526000815290565b90506000815111610dad5760405180602001604052806000815250610d2c565b80610db7846112ee565b604051602001610dc89291906122e5565b6040516020818303038152906040529392505050565b600082815260066020526040902060010154610df9816111da565b61062d838361126a565b81610e0d816112d1565b610e16826112ee565b604051602001610e269190612005565b60405160208183030381529060405290610e535760405162461bcd60e51b815260040161058c9190611b38565b5082610e5e81610975565b6001600160a01b0316336001600160a01b031614610e7b826112ee565b604051602001610e8b9190612288565b60405160208183030381529060405290610eb85760405162461bcd60e51b815260040161058c9190611b38565b50600084815260086020526040902080610ed285826120ad565b507f417aa59045b91e67e5d4d92586c7fe7a309f018dd02891781c5ba31cb1f005968585604051610c95929190612314565b60006001600160e01b03198216637965db0b60e01b14806104595750610459826115fd565b610f32816112d1565b610f795760405162461bcd60e51b8152602060048201526018602482015277115490cdcc8c4e881a5b9d985b1a59081d1bdad95b88125160421b604482015260640161058c565b50565b600081815260046020526040902080546001600160a01b0319166001600160a01b0384169081179091558190610fb182610975565b6001600160a01b03167f8c5be1e5ebec7d5bd14f71427d1e84f3dd0314c0f7b2291e5b200ac8c7c3b92560405160405180910390a45050565b600080610ff683610975565b9050806001600160a01b0316846001600160a01b0316148061103d57506001600160a01b0380821660009081526005602090815260408083209388168352929052205460ff165b806110615750836001600160a01b0316611056846104f1565b6001600160a01b0316145b949350505050565b826001600160a01b031661107c82610975565b6001600160a01b0316146110a25760405162461bcd60e51b815260040161058c9061232d565b6001600160a01b0382166111045760405162461bcd60e51b8152602060048201526024808201527f4552433732313a207472616e7366657220746f20746865207a65726f206164646044820152637265737360e01b606482015260840161058c565b611111838383600161164d565b826001600160a01b031661112482610975565b6001600160a01b03161461114a5760405162461bcd60e51b815260040161058c9061232d565b600081815260046020908152604080832080546001600160a01b03199081169091556001600160a01b0387811680865260038552838620805460001901905590871680865283862080546001019055868652600290945282852080549092168417909155905184937fddf252ad1be2c89b69c2b068fc378daa952ba7f163c4a11628f55a4df523b3ef91a4505050565b610f7981336116d5565b6111ee8282610ca4565b6107025760008281526006602090815260408083206001600160a01b03851684529091529020805460ff191660011790556112263390565b6001600160a01b0316816001600160a01b0316837f2f8788117e7eff1d82e926ec794901d17c78024a50270940304540a733656f0d60405160405180910390a45050565b6112748282610ca4565b156107025760008281526006602090815260408083206001600160a01b0385168085529252808320805460ff1916905551339285917ff6391f5c32d9c69d2a47ea670b442974b53935d1edc7fd64eb21e047a839171b9190a45050565b6000908152600260205260409020546001600160a01b0316151590565b606060006112fb8361172e565b600101905060008167ffffffffffffffff81111561131b5761131b611d07565b6040519080825280601f01601f191660200182016040528015611345576020820181803683370190505b5090508181016020015b600019016f181899199a1a9b1b9c1cb0b131b232b360811b600a86061a8153600a850494508461134f57509392505050565b6001600160a01b0382166113d75760405162461bcd60e51b815260206004820181905260248201527f4552433732313a206d696e7420746f20746865207a65726f2061646472657373604482015260640161058c565b6113e0816112d1565b1561142d5760405162461bcd60e51b815260206004820152601c60248201527f4552433732313a20746f6b656e20616c7265616479206d696e74656400000000604482015260640161058c565b61143b60008383600161164d565b611444816112d1565b156114915760405162461bcd60e51b815260206004820152601c60248201527f4552433732313a20746f6b656e20616c7265616479206d696e74656400000000604482015260640161058c565b6001600160a01b038216600081815260036020908152604080832080546001019055848352600290915280822080546001600160a01b0319168417905551839291907fddf252ad1be2c89b69c2b068fc378daa952ba7f163c4a11628f55a4df523b3ef908290a45050565b816001600160a01b0316836001600160a01b03160361155d5760405162461bcd60e51b815260206004820152601960248201527f4552433732313a20617070726f766520746f2063616c6c657200000000000000604482015260640161058c565b6001600160a01b03838116600081815260056020908152604080832094871680845294825291829020805460ff191686151590811790915591519182527f17307eab39ab6107e8899845ad3d59bd9653f200f220920489ca2b5937696c31910160405180910390a3505050565b6115d5848484611069565b6115e184848484611806565b610d655760405162461bcd60e51b815260040161058c90612372565b60006001600160e01b031982166380ac58cd60e01b148061162e57506001600160e01b03198216635b5e139f60e01b145b8061045957506301ffc9a760e01b6001600160e01b0319831614610459565b6001811115610d65576001600160a01b03841615611693576001600160a01b0384166000908152600360205260408120805483929061168d9084906123c4565b90915550505b6001600160a01b03831615610d65576001600160a01b038316600090815260036020526040812080548392906116ca908490612275565b909155505050505050565b6116df8282610ca4565b610702576116ec81611907565b6116f7836020611919565b6040516020016117089291906123d7565b60408051601f198184030181529082905262461bcd60e51b825261058c91600401611b38565b60008072184f03e93ff9f4daa797ed6e38ed64bf6a1f0160401b831061176d5772184f03e93ff9f4daa797ed6e38ed64bf6a1f0160401b830492506040015b6d04ee2d6d415b85acef81000000008310611799576d04ee2d6d415b85acef8100000000830492506020015b662386f26fc1000083106117b757662386f26fc10000830492506010015b6305f5e10083106117cf576305f5e100830492506008015b61271083106117e357612710830492506004015b606483106117f5576064830492506002015b600a83106104595760010192915050565b60006001600160a01b0384163b156118fc57604051630a85bd0160e11b81526001600160a01b0385169063150b7a029061184a90339089908890889060040161244c565b6020604051808303816000875af1925050508015611885575060408051601f3d908101601f1916820190925261188291810190612489565b60015b6118e2573d8080156118b3576040519150601f19603f3d011682016040523d82523d6000602084013e6118b8565b606091505b5080516000036118da5760405162461bcd60e51b815260040161058c90612372565b805181602001fd5b6001600160e01b031916630a85bd0160e11b149050611061565b506001949350505050565b60606104596001600160a01b03831660145b606060006119288360026124a6565b611933906002612275565b67ffffffffffffffff81111561194b5761194b611d07565b6040519080825280601f01601f191660200182016040528015611975576020820181803683370190505b509050600360fc1b81600081518110611990576119906124bd565b60200101906001600160f81b031916908160001a905350600f60fb1b816001815181106119bf576119bf6124bd565b60200101906001600160f81b031916908160001a90535060006119e38460026124a6565b6119ee906001612275565b90505b6001811115611a66576f181899199a1a9b1b9c1cb0b131b232b360811b85600f1660108110611a2257611a226124bd565b1a60f81b828281518110611a3857611a386124bd565b60200101906001600160f81b031916908160001a90535060049490941c93611a5f816124d3565b90506119f1565b508315610d2c5760405162461bcd60e51b815260206004820181905260248201527f537472696e67733a20686578206c656e67746820696e73756666696369656e74604482015260640161058c565b6001600160e01b031981168114610f7957600080fd5b600060208284031215611add57600080fd5b8135610d2c81611ab5565b60005b83811015611b03578181015183820152602001611aeb565b50506000910152565b60008151808452611b24816020860160208601611ae8565b601f01601f19169290920160200192915050565b602081526000610d2c6020830184611b0c565b600060208284031215611b5d57600080fd5b5035919050565b80356001600160a01b0381168114611b7b57600080fd5b919050565b60008060408385031215611b9357600080fd5b611b9c83611b64565b946020939093013593505050565b600080600060608486031215611bbf57600080fd5b611bc884611b64565b9250611bd660208501611b64565b9150604084013590509250925092565b60008060408385031215611bf957600080fd5b82359150611c0960208401611b64565b90509250929050565b600060208284031215611c2457600080fd5b610d2c82611b64565b634e487b7160e01b600052602160045260246000fd5b60048110611c6157634e487b7160e01b600052602160045260246000fd5b9052565b602081526000825160a06020840152611c8160c0840182611b0c565b90506020840151611c956040850182611c43565b50604084015160608401526060840151601f19848303016080850152611cbb8282611b0c565b9150506080840151151560a08401528091505092915050565b80358015158114611b7b57600080fd5b60008060408385031215611cf757600080fd5b82359150611c0960208401611cd4565b634e487b7160e01b600052604160045260246000fd5b600067ffffffffffffffff80841115611d3857611d38611d07565b604051601f8501601f19908116603f01168101908282118183101715611d6057611d60611d07565b81604052809350858152868686011115611d7957600080fd5b858560208301376000602087830101525050509392505050565b600082601f830112611da457600080fd5b610d2c83833560208501611d1d565b60008060008060808587031215611dc957600080fd5b611dd285611b64565b9350602085013567ffffffffffffffff80821115611def57600080fd5b611dfb88838901611d93565b94506040870135915060048210611e1157600080fd5b90925060608601359080821115611e2757600080fd5b508501601f81018713611e3957600080fd5b611e4887823560208401611d1d565b91505092959194509250565b60008060408385031215611e6757600080fd5b82359150602083013563ffffffff81168114611e8257600080fd5b809150509250929050565b60008060408385031215611ea057600080fd5b611ea983611b64565b9150611c0960208401611cd4565b60008060008060808587031215611ecd57600080fd5b611ed685611b64565b9350611ee460208601611b64565b925060408501359150606085013567ffffffffffffffff811115611f0757600080fd5b611e4887828801611d93565b60008060408385031215611f2657600080fd5b82359150602083013567ffffffffffffffff811115611f4457600080fd5b611f5085828601611d93565b9150509250929050565b60008060408385031215611f6d57600080fd5b611f7683611b64565b9150611c0960208401611b64565b600181811c90821680611f9857607f821691505b60208210810361096f57634e487b7160e01b600052602260045260246000fd5b6020808252602d908201527f4552433732313a2063616c6c6572206973206e6f7420746f6b656e206f776e6560408201526c1c881bdc88185c1c1c9bdd9959609a1b606082015260800190565b7f5b446565644e46545d204465656420746f6b656e20646f6573206e6f7420657881526b034b9ba103bb4ba341034b2160a51b60208201526000825161205281602c850160208701611ae8565b91909101602c0192915050565b601f82111561062d57600081815260208120601f850160051c810160208610156120865750805b601f850160051c820191505b818110156120a557828155600101612092565b505050505050565b815167ffffffffffffffff8111156120c7576120c7611d07565b6120db816120d58454611f84565b8461205f565b602080601f83116001811461211057600084156120f85750858301515b600019600386901b1c1916600185901b1785556120a5565b600085815260208120601f198616915b8281101561213f57888601518255948401946001909101908401612120565b508582101561215d5787850151600019600388901b60f8161c191681555b5050505050600190811b01905550565b6000815461217a81611f84565b80855260206001838116801561219757600181146121b1576121df565b60ff1985168884015283151560051b8801830195506121df565b866000528260002060005b858110156121d75781548a82018601529083019084016121bc565b890184019650505b505050505092915050565b8281526040602082015260a06040820152600061220a60e083018461216d565b60ff60018501541661221f6060850182611c43565b5060028401546080840152828103603f190160a0840152612243816003860161216d565b905060ff600485015416151560c0840152809150509392505050565b634e487b7160e01b600052601160045260246000fd5b808201808211156104595761045961225f565b7f5b446565644e46545d204d757374206265206f776e6572206f6620746865204481526e032b2b227232a103bb4ba341034b21608d1b6020820152600082516122d881602f850160208701611ae8565b91909101602f0192915050565b600083516122f7818460208801611ae8565b83519083019061230b818360208801611ae8565b01949350505050565b8281526040602082015260006110616040830184611b0c565b60208082526025908201527f4552433732313a207472616e736665722066726f6d20696e636f72726563742060408201526437bbb732b960d91b606082015260800190565b60208082526032908201527f4552433732313a207472616e7366657220746f206e6f6e20455243373231526560408201527131b2b4bb32b91034b6b83632b6b2b73a32b960711b606082015260800190565b818103818111156104595761045961225f565b7f416363657373436f6e74726f6c3a206163636f756e742000000000000000000081526000835161240f816017850160208801611ae8565b7001034b99036b4b9b9b4b733903937b6329607d1b6017918401918201528351612440816028840160208801611ae8565b01602801949350505050565b6001600160a01b038581168252841660208201526040810183905260806060820181905260009061247f90830184611b0c565b9695505050505050565b60006020828403121561249b57600080fd5b8151610d2c81611ab5565b80820281158282048414176104595761045961225f565b634e487b7160e01b600052603260045260246000fd5b6000816124e2576124e261225f565b50600019019056fe21702c8af46127c7fa207f89d0b0a8441bb32959a0ac7df790e9ab1a25c98926a2646970667358221220ceb4952eac6640abc27dbdd326b9e66b753f5aa1aef8c675d23f240e8c0e2db264736f6c63430008110033",
  "devdoc": {
    "kind": "dev",
    "methods": {
      "approve(address,uint256)": {
        "details": "See {IERC721-approve}."
      },
      "balanceOf(address)": {
        "details": "See {IERC721-balanceOf}."
      },
      "getApproved(uint256)": {
        "details": "See {IERC721-getApproved}."
      },
      "getRoleAdmin(bytes32)": {
        "details": "Returns the admin role that controls `role`. See {grantRole} and {revokeRole}. To change a role's admin, use {_setRoleAdmin}."
      },
      "grantRole(bytes32,address)": {
        "details": "Grants `role` to `account`. If `account` had not been already granted `role`, emits a {RoleGranted} event. Requirements: - the caller must have ``role``'s admin role. May emit a {RoleGranted} event."
      },
      "hasRole(bytes32,address)": {
        "details": "Returns `true` if `account` has been granted `role`."
      },
      "isApprovedForAll(address,address)": {
        "details": "See {IERC721-isApprovedForAll}."
      },
      "name()": {
        "details": "See {IERC721Metadata-name}."
      },
      "ownerOf(uint256)": {
        "details": "See {IERC721-ownerOf}."
      },
      "renounceRole(bytes32,address)": {
        "details": "Revokes `role` from the calling account. Roles are often managed via {grantRole} and {revokeRole}: this function's purpose is to provide a mechanism for accounts to lose their privileges if they are compromised (such as when a trusted device is misplaced). If the calling account had been revoked `role`, emits a {RoleRevoked} event. Requirements: - the caller must be `account`. May emit a {RoleRevoked} event."
      },
      "revokeRole(bytes32,address)": {
        "details": "Revokes `role` from `account`. If `account` had been granted `role`, emits a {RoleRevoked} event. Requirements: - the caller must have ``role``'s admin role. May emit a {RoleRevoked} event."
      },
      "safeTransferFrom(address,address,uint256)": {
        "details": "See {IERC721-safeTransferFrom}."
      },
      "safeTransferFrom(address,address,uint256,bytes)": {
        "details": "See {IERC721-safeTransferFrom}."
      },
      "setApprovalForAll(address,bool)": {
        "details": "See {IERC721-setApprovalForAll}."
      },
      "symbol()": {
        "details": "See {IERC721Metadata-symbol}."
      },
      "tokenURI(uint256)": {
        "details": "See {IERC721Metadata-tokenURI}."
      },
      "transferFrom(address,address,uint256)": {
        "details": "See {IERC721-transferFrom}."
      }
    },
    "version": 1
  },
  "userdoc": {
    "kind": "user",
    "methods": {},
    "version": 1
  },
  "storageLayout": {
    "storage": [
      {
        "astId": 2989,
        "contract": "contracts/DeedNFT.sol:DeedNFT",
        "label": "_name",
        "offset": 0,
        "slot": "0",
        "type": "t_string_storage"
      },
      {
        "astId": 2991,
        "contract": "contracts/DeedNFT.sol:DeedNFT",
        "label": "_symbol",
        "offset": 0,
        "slot": "1",
        "type": "t_string_storage"
      },
      {
        "astId": 2995,
        "contract": "contracts/DeedNFT.sol:DeedNFT",
        "label": "_owners",
        "offset": 0,
        "slot": "2",
        "type": "t_mapping(t_uint256,t_address)"
      },
      {
        "astId": 2999,
        "contract": "contracts/DeedNFT.sol:DeedNFT",
        "label": "_balances",
        "offset": 0,
        "slot": "3",
        "type": "t_mapping(t_address,t_uint256)"
      },
      {
        "astId": 3003,
        "contract": "contracts/DeedNFT.sol:DeedNFT",
        "label": "_tokenApprovals",
        "offset": 0,
        "slot": "4",
        "type": "t_mapping(t_uint256,t_address)"
      },
      {
        "astId": 3009,
        "contract": "contracts/DeedNFT.sol:DeedNFT",
        "label": "_operatorApprovals",
        "offset": 0,
        "slot": "5",
        "type": "t_mapping(t_address,t_mapping(t_address,t_bool))"
      },
      {
        "astId": 24,
        "contract": "contracts/DeedNFT.sol:DeedNFT",
        "label": "_roles",
        "offset": 0,
        "slot": "6",
        "type": "t_mapping(t_bytes32,t_struct(RoleData)19_storage)"
      },
      {
        "astId": 5519,
        "contract": "contracts/DeedNFT.sol:DeedNFT",
        "label": "_nextTokenId",
        "offset": 0,
        "slot": "7",
        "type": "t_uint256"
      },
      {
        "astId": 5524,
        "contract": "contracts/DeedNFT.sol:DeedNFT",
        "label": "deedInfoMap",
        "offset": 0,
        "slot": "8",
        "type": "t_mapping(t_uint256,t_struct(DeedInfo)5517_storage)"
      }
    ],
    "types": {
      "t_address": {
        "encoding": "inplace",
        "label": "address",
        "numberOfBytes": "20"
      },
      "t_bool": {
        "encoding": "inplace",
        "label": "bool",
        "numberOfBytes": "1"
      },
      "t_bytes32": {
        "encoding": "inplace",
        "label": "bytes32",
        "numberOfBytes": "32"
      },
      "t_bytes_storage": {
        "encoding": "bytes",
        "label": "bytes",
        "numberOfBytes": "32"
      },
      "t_enum(AssetType)5534": {
        "encoding": "inplace",
        "label": "enum DeedNFT.AssetType",
        "numberOfBytes": "1"
      },
      "t_mapping(t_address,t_bool)": {
        "encoding": "mapping",
        "key": "t_address",
        "label": "mapping(address => bool)",
        "numberOfBytes": "32",
        "value": "t_bool"
      },
      "t_mapping(t_address,t_mapping(t_address,t_bool))": {
        "encoding": "mapping",
        "key": "t_address",
        "label": "mapping(address => mapping(address => bool))",
        "numberOfBytes": "32",
        "value": "t_mapping(t_address,t_bool)"
      },
      "t_mapping(t_address,t_uint256)": {
        "encoding": "mapping",
        "key": "t_address",
        "label": "mapping(address => uint256)",
        "numberOfBytes": "32",
        "value": "t_uint256"
      },
      "t_mapping(t_bytes32,t_struct(RoleData)19_storage)": {
        "encoding": "mapping",
        "key": "t_bytes32",
        "label": "mapping(bytes32 => struct AccessControl.RoleData)",
        "numberOfBytes": "32",
        "value": "t_struct(RoleData)19_storage"
      },
      "t_mapping(t_uint256,t_address)": {
        "encoding": "mapping",
        "key": "t_uint256",
        "label": "mapping(uint256 => address)",
        "numberOfBytes": "32",
        "value": "t_address"
      },
      "t_mapping(t_uint256,t_struct(DeedInfo)5517_storage)": {
        "encoding": "mapping",
        "key": "t_uint256",
        "label": "mapping(uint256 => struct DeedNFT.DeedInfo)",
        "numberOfBytes": "32",
        "value": "t_struct(DeedInfo)5517_storage"
      },
      "t_string_storage": {
        "encoding": "bytes",
        "label": "string",
        "numberOfBytes": "32"
      },
      "t_struct(DeedInfo)5517_storage": {
        "encoding": "inplace",
        "label": "struct DeedNFT.DeedInfo",
        "members": [
          {
            "astId": 5507,
            "contract": "contracts/DeedNFT.sol:DeedNFT",
            "label": "ipfsDetailsHash",
            "offset": 0,
            "slot": "0",
            "type": "t_bytes_storage"
          },
          {
            "astId": 5510,
            "contract": "contracts/DeedNFT.sol:DeedNFT",
            "label": "assetType",
            "offset": 0,
            "slot": "1",
            "type": "t_enum(AssetType)5534"
          },
          {
            "astId": 5512,
            "contract": "contracts/DeedNFT.sol:DeedNFT",
            "label": "price",
            "offset": 0,
            "slot": "2",
            "type": "t_uint256"
          },
          {
            "astId": 5514,
            "contract": "contracts/DeedNFT.sol:DeedNFT",
            "label": "deedAddress",
            "offset": 0,
            "slot": "3",
            "type": "t_string_storage"
          },
          {
            "astId": 5516,
            "contract": "contracts/DeedNFT.sol:DeedNFT",
            "label": "isValidated",
            "offset": 0,
            "slot": "4",
            "type": "t_bool"
          }
        ],
        "numberOfBytes": "160"
      },
      "t_struct(RoleData)19_storage": {
        "encoding": "inplace",
        "label": "struct AccessControl.RoleData",
        "members": [
          {
            "astId": 16,
            "contract": "contracts/DeedNFT.sol:DeedNFT",
            "label": "members",
            "offset": 0,
            "slot": "0",
            "type": "t_mapping(t_address,t_bool)"
          },
          {
            "astId": 18,
            "contract": "contracts/DeedNFT.sol:DeedNFT",
            "label": "adminRole",
            "offset": 0,
            "slot": "1",
            "type": "t_bytes32"
          }
        ],
        "numberOfBytes": "64"
      },
      "t_uint256": {
        "encoding": "inplace",
        "label": "uint256",
        "numberOfBytes": "32"
      }
    }
  }
}