{
  "address": "0xb0A98E6045b3a2E266942E6FDc94eC45c88218FB",
  "abi": [
    {
      "inputs": [
        {
          "internalType": "address",
          "name": "_accessManager",
          "type": "address"
        }
      ],
      "stateMutability": "nonpayable",
      "type": "constructor"
    },
    {
      "anonymous": false,
      "inputs": [
        {
          "indexed": true,
          "internalType": "address",
          "name": "owner",
          "type": "address"
        },
        {
          "indexed": true,
          "internalType": "address",
          "name": "approved",
          "type": "address"
        },
        {
          "indexed": true,
          "internalType": "uint256",
          "name": "tokenId",
          "type": "uint256"
        }
      ],
      "name": "Approval",
      "type": "event"
    },
    {
      "anonymous": false,
      "inputs": [
        {
          "indexed": true,
          "internalType": "address",
          "name": "owner",
          "type": "address"
        },
        {
          "indexed": true,
          "internalType": "address",
          "name": "operator",
          "type": "address"
        },
        {
          "indexed": false,
          "internalType": "bool",
          "name": "approved",
          "type": "bool"
        }
      ],
      "name": "ApprovalForAll",
      "type": "event"
    },
    {
      "anonymous": false,
      "inputs": [
        {
          "indexed": false,
          "internalType": "uint256",
          "name": "_fromTokenId",
          "type": "uint256"
        },
        {
          "indexed": false,
          "internalType": "uint256",
          "name": "_toTokenId",
          "type": "uint256"
        }
      ],
      "name": "BatchMetadataUpdate",
      "type": "event"
    },
    {
      "anonymous": false,
      "inputs": [
        {
          "indexed": false,
          "internalType": "uint256",
          "name": "deedId",
          "type": "uint256"
        },
        {
          "indexed": false,
          "internalType": "enum DeedNFT.AssetType",
          "name": "newAssetType",
          "type": "uint8"
        }
      ],
      "name": "DeedNFTAssetTypeSet",
      "type": "event"
    },
    {
      "anonymous": false,
      "inputs": [
        {
          "indexed": false,
          "internalType": "uint256",
          "name": "deedId",
          "type": "uint256"
        },
        {
          "indexed": false,
          "internalType": "bool",
          "name": "isValid",
          "type": "bool"
        }
      ],
      "name": "DeedNFTAssetValidationSet",
      "type": "event"
    },
    {
      "anonymous": false,
      "inputs": [
        {
          "indexed": false,
          "internalType": "uint256",
          "name": "deedId",
          "type": "uint256"
        }
      ],
      "name": "DeedNFTBurned",
      "type": "event"
    },
    {
      "anonymous": false,
      "inputs": [
        {
          "indexed": false,
          "internalType": "uint256",
          "name": "deedId",
          "type": "uint256"
        },
        {
          "indexed": false,
          "internalType": "bytes",
          "name": "newIpfsDetailsHash",
          "type": "bytes"
        }
      ],
      "name": "DeedNFTIpfsDetailsSet",
      "type": "event"
    },
    {
      "anonymous": false,
      "inputs": [
        {
          "indexed": false,
          "internalType": "uint256",
          "name": "deedId",
          "type": "uint256"
        },
        {
          "components": [
            {
              "internalType": "enum DeedNFT.AssetType",
              "name": "assetType",
              "type": "uint8"
            },
            {
              "internalType": "uint256",
              "name": "price",
              "type": "uint256"
            },
            {
              "internalType": "bool",
              "name": "isValidated",
              "type": "bool"
            }
          ],
          "indexed": false,
          "internalType": "struct DeedNFT.DeedInfo",
          "name": "deedInfo",
          "type": "tuple"
        },
        {
          "indexed": false,
          "internalType": "address",
          "name": "minter",
          "type": "address"
        }
      ],
      "name": "DeedNFTMinted",
      "type": "event"
    },
    {
      "anonymous": false,
      "inputs": [
        {
          "indexed": false,
          "internalType": "uint256",
          "name": "deedId",
          "type": "uint256"
        },
        {
          "indexed": false,
          "internalType": "uint256",
          "name": "newPrice",
          "type": "uint256"
        }
      ],
      "name": "DeedNFTPriceUpdated",
      "type": "event"
    },
    {
      "anonymous": false,
      "inputs": [
        {
          "indexed": false,
          "internalType": "uint256",
          "name": "_tokenId",
          "type": "uint256"
        }
      ],
      "name": "MetadataUpdate",
      "type": "event"
    },
    {
      "anonymous": false,
      "inputs": [
        {
          "indexed": true,
          "internalType": "address",
          "name": "from",
          "type": "address"
        },
        {
          "indexed": true,
          "internalType": "address",
          "name": "to",
          "type": "address"
        },
        {
          "indexed": true,
          "internalType": "uint256",
          "name": "tokenId",
          "type": "uint256"
        }
      ],
      "name": "Transfer",
      "type": "event"
    },
    {
      "inputs": [
        {
          "internalType": "address",
          "name": "to",
          "type": "address"
        },
        {
          "internalType": "uint256",
          "name": "tokenId",
          "type": "uint256"
        }
      ],
      "name": "approve",
      "outputs": [],
      "stateMutability": "nonpayable",
      "type": "function"
    },
    {
      "inputs": [
        {
          "internalType": "address",
          "name": "owner",
          "type": "address"
        }
      ],
      "name": "balanceOf",
      "outputs": [
        {
          "internalType": "uint256",
          "name": "",
          "type": "uint256"
        }
      ],
      "stateMutability": "view",
      "type": "function"
    },
    {
      "inputs": [
        {
          "internalType": "uint256",
          "name": "_deedId",
          "type": "uint256"
        }
      ],
      "name": "burn",
      "outputs": [],
      "stateMutability": "nonpayable",
      "type": "function"
    },
    {
      "inputs": [
        {
          "internalType": "uint256",
          "name": "_deedId",
          "type": "uint256"
        }
      ],
      "name": "canSubdivide",
      "outputs": [
        {
          "internalType": "bool",
          "name": "",
          "type": "bool"
        }
      ],
      "stateMutability": "view",
      "type": "function"
    },
    {
      "inputs": [
        {
          "internalType": "uint256",
          "name": "tokenId",
          "type": "uint256"
        }
      ],
      "name": "getApproved",
      "outputs": [
        {
          "internalType": "address",
          "name": "",
          "type": "address"
        }
      ],
      "stateMutability": "view",
      "type": "function"
    },
    {
      "inputs": [
        {
          "internalType": "uint256",
          "name": "_deedId",
          "type": "uint256"
        }
      ],
      "name": "getDeedInfo",
      "outputs": [
        {
          "components": [
            {
              "internalType": "enum DeedNFT.AssetType",
              "name": "assetType",
              "type": "uint8"
            },
            {
              "internalType": "uint256",
              "name": "price",
              "type": "uint256"
            },
            {
              "internalType": "bool",
              "name": "isValidated",
              "type": "bool"
            }
          ],
          "internalType": "struct DeedNFT.DeedInfo",
          "name": "",
          "type": "tuple"
        }
      ],
      "stateMutability": "view",
      "type": "function"
    },
    {
      "inputs": [],
      "name": "hasAdminRole",
      "outputs": [
        {
          "internalType": "bool",
          "name": "",
          "type": "bool"
        }
      ],
      "stateMutability": "view",
      "type": "function"
    },
    {
      "inputs": [
        {
          "internalType": "bytes32",
          "name": "_role",
          "type": "bytes32"
        },
        {
          "internalType": "address",
          "name": "_address",
          "type": "address"
        }
      ],
      "name": "hasRole",
      "outputs": [
        {
          "internalType": "bool",
          "name": "",
          "type": "bool"
        }
      ],
      "stateMutability": "view",
      "type": "function"
    },
    {
      "inputs": [],
      "name": "hasValidatorRole",
      "outputs": [
        {
          "internalType": "bool",
          "name": "",
          "type": "bool"
        }
      ],
      "stateMutability": "view",
      "type": "function"
    },
    {
      "inputs": [
        {
          "internalType": "address",
          "name": "owner",
          "type": "address"
        },
        {
          "internalType": "address",
          "name": "operator",
          "type": "address"
        }
      ],
      "name": "isApprovedForAll",
      "outputs": [
        {
          "internalType": "bool",
          "name": "",
          "type": "bool"
        }
      ],
      "stateMutability": "view",
      "type": "function"
    },
    {
      "inputs": [
        {
          "internalType": "address",
          "name": "_owner",
          "type": "address"
        },
        {
          "internalType": "bytes",
          "name": "_ipfsDetailsHash",
          "type": "bytes"
        },
        {
          "internalType": "enum DeedNFT.AssetType",
          "name": "_assetType",
          "type": "uint8"
        }
      ],
      "name": "mintAsset",
      "outputs": [],
      "stateMutability": "nonpayable",
      "type": "function"
    },
    {
      "inputs": [],
      "name": "name",
      "outputs": [
        {
          "internalType": "string",
          "name": "",
          "type": "string"
        }
      ],
      "stateMutability": "view",
      "type": "function"
    },
    {
      "inputs": [
        {
          "internalType": "uint256",
          "name": "tokenId",
          "type": "uint256"
        }
      ],
      "name": "ownerOf",
      "outputs": [
        {
          "internalType": "address",
          "name": "",
          "type": "address"
        }
      ],
      "stateMutability": "view",
      "type": "function"
    },
    {
      "inputs": [
        {
          "internalType": "address",
          "name": "from",
          "type": "address"
        },
        {
          "internalType": "address",
          "name": "to",
          "type": "address"
        },
        {
          "internalType": "uint256",
          "name": "tokenId",
          "type": "uint256"
        }
      ],
      "name": "safeTransferFrom",
      "outputs": [],
      "stateMutability": "nonpayable",
      "type": "function"
    },
    {
      "inputs": [
        {
          "internalType": "address",
          "name": "from",
          "type": "address"
        },
        {
          "internalType": "address",
          "name": "to",
          "type": "address"
        },
        {
          "internalType": "uint256",
          "name": "tokenId",
          "type": "uint256"
        },
        {
          "internalType": "bytes",
          "name": "data",
          "type": "bytes"
        }
      ],
      "name": "safeTransferFrom",
      "outputs": [],
      "stateMutability": "nonpayable",
      "type": "function"
    },
    {
      "inputs": [
        {
          "internalType": "address",
          "name": "operator",
          "type": "address"
        },
        {
          "internalType": "bool",
          "name": "approved",
          "type": "bool"
        }
      ],
      "name": "setApprovalForAll",
      "outputs": [],
      "stateMutability": "nonpayable",
      "type": "function"
    },
    {
      "inputs": [
        {
          "internalType": "uint256",
          "name": "_deedId",
          "type": "uint256"
        },
        {
          "internalType": "enum DeedNFT.AssetType",
          "name": "_assetType",
          "type": "uint8"
        }
      ],
      "name": "setAssetType",
      "outputs": [],
      "stateMutability": "nonpayable",
      "type": "function"
    },
    {
      "inputs": [
        {
          "internalType": "uint256",
          "name": "_deedId",
          "type": "uint256"
        },
        {
          "internalType": "bool",
          "name": "_isValid",
          "type": "bool"
        }
      ],
      "name": "setAssetValidation",
      "outputs": [],
      "stateMutability": "nonpayable",
      "type": "function"
    },
    {
      "inputs": [
        {
          "internalType": "uint256",
          "name": "_deedId",
          "type": "uint256"
        },
        {
          "internalType": "bytes",
          "name": "_ipfsDetailsHash",
          "type": "bytes"
        }
      ],
      "name": "setIpfsDetailsHash",
      "outputs": [],
      "stateMutability": "nonpayable",
      "type": "function"
    },
    {
      "inputs": [
        {
          "internalType": "uint256",
          "name": "_deedId",
          "type": "uint256"
        },
        {
          "internalType": "uint32",
          "name": "_newPrice",
          "type": "uint32"
        }
      ],
      "name": "setPrice",
      "outputs": [],
      "stateMutability": "nonpayable",
      "type": "function"
    },
    {
      "inputs": [
        {
          "internalType": "bytes4",
          "name": "_interfaceId",
          "type": "bytes4"
        }
      ],
      "name": "supportsInterface",
      "outputs": [
        {
          "internalType": "bool",
          "name": "",
          "type": "bool"
        }
      ],
      "stateMutability": "view",
      "type": "function"
    },
    {
      "inputs": [],
      "name": "symbol",
      "outputs": [
        {
          "internalType": "string",
          "name": "",
          "type": "string"
        }
      ],
      "stateMutability": "view",
      "type": "function"
    },
    {
      "inputs": [
        {
          "internalType": "uint256",
          "name": "_deedId",
          "type": "uint256"
        }
      ],
      "name": "tokenURI",
      "outputs": [
        {
          "internalType": "string",
          "name": "",
          "type": "string"
        }
      ],
      "stateMutability": "view",
      "type": "function"
    },
    {
      "inputs": [
        {
          "internalType": "address",
          "name": "from",
          "type": "address"
        },
        {
          "internalType": "address",
          "name": "to",
          "type": "address"
        },
        {
          "internalType": "uint256",
          "name": "tokenId",
          "type": "uint256"
        }
      ],
      "name": "transferFrom",
      "outputs": [],
      "stateMutability": "nonpayable",
      "type": "function"
    }
  ],
  "transactionHash": "0xfb8ff985aa2cc93bbd47f9f5cefd74252230d304ba3e332e88253755c56016ae",
  "args": [
    "0x0fA98D8B8C7325da91aCab3027c5b0A82571EF58"
  ],
  "numDeployments": 11,
  "solcInputHash": "3c5985a446ae1693d481f1d5eab199c5",
  "bytecode": "0x60806040523480156200001157600080fd5b5060405162002621380380620026218339810160408190526200003491620000c2565b80604051806040016040528060078152602001661119595913919560ca1b815250604051806040016040528060048152602001631111515160e21b815250816000908162000083919062000199565b50600162000092828262000199565b5050600780546001600160a01b0319166001600160a01b0393909316929092179091555050600160085562000265565b600060208284031215620000d557600080fd5b81516001600160a01b0381168114620000ed57600080fd5b9392505050565b634e487b7160e01b600052604160045260246000fd5b600181811c908216806200011f57607f821691505b6020821081036200014057634e487b7160e01b600052602260045260246000fd5b50919050565b601f8211156200019457600081815260208120601f850160051c810160208610156200016f5750805b601f850160051c820191505b8181101562000190578281556001016200017b565b5050505b505050565b81516001600160401b03811115620001b557620001b5620000f4565b620001cd81620001c684546200010a565b8462000146565b602080601f831160018114620002055760008415620001ec5750858301515b600019600386901b1c1916600185901b17855562000190565b600085815260208120601f198616915b82811015620002365788860151825594840194600190910190840162000215565b5085821015620002555787850151600019600388901b60f8161c191681555b5050505050600190811b01905550565b6123ac80620002756000396000f3fe608060405234801561001057600080fd5b50600436106101585760003560e01c806370a08231116100c3578063b82c35691161007c578063b82c3569146102e9578063b88d4fde146102fc578063b99c23e31461030f578063c87b56dd14610317578063db9c22db1461032a578063e985e9c51461033d57600080fd5b806370a082311461027f57806389417635146102a057806389b9e75f146102b357806391d14854146102bb57806395d89b41146102ce578063a22cb465146102d657600080fd5b806342842e0e1161011557806342842e0e1461020057806342966c681461021357806362d402bc146102265780636352211e14610246578063682ece02146102595780636f6c15dd1461026c57600080fd5b806301ffc9a71461015d57806306fdde0314610185578063081812fc1461019a578063095ea7b3146101c55780630db2f5bb146101da57806323b872dd146101ed575b600080fd5b61017061016b366004611adb565b610379565b60405190151581526020015b60405180910390f35b61018d61038a565b60405161017c9190611b48565b6101ad6101a8366004611b5b565b61041c565b6040516001600160a01b03909116815260200161017c565b6101d86101d3366004611b90565b610443565b005b6101d86101e8366004611c6c565b61055d565b6101d86101fb366004611cca565b610610565b6101d861020e366004611cca565b610641565b6101d8610221366004611b5b565b61065c565b610239610234366004611b5b565b610702565b60405161017c9190611d3e565b6101ad610254366004611b5b565b6107d8565b6101d8610267366004611d6d565b610838565b6101d861027a366004611da7565b61095f565b61029261028d366004611dd7565b610b0b565b60405190815260200161017c565b6101d86102ae366004611df2565b610b91565b610170610c99565b6101706102c9366004611e20565b610d1c565b61018d610d99565b6101d86102e4366004611e43565b610da8565b6101706102f7366004611b5b565b610db7565b6101d861030a366004611e6f565b610dfd565b610170610e35565b61018d610325366004611b5b565b610e4f565b6101d8610338366004611ed7565b610e5a565b61017061034b366004611f1e565b6001600160a01b03918216600090815260056020908152604080832093909416825291909152205460ff1690565b600061038482610f59565b92915050565b60606000805461039990611f48565b80601f01602080910402602001604051908101604052809291908181526020018280546103c590611f48565b80156104125780601f106103e757610100808354040283529160200191610412565b820191906000526020600020905b8154815290600101906020018083116103f557829003601f168201915b5050505050905090565b600061042782610f7e565b506000908152600460205260409020546001600160a01b031690565b600061044e826107d8565b9050806001600160a01b0316836001600160a01b0316036104c05760405162461bcd60e51b815260206004820152602160248201527f4552433732313a20617070726f76616c20746f2063757272656e74206f776e656044820152603960f91b60648201526084015b60405180910390fd5b336001600160a01b03821614806104dc57506104dc813361034b565b61054e5760405162461bcd60e51b815260206004820152603d60248201527f4552433732313a20617070726f76652063616c6c6572206973206e6f7420746f60448201527f6b656e206f776e6572206f7220617070726f76656420666f7220616c6c00000060648201526084016104b7565b6105588383610fd1565b505050565b6105698360085461103f565b600854600090815260096020526040902080548290829060ff1916600183600381111561059857610598611d06565b021790555060028101805460ff191690556008546105b69084610e5a565b7f04a79d27ae100d5aa062fcc96dd20ef7ec16900ecc23c8160a990a7973a7cc5f600854826105e23390565b6040516105f193929190611f7c565b60405180910390a1600854610607906001611fc9565b60085550505050565b61061a33826111ac565b6106365760405162461bcd60e51b81526004016104b790611fea565b61055883838361122b565b61055883838360405180602001604052806000815250610dfd565b80610666816107d8565b6001600160a01b0316336001600160a01b0316146106838261138f565b6040516020016106939190612037565b604051602081830303815290604052906106c05760405162461bcd60e51b81526004016104b79190611b48565b506106ca82611422565b6040518281527f61c6643f6e835939ae6da3352c52e1b29a86e4ee6599ab73c5d9a416f75d6ed0906020015b60405180910390a15050565b6040805160608101825260008082526020820181905291810191909152816107298161142b565b6107328261138f565b6040516020016107429190612091565b6040516020818303038152906040529061076f5760405162461bcd60e51b81526004016104b79190611b48565b50600083815260096020526040908190208151606081019092528054829060ff1660038111156107a1576107a1611d06565b60038111156107b2576107b2611d06565b81526001820154602082015260029091015460ff16151560409091015291505b50919050565b6000818152600260205260408120546001600160a01b0316806103845760405162461bcd60e51b8152602060048201526018602482015277115490cdcc8c4e881a5b9d985b1a59081d1bdad95b88125160421b60448201526064016104b7565b816108428161142b565b61084b8261138f565b60405160200161085b9190612091565b604051602081830303815290604052906108885760405162461bcd60e51b81526004016104b79190611b48565b5082610893816107d8565b6001600160a01b0316336001600160a01b0316146108b08261138f565b6040516020016108c09190612037565b604051602081830303815290604052906108ed5760405162461bcd60e51b81526004016104b79190611b48565b50600084815260096020526040902080548490829060ff1916600183600381111561091a5761091a611d06565b02179055507f41779e8814a589644c78c07c027c39f8ba699dc2f20bf422c3065cdaa4b8a1b085856040516109509291906120e5565b60405180910390a15050505050565b6007546040805163624dd75f60e11b815290516001600160a01b03909216916391d1485491839163c49baebe916004808201926020929091908290030181865afa1580156109b1573d6000803e3d6000fd5b505050506040513d601f19601f820116820180604052508101906109d591906120f9565b336040516001600160e01b031960e085901b16815260048101929092526001600160a01b03166024820152604401602060405180830381865afa158015610a20573d6000803e3d6000fd5b505050506040513d601f19601f82011682018060405250810190610a449190612112565b610aac5760405162461bcd60e51b815260206004820152603360248201527f5b4163636573734d616e61676572426173655d204f6e6c79207468652076616c6044820152721a59185d1bdc8818d85b881a5b9d195c9858dd606a1b60648201526084016104b7565b60008281526009602090815260409182902060028101805460ff1916851515908117909155835186815292830152917f906235be09503d8fda345aadd07a77160f47ec7155cea0fb9d683684271c4f09910160405180910390a1505050565b60006001600160a01b038216610b755760405162461bcd60e51b815260206004820152602960248201527f4552433732313a2061646472657373207a65726f206973206e6f7420612076616044820152683634b21037bbb732b960b91b60648201526084016104b7565b506001600160a01b031660009081526003602052604090205490565b81610b9b8161142b565b610ba48261138f565b604051602001610bb49190612091565b60405160208183030381529060405290610be15760405162461bcd60e51b81526004016104b79190611b48565b5082610bec816107d8565b6001600160a01b0316336001600160a01b031614610c098261138f565b604051602001610c199190612037565b60405160208183030381529060405290610c465760405162461bcd60e51b81526004016104b79190611b48565b5060008481526009602090815260409182902063ffffffff861660018201819055835188815292830152917f9914de521d038c5fa3fe5baf714ddfb965bb6c921a7865bfec58f416a81482049101610950565b6007546000906001600160a01b031663940e1570335b6040516001600160e01b031960e084901b1681526001600160a01b039091166004820152602401602060405180830381865afa158015610cf3573d6000803e3d6000fd5b505050506040513d601f19601f82011682018060405250810190610d179190612112565b905090565b600754604051632474521560e21b8152600481018490526001600160a01b03838116602483015260009216906391d1485490604401602060405180830381865afa158015610d6e573d6000803e3d6000fd5b505050506040513d601f19601f82011682018060405250810190610d929190612112565b9392505050565b60606001805461039990611f48565b610db3338383611448565b5050565b600080610dc383610702565b5190506000816003811115610dda57610dda611d06565b1480610d9257506002816003811115610df557610df5611d06565b149392505050565b610e0733836111ac565b610e235760405162461bcd60e51b81526004016104b790611fea565b610e2f84848484611516565b50505050565b6007546000906001600160a01b031663c395fcb333610caf565b606061038482611549565b81610e648161142b565b610e6d8261138f565b604051602001610e7d9190612091565b60405160208183030381529060405290610eaa5760405162461bcd60e51b81526004016104b79190611b48565b5082610eb5816107d8565b6001600160a01b0316336001600160a01b031614610ed28261138f565b604051602001610ee29190612037565b60405160208183030381529060405290610f0f5760405162461bcd60e51b81526004016104b79190611b48565b50610f1a8484611651565b7f417aa59045b91e67e5d4d92586c7fe7a309f018dd02891781c5ba31cb1f005968484604051610f4b92919061212f565b60405180910390a150505050565b60006001600160e01b03198216632483248360e11b1480610384575061038482611706565b610f878161142b565b610fce5760405162461bcd60e51b8152602060048201526018602482015277115490cdcc8c4e881a5b9d985b1a59081d1bdad95b88125160421b60448201526064016104b7565b50565b600081815260046020526040902080546001600160a01b0319166001600160a01b0384169081179091558190611006826107d8565b6001600160a01b03167f8c5be1e5ebec7d5bd14f71427d1e84f3dd0314c0f7b2291e5b200ac8c7c3b92560405160405180910390a45050565b6001600160a01b0382166110955760405162461bcd60e51b815260206004820181905260248201527f4552433732313a206d696e7420746f20746865207a65726f206164647265737360448201526064016104b7565b61109e8161142b565b156110eb5760405162461bcd60e51b815260206004820152601c60248201527f4552433732313a20746f6b656e20616c7265616479206d696e7465640000000060448201526064016104b7565b6110f48161142b565b156111415760405162461bcd60e51b815260206004820152601c60248201527f4552433732313a20746f6b656e20616c7265616479206d696e7465640000000060448201526064016104b7565b6001600160a01b038216600081815260036020908152604080832080546001019055848352600290915280822080546001600160a01b0319168417905551839291907fddf252ad1be2c89b69c2b068fc378daa952ba7f163c4a11628f55a4df523b3ef908290a45050565b6000806111b8836107d8565b9050806001600160a01b0316846001600160a01b031614806111ff57506001600160a01b0380821660009081526005602090815260408083209388168352929052205460ff165b806112235750836001600160a01b03166112188461041c565b6001600160a01b0316145b949350505050565b826001600160a01b031661123e826107d8565b6001600160a01b0316146112645760405162461bcd60e51b81526004016104b790612148565b6001600160a01b0382166112c65760405162461bcd60e51b8152602060048201526024808201527f4552433732313a207472616e7366657220746f20746865207a65726f206164646044820152637265737360e01b60648201526084016104b7565b826001600160a01b03166112d9826107d8565b6001600160a01b0316146112ff5760405162461bcd60e51b81526004016104b790612148565b600081815260046020908152604080832080546001600160a01b03199081169091556001600160a01b0387811680865260038552838620805460001901905590871680865283862080546001019055868652600290945282852080549092168417909155905184937fddf252ad1be2c89b69c2b068fc378daa952ba7f163c4a11628f55a4df523b3ef91a4505050565b6060600061139c83611756565b600101905060008167ffffffffffffffff8111156113bc576113bc611bba565b6040519080825280601f01601f1916602001820160405280156113e6576020820181803683370190505b5090508181016020015b600019016f181899199a1a9b1b9c1cb0b131b232b360811b600a86061a8153600a85049450846113f057509392505050565b610fce8161182e565b6000908152600260205260409020546001600160a01b0316151590565b816001600160a01b0316836001600160a01b0316036114a95760405162461bcd60e51b815260206004820152601960248201527f4552433732313a20617070726f766520746f2063616c6c65720000000000000060448201526064016104b7565b6001600160a01b03838116600081815260056020908152604080832094871680845294825291829020805460ff191686151590811790915591519182527f17307eab39ab6107e8899845ad3d59bd9653f200f220920489ca2b5937696c31910160405180910390a3505050565b61152184848461122b565b61152d8484848461186e565b610e2f5760405162461bcd60e51b81526004016104b79061218d565b606061155482610f7e565b6000828152600660205260408120805461156d90611f48565b80601f016020809104026020016040519081016040528092919081815260200182805461159990611f48565b80156115e65780601f106115bb576101008083540402835291602001916115e6565b820191906000526020600020905b8154815290600101906020018083116115c957829003601f168201915b50505050509050600061160460408051602081019091526000815290565b90508051600003611616575092915050565b8151156116485780826040516020016116309291906121df565b60405160208183030381529060405292505050919050565b6112238461196f565b61165a8261142b565b6116bd5760405162461bcd60e51b815260206004820152602e60248201527f45524337323155524953746f726167653a2055524920736574206f66206e6f6e60448201526d32bc34b9ba32b73a103a37b5b2b760911b60648201526084016104b7565b60008281526006602052604090206116d5828261225c565b506040518281527ff8e1a15aba9398e019f0b49df1a4fde98ee17ae345cb5f6b5e2c27f5033e8ce7906020016106f6565b60006001600160e01b031982166380ac58cd60e01b148061173757506001600160e01b03198216635b5e139f60e01b145b8061038457506301ffc9a760e01b6001600160e01b0319831614610384565b60008072184f03e93ff9f4daa797ed6e38ed64bf6a1f0160401b83106117955772184f03e93ff9f4daa797ed6e38ed64bf6a1f0160401b830492506040015b6d04ee2d6d415b85acef810000000083106117c1576d04ee2d6d415b85acef8100000000830492506020015b662386f26fc1000083106117df57662386f26fc10000830492506010015b6305f5e10083106117f7576305f5e100830492506008015b612710831061180b57612710830492506004015b6064831061181d576064830492506002015b600a83106103845760010192915050565b611837816119e2565b6000818152600660205260409020805461185090611f48565b159050610fce576000818152600660205260408120610fce91611a77565b60006001600160a01b0384163b1561196457604051630a85bd0160e11b81526001600160a01b0385169063150b7a02906118b290339089908890889060040161231c565b6020604051808303816000875af19250505080156118ed575060408051601f3d908101601f191682019092526118ea91810190612359565b60015b61194a573d80801561191b576040519150601f19603f3d011682016040523d82523d6000602084013e611920565b606091505b5080516000036119425760405162461bcd60e51b81526004016104b79061218d565b805181602001fd5b6001600160e01b031916630a85bd0160e11b149050611223565b506001949350505050565b606061197a82610f7e565b600061199160408051602081019091526000815290565b905060008151116119b15760405180602001604052806000815250610d92565b806119bb8461138f565b6040516020016119cc9291906121df565b6040516020818303038152906040529392505050565b60006119ed826107d8565b90506119f8826107d8565b600083815260046020908152604080832080546001600160a01b03199081169091556001600160a01b0385168085526003845282852080546000190190558785526002909352818420805490911690555192935084927fddf252ad1be2c89b69c2b068fc378daa952ba7f163c4a11628f55a4df523b3ef908390a45050565b508054611a8390611f48565b6000825580601f10611a93575050565b601f016020900490600052602060002090810190610fce91905b80821115611ac15760008155600101611aad565b5090565b6001600160e01b031981168114610fce57600080fd5b600060208284031215611aed57600080fd5b8135610d9281611ac5565b60005b83811015611b13578181015183820152602001611afb565b50506000910152565b60008151808452611b34816020860160208601611af8565b601f01601f19169290920160200192915050565b602081526000610d926020830184611b1c565b600060208284031215611b6d57600080fd5b5035919050565b80356001600160a01b0381168114611b8b57600080fd5b919050565b60008060408385031215611ba357600080fd5b611bac83611b74565b946020939093013593505050565b634e487b7160e01b600052604160045260246000fd5b600082601f830112611be157600080fd5b813567ffffffffffffffff80821115611bfc57611bfc611bba565b604051601f8301601f19908116603f01168101908282118183101715611c2457611c24611bba565b81604052838152866020858801011115611c3d57600080fd5b836020870160208301376000602085830101528094505050505092915050565b803560048110611b8b57600080fd5b600080600060608486031215611c8157600080fd5b611c8a84611b74565b9250602084013567ffffffffffffffff811115611ca657600080fd5b611cb286828701611bd0565b925050611cc160408501611c5d565b90509250925092565b600080600060608486031215611cdf57600080fd5b611ce884611b74565b9250611cf660208501611b74565b9150604084013590509250925092565b634e487b7160e01b600052602160045260246000fd5b60048110611d3a57634e487b7160e01b600052602160045260246000fd5b9052565b6000606082019050611d51828451611d1c565b6020830151602083015260408301511515604083015292915050565b60008060408385031215611d8057600080fd5b82359150611d9060208401611c5d565b90509250929050565b8015158114610fce57600080fd5b60008060408385031215611dba57600080fd5b823591506020830135611dcc81611d99565b809150509250929050565b600060208284031215611de957600080fd5b610d9282611b74565b60008060408385031215611e0557600080fd5b82359150602083013563ffffffff81168114611dcc57600080fd5b60008060408385031215611e3357600080fd5b82359150611d9060208401611b74565b60008060408385031215611e5657600080fd5b611e5f83611b74565b91506020830135611dcc81611d99565b60008060008060808587031215611e8557600080fd5b611e8e85611b74565b9350611e9c60208601611b74565b925060408501359150606085013567ffffffffffffffff811115611ebf57600080fd5b611ecb87828801611bd0565b91505092959194509250565b60008060408385031215611eea57600080fd5b82359150602083013567ffffffffffffffff811115611f0857600080fd5b611f1485828601611bd0565b9150509250929050565b60008060408385031215611f3157600080fd5b611f3a83611b74565b9150611d9060208401611b74565b600181811c90821680611f5c57607f821691505b6020821081036107d257634e487b7160e01b600052602260045260246000fd5b600060a082019050848252611f986020830160ff865416611d1c565b6001840154604083015260029093015460ff16151560608201526001600160a01b0391909116608090910152919050565b8082018082111561038457634e487b7160e01b600052601160045260246000fd5b6020808252602d908201527f4552433732313a2063616c6c6572206973206e6f7420746f6b656e206f776e6560408201526c1c881bdc88185c1c1c9bdd9959609a1b606082015260800190565b7f5b446565644e46545d204d757374206265206f776e6572206f6620746865204481526b032b2b2103bb4ba341034b2160a51b60208201526000825161208481602c850160208701611af8565b91909101602c0192915050565b7f5b446565644e46545d204465656420646f6573206e6f7420657869737420776981526503a341034b2160d51b6020820152600082516120d8816026850160208701611af8565b9190910160260192915050565b82815260408101610d926020830184611d1c565b60006020828403121561210b57600080fd5b5051919050565b60006020828403121561212457600080fd5b8151610d9281611d99565b8281526040602082015260006112236040830184611b1c565b60208082526025908201527f4552433732313a207472616e736665722066726f6d20696e636f72726563742060408201526437bbb732b960d91b606082015260800190565b60208082526032908201527f4552433732313a207472616e7366657220746f206e6f6e20455243373231526560408201527131b2b4bb32b91034b6b83632b6b2b73a32b960711b606082015260800190565b600083516121f1818460208801611af8565b835190830190612205818360208801611af8565b01949350505050565b601f82111561055857600081815260208120601f850160051c810160208610156122355750805b601f850160051c820191505b8181101561225457828155600101612241565b505050505050565b815167ffffffffffffffff81111561227657612276611bba565b61228a816122848454611f48565b8461220e565b602080601f8311600181146122bf57600084156122a75750858301515b600019600386901b1c1916600185901b178555612254565b600085815260208120601f198616915b828110156122ee578886015182559484019460019091019084016122cf565b508582101561230c5787850151600019600388901b60f8161c191681555b5050505050600190811b01905550565b6001600160a01b038581168252841660208201526040810183905260806060820181905260009061234f90830184611b1c565b9695505050505050565b60006020828403121561236b57600080fd5b8151610d9281611ac556fea26469706673582212204b999120b37d4c932c81d68f8cdb84db3ae1e04c3a6ea6d39d09e9fc9f5af01b64736f6c63430008110033",
  "devdoc": {
    "kind": "dev",
    "methods": {
      "approve(address,uint256)": {
        "details": "See {IERC721-approve}."
      },
      "balanceOf(address)": {
        "details": "See {IERC721-balanceOf}."
      },
      "getApproved(uint256)": {
        "details": "See {IERC721-getApproved}."
      },
      "isApprovedForAll(address,address)": {
        "details": "See {IERC721-isApprovedForAll}."
      },
      "name()": {
        "details": "See {IERC721Metadata-name}."
      },
      "ownerOf(uint256)": {
        "details": "See {IERC721-ownerOf}."
      },
      "safeTransferFrom(address,address,uint256)": {
        "details": "See {IERC721-safeTransferFrom}."
      },
      "safeTransferFrom(address,address,uint256,bytes)": {
        "details": "See {IERC721-safeTransferFrom}."
      },
      "setApprovalForAll(address,bool)": {
        "details": "See {IERC721-setApprovalForAll}."
      },
      "symbol()": {
        "details": "See {IERC721Metadata-symbol}."
      },
      "transferFrom(address,address,uint256)": {
        "details": "See {IERC721-transferFrom}."
      }
    },
    "version": 1
  },
  "userdoc": {
    "kind": "user",
    "methods": {},
    "version": 1
  },
  "storageLayout": {
    "storage": [
      {
        "astId": 3010,
        "contract": "contracts/DeedNFT.sol:DeedNFT",
        "label": "_name",
        "offset": 0,
        "slot": "0",
        "type": "t_string_storage"
      },
      {
        "astId": 3012,
        "contract": "contracts/DeedNFT.sol:DeedNFT",
        "label": "_symbol",
        "offset": 0,
        "slot": "1",
        "type": "t_string_storage"
      },
      {
        "astId": 3016,
        "contract": "contracts/DeedNFT.sol:DeedNFT",
        "label": "_owners",
        "offset": 0,
        "slot": "2",
        "type": "t_mapping(t_uint256,t_address)"
      },
      {
        "astId": 3020,
        "contract": "contracts/DeedNFT.sol:DeedNFT",
        "label": "_balances",
        "offset": 0,
        "slot": "3",
        "type": "t_mapping(t_address,t_uint256)"
      },
      {
        "astId": 3024,
        "contract": "contracts/DeedNFT.sol:DeedNFT",
        "label": "_tokenApprovals",
        "offset": 0,
        "slot": "4",
        "type": "t_mapping(t_uint256,t_address)"
      },
      {
        "astId": 3030,
        "contract": "contracts/DeedNFT.sol:DeedNFT",
        "label": "_operatorApprovals",
        "offset": 0,
        "slot": "5",
        "type": "t_mapping(t_address,t_mapping(t_address,t_bool))"
      },
      {
        "astId": 4061,
        "contract": "contracts/DeedNFT.sol:DeedNFT",
        "label": "_tokenURIs",
        "offset": 0,
        "slot": "6",
        "type": "t_mapping(t_uint256,t_string_storage)"
      },
      {
        "astId": 5948,
        "contract": "contracts/DeedNFT.sol:DeedNFT",
        "label": "accessManager",
        "offset": 0,
        "slot": "7",
        "type": "t_contract(AccessManager)5943"
      },
      {
        "astId": 6114,
        "contract": "contracts/DeedNFT.sol:DeedNFT",
        "label": "nextDeedId",
        "offset": 0,
        "slot": "8",
        "type": "t_uint256"
      },
      {
        "astId": 6119,
        "contract": "contracts/DeedNFT.sol:DeedNFT",
        "label": "deedInfoMap",
        "offset": 0,
        "slot": "9",
        "type": "t_mapping(t_uint256,t_struct(DeedInfo)6112_storage)"
      }
    ],
    "types": {
      "t_address": {
        "encoding": "inplace",
        "label": "address",
        "numberOfBytes": "20"
      },
      "t_bool": {
        "encoding": "inplace",
        "label": "bool",
        "numberOfBytes": "1"
      },
      "t_contract(AccessManager)5943": {
        "encoding": "inplace",
        "label": "contract AccessManager",
        "numberOfBytes": "20"
      },
      "t_enum(AssetType)6124": {
        "encoding": "inplace",
        "label": "enum DeedNFT.AssetType",
        "numberOfBytes": "1"
      },
      "t_mapping(t_address,t_bool)": {
        "encoding": "mapping",
        "key": "t_address",
        "label": "mapping(address => bool)",
        "numberOfBytes": "32",
        "value": "t_bool"
      },
      "t_mapping(t_address,t_mapping(t_address,t_bool))": {
        "encoding": "mapping",
        "key": "t_address",
        "label": "mapping(address => mapping(address => bool))",
        "numberOfBytes": "32",
        "value": "t_mapping(t_address,t_bool)"
      },
      "t_mapping(t_address,t_uint256)": {
        "encoding": "mapping",
        "key": "t_address",
        "label": "mapping(address => uint256)",
        "numberOfBytes": "32",
        "value": "t_uint256"
      },
      "t_mapping(t_uint256,t_address)": {
        "encoding": "mapping",
        "key": "t_uint256",
        "label": "mapping(uint256 => address)",
        "numberOfBytes": "32",
        "value": "t_address"
      },
      "t_mapping(t_uint256,t_string_storage)": {
        "encoding": "mapping",
        "key": "t_uint256",
        "label": "mapping(uint256 => string)",
        "numberOfBytes": "32",
        "value": "t_string_storage"
      },
      "t_mapping(t_uint256,t_struct(DeedInfo)6112_storage)": {
        "encoding": "mapping",
        "key": "t_uint256",
        "label": "mapping(uint256 => struct DeedNFT.DeedInfo)",
        "numberOfBytes": "32",
        "value": "t_struct(DeedInfo)6112_storage"
      },
      "t_string_storage": {
        "encoding": "bytes",
        "label": "string",
        "numberOfBytes": "32"
      },
      "t_struct(DeedInfo)6112_storage": {
        "encoding": "inplace",
        "label": "struct DeedNFT.DeedInfo",
        "members": [
          {
            "astId": 6107,
            "contract": "contracts/DeedNFT.sol:DeedNFT",
            "label": "assetType",
            "offset": 0,
            "slot": "0",
            "type": "t_enum(AssetType)6124"
          },
          {
            "astId": 6109,
            "contract": "contracts/DeedNFT.sol:DeedNFT",
            "label": "price",
            "offset": 0,
            "slot": "1",
            "type": "t_uint256"
          },
          {
            "astId": 6111,
            "contract": "contracts/DeedNFT.sol:DeedNFT",
            "label": "isValidated",
            "offset": 0,
            "slot": "2",
            "type": "t_bool"
          }
        ],
        "numberOfBytes": "96"
      },
      "t_uint256": {
        "encoding": "inplace",
        "label": "uint256",
        "numberOfBytes": "32"
      }
    }
  }
}