{
  "address": "0x53DaE5F925a230f0bcb6ec62F6c92AeDF965d8e1",
  "abi": [
    {
      "inputs": [],
      "stateMutability": "nonpayable",
      "type": "constructor"
    },
    {
      "anonymous": false,
      "inputs": [
        {
          "indexed": true,
          "internalType": "address",
          "name": "owner",
          "type": "address"
        },
        {
          "indexed": true,
          "internalType": "address",
          "name": "approved",
          "type": "address"
        },
        {
          "indexed": true,
          "internalType": "uint256",
          "name": "tokenId",
          "type": "uint256"
        }
      ],
      "name": "Approval",
      "type": "event"
    },
    {
      "anonymous": false,
      "inputs": [
        {
          "indexed": true,
          "internalType": "address",
          "name": "owner",
          "type": "address"
        },
        {
          "indexed": true,
          "internalType": "address",
          "name": "operator",
          "type": "address"
        },
        {
          "indexed": false,
          "internalType": "bool",
          "name": "approved",
          "type": "bool"
        }
      ],
      "name": "ApprovalForAll",
      "type": "event"
    },
    {
      "anonymous": false,
      "inputs": [
        {
          "indexed": false,
          "internalType": "uint256",
          "name": "deedId",
          "type": "uint256"
        },
        {
          "indexed": false,
          "internalType": "bool",
          "name": "isValid",
          "type": "bool"
        }
      ],
      "name": "AssetValidation",
      "type": "event"
    },
    {
      "anonymous": false,
      "inputs": [
        {
          "components": [
            {
              "internalType": "bytes",
              "name": "ipfsDetailsHash",
              "type": "bytes"
            },
            {
              "internalType": "enum DeedNFT.AssetType",
              "name": "assetType",
              "type": "uint8"
            },
            {
              "internalType": "uint256",
              "name": "price",
              "type": "uint256"
            },
            {
              "internalType": "string",
              "name": "deedAddress",
              "type": "string"
            },
            {
              "internalType": "bool",
              "name": "isValidated",
              "type": "bool"
            }
          ],
          "indexed": false,
          "internalType": "struct DeedNFT.DeedInfo",
          "name": "deedInfo",
          "type": "tuple"
        }
      ],
      "name": "DeedMinted",
      "type": "event"
    },
    {
      "anonymous": false,
      "inputs": [
        {
          "indexed": true,
          "internalType": "bytes32",
          "name": "role",
          "type": "bytes32"
        },
        {
          "indexed": true,
          "internalType": "bytes32",
          "name": "previousAdminRole",
          "type": "bytes32"
        },
        {
          "indexed": true,
          "internalType": "bytes32",
          "name": "newAdminRole",
          "type": "bytes32"
        }
      ],
      "name": "RoleAdminChanged",
      "type": "event"
    },
    {
      "anonymous": false,
      "inputs": [
        {
          "indexed": true,
          "internalType": "bytes32",
          "name": "role",
          "type": "bytes32"
        },
        {
          "indexed": true,
          "internalType": "address",
          "name": "account",
          "type": "address"
        },
        {
          "indexed": true,
          "internalType": "address",
          "name": "sender",
          "type": "address"
        }
      ],
      "name": "RoleGranted",
      "type": "event"
    },
    {
      "anonymous": false,
      "inputs": [
        {
          "indexed": true,
          "internalType": "bytes32",
          "name": "role",
          "type": "bytes32"
        },
        {
          "indexed": true,
          "internalType": "address",
          "name": "account",
          "type": "address"
        },
        {
          "indexed": true,
          "internalType": "address",
          "name": "sender",
          "type": "address"
        }
      ],
      "name": "RoleRevoked",
      "type": "event"
    },
    {
      "anonymous": false,
      "inputs": [
        {
          "indexed": true,
          "internalType": "address",
          "name": "from",
          "type": "address"
        },
        {
          "indexed": true,
          "internalType": "address",
          "name": "to",
          "type": "address"
        },
        {
          "indexed": true,
          "internalType": "uint256",
          "name": "tokenId",
          "type": "uint256"
        }
      ],
      "name": "Transfer",
      "type": "event"
    },
    {
      "inputs": [],
      "name": "DEFAULT_ADMIN_ROLE",
      "outputs": [
        {
          "internalType": "bytes32",
          "name": "",
          "type": "bytes32"
        }
      ],
      "stateMutability": "view",
      "type": "function"
    },
    {
      "inputs": [],
      "name": "VALIDATOR_ROLE",
      "outputs": [
        {
          "internalType": "bytes32",
          "name": "",
          "type": "bytes32"
        }
      ],
      "stateMutability": "view",
      "type": "function"
    },
    {
      "inputs": [
        {
          "internalType": "address",
          "name": "minter",
          "type": "address"
        }
      ],
      "name": "addValidator",
      "outputs": [],
      "stateMutability": "nonpayable",
      "type": "function"
    },
    {
      "inputs": [
        {
          "internalType": "address",
          "name": "to",
          "type": "address"
        },
        {
          "internalType": "uint256",
          "name": "tokenId",
          "type": "uint256"
        }
      ],
      "name": "approve",
      "outputs": [],
      "stateMutability": "nonpayable",
      "type": "function"
    },
    {
      "inputs": [
        {
          "internalType": "address",
          "name": "owner",
          "type": "address"
        }
      ],
      "name": "balanceOf",
      "outputs": [
        {
          "internalType": "uint256",
          "name": "",
          "type": "uint256"
        }
      ],
      "stateMutability": "view",
      "type": "function"
    },
    {
      "inputs": [
        {
          "internalType": "uint256",
          "name": "tokenId",
          "type": "uint256"
        }
      ],
      "name": "canSubdivide",
      "outputs": [
        {
          "internalType": "bool",
          "name": "",
          "type": "bool"
        }
      ],
      "stateMutability": "view",
      "type": "function"
    },
    {
      "inputs": [
        {
          "internalType": "uint256",
          "name": "tokenId",
          "type": "uint256"
        }
      ],
      "name": "getApproved",
      "outputs": [
        {
          "internalType": "address",
          "name": "",
          "type": "address"
        }
      ],
      "stateMutability": "view",
      "type": "function"
    },
    {
      "inputs": [
        {
          "internalType": "uint256",
          "name": "_tokenId",
          "type": "uint256"
        }
      ],
      "name": "getDeedInfo",
      "outputs": [
        {
          "components": [
            {
              "internalType": "bytes",
              "name": "ipfsDetailsHash",
              "type": "bytes"
            },
            {
              "internalType": "enum DeedNFT.AssetType",
              "name": "assetType",
              "type": "uint8"
            },
            {
              "internalType": "uint256",
              "name": "price",
              "type": "uint256"
            },
            {
              "internalType": "string",
              "name": "deedAddress",
              "type": "string"
            },
            {
              "internalType": "bool",
              "name": "isValidated",
              "type": "bool"
            }
          ],
          "internalType": "struct DeedNFT.DeedInfo",
          "name": "",
          "type": "tuple"
        }
      ],
      "stateMutability": "view",
      "type": "function"
    },
    {
      "inputs": [
        {
          "internalType": "bytes32",
          "name": "role",
          "type": "bytes32"
        }
      ],
      "name": "getRoleAdmin",
      "outputs": [
        {
          "internalType": "bytes32",
          "name": "",
          "type": "bytes32"
        }
      ],
      "stateMutability": "view",
      "type": "function"
    },
    {
      "inputs": [
        {
          "internalType": "bytes32",
          "name": "role",
          "type": "bytes32"
        },
        {
          "internalType": "address",
          "name": "account",
          "type": "address"
        }
      ],
      "name": "grantRole",
      "outputs": [],
      "stateMutability": "nonpayable",
      "type": "function"
    },
    {
      "inputs": [
        {
          "internalType": "bytes32",
          "name": "role",
          "type": "bytes32"
        },
        {
          "internalType": "address",
          "name": "account",
          "type": "address"
        }
      ],
      "name": "hasRole",
      "outputs": [
        {
          "internalType": "bool",
          "name": "",
          "type": "bool"
        }
      ],
      "stateMutability": "view",
      "type": "function"
    },
    {
      "inputs": [
        {
          "internalType": "address",
          "name": "owner",
          "type": "address"
        },
        {
          "internalType": "address",
          "name": "operator",
          "type": "address"
        }
      ],
      "name": "isApprovedForAll",
      "outputs": [
        {
          "internalType": "bool",
          "name": "",
          "type": "bool"
        }
      ],
      "stateMutability": "view",
      "type": "function"
    },
    {
      "inputs": [
        {
          "internalType": "address",
          "name": "_to",
          "type": "address"
        },
        {
          "internalType": "bytes",
          "name": "_ipfsDetailsHash",
          "type": "bytes"
        },
        {
          "internalType": "enum DeedNFT.AssetType",
          "name": "_assetType",
          "type": "uint8"
        },
        {
          "internalType": "string",
          "name": "_deedAddress",
          "type": "string"
        }
      ],
      "name": "mintAsset",
      "outputs": [],
      "stateMutability": "nonpayable",
      "type": "function"
    },
    {
      "inputs": [],
      "name": "name",
      "outputs": [
        {
          "internalType": "string",
          "name": "",
          "type": "string"
        }
      ],
      "stateMutability": "view",
      "type": "function"
    },
    {
      "inputs": [
        {
          "internalType": "uint256",
          "name": "tokenId",
          "type": "uint256"
        }
      ],
      "name": "ownerOf",
      "outputs": [
        {
          "internalType": "address",
          "name": "",
          "type": "address"
        }
      ],
      "stateMutability": "view",
      "type": "function"
    },
    {
      "inputs": [
        {
          "internalType": "address",
          "name": "minter",
          "type": "address"
        }
      ],
      "name": "removeValidator",
      "outputs": [],
      "stateMutability": "nonpayable",
      "type": "function"
    },
    {
      "inputs": [
        {
          "internalType": "bytes32",
          "name": "role",
          "type": "bytes32"
        },
        {
          "internalType": "address",
          "name": "account",
          "type": "address"
        }
      ],
      "name": "renounceRole",
      "outputs": [],
      "stateMutability": "nonpayable",
      "type": "function"
    },
    {
      "inputs": [
        {
          "internalType": "bytes32",
          "name": "role",
          "type": "bytes32"
        },
        {
          "internalType": "address",
          "name": "account",
          "type": "address"
        }
      ],
      "name": "revokeRole",
      "outputs": [],
      "stateMutability": "nonpayable",
      "type": "function"
    },
    {
      "inputs": [
        {
          "internalType": "address",
          "name": "from",
          "type": "address"
        },
        {
          "internalType": "address",
          "name": "to",
          "type": "address"
        },
        {
          "internalType": "uint256",
          "name": "tokenId",
          "type": "uint256"
        }
      ],
      "name": "safeTransferFrom",
      "outputs": [],
      "stateMutability": "nonpayable",
      "type": "function"
    },
    {
      "inputs": [
        {
          "internalType": "address",
          "name": "from",
          "type": "address"
        },
        {
          "internalType": "address",
          "name": "to",
          "type": "address"
        },
        {
          "internalType": "uint256",
          "name": "tokenId",
          "type": "uint256"
        },
        {
          "internalType": "bytes",
          "name": "data",
          "type": "bytes"
        }
      ],
      "name": "safeTransferFrom",
      "outputs": [],
      "stateMutability": "nonpayable",
      "type": "function"
    },
    {
      "inputs": [
        {
          "internalType": "address",
          "name": "operator",
          "type": "address"
        },
        {
          "internalType": "bool",
          "name": "approved",
          "type": "bool"
        }
      ],
      "name": "setApprovalForAll",
      "outputs": [],
      "stateMutability": "nonpayable",
      "type": "function"
    },
    {
      "inputs": [
        {
          "internalType": "uint256",
          "name": "_deedId",
          "type": "uint256"
        },
        {
          "internalType": "bool",
          "name": "_isValid",
          "type": "bool"
        }
      ],
      "name": "setAssetValidation",
      "outputs": [],
      "stateMutability": "nonpayable",
      "type": "function"
    },
    {
      "inputs": [
        {
          "internalType": "uint256",
          "name": "_tokenId",
          "type": "uint256"
        },
        {
          "internalType": "bytes",
          "name": "_ipfsDetailsHash",
          "type": "bytes"
        }
      ],
      "name": "setIpfsDetailsHash",
      "outputs": [],
      "stateMutability": "nonpayable",
      "type": "function"
    },
    {
      "inputs": [
        {
          "internalType": "uint256",
          "name": "_deedId",
          "type": "uint256"
        },
        {
          "internalType": "uint32",
          "name": "_newPrice",
          "type": "uint32"
        }
      ],
      "name": "setPrice",
      "outputs": [],
      "stateMutability": "nonpayable",
      "type": "function"
    },
    {
      "inputs": [
        {
          "internalType": "bytes4",
          "name": "interfaceId",
          "type": "bytes4"
        }
      ],
      "name": "supportsInterface",
      "outputs": [
        {
          "internalType": "bool",
          "name": "",
          "type": "bool"
        }
      ],
      "stateMutability": "view",
      "type": "function"
    },
    {
      "inputs": [],
      "name": "symbol",
      "outputs": [
        {
          "internalType": "string",
          "name": "",
          "type": "string"
        }
      ],
      "stateMutability": "view",
      "type": "function"
    },
    {
      "inputs": [
        {
          "internalType": "uint256",
          "name": "tokenId",
          "type": "uint256"
        }
      ],
      "name": "tokenURI",
      "outputs": [
        {
          "internalType": "string",
          "name": "",
          "type": "string"
        }
      ],
      "stateMutability": "view",
      "type": "function"
    },
    {
      "inputs": [
        {
          "internalType": "address",
          "name": "from",
          "type": "address"
        },
        {
          "internalType": "address",
          "name": "to",
          "type": "address"
        },
        {
          "internalType": "uint256",
          "name": "tokenId",
          "type": "uint256"
        }
      ],
      "name": "transferFrom",
      "outputs": [],
      "stateMutability": "nonpayable",
      "type": "function"
    }
  ],
  "transactionHash": "0x9ba9888a0c8cc24e8f9dedc645d192856b4d8b0051c69e0a7bc815011868f326",
  "args": [],
  "numDeployments": 5,
  "solcInputHash": "0686bf97c7043fc652bd4f7c37fb048f",
  "bytecode": "0x60806040523480156200001157600080fd5b50604051806040016040528060078152602001661119595913919560ca1b815250604051806040016040528060048152602001631111515160e21b81525081600090816200006091906200020f565b5060016200006f82826200020f565b5050600160075550620000a37f21702c8af46127c7fa207f89d0b0a8441bb32959a0ac7df790e9ab1a25c9892633620000b6565b620000b0600033620000b6565b620002db565b620000c28282620000c6565b5050565b60008281526006602090815260408083206001600160a01b038516845290915290205460ff16620000c25760008281526006602090815260408083206001600160a01b03851684529091529020805460ff19166001179055620001263390565b6001600160a01b0316816001600160a01b0316837f2f8788117e7eff1d82e926ec794901d17c78024a50270940304540a733656f0d60405160405180910390a45050565b634e487b7160e01b600052604160045260246000fd5b600181811c908216806200019557607f821691505b602082108103620001b657634e487b7160e01b600052602260045260246000fd5b50919050565b601f8211156200020a57600081815260208120601f850160051c81016020861015620001e55750805b601f850160051c820191505b818110156200020657828155600101620001f1565b5050505b505050565b81516001600160401b038111156200022b576200022b6200016a565b62000243816200023c845462000180565b84620001bc565b602080601f8311600181146200027b5760008415620002625750858301515b600019600386901b1c1916600185901b17855562000206565b600085815260208120601f198616915b82811015620002ac578886015182559484019460019091019084016200028b565b5085821015620002cb5787850151600019600388901b60f8161c191681555b5050505050600190811b01905550565b61248180620002eb6000396000f3fe608060405234801561001057600080fd5b50600436106101c45760003560e01c806370a08231116100f9578063b82c356911610097578063c87b56dd11610071578063c87b56dd146103d9578063d547741f146103ec578063db9c22db146103ff578063e985e9c51461041257600080fd5b8063b82c35691461039e578063b88d4fde146103b1578063c49baebe146103c457600080fd5b806391d14854116100d357806391d148541461036857806395d89b411461037b578063a217fddf14610383578063a22cb4651461038b57600080fd5b806370a082311461032f5780638277d78a14610342578063894176351461035557600080fd5b806336568abe116101665780634d238c8e116101405780634d238c8e146102d657806362d402bc146102e95780636352211e146103095780636f6c15dd1461031c57600080fd5b806336568abe1461029d57806340a141ff146102b057806342842e0e146102c357600080fd5b8063095ea7b3116101a2578063095ea7b31461023157806323b872dd14610246578063248a9ca3146102595780632f2ff15d1461028a57600080fd5b806301ffc9a7146101c957806306fdde03146101f1578063081812fc14610206575b600080fd5b6101dc6101d7366004611add565b61044e565b60405190151581526020015b60405180910390f35b6101f961045f565b6040516101e89190611b4a565b610219610214366004611b5d565b6104f1565b6040516001600160a01b0390911681526020016101e8565b61024461023f366004611b92565b610518565b005b610244610254366004611bbc565b610632565b61027c610267366004611b5d565b60009081526006602052604090206001015490565b6040519081526020016101e8565b610244610298366004611bf8565b610663565b6102446102ab366004611bf8565b610688565b6102446102be366004611c24565b610706565b6102446102d1366004611bbc565b610729565b6102446102e4366004611c24565b610744565b6102fc6102f7366004611b5d565b610767565b6040516101e89190611c77565b610219610317366004611b5d565b61098e565b61024461032a366004611cf6565b6109ee565b61027c61033d366004611c24565b610a66565b610244610350366004611dc5565b610aec565b610244610363366004611e66565b610ba7565b6101dc610376366004611bf8565b610cb1565b6101f9610cdc565b61027c600081565b610244610399366004611e9f565b610ceb565b6101dc6103ac366004611b5d565b610cf6565b6102446103bf366004611ec9565b610d40565b61027c60008051602061242c83398151915281565b6101f96103e7366004611b5d565b610d78565b6102446103fa366004611bf8565b610deb565b61024461040d366004611f25565b610e10565b6101dc610420366004611f6c565b6001600160a01b03918216600090815260056020908152604080832093909416825291909152205460ff1690565b600061045982610f16565b92915050565b60606000805461046e90611f96565b80601f016020809104026020016040519081016040528092919081815260200182805461049a90611f96565b80156104e75780601f106104bc576101008083540402835291602001916104e7565b820191906000526020600020905b8154815290600101906020018083116104ca57829003601f168201915b5050505050905090565b60006104fc82610f3b565b506000908152600460205260409020546001600160a01b031690565b60006105238261098e565b9050806001600160a01b0316836001600160a01b0316036105955760405162461bcd60e51b815260206004820152602160248201527f4552433732313a20617070726f76616c20746f2063757272656e74206f776e656044820152603960f91b60648201526084015b60405180910390fd5b336001600160a01b03821614806105b157506105b18133610420565b6106235760405162461bcd60e51b815260206004820152603d60248201527f4552433732313a20617070726f76652063616c6c6572206973206e6f7420746f60448201527f6b656e206f776e6572206f7220617070726f76656420666f7220616c6c000000606482015260840161058c565b61062d8383610f8e565b505050565b61063c3382610ffc565b6106585760405162461bcd60e51b815260040161058c90611fd0565b61062d83838361107b565b60008281526006602052604090206001015461067e816111ec565b61062d83836111f6565b6001600160a01b03811633146106f85760405162461bcd60e51b815260206004820152602f60248201527f416363657373436f6e74726f6c3a2063616e206f6e6c792072656e6f756e636560448201526e103937b632b9903337b91039b2b63360891b606482015260840161058c565b610702828261127c565b5050565b6000610711816111ec565b61070260008051602061242c83398151915283610deb565b61062d83838360405180602001604052806000815250610d40565b600061074f816111ec565b61070260008051602061242c83398151915283610663565b6040805160a081018252606080825260006020830181905292820183905280820152608081019190915261079a826112e3565b6107fe5760405162461bcd60e51b815260206004820152602f60248201527f4552433732314d657461646174613a2055524920717565727920666f72206e6f60448201526e3732bc34b9ba32b73a103a37b5b2b760891b606482015260840161058c565b60008281526008602052604090819020815160a0810190925280548290829061082690611f96565b80601f016020809104026020016040519081016040528092919081815260200182805461085290611f96565b801561089f5780601f106108745761010080835404028352916020019161089f565b820191906000526020600020905b81548152906001019060200180831161088257829003601f168201915b5050509183525050600182015460209091019060ff1660038111156108c6576108c6611c3f565b60038111156108d7576108d7611c3f565b8152602001600282015481526020016003820180546108f590611f96565b80601f016020809104026020016040519081016040528092919081815260200182805461092190611f96565b801561096e5780601f106109435761010080835404028352916020019161096e565b820191906000526020600020905b81548152906001019060200180831161095157829003601f168201915b50505091835250506004919091015460ff16151560209091015292915050565b6000818152600260205260408120546001600160a01b0316806104595760405162461bcd60e51b8152602060048201526018602482015277115490cdcc8c4e881a5b9d985b1a59081d1bdad95b88125160421b604482015260640161058c565b60008051602061242c833981519152610a06816111ec565b60008381526008602090815260409182902060048101805460ff1916861515908117909155835187815292830152917fd851036a77a6404459d8a7a2d224076e9194933113a21f374b44a574b4787f09910160405180910390a150505050565b60006001600160a01b038216610ad05760405162461bcd60e51b815260206004820152602960248201527f4552433732313a2061646472657373207a65726f206973206e6f7420612076616044820152683634b21037bbb732b960b91b606482015260840161058c565b506001600160a01b031660009081526003602052604090205490565b610af884600754611300565b600754600090815260086020526040902080610b14858261206b565b5060018082018054859260ff1990911690836003811115610b3757610b37611c3f565b021790555060038101610b4a838261206b565b5060048101805460ff19169055600754610b65906001612141565b6007556040517f5829d2d772a7430cf416bc72523098f531ad74d9b8bfc5052be86cc335857e5690610b989083906121d1565b60405180910390a15050505050565b610bb0826112e3565b610c135760405162461bcd60e51b815260206004820152602e60248201527f4552433732314d657461646174613a20507269636520736574206f66206e6f6e60448201526d32bc34b9ba32b73a103a37b5b2b760911b606482015260840161058c565b610c1c8261098e565b6001600160a01b0316336001600160a01b031614610c925760405162461bcd60e51b815260206004820152602d60248201527f4552433732313a204d757374206265206f776e6572206f6620646565644e465460448201526c20746f2073657420707269636560981b606482015260840161058c565b60009182526008602052604090912063ffffffff909116600290910155565b60009182526006602090815260408084206001600160a01b0393909316845291905290205460ff1690565b60606001805461046e90611f96565b61070233838361147b565b600080610d0283610767565b6020015190506000816003811115610d1c57610d1c611c3f565b1480610d3957506002816003811115610d3757610d37611c3f565b145b9392505050565b610d4a3383610ffc565b610d665760405162461bcd60e51b815260040161058c90611fd0565b610d7284848484611549565b50505050565b6060610d8382610f3b565b6000610d9a60408051602081019091526000815290565b90506000815111610dba5760405180602001604052806000815250610d39565b80610dc48461157c565b604051602001610dd592919061223f565b6040516020818303038152906040529392505050565b600082815260066020526040902060010154610e06816111ec565b61062d838361127c565b610e19826112e3565b610e7a5760405162461bcd60e51b815260206004820152602c60248201527f4552433732314d657461646174613a2055524920736574206f66206e6f6e657860448201526b34b9ba32b73a103a37b5b2b760a11b606482015260840161058c565b610e838261098e565b6001600160a01b0316336001600160a01b031614610efd5760405162461bcd60e51b815260206004820152603160248201527f4552433732313a204d757374206265206f776e6572206f6620646565644e4654604482015270040e8de40e6cae84092a08ca640d0c2e6d607b1b606482015260840161058c565b600082815260086020526040902080610d72838261206b565b60006001600160e01b03198216637965db0b60e01b148061045957506104598261160f565b610f44816112e3565b610f8b5760405162461bcd60e51b8152602060048201526018602482015277115490cdcc8c4e881a5b9d985b1a59081d1bdad95b88125160421b604482015260640161058c565b50565b600081815260046020526040902080546001600160a01b0319166001600160a01b0384169081179091558190610fc38261098e565b6001600160a01b03167f8c5be1e5ebec7d5bd14f71427d1e84f3dd0314c0f7b2291e5b200ac8c7c3b92560405160405180910390a45050565b6000806110088361098e565b9050806001600160a01b0316846001600160a01b0316148061104f57506001600160a01b0380821660009081526005602090815260408083209388168352929052205460ff165b806110735750836001600160a01b0316611068846104f1565b6001600160a01b0316145b949350505050565b826001600160a01b031661108e8261098e565b6001600160a01b0316146110b45760405162461bcd60e51b815260040161058c9061226e565b6001600160a01b0382166111165760405162461bcd60e51b8152602060048201526024808201527f4552433732313a207472616e7366657220746f20746865207a65726f206164646044820152637265737360e01b606482015260840161058c565b611123838383600161165f565b826001600160a01b03166111368261098e565b6001600160a01b03161461115c5760405162461bcd60e51b815260040161058c9061226e565b600081815260046020908152604080832080546001600160a01b03199081169091556001600160a01b0387811680865260038552838620805460001901905590871680865283862080546001019055868652600290945282852080549092168417909155905184937fddf252ad1be2c89b69c2b068fc378daa952ba7f163c4a11628f55a4df523b3ef91a4505050565b610f8b81336116e7565b6112008282610cb1565b6107025760008281526006602090815260408083206001600160a01b03851684529091529020805460ff191660011790556112383390565b6001600160a01b0316816001600160a01b0316837f2f8788117e7eff1d82e926ec794901d17c78024a50270940304540a733656f0d60405160405180910390a45050565b6112868282610cb1565b156107025760008281526006602090815260408083206001600160a01b0385168085529252808320805460ff1916905551339285917ff6391f5c32d9c69d2a47ea670b442974b53935d1edc7fd64eb21e047a839171b9190a45050565b6000908152600260205260409020546001600160a01b0316151590565b6001600160a01b0382166113565760405162461bcd60e51b815260206004820181905260248201527f4552433732313a206d696e7420746f20746865207a65726f2061646472657373604482015260640161058c565b61135f816112e3565b156113ac5760405162461bcd60e51b815260206004820152601c60248201527f4552433732313a20746f6b656e20616c7265616479206d696e74656400000000604482015260640161058c565b6113ba60008383600161165f565b6113c3816112e3565b156114105760405162461bcd60e51b815260206004820152601c60248201527f4552433732313a20746f6b656e20616c7265616479206d696e74656400000000604482015260640161058c565b6001600160a01b038216600081815260036020908152604080832080546001019055848352600290915280822080546001600160a01b0319168417905551839291907fddf252ad1be2c89b69c2b068fc378daa952ba7f163c4a11628f55a4df523b3ef908290a45050565b816001600160a01b0316836001600160a01b0316036114dc5760405162461bcd60e51b815260206004820152601960248201527f4552433732313a20617070726f766520746f2063616c6c657200000000000000604482015260640161058c565b6001600160a01b03838116600081815260056020908152604080832094871680845294825291829020805460ff191686151590811790915591519182527f17307eab39ab6107e8899845ad3d59bd9653f200f220920489ca2b5937696c31910160405180910390a3505050565b61155484848461107b565b61156084848484611740565b610d725760405162461bcd60e51b815260040161058c906122b3565b6060600061158983611841565b600101905060008167ffffffffffffffff8111156115a9576115a9611d19565b6040519080825280601f01601f1916602001820160405280156115d3576020820181803683370190505b5090508181016020015b600019016f181899199a1a9b1b9c1cb0b131b232b360811b600a86061a8153600a85049450846115dd57509392505050565b60006001600160e01b031982166380ac58cd60e01b148061164057506001600160e01b03198216635b5e139f60e01b145b8061045957506301ffc9a760e01b6001600160e01b0319831614610459565b6001811115610d72576001600160a01b038416156116a5576001600160a01b0384166000908152600360205260408120805483929061169f908490612305565b90915550505b6001600160a01b03831615610d72576001600160a01b038316600090815260036020526040812080548392906116dc908490612141565b909155505050505050565b6116f18282610cb1565b610702576116fe81611919565b61170983602061192b565b60405160200161171a929190612318565b60408051601f198184030181529082905262461bcd60e51b825261058c91600401611b4a565b60006001600160a01b0384163b1561183657604051630a85bd0160e11b81526001600160a01b0385169063150b7a029061178490339089908890889060040161238d565b6020604051808303816000875af19250505080156117bf575060408051601f3d908101601f191682019092526117bc918101906123ca565b60015b61181c573d8080156117ed576040519150601f19603f3d011682016040523d82523d6000602084013e6117f2565b606091505b5080516000036118145760405162461bcd60e51b815260040161058c906122b3565b805181602001fd5b6001600160e01b031916630a85bd0160e11b149050611073565b506001949350505050565b60008072184f03e93ff9f4daa797ed6e38ed64bf6a1f0160401b83106118805772184f03e93ff9f4daa797ed6e38ed64bf6a1f0160401b830492506040015b6d04ee2d6d415b85acef810000000083106118ac576d04ee2d6d415b85acef8100000000830492506020015b662386f26fc1000083106118ca57662386f26fc10000830492506010015b6305f5e10083106118e2576305f5e100830492506008015b61271083106118f657612710830492506004015b60648310611908576064830492506002015b600a83106104595760010192915050565b60606104596001600160a01b03831660145b6060600061193a8360026123e7565b611945906002612141565b67ffffffffffffffff81111561195d5761195d611d19565b6040519080825280601f01601f191660200182016040528015611987576020820181803683370190505b509050600360fc1b816000815181106119a2576119a26123fe565b60200101906001600160f81b031916908160001a905350600f60fb1b816001815181106119d1576119d16123fe565b60200101906001600160f81b031916908160001a90535060006119f58460026123e7565b611a00906001612141565b90505b6001811115611a78576f181899199a1a9b1b9c1cb0b131b232b360811b85600f1660108110611a3457611a346123fe565b1a60f81b828281518110611a4a57611a4a6123fe565b60200101906001600160f81b031916908160001a90535060049490941c93611a7181612414565b9050611a03565b508315610d395760405162461bcd60e51b815260206004820181905260248201527f537472696e67733a20686578206c656e67746820696e73756666696369656e74604482015260640161058c565b6001600160e01b031981168114610f8b57600080fd5b600060208284031215611aef57600080fd5b8135610d3981611ac7565b60005b83811015611b15578181015183820152602001611afd565b50506000910152565b60008151808452611b36816020860160208601611afa565b601f01601f19169290920160200192915050565b602081526000610d396020830184611b1e565b600060208284031215611b6f57600080fd5b5035919050565b80356001600160a01b0381168114611b8d57600080fd5b919050565b60008060408385031215611ba557600080fd5b611bae83611b76565b946020939093013593505050565b600080600060608486031215611bd157600080fd5b611bda84611b76565b9250611be860208501611b76565b9150604084013590509250925092565b60008060408385031215611c0b57600080fd5b82359150611c1b60208401611b76565b90509250929050565b600060208284031215611c3657600080fd5b610d3982611b76565b634e487b7160e01b600052602160045260246000fd5b60048110611c7357634e487b7160e01b600052602160045260246000fd5b9052565b602081526000825160a06020840152611c9360c0840182611b1e565b90506020840151611ca76040850182611c55565b50604084015160608401526060840151601f19848303016080850152611ccd8282611b1e565b9150506080840151151560a08401528091505092915050565b80358015158114611b8d57600080fd5b60008060408385031215611d0957600080fd5b82359150611c1b60208401611ce6565b634e487b7160e01b600052604160045260246000fd5b600067ffffffffffffffff80841115611d4a57611d4a611d19565b604051601f8501601f19908116603f01168101908282118183101715611d7257611d72611d19565b81604052809350858152868686011115611d8b57600080fd5b858560208301376000602087830101525050509392505050565b600082601f830112611db657600080fd5b610d3983833560208501611d2f565b60008060008060808587031215611ddb57600080fd5b611de485611b76565b9350602085013567ffffffffffffffff80821115611e0157600080fd5b611e0d88838901611da5565b94506040870135915060048210611e2357600080fd5b90925060608601359080821115611e3957600080fd5b508501601f81018713611e4b57600080fd5b611e5a87823560208401611d2f565b91505092959194509250565b60008060408385031215611e7957600080fd5b82359150602083013563ffffffff81168114611e9457600080fd5b809150509250929050565b60008060408385031215611eb257600080fd5b611ebb83611b76565b9150611c1b60208401611ce6565b60008060008060808587031215611edf57600080fd5b611ee885611b76565b9350611ef660208601611b76565b925060408501359150606085013567ffffffffffffffff811115611f1957600080fd5b611e5a87828801611da5565b60008060408385031215611f3857600080fd5b82359150602083013567ffffffffffffffff811115611f5657600080fd5b611f6285828601611da5565b9150509250929050565b60008060408385031215611f7f57600080fd5b611f8883611b76565b9150611c1b60208401611b76565b600181811c90821680611faa57607f821691505b602082108103611fca57634e487b7160e01b600052602260045260246000fd5b50919050565b6020808252602d908201527f4552433732313a2063616c6c6572206973206e6f7420746f6b656e206f776e6560408201526c1c881bdc88185c1c1c9bdd9959609a1b606082015260800190565b601f82111561062d57600081815260208120601f850160051c810160208610156120445750805b601f850160051c820191505b8181101561206357828155600101612050565b505050505050565b815167ffffffffffffffff81111561208557612085611d19565b612099816120938454611f96565b8461201d565b602080601f8311600181146120ce57600084156120b65750858301515b600019600386901b1c1916600185901b178555612063565b600085815260208120601f198616915b828110156120fd578886015182559484019460019091019084016120de565b508582101561211b5787850151600019600388901b60f8161c191681555b5050505050600190811b01905550565b634e487b7160e01b600052601160045260246000fd5b808201808211156104595761045961212b565b6000815461216181611f96565b80855260206001838116801561217e5760018114612198576121c6565b60ff1985168884015283151560051b8801830195506121c6565b866000528260002060005b858110156121be5781548a82018601529083019084016121a3565b890184019650505b505050505092915050565b6020815260a0602082015260006121eb60c0830184612154565b60ff6001850154166122006040850182611c55565b5060028401546060840152828103601f190160808401526122248160038601612154565b905060ff600485015416151560a08401528091505092915050565b60008351612251818460208801611afa565b835190830190612265818360208801611afa565b01949350505050565b60208082526025908201527f4552433732313a207472616e736665722066726f6d20696e636f72726563742060408201526437bbb732b960d91b606082015260800190565b60208082526032908201527f4552433732313a207472616e7366657220746f206e6f6e20455243373231526560408201527131b2b4bb32b91034b6b83632b6b2b73a32b960711b606082015260800190565b818103818111156104595761045961212b565b7f416363657373436f6e74726f6c3a206163636f756e7420000000000000000000815260008351612350816017850160208801611afa565b7001034b99036b4b9b9b4b733903937b6329607d1b6017918401918201528351612381816028840160208801611afa565b01602801949350505050565b6001600160a01b03858116825284166020820152604081018390526080606082018190526000906123c090830184611b1e565b9695505050505050565b6000602082840312156123dc57600080fd5b8151610d3981611ac7565b80820281158282048414176104595761045961212b565b634e487b7160e01b600052603260045260246000fd5b6000816124235761242361212b565b50600019019056fe21702c8af46127c7fa207f89d0b0a8441bb32959a0ac7df790e9ab1a25c98926a26469706673582212204d85f88f6f6bb0a991b12aec9377c97af57de1010f5d6fc76ba9644f3585915664736f6c63430008110033",
  "devdoc": {
    "kind": "dev",
    "methods": {
      "approve(address,uint256)": {
        "details": "See {IERC721-approve}."
      },
      "balanceOf(address)": {
        "details": "See {IERC721-balanceOf}."
      },
      "getApproved(uint256)": {
        "details": "See {IERC721-getApproved}."
      },
      "getRoleAdmin(bytes32)": {
        "details": "Returns the admin role that controls `role`. See {grantRole} and {revokeRole}. To change a role's admin, use {_setRoleAdmin}."
      },
      "grantRole(bytes32,address)": {
        "details": "Grants `role` to `account`. If `account` had not been already granted `role`, emits a {RoleGranted} event. Requirements: - the caller must have ``role``'s admin role. May emit a {RoleGranted} event."
      },
      "hasRole(bytes32,address)": {
        "details": "Returns `true` if `account` has been granted `role`."
      },
      "isApprovedForAll(address,address)": {
        "details": "See {IERC721-isApprovedForAll}."
      },
      "name()": {
        "details": "See {IERC721Metadata-name}."
      },
      "ownerOf(uint256)": {
        "details": "See {IERC721-ownerOf}."
      },
      "renounceRole(bytes32,address)": {
        "details": "Revokes `role` from the calling account. Roles are often managed via {grantRole} and {revokeRole}: this function's purpose is to provide a mechanism for accounts to lose their privileges if they are compromised (such as when a trusted device is misplaced). If the calling account had been revoked `role`, emits a {RoleRevoked} event. Requirements: - the caller must be `account`. May emit a {RoleRevoked} event."
      },
      "revokeRole(bytes32,address)": {
        "details": "Revokes `role` from `account`. If `account` had been granted `role`, emits a {RoleRevoked} event. Requirements: - the caller must have ``role``'s admin role. May emit a {RoleRevoked} event."
      },
      "safeTransferFrom(address,address,uint256)": {
        "details": "See {IERC721-safeTransferFrom}."
      },
      "safeTransferFrom(address,address,uint256,bytes)": {
        "details": "See {IERC721-safeTransferFrom}."
      },
      "setApprovalForAll(address,bool)": {
        "details": "See {IERC721-setApprovalForAll}."
      },
      "symbol()": {
        "details": "See {IERC721Metadata-symbol}."
      },
      "tokenURI(uint256)": {
        "details": "See {IERC721Metadata-tokenURI}."
      },
      "transferFrom(address,address,uint256)": {
        "details": "See {IERC721-transferFrom}."
      }
    },
    "version": 1
  },
  "userdoc": {
    "kind": "user",
    "methods": {},
    "version": 1
  },
  "storageLayout": {
    "storage": [
      {
        "astId": 2989,
        "contract": "contracts/DeedNFT.sol:DeedNFT",
        "label": "_name",
        "offset": 0,
        "slot": "0",
        "type": "t_string_storage"
      },
      {
        "astId": 2991,
        "contract": "contracts/DeedNFT.sol:DeedNFT",
        "label": "_symbol",
        "offset": 0,
        "slot": "1",
        "type": "t_string_storage"
      },
      {
        "astId": 2995,
        "contract": "contracts/DeedNFT.sol:DeedNFT",
        "label": "_owners",
        "offset": 0,
        "slot": "2",
        "type": "t_mapping(t_uint256,t_address)"
      },
      {
        "astId": 2999,
        "contract": "contracts/DeedNFT.sol:DeedNFT",
        "label": "_balances",
        "offset": 0,
        "slot": "3",
        "type": "t_mapping(t_address,t_uint256)"
      },
      {
        "astId": 3003,
        "contract": "contracts/DeedNFT.sol:DeedNFT",
        "label": "_tokenApprovals",
        "offset": 0,
        "slot": "4",
        "type": "t_mapping(t_uint256,t_address)"
      },
      {
        "astId": 3009,
        "contract": "contracts/DeedNFT.sol:DeedNFT",
        "label": "_operatorApprovals",
        "offset": 0,
        "slot": "5",
        "type": "t_mapping(t_address,t_mapping(t_address,t_bool))"
      },
      {
        "astId": 24,
        "contract": "contracts/DeedNFT.sol:DeedNFT",
        "label": "_roles",
        "offset": 0,
        "slot": "6",
        "type": "t_mapping(t_bytes32,t_struct(RoleData)19_storage)"
      },
      {
        "astId": 5519,
        "contract": "contracts/DeedNFT.sol:DeedNFT",
        "label": "_nextTokenId",
        "offset": 0,
        "slot": "7",
        "type": "t_uint256"
      },
      {
        "astId": 5524,
        "contract": "contracts/DeedNFT.sol:DeedNFT",
        "label": "deedInfoMap",
        "offset": 0,
        "slot": "8",
        "type": "t_mapping(t_uint256,t_struct(DeedInfo)5517_storage)"
      }
    ],
    "types": {
      "t_address": {
        "encoding": "inplace",
        "label": "address",
        "numberOfBytes": "20"
      },
      "t_bool": {
        "encoding": "inplace",
        "label": "bool",
        "numberOfBytes": "1"
      },
      "t_bytes32": {
        "encoding": "inplace",
        "label": "bytes32",
        "numberOfBytes": "32"
      },
      "t_bytes_storage": {
        "encoding": "bytes",
        "label": "bytes",
        "numberOfBytes": "32"
      },
      "t_enum(AssetType)5534": {
        "encoding": "inplace",
        "label": "enum DeedNFT.AssetType",
        "numberOfBytes": "1"
      },
      "t_mapping(t_address,t_bool)": {
        "encoding": "mapping",
        "key": "t_address",
        "label": "mapping(address => bool)",
        "numberOfBytes": "32",
        "value": "t_bool"
      },
      "t_mapping(t_address,t_mapping(t_address,t_bool))": {
        "encoding": "mapping",
        "key": "t_address",
        "label": "mapping(address => mapping(address => bool))",
        "numberOfBytes": "32",
        "value": "t_mapping(t_address,t_bool)"
      },
      "t_mapping(t_address,t_uint256)": {
        "encoding": "mapping",
        "key": "t_address",
        "label": "mapping(address => uint256)",
        "numberOfBytes": "32",
        "value": "t_uint256"
      },
      "t_mapping(t_bytes32,t_struct(RoleData)19_storage)": {
        "encoding": "mapping",
        "key": "t_bytes32",
        "label": "mapping(bytes32 => struct AccessControl.RoleData)",
        "numberOfBytes": "32",
        "value": "t_struct(RoleData)19_storage"
      },
      "t_mapping(t_uint256,t_address)": {
        "encoding": "mapping",
        "key": "t_uint256",
        "label": "mapping(uint256 => address)",
        "numberOfBytes": "32",
        "value": "t_address"
      },
      "t_mapping(t_uint256,t_struct(DeedInfo)5517_storage)": {
        "encoding": "mapping",
        "key": "t_uint256",
        "label": "mapping(uint256 => struct DeedNFT.DeedInfo)",
        "numberOfBytes": "32",
        "value": "t_struct(DeedInfo)5517_storage"
      },
      "t_string_storage": {
        "encoding": "bytes",
        "label": "string",
        "numberOfBytes": "32"
      },
      "t_struct(DeedInfo)5517_storage": {
        "encoding": "inplace",
        "label": "struct DeedNFT.DeedInfo",
        "members": [
          {
            "astId": 5507,
            "contract": "contracts/DeedNFT.sol:DeedNFT",
            "label": "ipfsDetailsHash",
            "offset": 0,
            "slot": "0",
            "type": "t_bytes_storage"
          },
          {
            "astId": 5510,
            "contract": "contracts/DeedNFT.sol:DeedNFT",
            "label": "assetType",
            "offset": 0,
            "slot": "1",
            "type": "t_enum(AssetType)5534"
          },
          {
            "astId": 5512,
            "contract": "contracts/DeedNFT.sol:DeedNFT",
            "label": "price",
            "offset": 0,
            "slot": "2",
            "type": "t_uint256"
          },
          {
            "astId": 5514,
            "contract": "contracts/DeedNFT.sol:DeedNFT",
            "label": "deedAddress",
            "offset": 0,
            "slot": "3",
            "type": "t_string_storage"
          },
          {
            "astId": 5516,
            "contract": "contracts/DeedNFT.sol:DeedNFT",
            "label": "isValidated",
            "offset": 0,
            "slot": "4",
            "type": "t_bool"
          }
        ],
        "numberOfBytes": "160"
      },
      "t_struct(RoleData)19_storage": {
        "encoding": "inplace",
        "label": "struct AccessControl.RoleData",
        "members": [
          {
            "astId": 16,
            "contract": "contracts/DeedNFT.sol:DeedNFT",
            "label": "members",
            "offset": 0,
            "slot": "0",
            "type": "t_mapping(t_address,t_bool)"
          },
          {
            "astId": 18,
            "contract": "contracts/DeedNFT.sol:DeedNFT",
            "label": "adminRole",
            "offset": 0,
            "slot": "1",
            "type": "t_bytes32"
          }
        ],
        "numberOfBytes": "64"
      },
      "t_uint256": {
        "encoding": "inplace",
        "label": "uint256",
        "numberOfBytes": "32"
      }
    }
  }
}