{
  "address": "0x30B974f71485024A45A1C8A42AAB31a0e1E3AB63",
  "abi": [
    {
      "inputs": [
        {
          "internalType": "address",
          "name": "_accessManager",
          "type": "address"
        }
      ],
      "stateMutability": "nonpayable",
      "type": "constructor"
    },
    {
      "inputs": [
        {
          "internalType": "address",
          "name": "sender",
          "type": "address"
        },
        {
          "internalType": "uint256",
          "name": "tokenId",
          "type": "uint256"
        },
        {
          "internalType": "address",
          "name": "owner",
          "type": "address"
        }
      ],
      "name": "ERC721IncorrectOwner",
      "type": "error"
    },
    {
      "inputs": [
        {
          "internalType": "address",
          "name": "operator",
          "type": "address"
        },
        {
          "internalType": "uint256",
          "name": "tokenId",
          "type": "uint256"
        }
      ],
      "name": "ERC721InsufficientApproval",
      "type": "error"
    },
    {
      "inputs": [
        {
          "internalType": "address",
          "name": "approver",
          "type": "address"
        }
      ],
      "name": "ERC721InvalidApprover",
      "type": "error"
    },
    {
      "inputs": [
        {
          "internalType": "address",
          "name": "operator",
          "type": "address"
        }
      ],
      "name": "ERC721InvalidOperator",
      "type": "error"
    },
    {
      "inputs": [
        {
          "internalType": "address",
          "name": "owner",
          "type": "address"
        }
      ],
      "name": "ERC721InvalidOwner",
      "type": "error"
    },
    {
      "inputs": [
        {
          "internalType": "address",
          "name": "receiver",
          "type": "address"
        }
      ],
      "name": "ERC721InvalidReceiver",
      "type": "error"
    },
    {
      "inputs": [
        {
          "internalType": "address",
          "name": "sender",
          "type": "address"
        }
      ],
      "name": "ERC721InvalidSender",
      "type": "error"
    },
    {
      "inputs": [
        {
          "internalType": "uint256",
          "name": "tokenId",
          "type": "uint256"
        }
      ],
      "name": "ERC721NonexistentToken",
      "type": "error"
    },
    {
      "anonymous": false,
      "inputs": [
        {
          "indexed": true,
          "internalType": "address",
          "name": "owner",
          "type": "address"
        },
        {
          "indexed": true,
          "internalType": "address",
          "name": "approved",
          "type": "address"
        },
        {
          "indexed": true,
          "internalType": "uint256",
          "name": "tokenId",
          "type": "uint256"
        }
      ],
      "name": "Approval",
      "type": "event"
    },
    {
      "anonymous": false,
      "inputs": [
        {
          "indexed": true,
          "internalType": "address",
          "name": "owner",
          "type": "address"
        },
        {
          "indexed": true,
          "internalType": "address",
          "name": "operator",
          "type": "address"
        },
        {
          "indexed": false,
          "internalType": "bool",
          "name": "approved",
          "type": "bool"
        }
      ],
      "name": "ApprovalForAll",
      "type": "event"
    },
    {
      "anonymous": false,
      "inputs": [
        {
          "indexed": false,
          "internalType": "uint256",
          "name": "_fromTokenId",
          "type": "uint256"
        },
        {
          "indexed": false,
          "internalType": "uint256",
          "name": "_toTokenId",
          "type": "uint256"
        }
      ],
      "name": "BatchMetadataUpdate",
      "type": "event"
    },
    {
      "anonymous": false,
      "inputs": [
        {
          "indexed": false,
          "internalType": "uint256",
          "name": "deedId",
          "type": "uint256"
        },
        {
          "indexed": false,
          "internalType": "enum DeedNFT.AssetType",
          "name": "newAssetType",
          "type": "uint8"
        }
      ],
      "name": "DeedNFTAssetTypeSet",
      "type": "event"
    },
    {
      "anonymous": false,
      "inputs": [
        {
          "indexed": false,
          "internalType": "uint256",
          "name": "deedId",
          "type": "uint256"
        },
        {
          "indexed": false,
          "internalType": "bool",
          "name": "isValid",
          "type": "bool"
        }
      ],
      "name": "DeedNFTAssetValidationSet",
      "type": "event"
    },
    {
      "anonymous": false,
      "inputs": [
        {
          "indexed": false,
          "internalType": "uint256",
          "name": "deedId",
          "type": "uint256"
        }
      ],
      "name": "DeedNFTBurned",
      "type": "event"
    },
    {
      "anonymous": false,
      "inputs": [
        {
          "indexed": false,
          "internalType": "uint256",
          "name": "deedId",
          "type": "uint256"
        },
        {
          "indexed": false,
          "internalType": "string",
          "name": "newIpfsDetailsHash",
          "type": "string"
        }
      ],
      "name": "DeedNFTIpfsDetailsSet",
      "type": "event"
    },
    {
      "anonymous": false,
      "inputs": [
        {
          "indexed": false,
          "internalType": "uint256",
          "name": "deedId",
          "type": "uint256"
        },
        {
          "components": [
            {
              "internalType": "enum DeedNFT.AssetType",
              "name": "assetType",
              "type": "uint8"
            },
            {
              "internalType": "bool",
              "name": "isValidated",
              "type": "bool"
            }
          ],
          "indexed": false,
          "internalType": "struct DeedNFT.DeedInfo",
          "name": "deedInfo",
          "type": "tuple"
        },
        {
          "indexed": false,
          "internalType": "address",
          "name": "minter",
          "type": "address"
        }
      ],
      "name": "DeedNFTMinted",
      "type": "event"
    },
    {
      "anonymous": false,
      "inputs": [
        {
          "indexed": false,
          "internalType": "uint256",
          "name": "_tokenId",
          "type": "uint256"
        }
      ],
      "name": "MetadataUpdate",
      "type": "event"
    },
    {
      "anonymous": false,
      "inputs": [
        {
          "indexed": true,
          "internalType": "address",
          "name": "from",
          "type": "address"
        },
        {
          "indexed": true,
          "internalType": "address",
          "name": "to",
          "type": "address"
        },
        {
          "indexed": true,
          "internalType": "uint256",
          "name": "tokenId",
          "type": "uint256"
        }
      ],
      "name": "Transfer",
      "type": "event"
    },
    {
      "inputs": [
        {
          "internalType": "address",
          "name": "to",
          "type": "address"
        },
        {
          "internalType": "uint256",
          "name": "tokenId",
          "type": "uint256"
        }
      ],
      "name": "approve",
      "outputs": [],
      "stateMutability": "nonpayable",
      "type": "function"
    },
    {
      "inputs": [
        {
          "internalType": "address",
          "name": "owner",
          "type": "address"
        }
      ],
      "name": "balanceOf",
      "outputs": [
        {
          "internalType": "uint256",
          "name": "",
          "type": "uint256"
        }
      ],
      "stateMutability": "view",
      "type": "function"
    },
    {
      "inputs": [
        {
          "internalType": "uint256",
          "name": "_deedId",
          "type": "uint256"
        }
      ],
      "name": "burn",
      "outputs": [],
      "stateMutability": "nonpayable",
      "type": "function"
    },
    {
      "inputs": [
        {
          "internalType": "uint256",
          "name": "_deedId",
          "type": "uint256"
        }
      ],
      "name": "canSubdivide",
      "outputs": [
        {
          "internalType": "bool",
          "name": "",
          "type": "bool"
        }
      ],
      "stateMutability": "view",
      "type": "function"
    },
    {
      "inputs": [
        {
          "internalType": "uint256",
          "name": "tokenId",
          "type": "uint256"
        }
      ],
      "name": "getApproved",
      "outputs": [
        {
          "internalType": "address",
          "name": "",
          "type": "address"
        }
      ],
      "stateMutability": "view",
      "type": "function"
    },
    {
      "inputs": [
        {
          "internalType": "uint256",
          "name": "_deedId",
          "type": "uint256"
        }
      ],
      "name": "getDeedInfo",
      "outputs": [
        {
          "components": [
            {
              "internalType": "enum DeedNFT.AssetType",
              "name": "assetType",
              "type": "uint8"
            },
            {
              "internalType": "bool",
              "name": "isValidated",
              "type": "bool"
            }
          ],
          "internalType": "struct DeedNFT.DeedInfo",
          "name": "",
          "type": "tuple"
        }
      ],
      "stateMutability": "view",
      "type": "function"
    },
    {
      "inputs": [],
      "name": "hasAdminRole",
      "outputs": [
        {
          "internalType": "bool",
          "name": "",
          "type": "bool"
        }
      ],
      "stateMutability": "view",
      "type": "function"
    },
    {
      "inputs": [
        {
          "internalType": "bytes32",
          "name": "_role",
          "type": "bytes32"
        },
        {
          "internalType": "address",
          "name": "_address",
          "type": "address"
        }
      ],
      "name": "hasRole",
      "outputs": [
        {
          "internalType": "bool",
          "name": "",
          "type": "bool"
        }
      ],
      "stateMutability": "view",
      "type": "function"
    },
    {
      "inputs": [],
      "name": "hasValidatorRole",
      "outputs": [
        {
          "internalType": "bool",
          "name": "",
          "type": "bool"
        }
      ],
      "stateMutability": "view",
      "type": "function"
    },
    {
      "inputs": [
        {
          "internalType": "address",
          "name": "owner",
          "type": "address"
        },
        {
          "internalType": "address",
          "name": "operator",
          "type": "address"
        }
      ],
      "name": "isApprovedForAll",
      "outputs": [
        {
          "internalType": "bool",
          "name": "",
          "type": "bool"
        }
      ],
      "stateMutability": "view",
      "type": "function"
    },
    {
      "inputs": [
        {
          "internalType": "address",
          "name": "_owner",
          "type": "address"
        },
        {
          "internalType": "string",
          "name": "_ipfsDetailsHash",
          "type": "string"
        },
        {
          "internalType": "enum DeedNFT.AssetType",
          "name": "_assetType",
          "type": "uint8"
        }
      ],
      "name": "mintAsset",
      "outputs": [
        {
          "internalType": "uint256",
          "name": "",
          "type": "uint256"
        }
      ],
      "stateMutability": "nonpayable",
      "type": "function"
    },
    {
      "inputs": [],
      "name": "name",
      "outputs": [
        {
          "internalType": "string",
          "name": "",
          "type": "string"
        }
      ],
      "stateMutability": "view",
      "type": "function"
    },
    {
      "inputs": [],
      "name": "nextDeedId",
      "outputs": [
        {
          "internalType": "uint256",
          "name": "",
          "type": "uint256"
        }
      ],
      "stateMutability": "view",
      "type": "function"
    },
    {
      "inputs": [
        {
          "internalType": "uint256",
          "name": "tokenId",
          "type": "uint256"
        }
      ],
      "name": "ownerOf",
      "outputs": [
        {
          "internalType": "address",
          "name": "",
          "type": "address"
        }
      ],
      "stateMutability": "view",
      "type": "function"
    },
    {
      "inputs": [
        {
          "internalType": "address",
          "name": "from",
          "type": "address"
        },
        {
          "internalType": "address",
          "name": "to",
          "type": "address"
        },
        {
          "internalType": "uint256",
          "name": "tokenId",
          "type": "uint256"
        }
      ],
      "name": "safeTransferFrom",
      "outputs": [],
      "stateMutability": "nonpayable",
      "type": "function"
    },
    {
      "inputs": [
        {
          "internalType": "address",
          "name": "from",
          "type": "address"
        },
        {
          "internalType": "address",
          "name": "to",
          "type": "address"
        },
        {
          "internalType": "uint256",
          "name": "tokenId",
          "type": "uint256"
        },
        {
          "internalType": "bytes",
          "name": "data",
          "type": "bytes"
        }
      ],
      "name": "safeTransferFrom",
      "outputs": [],
      "stateMutability": "nonpayable",
      "type": "function"
    },
    {
      "inputs": [
        {
          "internalType": "address",
          "name": "operator",
          "type": "address"
        },
        {
          "internalType": "bool",
          "name": "approved",
          "type": "bool"
        }
      ],
      "name": "setApprovalForAll",
      "outputs": [],
      "stateMutability": "nonpayable",
      "type": "function"
    },
    {
      "inputs": [
        {
          "internalType": "uint256",
          "name": "_deedId",
          "type": "uint256"
        },
        {
          "internalType": "enum DeedNFT.AssetType",
          "name": "_assetType",
          "type": "uint8"
        }
      ],
      "name": "setAssetType",
      "outputs": [],
      "stateMutability": "nonpayable",
      "type": "function"
    },
    {
      "inputs": [
        {
          "internalType": "uint256",
          "name": "_deedId",
          "type": "uint256"
        },
        {
          "internalType": "bool",
          "name": "_isValid",
          "type": "bool"
        }
      ],
      "name": "setAssetValidation",
      "outputs": [],
      "stateMutability": "nonpayable",
      "type": "function"
    },
    {
      "inputs": [
        {
          "internalType": "uint256",
          "name": "_deedId",
          "type": "uint256"
        },
        {
          "internalType": "string",
          "name": "_ipfsDetailsHash",
          "type": "string"
        }
      ],
      "name": "setIpfsDetailsHash",
      "outputs": [],
      "stateMutability": "nonpayable",
      "type": "function"
    },
    {
      "inputs": [
        {
          "internalType": "bytes4",
          "name": "_interfaceId",
          "type": "bytes4"
        }
      ],
      "name": "supportsInterface",
      "outputs": [
        {
          "internalType": "bool",
          "name": "",
          "type": "bool"
        }
      ],
      "stateMutability": "view",
      "type": "function"
    },
    {
      "inputs": [],
      "name": "symbol",
      "outputs": [
        {
          "internalType": "string",
          "name": "",
          "type": "string"
        }
      ],
      "stateMutability": "view",
      "type": "function"
    },
    {
      "inputs": [
        {
          "internalType": "uint256",
          "name": "_deedId",
          "type": "uint256"
        }
      ],
      "name": "tokenURI",
      "outputs": [
        {
          "internalType": "string",
          "name": "",
          "type": "string"
        }
      ],
      "stateMutability": "view",
      "type": "function"
    },
    {
      "inputs": [
        {
          "internalType": "address",
          "name": "from",
          "type": "address"
        },
        {
          "internalType": "address",
          "name": "to",
          "type": "address"
        },
        {
          "internalType": "uint256",
          "name": "tokenId",
          "type": "uint256"
        }
      ],
      "name": "transferFrom",
      "outputs": [],
      "stateMutability": "nonpayable",
      "type": "function"
    }
  ],
  "transactionHash": "0x7efd6780f275602b63624dc9153e3efb596ad9156ce91d8f9ed25894c0dca59e",
  "args": [
    "0x351a9ED0C54bb2aFE7Ad1AAB5Ce8732248C99f00"
  ],
  "numDeployments": 17,
  "solcInputHash": "e020bd8f2940662e9e287f7c52cb942e",
  "bytecode": "0x608060405234801562000010575f80fd5b5060405162001fef38038062001fef8339810160408190526200003391620000c0565b80604051806040016040528060078152602001661119595913919560ca1b815250604051806040016040528060048152602001631111515160e21b815250815f90816200008191906200018f565b5060016200009082826200018f565b5050600780546001600160a01b0319166001600160a01b0393909316929092179091555050600160085562000257565b5f60208284031215620000d1575f80fd5b81516001600160a01b0381168114620000e8575f80fd5b9392505050565b634e487b7160e01b5f52604160045260245ffd5b600181811c908216806200011857607f821691505b6020821081036200013757634e487b7160e01b5f52602260045260245ffd5b50919050565b601f8211156200018a575f81815260208120601f850160051c81016020861015620001655750805b601f850160051c820191505b81811015620001865782815560010162000171565b5050505b505050565b81516001600160401b03811115620001ab57620001ab620000ef565b620001c381620001bc845462000103565b846200013d565b602080601f831160018114620001f9575f8415620001e15750858301515b5f19600386901b1c1916600185901b17855562000186565b5f85815260208120601f198616915b82811015620002295788860151825594840194600190910190840162000208565b50858210156200024757878501515f19600388901b60f8161c191681555b5050505050600190811b01905550565b611d8a80620002655f395ff3fe608060405234801561000f575f80fd5b5060043610610153575f3560e01c806370a08231116100bf578063b82c356911610079578063b82c3569146102d9578063b88d4fde146102ec578063b99c23e3146102ff578063c87b56dd14610307578063e985e9c51461031a578063f1bc66731461032d575f80fd5b806370a082311461028757806389b9e75f1461029a57806391d14854146102a257806395d89b41146102b5578063985e3a64146102bd578063a22cb465146102c6575f80fd5b806342842e0e1161011057806342842e0e1461020857806342966c681461021b57806362d402bc1461022e5780636352211e1461024e578063682ece02146102615780636f6c15dd14610274575f80fd5b806301ffc9a71461015757806306fdde031461017f578063081812fc14610194578063095ea7b3146101bf5780631a6c41e2146101d457806323b872dd146101f5575b5f80fd5b61016a610165366004611610565b610340565b60405190151581526020015b60405180910390f35b610187610350565b6040516101769190611678565b6101a76101a236600461168a565b6103df565b6040516001600160a01b039091168152602001610176565b6101d26101cd3660046116bc565b610406565b005b6101e76101e2366004611797565b610415565b604051908152602001610176565b6101d26102033660046117f1565b6104cc565b6101d26102163660046117f1565b61055a565b6101d261022936600461168a565b610579565b61024161023c36600461168a565b61061f565b604051610176919061185e565b6101a761025c36600461168a565b6106f1565b6101d261026f366004611880565b6106fb565b6101d26102823660046118b7565b610832565b6101e76102953660046118e5565b610985565b61016a6109ca565b61016a6102b03660046118fe565b610a4a565b610187610abd565b6101e760085481565b6101d26102d436600461191f565b610acc565b61016a6102e736600461168a565b610ad7565b6101d26102fa366004611949565b610b1b565b61016a610b32565b61018761031536600461168a565b610b4b565b61016a6103283660046119c0565b610b56565b6101d261033b3660046119e8565b610b83565b5f61034a82610c9d565b92915050565b60605f805461035e90611a2c565b80601f016020809104026020016040519081016040528092919081815260200182805461038a90611a2c565b80156103d55780601f106103ac576101008083540402835291602001916103d5565b820191905f5260205f20905b8154815290600101906020018083116103b857829003601f168201915b5050505050905090565b5f6103e982610cc1565b505f828152600460205260409020546001600160a01b031661034a565b610411828233610cf9565b5050565b5f61042284600854610d06565b6008545f90815260096020526040902080548390829060ff191660018360038111156104505761045061182a565b0217905550805461ff001916815560085461046b9085610d67565b7f7a6cbbca54e6b169e8cd2ccacd8dccc9872cfeb370d865d3be365243d1005f55600854826104973390565b6040516104a693929190611a5e565b60405180910390a16008546104bc906001611a9d565b60088190559150505b9392505050565b6001600160a01b0382166104fa57604051633250574960e11b81525f60048201526024015b60405180910390fd5b5f610506838333610daf565b9050836001600160a01b0316816001600160a01b031614610554576040516364283d7b60e01b81526001600160a01b03808616600483015260248201849052821660448201526064016104f1565b50505050565b61057483838360405180602001604052805f815250610b1b565b505050565b80610583816106f1565b6001600160a01b0316336001600160a01b0316146105a082610ea1565b6040516020016105b09190611abc565b604051602081830303815290604052906105dd5760405162461bcd60e51b81526004016104f19190611678565b506105e782610f31565b6040518281527f61c6643f6e835939ae6da3352c52e1b29a86e4ee6599ab73c5d9a416f75d6ed0906020015b60405180910390a15050565b604080518082019091525f80825260208201525f8281526002602052604090205482906001600160a01b0316151561065682610ea1565b6040516020016106669190611b15565b604051602081830303815290604052906106935760405162461bcd60e51b81526004016104f19190611678565b505f838152600960205260409081902081518083019092528054829060ff1660038111156106c3576106c361182a565b60038111156106d4576106d461182a565b81529054610100900460ff16151560209091015291505b50919050565b5f61034a82610cc1565b5f8281526002602052604090205482906001600160a01b0316151561071f82610ea1565b60405160200161072f9190611b15565b6040516020818303038152906040529061075c5760405162461bcd60e51b81526004016104f19190611678565b5082610767816106f1565b6001600160a01b0316336001600160a01b03161461078482610ea1565b6040516020016107949190611abc565b604051602081830303815290604052906107c15760405162461bcd60e51b81526004016104f19190611678565b505f84815260096020526040902080548490829060ff191660018360038111156107ed576107ed61182a565b02179055507f41779e8814a589644c78c07c027c39f8ba699dc2f20bf422c3065cdaa4b8a1b08585604051610823929190611b68565b60405180910390a15050505050565b6007546040805163624dd75f60e11b815290516001600160a01b03909216916391d1485491839163c49baebe916004808201926020929091908290030181865afa158015610882573d5f803e3d5ffd5b505050506040513d601f19601f820116820180604052508101906108a69190611b7c565b336040516001600160e01b031960e085901b16815260048101929092526001600160a01b03166024820152604401602060405180830381865afa1580156108ef573d5f803e3d5ffd5b505050506040513d601f19601f820116820180604052508101906109139190611b93565b61097b5760405162461bcd60e51b815260206004820152603360248201527f5b4163636573734d616e61676572426173655d204f6e6c79207468652076616c6044820152721a59185d1bdc8818d85b881a5b9d195c9858dd606a1b60648201526084016104f1565b6104118282610f69565b5f6001600160a01b0382166109af576040516322718ad960e21b81525f60048201526024016104f1565b506001600160a01b03165f9081526003602052604090205490565b6007545f906001600160a01b031663940e1570335b6040516001600160e01b031960e084901b1681526001600160a01b039091166004820152602401602060405180830381865afa158015610a21573d5f803e3d5ffd5b505050506040513d601f19601f82011682018060405250810190610a459190611b93565b905090565b600754604051632474521560e21b8152600481018490526001600160a01b0383811660248301525f9216906391d1485490604401602060405180830381865afa158015610a99573d5f803e3d5ffd5b505050506040513d601f19601f820116820180604052508101906104c59190611b93565b60606001805461035e90611a2c565b610411338383610fca565b5f80610ae28361061f565b5190505f816003811115610af857610af861182a565b14806104c557506002816003811115610b1357610b1361182a565b149392505050565b610b268484846104cc565b61055484848484611068565b6007545f906001600160a01b031663c395fcb3336109df565b606061034a8261118e565b6001600160a01b039182165f90815260056020908152604080832093909416825291909152205460ff1690565b5f8281526002602052604090205482906001600160a01b03161515610ba782610ea1565b604051602001610bb79190611b15565b60405160208183030381529060405290610be45760405162461bcd60e51b81526004016104f19190611678565b5082610bef816106f1565b6001600160a01b0316336001600160a01b031614610c0c82610ea1565b604051602001610c1c9190611abc565b60405160208183030381529060405290610c495760405162461bcd60e51b81526004016104f19190611678565b50610c548484610d67565b610c5e845f610832565b7f3d50eea1c859d5d9795c74b4caf49f4cb0c69ec6b47702a84fab87f23fdc15388484604051610c8f929190611bae565b60405180910390a150505050565b5f6001600160e01b03198216632483248360e11b148061034a575061034a82611299565b5f818152600260205260408120546001600160a01b03168061034a57604051637e27328960e01b8152600481018490526024016104f1565b61057483838360016112e8565b6001600160a01b038216610d2f57604051633250574960e11b81525f60048201526024016104f1565b5f610d3b83835f610daf565b90506001600160a01b03811615610574576040516339e3563760e11b81525f60048201526024016104f1565b5f828152600660205260409020610d7e8282611c13565b506040518281527ff8e1a15aba9398e019f0b49df1a4fde98ee17ae345cb5f6b5e2c27f5033e8ce790602001610613565b5f828152600260205260408120546001600160a01b0390811690831615610ddb57610ddb8184866113ec565b6001600160a01b03811615610e1557610df65f855f806112e8565b6001600160a01b0381165f90815260036020526040902080545f190190555b6001600160a01b03851615610e43576001600160a01b0385165f908152600360205260409020805460010190555b5f8481526002602052604080822080546001600160a01b0319166001600160a01b0389811691821790925591518793918516917fddf252ad1be2c89b69c2b068fc378daa952ba7f163c4a11628f55a4df523b3ef91a4949350505050565b60605f610ead83611450565b60010190505f8167ffffffffffffffff811115610ecc57610ecc6116e4565b6040519080825280601f01601f191660200182016040528015610ef6576020820181803683370190505b5090508181016020015b5f19016f181899199a1a9b1b9c1cb0b131b232b360811b600a86061a8153600a8504945084610f0057509392505050565b5f610f3d5f835f610daf565b90506001600160a01b03811661041157604051637e27328960e01b8152600481018390526024016104f1565b5f82815260096020908152604091829020805461ff001916610100851515908102919091178255835186815292830152917f906235be09503d8fda345aadd07a77160f47ec7155cea0fb9d683684271c4f09910160405180910390a1505050565b6001600160a01b038216610ffc57604051630b61174360e31b81526001600160a01b03831660048201526024016104f1565b6001600160a01b038381165f81815260056020908152604080832094871680845294825291829020805460ff191686151590811790915591519182527f17307eab39ab6107e8899845ad3d59bd9653f200f220920489ca2b5937696c31910160405180910390a3505050565b6001600160a01b0383163b1561055457604051630a85bd0160e11b81526001600160a01b0384169063150b7a02906110aa903390889087908790600401611ccf565b6020604051808303815f875af19250505080156110e4575060408051601f3d908101601f191682019092526110e191810190611d0b565b60015b61114b573d808015611111576040519150601f19603f3d011682016040523d82523d5f602084013e611116565b606091505b5080515f0361114357604051633250574960e11b81526001600160a01b03851660048201526024016104f1565b805181602001fd5b6001600160e01b03198116630a85bd0160e11b1461118757604051633250574960e11b81526001600160a01b03851660048201526024016104f1565b5050505050565b606061119982610cc1565b505f82815260066020526040812080546111b290611a2c565b80601f01602080910402602001604051908101604052809291908181526020018280546111de90611a2c565b80156112295780601f1061120057610100808354040283529160200191611229565b820191905f5260205f20905b81548152906001019060200180831161120c57829003601f168201915b505050505090505f61124560408051602081019091525f815290565b905080515f03611256575092915050565b815115611288578082604051602001611270929190611d26565b60405160208183030381529060405292505050919050565b61129184611527565b949350505050565b5f6001600160e01b031982166380ac58cd60e01b14806112c957506001600160e01b03198216635b5e139f60e01b145b8061034a57506301ffc9a760e01b6001600160e01b031983161461034a565b80806112fc57506001600160a01b03821615155b156113bd575f61130b84610cc1565b90506001600160a01b038316158015906113375750826001600160a01b0316816001600160a01b031614155b801561134a57506113488184610b56565b155b156113735760405163a9fbf51f60e01b81526001600160a01b03841660048201526024016104f1565b81156113bb5783856001600160a01b0316826001600160a01b03167f8c5be1e5ebec7d5bd14f71427d1e84f3dd0314c0f7b2291e5b200ac8c7c3b92560405160405180910390a45b505b50505f90815260046020526040902080546001600160a01b0319166001600160a01b0392909216919091179055565b6113f7838383611597565b610574576001600160a01b03831661142557604051637e27328960e01b8152600481018290526024016104f1565b60405163177e802f60e01b81526001600160a01b0383166004820152602481018290526044016104f1565b5f8072184f03e93ff9f4daa797ed6e38ed64bf6a1f0160401b831061148e5772184f03e93ff9f4daa797ed6e38ed64bf6a1f0160401b830492506040015b6d04ee2d6d415b85acef810000000083106114ba576d04ee2d6d415b85acef8100000000830492506020015b662386f26fc1000083106114d857662386f26fc10000830492506010015b6305f5e10083106114f0576305f5e100830492506008015b612710831061150457612710830492506004015b60648310611516576064830492506002015b600a831061034a5760010192915050565b606061153282610cc1565b505f61154860408051602081019091525f815290565b90505f8151116115665760405180602001604052805f8152506104c5565b8061157084610ea1565b604051602001611581929190611d26565b6040516020818303038152906040529392505050565b5f6001600160a01b038316158015906112915750826001600160a01b0316846001600160a01b031614806115d057506115d08484610b56565b806112915750505f908152600460205260409020546001600160a01b03908116911614919050565b6001600160e01b03198116811461160d575f80fd5b50565b5f60208284031215611620575f80fd5b81356104c5816115f8565b5f5b8381101561164557818101518382015260200161162d565b50505f910152565b5f815180845261166481602086016020860161162b565b601f01601f19169290920160200192915050565b602081525f6104c5602083018461164d565b5f6020828403121561169a575f80fd5b5035919050565b80356001600160a01b03811681146116b7575f80fd5b919050565b5f80604083850312156116cd575f80fd5b6116d6836116a1565b946020939093013593505050565b634e487b7160e01b5f52604160045260245ffd5b5f67ffffffffffffffff80841115611712576117126116e4565b604051601f8501601f19908116603f0116810190828211818310171561173a5761173a6116e4565b81604052809350858152868686011115611752575f80fd5b858560208301375f602087830101525050509392505050565b5f82601f83011261177a575f80fd5b6104c5838335602085016116f8565b8035600481106116b7575f80fd5b5f805f606084860312156117a9575f80fd5b6117b2846116a1565b9250602084013567ffffffffffffffff8111156117cd575f80fd5b6117d98682870161176b565b9250506117e860408501611789565b90509250925092565b5f805f60608486031215611803575f80fd5b61180c846116a1565b925061181a602085016116a1565b9150604084013590509250925092565b634e487b7160e01b5f52602160045260245ffd5b6004811061185a57634e487b7160e01b5f52602160045260245ffd5b9052565b5f60408201905061187082845161183e565b6020928301511515919092015290565b5f8060408385031215611891575f80fd5b823591506118a160208401611789565b90509250929050565b801515811461160d575f80fd5b5f80604083850312156118c8575f80fd5b8235915060208301356118da816118aa565b809150509250929050565b5f602082840312156118f5575f80fd5b6104c5826116a1565b5f806040838503121561190f575f80fd5b823591506118a1602084016116a1565b5f8060408385031215611930575f80fd5b611939836116a1565b915060208301356118da816118aa565b5f805f806080858703121561195c575f80fd5b611965856116a1565b9350611973602086016116a1565b925060408501359150606085013567ffffffffffffffff811115611995575f80fd5b8501601f810187136119a5575f80fd5b6119b4878235602084016116f8565b91505092959194509250565b5f80604083850312156119d1575f80fd5b6119da836116a1565b91506118a1602084016116a1565b5f80604083850312156119f9575f80fd5b82359150602083013567ffffffffffffffff811115611a16575f80fd5b611a228582860161176b565b9150509250929050565b600181811c90821680611a4057607f821691505b6020821081036106eb57634e487b7160e01b5f52602260045260245ffd5b83815282546080820190611a786020840160ff831661183e565b60081c60ff16151560408301526001600160a01b039290921660609091015292915050565b8082018082111561034a57634e487b7160e01b5f52601160045260245ffd5b7f5b446565644e46545d204d757374206265206f776e6572206f6620746865204481526b032b2b2103bb4ba341034b2160a51b60208201525f8251611b0881602c85016020870161162b565b91909101602c0192915050565b7f5b446565644e46545d204465656420646f6573206e6f7420657869737420776981526503a341034b2160d51b60208201525f8251611b5b81602685016020870161162b565b9190910160260192915050565b828152604081016104c5602083018461183e565b5f60208284031215611b8c575f80fd5b5051919050565b5f60208284031215611ba3575f80fd5b81516104c5816118aa565b828152604060208201525f611291604083018461164d565b601f821115610574575f81815260208120601f850160051c81016020861015611bec5750805b601f850160051c820191505b81811015611c0b57828155600101611bf8565b505050505050565b815167ffffffffffffffff811115611c2d57611c2d6116e4565b611c4181611c3b8454611a2c565b84611bc6565b602080601f831160018114611c74575f8415611c5d5750858301515b5f19600386901b1c1916600185901b178555611c0b565b5f85815260208120601f198616915b82811015611ca257888601518255948401946001909101908401611c83565b5085821015611cbf57878501515f19600388901b60f8161c191681555b5050505050600190811b01905550565b6001600160a01b03858116825284166020820152604081018390526080606082018190525f90611d019083018461164d565b9695505050505050565b5f60208284031215611d1b575f80fd5b81516104c5816115f8565b5f8351611d3781846020880161162b565b835190830190611d4b81836020880161162b565b0194935050505056fea264697066735822122026ff56fe6c089c672285db374ff4a5f5134c698869a431d1c45ed89b1e0194dc64736f6c63430008140033",
  "devdoc": {
    "errors": {
      "ERC721IncorrectOwner(address,uint256,address)": [
        {
          "details": "Indicates an error related to the ownership over a particular token. Used in transfers.",
          "params": {
            "owner": "Address of the current owner of a token.",
            "sender": "Address whose tokens are being transferred.",
            "tokenId": "Identifier number of a token."
          }
        }
      ],
      "ERC721InsufficientApproval(address,uint256)": [
        {
          "details": "Indicates a failure with the `operator`s approval. Used in transfers.",
          "params": {
            "operator": "Address that may be allowed to operate on tokens without being their owner.",
            "tokenId": "Identifier number of a token."
          }
        }
      ],
      "ERC721InvalidApprover(address)": [
        {
          "details": "Indicates a failure with the `approver` of a token to be approved. Used in approvals.",
          "params": {
            "approver": "Address initiating an approval operation."
          }
        }
      ],
      "ERC721InvalidOperator(address)": [
        {
          "details": "Indicates a failure with the `operator` to be approved. Used in approvals.",
          "params": {
            "operator": "Address that may be allowed to operate on tokens without being their owner."
          }
        }
      ],
      "ERC721InvalidOwner(address)": [
        {
          "details": "Indicates that an address can't be an owner. For example, `address(0)` is a forbidden owner in EIP-20. Used in balance queries.",
          "params": {
            "owner": "Address of the current owner of a token."
          }
        }
      ],
      "ERC721InvalidReceiver(address)": [
        {
          "details": "Indicates a failure with the token `receiver`. Used in transfers.",
          "params": {
            "receiver": "Address to which tokens are being transferred."
          }
        }
      ],
      "ERC721InvalidSender(address)": [
        {
          "details": "Indicates a failure with the token `sender`. Used in transfers.",
          "params": {
            "sender": "Address whose tokens are being transferred."
          }
        }
      ],
      "ERC721NonexistentToken(uint256)": [
        {
          "details": "Indicates a `tokenId` whose `owner` is the zero address.",
          "params": {
            "tokenId": "Identifier number of a token."
          }
        }
      ]
    },
    "events": {
      "Approval(address,address,uint256)": {
        "details": "Emitted when `owner` enables `approved` to manage the `tokenId` token."
      },
      "ApprovalForAll(address,address,bool)": {
        "details": "Emitted when `owner` enables or disables (`approved`) `operator` to manage all of its assets."
      },
      "BatchMetadataUpdate(uint256,uint256)": {
        "details": "This event emits when the metadata of a range of tokens is changed. So that the third-party platforms such as NFT market could timely update the images and related attributes of the NFTs."
      },
      "MetadataUpdate(uint256)": {
        "details": "This event emits when the metadata of a token is changed. So that the third-party platforms such as NFT market could timely update the images and related attributes of the NFT."
      },
      "Transfer(address,address,uint256)": {
        "details": "Emitted when `tokenId` token is transferred from `from` to `to`."
      }
    },
    "kind": "dev",
    "methods": {
      "approve(address,uint256)": {
        "details": "See {IERC721-approve}."
      },
      "balanceOf(address)": {
        "details": "See {IERC721-balanceOf}."
      },
      "getApproved(uint256)": {
        "details": "See {IERC721-getApproved}."
      },
      "isApprovedForAll(address,address)": {
        "details": "See {IERC721-isApprovedForAll}."
      },
      "name()": {
        "details": "See {IERC721Metadata-name}."
      },
      "ownerOf(uint256)": {
        "details": "See {IERC721-ownerOf}."
      },
      "safeTransferFrom(address,address,uint256)": {
        "details": "See {IERC721-safeTransferFrom}."
      },
      "safeTransferFrom(address,address,uint256,bytes)": {
        "details": "See {IERC721-safeTransferFrom}."
      },
      "setApprovalForAll(address,bool)": {
        "details": "See {IERC721-setApprovalForAll}."
      },
      "symbol()": {
        "details": "See {IERC721Metadata-symbol}."
      },
      "transferFrom(address,address,uint256)": {
        "details": "See {IERC721-transferFrom}."
      }
    },
    "version": 1
  },
  "userdoc": {
    "kind": "user",
    "methods": {},
    "version": 1
  },
  "storageLayout": {
    "storage": [
      {
        "astId": 2216,
        "contract": "contracts/DeedNFT.sol:DeedNFT",
        "label": "_name",
        "offset": 0,
        "slot": "0",
        "type": "t_string_storage"
      },
      {
        "astId": 2218,
        "contract": "contracts/DeedNFT.sol:DeedNFT",
        "label": "_symbol",
        "offset": 0,
        "slot": "1",
        "type": "t_string_storage"
      },
      {
        "astId": 2222,
        "contract": "contracts/DeedNFT.sol:DeedNFT",
        "label": "_owners",
        "offset": 0,
        "slot": "2",
        "type": "t_mapping(t_uint256,t_address)"
      },
      {
        "astId": 2226,
        "contract": "contracts/DeedNFT.sol:DeedNFT",
        "label": "_balances",
        "offset": 0,
        "slot": "3",
        "type": "t_mapping(t_address,t_uint256)"
      },
      {
        "astId": 2230,
        "contract": "contracts/DeedNFT.sol:DeedNFT",
        "label": "_tokenApprovals",
        "offset": 0,
        "slot": "4",
        "type": "t_mapping(t_uint256,t_address)"
      },
      {
        "astId": 2236,
        "contract": "contracts/DeedNFT.sol:DeedNFT",
        "label": "_operatorApprovals",
        "offset": 0,
        "slot": "5",
        "type": "t_mapping(t_address,t_mapping(t_address,t_bool))"
      },
      {
        "astId": 3355,
        "contract": "contracts/DeedNFT.sol:DeedNFT",
        "label": "_tokenURIs",
        "offset": 0,
        "slot": "6",
        "type": "t_mapping(t_uint256,t_string_storage)"
      },
      {
        "astId": 5700,
        "contract": "contracts/DeedNFT.sol:DeedNFT",
        "label": "accessManager",
        "offset": 0,
        "slot": "7",
        "type": "t_contract(AccessManager)5695"
      },
      {
        "astId": 5864,
        "contract": "contracts/DeedNFT.sol:DeedNFT",
        "label": "nextDeedId",
        "offset": 0,
        "slot": "8",
        "type": "t_uint256"
      },
      {
        "astId": 5869,
        "contract": "contracts/DeedNFT.sol:DeedNFT",
        "label": "deedInfoMap",
        "offset": 0,
        "slot": "9",
        "type": "t_mapping(t_uint256,t_struct(DeedInfo)5862_storage)"
      }
    ],
    "types": {
      "t_address": {
        "encoding": "inplace",
        "label": "address",
        "numberOfBytes": "20"
      },
      "t_bool": {
        "encoding": "inplace",
        "label": "bool",
        "numberOfBytes": "1"
      },
      "t_contract(AccessManager)5695": {
        "encoding": "inplace",
        "label": "contract AccessManager",
        "numberOfBytes": "20"
      },
      "t_enum(AssetType)5874": {
        "encoding": "inplace",
        "label": "enum DeedNFT.AssetType",
        "numberOfBytes": "1"
      },
      "t_mapping(t_address,t_bool)": {
        "encoding": "mapping",
        "key": "t_address",
        "label": "mapping(address => bool)",
        "numberOfBytes": "32",
        "value": "t_bool"
      },
      "t_mapping(t_address,t_mapping(t_address,t_bool))": {
        "encoding": "mapping",
        "key": "t_address",
        "label": "mapping(address => mapping(address => bool))",
        "numberOfBytes": "32",
        "value": "t_mapping(t_address,t_bool)"
      },
      "t_mapping(t_address,t_uint256)": {
        "encoding": "mapping",
        "key": "t_address",
        "label": "mapping(address => uint256)",
        "numberOfBytes": "32",
        "value": "t_uint256"
      },
      "t_mapping(t_uint256,t_address)": {
        "encoding": "mapping",
        "key": "t_uint256",
        "label": "mapping(uint256 => address)",
        "numberOfBytes": "32",
        "value": "t_address"
      },
      "t_mapping(t_uint256,t_string_storage)": {
        "encoding": "mapping",
        "key": "t_uint256",
        "label": "mapping(uint256 => string)",
        "numberOfBytes": "32",
        "value": "t_string_storage"
      },
      "t_mapping(t_uint256,t_struct(DeedInfo)5862_storage)": {
        "encoding": "mapping",
        "key": "t_uint256",
        "label": "mapping(uint256 => struct DeedNFT.DeedInfo)",
        "numberOfBytes": "32",
        "value": "t_struct(DeedInfo)5862_storage"
      },
      "t_string_storage": {
        "encoding": "bytes",
        "label": "string",
        "numberOfBytes": "32"
      },
      "t_struct(DeedInfo)5862_storage": {
        "encoding": "inplace",
        "label": "struct DeedNFT.DeedInfo",
        "members": [
          {
            "astId": 5859,
            "contract": "contracts/DeedNFT.sol:DeedNFT",
            "label": "assetType",
            "offset": 0,
            "slot": "0",
            "type": "t_enum(AssetType)5874"
          },
          {
            "astId": 5861,
            "contract": "contracts/DeedNFT.sol:DeedNFT",
            "label": "isValidated",
            "offset": 1,
            "slot": "0",
            "type": "t_bool"
          }
        ],
        "numberOfBytes": "32"
      },
      "t_uint256": {
        "encoding": "inplace",
        "label": "uint256",
        "numberOfBytes": "32"
      }
    }
  }
}