{
  "address": "0xC71F7B1cb487dC5518655C3874DC206E9F0D35E7",
  "abi": [
    {
      "anonymous": false,
      "inputs": [
        {
          "indexed": false,
          "internalType": "uint256",
          "name": "id",
          "type": "uint256"
        },
        {
          "indexed": false,
          "internalType": "contract IERC20",
          "name": "token",
          "type": "address"
        },
        {
          "indexed": false,
          "internalType": "uint256",
          "name": "amount",
          "type": "uint256"
        },
        {
          "indexed": false,
          "internalType": "address",
          "name": "sender",
          "type": "address"
        },
        {
          "indexed": false,
          "internalType": "address",
          "name": "caller",
          "type": "address"
        },
        {
          "indexed": false,
          "internalType": "uint256",
          "name": "newBalance",
          "type": "uint256"
        }
      ],
      "name": "FundsStored",
      "type": "event"
    },
    {
      "anonymous": false,
      "inputs": [
        {
          "indexed": false,
          "internalType": "uint256",
          "name": "id",
          "type": "uint256"
        },
        {
          "indexed": false,
          "internalType": "contract IERC20",
          "name": "token",
          "type": "address"
        },
        {
          "indexed": false,
          "internalType": "uint256",
          "name": "amount",
          "type": "uint256"
        },
        {
          "indexed": false,
          "internalType": "address",
          "name": "destination",
          "type": "address"
        },
        {
          "indexed": false,
          "internalType": "address",
          "name": "caller",
          "type": "address"
        },
        {
          "indexed": false,
          "internalType": "uint256",
          "name": "newBalance",
          "type": "uint256"
        }
      ],
      "name": "FundsWithdrawn",
      "type": "event"
    },
    {
      "inputs": [
        {
          "internalType": "address",
          "name": "",
          "type": "address"
        },
        {
          "internalType": "uint256",
          "name": "",
          "type": "uint256"
        },
        {
          "internalType": "address",
          "name": "",
          "type": "address"
        }
      ],
      "name": "accountsMapping",
      "outputs": [
        {
          "internalType": "uint256",
          "name": "",
          "type": "uint256"
        }
      ],
      "stateMutability": "view",
      "type": "function"
    },
    {
      "inputs": [
        {
          "internalType": "uint256",
          "name": "_id",
          "type": "uint256"
        },
        {
          "internalType": "contract IERC20",
          "name": "_token",
          "type": "address"
        }
      ],
      "name": "balanceOf",
      "outputs": [
        {
          "internalType": "uint256",
          "name": "",
          "type": "uint256"
        }
      ],
      "stateMutability": "view",
      "type": "function"
    },
    {
      "inputs": [
        {
          "internalType": "uint256",
          "name": "_id",
          "type": "uint256"
        },
        {
          "internalType": "contract IERC20",
          "name": "_token",
          "type": "address"
        },
        {
          "internalType": "uint256",
          "name": "_amount",
          "type": "uint256"
        },
        {
          "internalType": "address",
          "name": "_sender",
          "type": "address"
        }
      ],
      "name": "store",
      "outputs": [],
      "stateMutability": "nonpayable",
      "type": "function"
    },
    {
      "inputs": [
        {
          "internalType": "uint256",
          "name": "_id",
          "type": "uint256"
        },
        {
          "internalType": "contract IERC20",
          "name": "_token",
          "type": "address"
        },
        {
          "internalType": "uint256",
          "name": "_amount",
          "type": "uint256"
        },
        {
          "internalType": "address",
          "name": "_recipient",
          "type": "address"
        }
      ],
      "name": "widthdraw",
      "outputs": [],
      "stateMutability": "nonpayable",
      "type": "function"
    }
  ],
  "transactionHash": "0xa4bbaf57e1c8c0db24e1eb62db92d43e91ba219ac9b3c2559f275ca6252276f0",
  "args": [],
  "numDeployments": 2,
  "solcInputHash": "3c80441400cdeb3e9d0d4eb02166498d",
  "bytecode": "0x608060405234801561001057600080fd5b506108e0806100206000396000f3fe608060405234801561001057600080fd5b506004361061004c5760003560e01c80633656eec2146100515780634671b0e314610076578063c3c88de81461008b578063fc8cc0f8146100bb575b600080fd5b61006461005f3660046105f5565b6100ce565b60405190815260200160405180910390f35b610089610084366004610625565b6100ff565b005b61006461009936600461066f565b6000602081815293815260408082208552928152828120909352825290205481565b6100896100c9366004610625565b610317565b3360009081526020818152604080832085845282528083206001600160a01b03851684529091529020545b92915050565b604051636eb1769f60e11b81526001600160a01b03828116600483015230602483015283919085169063dd62ed3e90604401602060405180830381865afa15801561014e573d6000803e3d6000fd5b505050506040513d601f19601f8201168201806040525081019061017291906106b1565b101561017d85610472565b61018684610472565b6040516020016101979291906106ee565b604051602081830303815290604052906101cd5760405162461bcd60e51b81526004016101c49190610777565b60405180910390fd5b506040516323b872dd60e01b81526001600160a01b038281166004830152306024830152604482018490528416906323b872dd906064016020604051808303816000875af1158015610223573d6000803e3d6000fd5b505050506040513d601f19601f8201168201806040525081019061024791906107aa565b503360009081526020818152604080832087845282528083206001600160a01b0387168452909152812080548492906102819084906107e9565b909155507fc1c4f82fd8999661b6b41652b12c2ce5fdfd7b9e07436144d496b472ce8cd8fb905084848484335b336000908152602081815260408083208d845282528083206001600160a01b038d81168552908352928190205481519889529683169188019190915286810194909452918216606086015216608084015260a0830191909152519081900360c00190a150505050565b3360009081526020818152604080832087845282528083206001600160a01b038716845290915290205482111561034d85610472565b61035684610472565b6040516020016103679291906107fc565b604051602081830303815290604052906103945760405162461bcd60e51b81526004016101c49190610777565b503360009081526020818152604080832087845282528083206001600160a01b0387168452909152812080548492906103ce908490610881565b909155505060405163a9059cbb60e01b81526001600160a01b0382811660048301526024820184905284169063a9059cbb906044016020604051808303816000875af1158015610422573d6000803e3d6000fd5b505050506040513d601f19601f8201168201806040525081019061044691906107aa565b507f9eb2674684d29625b5b53dabad6e3e25f24f03eaa6f57630e2a542e9d47de5e884848484336102ae565b6060600061047f83610505565b600101905060008167ffffffffffffffff81111561049f5761049f610894565b6040519080825280601f01601f1916602001820160405280156104c9576020820181803683370190505b5090508181016020015b600019016f181899199a1a9b1b9c1cb0b131b232b360811b600a86061a8153600a85049450846104d357509392505050565b60008072184f03e93ff9f4daa797ed6e38ed64bf6a1f0160401b83106105445772184f03e93ff9f4daa797ed6e38ed64bf6a1f0160401b830492506040015b6d04ee2d6d415b85acef81000000008310610570576d04ee2d6d415b85acef8100000000830492506020015b662386f26fc10000831061058e57662386f26fc10000830492506010015b6305f5e10083106105a6576305f5e100830492506008015b61271083106105ba57612710830492506004015b606483106105cc576064830492506002015b600a83106100f95760010192915050565b6001600160a01b03811681146105f257600080fd5b50565b6000806040838503121561060857600080fd5b82359150602083013561061a816105dd565b809150509250929050565b6000806000806080858703121561063b57600080fd5b84359350602085013561064d816105dd565b9250604085013591506060850135610664816105dd565b939692955090935050565b60008060006060848603121561068457600080fd5b833561068f816105dd565b92506020840135915060408401356106a6816105dd565b809150509250925092565b6000602082840312156106c357600080fd5b5051919050565b60005b838110156106e55781810151838201526020016106cd565b50506000910152565b7f5b46756e64734d616e616765725d204e6f7420656e6f75676820616c6c6f776181526f03731b2903337b91030b1b1b7bab73a160851b60208201526000835161073f8160308501602088016106ca565b6b01030b7321030b6b7bab73a160a51b603091840191820152835161076b81603c8401602088016106ca565b01603c01949350505050565b60208152600082518060208401526107968160408501602087016106ca565b601f01601f19169190910160400192915050565b6000602082840312156107bc57600080fd5b815180151581146107cc57600080fd5b9392505050565b634e487b7160e01b600052601160045260246000fd5b808201808211156100f9576100f96107d3565b7f5b46756e64734d616e616765725d204e6f7420656e6f7567682066756e64732081526b03337b91030b1b1b7bab73a160a51b60208201526000835161084981602c8501602088016106ca565b6b01030b7321030b6b7bab73a160a51b602c9184019182015283516108758160388401602088016106ca565b01603801949350505050565b818103818111156100f9576100f96107d3565b634e487b7160e01b600052604160045260246000fdfea264697066735822122009692fc8ccdbf0185598e54bc8f29449b3568f82dabfd1210d23183fba9d2cc364736f6c63430008110033",
  "devdoc": {
    "kind": "dev",
    "methods": {
      "balanceOf(uint256,address)": {
        "params": {
          "_id": "AccountId",
          "_token": "TokenAddress"
        },
        "returns": {
          "_0": "Balance"
        }
      },
      "store(uint256,address,uint256,address)": {
        "params": {
          "_amount": "Amount",
          "_id": "AccountId",
          "_sender": "Witch address to pull tokens from",
          "_token": "TokenAddress"
        }
      },
      "widthdraw(uint256,address,uint256,address)": {
        "params": {
          "_amount": "Amount",
          "_id": "AccountId",
          "_recipient": "Witch address to send tokens to",
          "_token": "TokenAddress"
        }
      }
    },
    "version": 1
  },
  "userdoc": {
    "kind": "user",
    "methods": {
      "balanceOf(uint256,address)": {
        "notice": "Get the balance of an account"
      },
      "store(uint256,address,uint256,address)": {
        "notice": "Pull tokens from sender and store them in the contract"
      },
      "widthdraw(uint256,address,uint256,address)": {
        "notice": "Withdraw tokens from the contract and send them to the recipient"
      }
    },
    "version": 1
  },
  "storageLayout": {
    "storage": [
      {
        "astId": 5955,
        "contract": "contracts/FundsManager.sol:FundsManager",
        "label": "accountsMapping",
        "offset": 0,
        "slot": "0",
        "type": "t_mapping(t_address,t_mapping(t_uint256,t_mapping(t_address,t_uint256)))"
      }
    ],
    "types": {
      "t_address": {
        "encoding": "inplace",
        "label": "address",
        "numberOfBytes": "20"
      },
      "t_mapping(t_address,t_mapping(t_uint256,t_mapping(t_address,t_uint256)))": {
        "encoding": "mapping",
        "key": "t_address",
        "label": "mapping(address => mapping(uint256 => mapping(address => uint256)))",
        "numberOfBytes": "32",
        "value": "t_mapping(t_uint256,t_mapping(t_address,t_uint256))"
      },
      "t_mapping(t_address,t_uint256)": {
        "encoding": "mapping",
        "key": "t_address",
        "label": "mapping(address => uint256)",
        "numberOfBytes": "32",
        "value": "t_uint256"
      },
      "t_mapping(t_uint256,t_mapping(t_address,t_uint256))": {
        "encoding": "mapping",
        "key": "t_uint256",
        "label": "mapping(uint256 => mapping(address => uint256))",
        "numberOfBytes": "32",
        "value": "t_mapping(t_address,t_uint256)"
      },
      "t_uint256": {
        "encoding": "inplace",
        "label": "uint256",
        "numberOfBytes": "32"
      }
    }
  }
}