{
  "address": "0xE4C45c797e15B7B5ae134b26F7b03dE8bb046a1a",
  "abi": [
    {
      "inputs": [
        {
          "internalType": "address",
          "name": "_accessManager",
          "type": "address"
        }
      ],
      "stateMutability": "nonpayable",
      "type": "constructor"
    },
    {
      "anonymous": false,
      "inputs": [
        {
          "indexed": false,
          "internalType": "uint256",
          "name": "id",
          "type": "uint256"
        },
        {
          "indexed": false,
          "internalType": "contract IERC20",
          "name": "token",
          "type": "address"
        },
        {
          "indexed": false,
          "internalType": "uint256",
          "name": "amount",
          "type": "uint256"
        },
        {
          "indexed": false,
          "internalType": "address",
          "name": "sender",
          "type": "address"
        },
        {
          "indexed": false,
          "internalType": "address",
          "name": "caller",
          "type": "address"
        },
        {
          "indexed": false,
          "internalType": "uint256",
          "name": "newBalance",
          "type": "uint256"
        }
      ],
      "name": "FundsStored",
      "type": "event"
    },
    {
      "anonymous": false,
      "inputs": [
        {
          "indexed": false,
          "internalType": "uint256",
          "name": "id",
          "type": "uint256"
        },
        {
          "indexed": false,
          "internalType": "contract IERC20",
          "name": "token",
          "type": "address"
        },
        {
          "indexed": false,
          "internalType": "uint256",
          "name": "amount",
          "type": "uint256"
        },
        {
          "indexed": false,
          "internalType": "address",
          "name": "destination",
          "type": "address"
        },
        {
          "indexed": false,
          "internalType": "address",
          "name": "caller",
          "type": "address"
        },
        {
          "indexed": false,
          "internalType": "uint256",
          "name": "newBalance",
          "type": "uint256"
        }
      ],
      "name": "FundsWithdrawn",
      "type": "event"
    },
    {
      "inputs": [
        {
          "internalType": "address",
          "name": "",
          "type": "address"
        },
        {
          "internalType": "uint256",
          "name": "",
          "type": "uint256"
        },
        {
          "internalType": "address",
          "name": "",
          "type": "address"
        }
      ],
      "name": "accountsMapping",
      "outputs": [
        {
          "internalType": "uint256",
          "name": "",
          "type": "uint256"
        }
      ],
      "stateMutability": "view",
      "type": "function"
    },
    {
      "inputs": [
        {
          "internalType": "uint256",
          "name": "_id",
          "type": "uint256"
        },
        {
          "internalType": "contract IERC20",
          "name": "_token",
          "type": "address"
        }
      ],
      "name": "balanceOf",
      "outputs": [
        {
          "internalType": "uint256",
          "name": "",
          "type": "uint256"
        }
      ],
      "stateMutability": "view",
      "type": "function"
    },
    {
      "inputs": [],
      "name": "hasAdminRole",
      "outputs": [
        {
          "internalType": "bool",
          "name": "",
          "type": "bool"
        }
      ],
      "stateMutability": "view",
      "type": "function"
    },
    {
      "inputs": [
        {
          "internalType": "bytes32",
          "name": "_role",
          "type": "bytes32"
        },
        {
          "internalType": "address",
          "name": "_address",
          "type": "address"
        }
      ],
      "name": "hasRole",
      "outputs": [
        {
          "internalType": "bool",
          "name": "",
          "type": "bool"
        }
      ],
      "stateMutability": "view",
      "type": "function"
    },
    {
      "inputs": [],
      "name": "hasValidatorRole",
      "outputs": [
        {
          "internalType": "bool",
          "name": "",
          "type": "bool"
        }
      ],
      "stateMutability": "view",
      "type": "function"
    },
    {
      "inputs": [
        {
          "internalType": "uint256",
          "name": "_id",
          "type": "uint256"
        },
        {
          "internalType": "contract IERC20",
          "name": "_token",
          "type": "address"
        },
        {
          "internalType": "uint256",
          "name": "_amount",
          "type": "uint256"
        },
        {
          "internalType": "address",
          "name": "_sender",
          "type": "address"
        }
      ],
      "name": "store",
      "outputs": [],
      "stateMutability": "nonpayable",
      "type": "function"
    },
    {
      "inputs": [
        {
          "internalType": "uint256",
          "name": "_id",
          "type": "uint256"
        },
        {
          "internalType": "contract IERC20",
          "name": "_token",
          "type": "address"
        },
        {
          "internalType": "uint256",
          "name": "_amount",
          "type": "uint256"
        },
        {
          "internalType": "address",
          "name": "_recipient",
          "type": "address"
        }
      ],
      "name": "withdraw",
      "outputs": [],
      "stateMutability": "nonpayable",
      "type": "function"
    }
  ],
  "transactionHash": "0x89595c2fe39a9cd210d10a79f0a1d4c81c49f9815f5068ab374664ec615abb8d",
  "args": [
    "0x351a9ED0C54bb2aFE7Ad1AAB5Ce8732248C99f00"
  ],
  "numDeployments": 5,
  "solcInputHash": "d5cc4ed7f5f73218f2a2102d5a7d11a5",
  "bytecode": "0x608060405234801561000f575f80fd5b50604051610ab9380380610ab983398101604081905261002e91610052565b5f80546001600160a01b0319166001600160a01b039290921691909117905561007f565b5f60208284031215610062575f80fd5b81516001600160a01b0381168114610078575f80fd5b9392505050565b610a2d8061008c5f395ff3fe608060405234801561000f575f80fd5b506004361061007a575f3560e01c806389b9e75f1161005857806389b9e75f146100cc57806391d14854146100e4578063b99c23e3146100f7578063c3c88de8146100ff575f80fd5b80633656eec21461007e5780634671b0e3146100a45780635f0f48bd146100b9575b5f80fd5b61009161008c36600461075d565b61012f565b6040519081526020015b60405180910390f35b6100b76100b236600461078b565b610161565b005b6100b76100c736600461078b565b610376565b6100d46104d0565b604051901515815260200161009b565b6100d46100f236600461075d565b61054e565b6100d46105c8565b61009161010d3660046107d2565b600160209081525f938452604080852082529284528284209052825290205481565b335f90815260016020908152604080832085845282528083206001600160a01b03851684529091529020545b92915050565b604051636eb1769f60e11b81526001600160a01b03828116600483015230602483015283919085169063dd62ed3e90604401602060405180830381865afa1580156101ae573d5f803e3d5ffd5b505050506040513d601f19601f820116820180604052508101906101d29190610811565b10156101dd856105df565b6101e6846105df565b6040516020016101f792919061084a565b6040516020818303038152906040529061022d5760405162461bcd60e51b815260040161022491906108d3565b60405180910390fd5b506040516323b872dd60e01b81526001600160a01b038281166004830152306024830152604482018490528416906323b872dd906064016020604051808303815f875af1158015610280573d5f803e3d5ffd5b505050506040513d601f19601f820116820180604052508101906102a49190610905565b50335f90815260016020908152604080832087845282528083206001600160a01b0387168452909152812080548492906102df908490610938565b909155507fc1c4f82fd8999661b6b41652b12c2ce5fdfd7b9e07436144d496b472ce8cd8fb905084848484335b335f9081526001602090815260408083208d845282528083206001600160a01b038d81168552908352928190205481519889529683169188019190915286810194909452918216606086015216608084015260a0830191909152519081900360c00190a150505050565b335f90815260016020908152604080832087845282528083206001600160a01b03871684529091529020548211156103ad856105df565b6103b6846105df565b6040516020016103c792919061094b565b604051602081830303815290604052906103f45760405162461bcd60e51b815260040161022491906108d3565b50335f90815260016020908152604080832087845282528083206001600160a01b03871684529091528120805484929061042f9084906109d0565b909155505060405163a9059cbb60e01b81526001600160a01b0382811660048301526024820184905284169063a9059cbb906044016020604051808303815f875af1158015610480573d5f803e3d5ffd5b505050506040513d601f19601f820116820180604052508101906104a49190610905565b507f9eb2674684d29625b5b53dabad6e3e25f24f03eaa6f57630e2a542e9d47de5e8848484843361030c565b5f80546001600160a01b031663940e1570335b6040516001600160e01b031960e084901b1681526001600160a01b039091166004820152602401602060405180830381865afa158015610525573d5f803e3d5ffd5b505050506040513d601f19601f820116820180604052508101906105499190610905565b905090565b5f8054604051632474521560e21b8152600481018590526001600160a01b038481166024830152909116906391d1485490604401602060405180830381865afa15801561059d573d5f803e3d5ffd5b505050506040513d601f19601f820116820180604052508101906105c19190610905565b9392505050565b5f80546001600160a01b031663c395fcb3336104e3565b60605f6105eb8361066f565b60010190505f8167ffffffffffffffff81111561060a5761060a6109e3565b6040519080825280601f01601f191660200182016040528015610634576020820181803683370190505b5090508181016020015b5f19016f181899199a1a9b1b9c1cb0b131b232b360811b600a86061a8153600a850494508461063e57509392505050565b5f8072184f03e93ff9f4daa797ed6e38ed64bf6a1f0160401b83106106ad5772184f03e93ff9f4daa797ed6e38ed64bf6a1f0160401b830492506040015b6d04ee2d6d415b85acef810000000083106106d9576d04ee2d6d415b85acef8100000000830492506020015b662386f26fc1000083106106f757662386f26fc10000830492506010015b6305f5e100831061070f576305f5e100830492506008015b612710831061072357612710830492506004015b60648310610735576064830492506002015b600a831061015b5760010192915050565b6001600160a01b038116811461075a575f80fd5b50565b5f806040838503121561076e575f80fd5b82359150602083013561078081610746565b809150509250929050565b5f805f806080858703121561079e575f80fd5b8435935060208501356107b081610746565b92506040850135915060608501356107c781610746565b939692955090935050565b5f805f606084860312156107e4575f80fd5b83356107ef81610746565b925060208401359150604084013561080681610746565b809150509250925092565b5f60208284031215610821575f80fd5b5051919050565b5f5b8381101561084257818101518382015260200161082a565b50505f910152565b7f5b46756e6473204d616e616765725d204e6f7420656e6f75676820616c6c6f77815270030b731b2903337b91030b1b1b7bab73a1607d1b60208201525f835161089b816031850160208801610828565b6b01030b7321030b6b7bab73a160a51b60319184019182015283516108c781603d840160208801610828565b01603d01949350505050565b602081525f82518060208401526108f1816040850160208701610828565b601f01601f19169190910160400192915050565b5f60208284031215610915575f80fd5b815180151581146105c1575f80fd5b634e487b7160e01b5f52601160045260245ffd5b8082018082111561015b5761015b610924565b7f5b46756e6473204d616e616765725d204e6f7420656e6f7567682066756e647381526c0103337b91030b1b1b7bab73a1609d1b60208201525f835161099881602d850160208801610828565b6b01030b7321030b6b7bab73a160a51b602d9184019182015283516109c4816039840160208801610828565b01603901949350505050565b8181038181111561015b5761015b610924565b634e487b7160e01b5f52604160045260245ffdfea2646970667358221220cacaf3b30807704ddd07b6ca2f1586f3f4c4a8d44d7ab929febe284b33e5cfa764736f6c63430008140033",
  "devdoc": {
    "kind": "dev",
    "methods": {
      "balanceOf(uint256,address)": {
        "params": {
          "_id": "AccountId",
          "_token": "TokenAddress"
        },
        "returns": {
          "_0": "Balance"
        }
      },
      "store(uint256,address,uint256,address)": {
        "params": {
          "_amount": "Amount",
          "_id": "AccountId",
          "_sender": "Witch address to pull tokens from",
          "_token": "TokenAddress"
        }
      },
      "withdraw(uint256,address,uint256,address)": {
        "params": {
          "_amount": "Amount",
          "_id": "AccountId",
          "_recipient": "Witch address to send tokens to",
          "_token": "TokenAddress"
        }
      }
    },
    "version": 1
  },
  "userdoc": {
    "kind": "user",
    "methods": {
      "balanceOf(uint256,address)": {
        "notice": "Get the balance of an account"
      },
      "store(uint256,address,uint256,address)": {
        "notice": "Pull tokens from sender and store them in the contract"
      },
      "withdraw(uint256,address,uint256,address)": {
        "notice": "Withdraw tokens from the contract and send them to the recipient"
      }
    },
    "version": 1
  },
  "storageLayout": {
    "storage": [
      {
        "astId": 6241,
        "contract": "contracts/FundsManager.sol:FundsManager",
        "label": "accessManager",
        "offset": 0,
        "slot": "0",
        "type": "t_contract(AccessManager)6236"
      },
      {
        "astId": 6846,
        "contract": "contracts/FundsManager.sol:FundsManager",
        "label": "accountsMapping",
        "offset": 0,
        "slot": "1",
        "type": "t_mapping(t_address,t_mapping(t_uint256,t_mapping(t_address,t_uint256)))"
      }
    ],
    "types": {
      "t_address": {
        "encoding": "inplace",
        "label": "address",
        "numberOfBytes": "20"
      },
      "t_contract(AccessManager)6236": {
        "encoding": "inplace",
        "label": "contract AccessManager",
        "numberOfBytes": "20"
      },
      "t_mapping(t_address,t_mapping(t_uint256,t_mapping(t_address,t_uint256)))": {
        "encoding": "mapping",
        "key": "t_address",
        "label": "mapping(address => mapping(uint256 => mapping(address => uint256)))",
        "numberOfBytes": "32",
        "value": "t_mapping(t_uint256,t_mapping(t_address,t_uint256))"
      },
      "t_mapping(t_address,t_uint256)": {
        "encoding": "mapping",
        "key": "t_address",
        "label": "mapping(address => uint256)",
        "numberOfBytes": "32",
        "value": "t_uint256"
      },
      "t_mapping(t_uint256,t_mapping(t_address,t_uint256))": {
        "encoding": "mapping",
        "key": "t_uint256",
        "label": "mapping(uint256 => mapping(address => uint256))",
        "numberOfBytes": "32",
        "value": "t_mapping(t_address,t_uint256)"
      },
      "t_uint256": {
        "encoding": "inplace",
        "label": "uint256",
        "numberOfBytes": "32"
      }
    }
  }
}