{
  "address": "0xe854CE12372002BAB69bcb43CE08B2af9aCA5164",
  "abi": [
    {
      "inputs": [],
      "stateMutability": "nonpayable",
      "type": "constructor"
    },
    {
      "anonymous": false,
      "inputs": [
        {
          "indexed": true,
          "internalType": "address",
          "name": "owner",
          "type": "address"
        },
        {
          "indexed": true,
          "internalType": "address",
          "name": "approved",
          "type": "address"
        },
        {
          "indexed": true,
          "internalType": "uint256",
          "name": "tokenId",
          "type": "uint256"
        }
      ],
      "name": "Approval",
      "type": "event"
    },
    {
      "anonymous": false,
      "inputs": [
        {
          "indexed": true,
          "internalType": "address",
          "name": "owner",
          "type": "address"
        },
        {
          "indexed": true,
          "internalType": "address",
          "name": "operator",
          "type": "address"
        },
        {
          "indexed": false,
          "internalType": "bool",
          "name": "approved",
          "type": "bool"
        }
      ],
      "name": "ApprovalForAll",
      "type": "event"
    },
    {
      "anonymous": false,
      "inputs": [
        {
          "indexed": true,
          "internalType": "address",
          "name": "previousOwner",
          "type": "address"
        },
        {
          "indexed": true,
          "internalType": "address",
          "name": "newOwner",
          "type": "address"
        }
      ],
      "name": "OwnershipTransferred",
      "type": "event"
    },
    {
      "anonymous": false,
      "inputs": [
        {
          "indexed": true,
          "internalType": "address",
          "name": "from",
          "type": "address"
        },
        {
          "indexed": true,
          "internalType": "address",
          "name": "to",
          "type": "address"
        },
        {
          "indexed": true,
          "internalType": "uint256",
          "name": "tokenId",
          "type": "uint256"
        }
      ],
      "name": "Transfer",
      "type": "event"
    },
    {
      "inputs": [
        {
          "internalType": "address",
          "name": "to",
          "type": "address"
        },
        {
          "internalType": "uint256",
          "name": "tokenId",
          "type": "uint256"
        }
      ],
      "name": "approve",
      "outputs": [],
      "stateMutability": "nonpayable",
      "type": "function"
    },
    {
      "inputs": [
        {
          "internalType": "address",
          "name": "owner",
          "type": "address"
        }
      ],
      "name": "balanceOf",
      "outputs": [
        {
          "internalType": "uint256",
          "name": "",
          "type": "uint256"
        }
      ],
      "stateMutability": "view",
      "type": "function"
    },
    {
      "inputs": [
        {
          "internalType": "uint256",
          "name": "tokenId",
          "type": "uint256"
        }
      ],
      "name": "burn",
      "outputs": [],
      "stateMutability": "nonpayable",
      "type": "function"
    },
    {
      "inputs": [
        {
          "internalType": "uint256",
          "name": "tokenId",
          "type": "uint256"
        }
      ],
      "name": "getApproved",
      "outputs": [
        {
          "internalType": "address",
          "name": "",
          "type": "address"
        }
      ],
      "stateMutability": "view",
      "type": "function"
    },
    {
      "inputs": [
        {
          "internalType": "address",
          "name": "owner",
          "type": "address"
        },
        {
          "internalType": "address",
          "name": "operator",
          "type": "address"
        }
      ],
      "name": "isApprovedForAll",
      "outputs": [
        {
          "internalType": "bool",
          "name": "",
          "type": "bool"
        }
      ],
      "stateMutability": "view",
      "type": "function"
    },
    {
      "inputs": [
        {
          "internalType": "address",
          "name": "to",
          "type": "address"
        },
        {
          "internalType": "uint256",
          "name": "tokenId",
          "type": "uint256"
        }
      ],
      "name": "mintToken",
      "outputs": [],
      "stateMutability": "nonpayable",
      "type": "function"
    },
    {
      "inputs": [],
      "name": "name",
      "outputs": [
        {
          "internalType": "string",
          "name": "",
          "type": "string"
        }
      ],
      "stateMutability": "view",
      "type": "function"
    },
    {
      "inputs": [],
      "name": "owner",
      "outputs": [
        {
          "internalType": "address",
          "name": "",
          "type": "address"
        }
      ],
      "stateMutability": "view",
      "type": "function"
    },
    {
      "inputs": [
        {
          "internalType": "uint256",
          "name": "tokenId",
          "type": "uint256"
        }
      ],
      "name": "ownerOf",
      "outputs": [
        {
          "internalType": "address",
          "name": "",
          "type": "address"
        }
      ],
      "stateMutability": "view",
      "type": "function"
    },
    {
      "inputs": [],
      "name": "renounceOwnership",
      "outputs": [],
      "stateMutability": "nonpayable",
      "type": "function"
    },
    {
      "inputs": [
        {
          "internalType": "address",
          "name": "from",
          "type": "address"
        },
        {
          "internalType": "address",
          "name": "to",
          "type": "address"
        },
        {
          "internalType": "uint256",
          "name": "tokenId",
          "type": "uint256"
        }
      ],
      "name": "safeTransferFrom",
      "outputs": [],
      "stateMutability": "nonpayable",
      "type": "function"
    },
    {
      "inputs": [
        {
          "internalType": "address",
          "name": "from",
          "type": "address"
        },
        {
          "internalType": "address",
          "name": "to",
          "type": "address"
        },
        {
          "internalType": "uint256",
          "name": "tokenId",
          "type": "uint256"
        },
        {
          "internalType": "bytes",
          "name": "data",
          "type": "bytes"
        }
      ],
      "name": "safeTransferFrom",
      "outputs": [],
      "stateMutability": "nonpayable",
      "type": "function"
    },
    {
      "inputs": [
        {
          "internalType": "address",
          "name": "operator",
          "type": "address"
        },
        {
          "internalType": "bool",
          "name": "approved",
          "type": "bool"
        }
      ],
      "name": "setApprovalForAll",
      "outputs": [],
      "stateMutability": "nonpayable",
      "type": "function"
    },
    {
      "inputs": [
        {
          "internalType": "address",
          "name": "_leaseAgreementAddress",
          "type": "address"
        }
      ],
      "name": "setLeaseAgreementAddress",
      "outputs": [],
      "stateMutability": "nonpayable",
      "type": "function"
    },
    {
      "inputs": [
        {
          "internalType": "bytes4",
          "name": "interfaceId",
          "type": "bytes4"
        }
      ],
      "name": "supportsInterface",
      "outputs": [
        {
          "internalType": "bool",
          "name": "",
          "type": "bool"
        }
      ],
      "stateMutability": "view",
      "type": "function"
    },
    {
      "inputs": [],
      "name": "symbol",
      "outputs": [
        {
          "internalType": "string",
          "name": "",
          "type": "string"
        }
      ],
      "stateMutability": "view",
      "type": "function"
    },
    {
      "inputs": [
        {
          "internalType": "uint256",
          "name": "tokenId",
          "type": "uint256"
        }
      ],
      "name": "tokenURI",
      "outputs": [
        {
          "internalType": "string",
          "name": "",
          "type": "string"
        }
      ],
      "stateMutability": "view",
      "type": "function"
    },
    {
      "inputs": [
        {
          "internalType": "address",
          "name": "from",
          "type": "address"
        },
        {
          "internalType": "address",
          "name": "to",
          "type": "address"
        },
        {
          "internalType": "uint256",
          "name": "tokenId",
          "type": "uint256"
        }
      ],
      "name": "transferFrom",
      "outputs": [],
      "stateMutability": "nonpayable",
      "type": "function"
    },
    {
      "inputs": [
        {
          "internalType": "address",
          "name": "newOwner",
          "type": "address"
        }
      ],
      "name": "transferOwnership",
      "outputs": [],
      "stateMutability": "nonpayable",
      "type": "function"
    }
  ],
  "transactionHash": "0x3ce44a877e24d5877667348b68f19b23fd5e6ea1c6d06d592a612ce75699e6ea",
  "args": [],
  "numDeployments": 1,
  "solcInputHash": "0686bf97c7043fc652bd4f7c37fb048f",
  "bytecode": "0x60806040523480156200001157600080fd5b50604051806040016040528060088152602001671319585cd953919560c21b815250604051806040016040528060058152602001644c4541534560d81b81525081600090816200006291906200018f565b5060016200007182826200018f565b5050506200008e620000886200009460201b60201c565b62000098565b6200025b565b3390565b600680546001600160a01b038381166001600160a01b0319831681179093556040519116919082907f8be0079c531659141344cd1fd0a4f28419497f9722a3daafe3b4186f6b6457e090600090a35050565b634e487b7160e01b600052604160045260246000fd5b600181811c908216806200011557607f821691505b6020821081036200013657634e487b7160e01b600052602260045260246000fd5b50919050565b601f8211156200018a57600081815260208120601f850160051c81016020861015620001655750805b601f850160051c820191505b81811015620001865782815560010162000171565b5050505b505050565b81516001600160401b03811115620001ab57620001ab620000ea565b620001c381620001bc845462000100565b846200013c565b602080601f831160018114620001fb5760008415620001e25750858301515b600019600386901b1c1916600185901b17855562000186565b600085815260208120601f198616915b828110156200022c578886015182559484019460019091019084016200020b565b50858210156200024b5787850151600019600388901b60f8161c191681555b5050505050600190811b01905550565b611713806200026b6000396000f3fe608060405234801561001057600080fd5b50600436106101215760003560e01c8063715018a6116100ad578063a22cb46511610071578063a22cb46514610257578063b88d4fde1461026a578063c87b56dd1461027d578063e985e9c514610290578063f2fde38b146102a357600080fd5b8063715018a61461021057806379c650681461021857806388b203071461022b5780638da5cb5b1461023e57806395d89b411461024f57600080fd5b806323b872dd116100f457806323b872dd146101a357806342842e0e146101b657806342966c68146101c95780636352211e146101dc57806370a08231146101ef57600080fd5b806301ffc9a71461012657806306fdde031461014e578063081812fc14610163578063095ea7b31461018e575b600080fd5b610139610134366004611243565b6102b6565b60405190151581526020015b60405180910390f35b610156610308565b60405161014591906112b0565b6101766101713660046112c3565b61039a565b6040516001600160a01b039091168152602001610145565b6101a161019c3660046112f1565b6103c1565b005b6101a16101b136600461131d565b6104db565b6101a16101c436600461131d565b61050c565b6101a16101d73660046112c3565b610527565b6101766101ea3660046112c3565b610617565b6102026101fd36600461135e565b610677565b604051908152602001610145565b6101a16106fd565b6101a16102263660046112f1565b610711565b6101a161023936600461135e565b61071f565b6006546001600160a01b0316610176565b610156610749565b6101a161026536600461137b565b610758565b6101a16102783660046113cf565b610763565b61015661028b3660046112c3565b61079b565b61013961029e3660046114af565b61080f565b6101a16102b136600461135e565b61083d565b60006001600160e01b031982166380ac58cd60e01b14806102e757506001600160e01b03198216635b5e139f60e01b145b8061030257506301ffc9a760e01b6001600160e01b03198316145b92915050565b606060008054610317906114dd565b80601f0160208091040260200160405190810160405280929190818152602001828054610343906114dd565b80156103905780601f1061036557610100808354040283529160200191610390565b820191906000526020600020905b81548152906001019060200180831161037357829003601f168201915b5050505050905090565b60006103a5826108b3565b506000908152600460205260409020546001600160a01b031690565b60006103cc82610617565b9050806001600160a01b0316836001600160a01b03160361043e5760405162461bcd60e51b815260206004820152602160248201527f4552433732313a20617070726f76616c20746f2063757272656e74206f776e656044820152603960f91b60648201526084015b60405180910390fd5b336001600160a01b038216148061045a575061045a813361080f565b6104cc5760405162461bcd60e51b815260206004820152603d60248201527f4552433732313a20617070726f76652063616c6c6572206973206e6f7420746f60448201527f6b656e206f776e6572206f7220617070726f76656420666f7220616c6c0000006064820152608401610435565b6104d68383610912565b505050565b6104e53382610980565b6105015760405162461bcd60e51b815260040161043590611517565b6104d68383836109df565b6104d683838360405180602001604052806000815250610763565b6040516331a9108f60e11b8152600481018290523090636352211e90602401602060405180830381865afa158015610563573d6000803e3d6000fd5b505050506040513d601f19601f820116820180604052508101906105879190611564565b6001600160a01b0316336001600160a01b031614806105b057506007546001600160a01b031633145b61060b5760405162461bcd60e51b815260206004820152602660248201527f4f6e6c7920746f6b656e206f776e65722063616e206275726e20746865206c65604482015265185cd953919560d21b6064820152608401610435565b61061481610b50565b50565b6000818152600260205260408120546001600160a01b0316806103025760405162461bcd60e51b8152602060048201526018602482015277115490cdcc8c4e881a5b9d985b1a59081d1bdad95b88125160421b6044820152606401610435565b60006001600160a01b0382166106e15760405162461bcd60e51b815260206004820152602960248201527f4552433732313a2061646472657373207a65726f206973206e6f7420612076616044820152683634b21037bbb732b960b91b6064820152608401610435565b506001600160a01b031660009081526003602052604090205490565b610705610bf3565b61070f6000610c4d565b565b61071b8282610c9f565b5050565b610727610bf3565b600780546001600160a01b0319166001600160a01b0392909216919091179055565b606060018054610317906114dd565b61071b338383610e38565b61076d3383610980565b6107895760405162461bcd60e51b815260040161043590611517565b61079584848484610f06565b50505050565b60606107a6826108b3565b60006107bd60408051602081019091526000815290565b905060008151116107dd5760405180602001604052806000815250610808565b806107e784610f39565b6040516020016107f8929190611581565b6040516020818303038152906040525b9392505050565b6001600160a01b03918216600090815260056020908152604080832093909416825291909152205460ff1690565b610845610bf3565b6001600160a01b0381166108aa5760405162461bcd60e51b815260206004820152602660248201527f4f776e61626c653a206e6577206f776e657220697320746865207a65726f206160448201526564647265737360d01b6064820152608401610435565b61061481610c4d565b6000818152600260205260409020546001600160a01b03166106145760405162461bcd60e51b8152602060048201526018602482015277115490cdcc8c4e881a5b9d985b1a59081d1bdad95b88125160421b6044820152606401610435565b600081815260046020526040902080546001600160a01b0319166001600160a01b038416908117909155819061094782610617565b6001600160a01b03167f8c5be1e5ebec7d5bd14f71427d1e84f3dd0314c0f7b2291e5b200ac8c7c3b92560405160405180910390a45050565b60008061098c83610617565b9050806001600160a01b0316846001600160a01b031614806109b357506109b3818561080f565b806109d75750836001600160a01b03166109cc8461039a565b6001600160a01b0316145b949350505050565b826001600160a01b03166109f282610617565b6001600160a01b031614610a185760405162461bcd60e51b8152600401610435906115b0565b6001600160a01b038216610a7a5760405162461bcd60e51b8152602060048201526024808201527f4552433732313a207472616e7366657220746f20746865207a65726f206164646044820152637265737360e01b6064820152608401610435565b610a878383836001610fcc565b826001600160a01b0316610a9a82610617565b6001600160a01b031614610ac05760405162461bcd60e51b8152600401610435906115b0565b600081815260046020908152604080832080546001600160a01b03199081169091556001600160a01b0387811680865260038552838620805460001901905590871680865283862080546001019055868652600290945282852080549092168417909155905184937fddf252ad1be2c89b69c2b068fc378daa952ba7f163c4a11628f55a4df523b3ef91a4505050565b6000610b5b82610617565b9050610b6b816000846001610fcc565b610b7482610617565b600083815260046020908152604080832080546001600160a01b03199081169091556001600160a01b0385168085526003845282852080546000190190558785526002909352818420805490911690555192935084927fddf252ad1be2c89b69c2b068fc378daa952ba7f163c4a11628f55a4df523b3ef908390a45050565b6006546001600160a01b0316331461070f5760405162461bcd60e51b815260206004820181905260248201527f4f776e61626c653a2063616c6c6572206973206e6f7420746865206f776e65726044820152606401610435565b600680546001600160a01b038381166001600160a01b0319831681179093556040519116919082907f8be0079c531659141344cd1fd0a4f28419497f9722a3daafe3b4186f6b6457e090600090a35050565b6001600160a01b038216610cf55760405162461bcd60e51b815260206004820181905260248201527f4552433732313a206d696e7420746f20746865207a65726f20616464726573736044820152606401610435565b6000818152600260205260409020546001600160a01b031615610d5a5760405162461bcd60e51b815260206004820152601c60248201527f4552433732313a20746f6b656e20616c7265616479206d696e746564000000006044820152606401610435565b610d68600083836001610fcc565b6000818152600260205260409020546001600160a01b031615610dcd5760405162461bcd60e51b815260206004820152601c60248201527f4552433732313a20746f6b656e20616c7265616479206d696e746564000000006044820152606401610435565b6001600160a01b038216600081815260036020908152604080832080546001019055848352600290915280822080546001600160a01b0319168417905551839291907fddf252ad1be2c89b69c2b068fc378daa952ba7f163c4a11628f55a4df523b3ef908290a45050565b816001600160a01b0316836001600160a01b031603610e995760405162461bcd60e51b815260206004820152601960248201527f4552433732313a20617070726f766520746f2063616c6c6572000000000000006044820152606401610435565b6001600160a01b03838116600081815260056020908152604080832094871680845294825291829020805460ff191686151590811790915591519182527f17307eab39ab6107e8899845ad3d59bd9653f200f220920489ca2b5937696c31910160405180910390a3505050565b610f118484846109df565b610f1d84848484611054565b6107955760405162461bcd60e51b8152600401610435906115f5565b60606000610f4683611155565b600101905060008167ffffffffffffffff811115610f6657610f666113b9565b6040519080825280601f01601f191660200182016040528015610f90576020820181803683370190505b5090508181016020015b600019016f181899199a1a9b1b9c1cb0b131b232b360811b600a86061a8153600a8504945084610f9a57509392505050565b6001811115610795576001600160a01b03841615611012576001600160a01b0384166000908152600360205260408120805483929061100c90849061165d565b90915550505b6001600160a01b03831615610795576001600160a01b03831660009081526003602052604081208054839290611049908490611670565b909155505050505050565b60006001600160a01b0384163b1561114a57604051630a85bd0160e11b81526001600160a01b0385169063150b7a0290611098903390899088908890600401611683565b6020604051808303816000875af19250505080156110d3575060408051601f3d908101601f191682019092526110d0918101906116c0565b60015b611130573d808015611101576040519150601f19603f3d011682016040523d82523d6000602084013e611106565b606091505b5080516000036111285760405162461bcd60e51b8152600401610435906115f5565b805181602001fd5b6001600160e01b031916630a85bd0160e11b1490506109d7565b506001949350505050565b60008072184f03e93ff9f4daa797ed6e38ed64bf6a1f0160401b83106111945772184f03e93ff9f4daa797ed6e38ed64bf6a1f0160401b830492506040015b6d04ee2d6d415b85acef810000000083106111c0576d04ee2d6d415b85acef8100000000830492506020015b662386f26fc1000083106111de57662386f26fc10000830492506010015b6305f5e10083106111f6576305f5e100830492506008015b612710831061120a57612710830492506004015b6064831061121c576064830492506002015b600a83106103025760010192915050565b6001600160e01b03198116811461061457600080fd5b60006020828403121561125557600080fd5b81356108088161122d565b60005b8381101561127b578181015183820152602001611263565b50506000910152565b6000815180845261129c816020860160208601611260565b601f01601f19169290920160200192915050565b6020815260006108086020830184611284565b6000602082840312156112d557600080fd5b5035919050565b6001600160a01b038116811461061457600080fd5b6000806040838503121561130457600080fd5b823561130f816112dc565b946020939093013593505050565b60008060006060848603121561133257600080fd5b833561133d816112dc565b9250602084013561134d816112dc565b929592945050506040919091013590565b60006020828403121561137057600080fd5b8135610808816112dc565b6000806040838503121561138e57600080fd5b8235611399816112dc565b9150602083013580151581146113ae57600080fd5b809150509250929050565b634e487b7160e01b600052604160045260246000fd5b600080600080608085870312156113e557600080fd5b84356113f0816112dc565b93506020850135611400816112dc565b925060408501359150606085013567ffffffffffffffff8082111561142457600080fd5b818701915087601f83011261143857600080fd5b81358181111561144a5761144a6113b9565b604051601f8201601f19908116603f01168101908382118183101715611472576114726113b9565b816040528281528a602084870101111561148b57600080fd5b82602086016020830137600060208483010152809550505050505092959194509250565b600080604083850312156114c257600080fd5b82356114cd816112dc565b915060208301356113ae816112dc565b600181811c908216806114f157607f821691505b60208210810361151157634e487b7160e01b600052602260045260246000fd5b50919050565b6020808252602d908201527f4552433732313a2063616c6c6572206973206e6f7420746f6b656e206f776e6560408201526c1c881bdc88185c1c1c9bdd9959609a1b606082015260800190565b60006020828403121561157657600080fd5b8151610808816112dc565b60008351611593818460208801611260565b8351908301906115a7818360208801611260565b01949350505050565b60208082526025908201527f4552433732313a207472616e736665722066726f6d20696e636f72726563742060408201526437bbb732b960d91b606082015260800190565b60208082526032908201527f4552433732313a207472616e7366657220746f206e6f6e20455243373231526560408201527131b2b4bb32b91034b6b83632b6b2b73a32b960711b606082015260800190565b634e487b7160e01b600052601160045260246000fd5b8181038181111561030257610302611647565b8082018082111561030257610302611647565b6001600160a01b03858116825284166020820152604081018390526080606082018190526000906116b690830184611284565b9695505050505050565b6000602082840312156116d257600080fd5b81516108088161122d56fea2646970667358221220e314e9a06dd49abac5b9bf538265847dcdf1bdaf5d324d9c3dae3d696bdb775a64736f6c63430008110033",
  "devdoc": {
    "kind": "dev",
    "methods": {
      "approve(address,uint256)": {
        "details": "See {IERC721-approve}."
      },
      "balanceOf(address)": {
        "details": "See {IERC721-balanceOf}."
      },
      "getApproved(uint256)": {
        "details": "See {IERC721-getApproved}."
      },
      "isApprovedForAll(address,address)": {
        "details": "See {IERC721-isApprovedForAll}."
      },
      "name()": {
        "details": "See {IERC721Metadata-name}."
      },
      "owner()": {
        "details": "Returns the address of the current owner."
      },
      "ownerOf(uint256)": {
        "details": "See {IERC721-ownerOf}."
      },
      "renounceOwnership()": {
        "details": "Leaves the contract without owner. It will not be possible to call `onlyOwner` functions anymore. Can only be called by the current owner. NOTE: Renouncing ownership will leave the contract without an owner, thereby removing any functionality that is only available to the owner."
      },
      "safeTransferFrom(address,address,uint256)": {
        "details": "See {IERC721-safeTransferFrom}."
      },
      "safeTransferFrom(address,address,uint256,bytes)": {
        "details": "See {IERC721-safeTransferFrom}."
      },
      "setApprovalForAll(address,bool)": {
        "details": "See {IERC721-setApprovalForAll}."
      },
      "supportsInterface(bytes4)": {
        "details": "See {IERC165-supportsInterface}."
      },
      "symbol()": {
        "details": "See {IERC721Metadata-symbol}."
      },
      "tokenURI(uint256)": {
        "details": "See {IERC721Metadata-tokenURI}."
      },
      "transferFrom(address,address,uint256)": {
        "details": "See {IERC721-transferFrom}."
      },
      "transferOwnership(address)": {
        "details": "Transfers ownership of the contract to a new account (`newOwner`). Can only be called by the current owner."
      }
    },
    "version": 1
  },
  "userdoc": {
    "kind": "user",
    "methods": {},
    "version": 1
  },
  "storageLayout": {
    "storage": [
      {
        "astId": 2989,
        "contract": "contracts/LeaseNFT.sol:LeaseNFT",
        "label": "_name",
        "offset": 0,
        "slot": "0",
        "type": "t_string_storage"
      },
      {
        "astId": 2991,
        "contract": "contracts/LeaseNFT.sol:LeaseNFT",
        "label": "_symbol",
        "offset": 0,
        "slot": "1",
        "type": "t_string_storage"
      },
      {
        "astId": 2995,
        "contract": "contracts/LeaseNFT.sol:LeaseNFT",
        "label": "_owners",
        "offset": 0,
        "slot": "2",
        "type": "t_mapping(t_uint256,t_address)"
      },
      {
        "astId": 2999,
        "contract": "contracts/LeaseNFT.sol:LeaseNFT",
        "label": "_balances",
        "offset": 0,
        "slot": "3",
        "type": "t_mapping(t_address,t_uint256)"
      },
      {
        "astId": 3003,
        "contract": "contracts/LeaseNFT.sol:LeaseNFT",
        "label": "_tokenApprovals",
        "offset": 0,
        "slot": "4",
        "type": "t_mapping(t_uint256,t_address)"
      },
      {
        "astId": 3009,
        "contract": "contracts/LeaseNFT.sol:LeaseNFT",
        "label": "_operatorApprovals",
        "offset": 0,
        "slot": "5",
        "type": "t_mapping(t_address,t_mapping(t_address,t_bool))"
      },
      {
        "astId": 396,
        "contract": "contracts/LeaseNFT.sol:LeaseNFT",
        "label": "_owner",
        "offset": 0,
        "slot": "6",
        "type": "t_address"
      },
      {
        "astId": 7358,
        "contract": "contracts/LeaseNFT.sol:LeaseNFT",
        "label": "leaseAgreementAddress",
        "offset": 0,
        "slot": "7",
        "type": "t_address"
      }
    ],
    "types": {
      "t_address": {
        "encoding": "inplace",
        "label": "address",
        "numberOfBytes": "20"
      },
      "t_bool": {
        "encoding": "inplace",
        "label": "bool",
        "numberOfBytes": "1"
      },
      "t_mapping(t_address,t_bool)": {
        "encoding": "mapping",
        "key": "t_address",
        "label": "mapping(address => bool)",
        "numberOfBytes": "32",
        "value": "t_bool"
      },
      "t_mapping(t_address,t_mapping(t_address,t_bool))": {
        "encoding": "mapping",
        "key": "t_address",
        "label": "mapping(address => mapping(address => bool))",
        "numberOfBytes": "32",
        "value": "t_mapping(t_address,t_bool)"
      },
      "t_mapping(t_address,t_uint256)": {
        "encoding": "mapping",
        "key": "t_address",
        "label": "mapping(address => uint256)",
        "numberOfBytes": "32",
        "value": "t_uint256"
      },
      "t_mapping(t_uint256,t_address)": {
        "encoding": "mapping",
        "key": "t_uint256",
        "label": "mapping(uint256 => address)",
        "numberOfBytes": "32",
        "value": "t_address"
      },
      "t_string_storage": {
        "encoding": "bytes",
        "label": "string",
        "numberOfBytes": "32"
      },
      "t_uint256": {
        "encoding": "inplace",
        "label": "uint256",
        "numberOfBytes": "32"
      }
    }
  }
}