{
  "address": "0xD1C39AA9951Cf372a8e66bA5ae86aC06470bc611",
  "abi": [
    {
      "inputs": [
        {
          "internalType": "address",
          "name": "_accessManager",
          "type": "address"
        }
      ],
      "stateMutability": "nonpayable",
      "type": "constructor"
    },
    {
      "anonymous": false,
      "inputs": [
        {
          "indexed": true,
          "internalType": "address",
          "name": "owner",
          "type": "address"
        },
        {
          "indexed": true,
          "internalType": "address",
          "name": "approved",
          "type": "address"
        },
        {
          "indexed": true,
          "internalType": "uint256",
          "name": "tokenId",
          "type": "uint256"
        }
      ],
      "name": "Approval",
      "type": "event"
    },
    {
      "anonymous": false,
      "inputs": [
        {
          "indexed": true,
          "internalType": "address",
          "name": "owner",
          "type": "address"
        },
        {
          "indexed": true,
          "internalType": "address",
          "name": "operator",
          "type": "address"
        },
        {
          "indexed": false,
          "internalType": "bool",
          "name": "approved",
          "type": "bool"
        }
      ],
      "name": "ApprovalForAll",
      "type": "event"
    },
    {
      "anonymous": false,
      "inputs": [
        {
          "indexed": false,
          "internalType": "uint256",
          "name": "leaseId",
          "type": "uint256"
        },
        {
          "indexed": false,
          "internalType": "address",
          "name": "burner",
          "type": "address"
        }
      ],
      "name": "LeaseNFTAgreementSet",
      "type": "event"
    },
    {
      "anonymous": false,
      "inputs": [
        {
          "indexed": false,
          "internalType": "uint256",
          "name": "leaseId",
          "type": "uint256"
        },
        {
          "indexed": false,
          "internalType": "address",
          "name": "burner",
          "type": "address"
        }
      ],
      "name": "LeaseNFTBurned",
      "type": "event"
    },
    {
      "anonymous": false,
      "inputs": [
        {
          "indexed": false,
          "internalType": "address",
          "name": "leaseOwner",
          "type": "address"
        },
        {
          "indexed": false,
          "internalType": "uint256",
          "name": "leaseId",
          "type": "uint256"
        },
        {
          "indexed": false,
          "internalType": "address",
          "name": "minter",
          "type": "address"
        }
      ],
      "name": "LeaseNFTMinted",
      "type": "event"
    },
    {
      "anonymous": false,
      "inputs": [
        {
          "indexed": true,
          "internalType": "address",
          "name": "from",
          "type": "address"
        },
        {
          "indexed": true,
          "internalType": "address",
          "name": "to",
          "type": "address"
        },
        {
          "indexed": true,
          "internalType": "uint256",
          "name": "tokenId",
          "type": "uint256"
        }
      ],
      "name": "Transfer",
      "type": "event"
    },
    {
      "inputs": [
        {
          "internalType": "address",
          "name": "to",
          "type": "address"
        },
        {
          "internalType": "uint256",
          "name": "tokenId",
          "type": "uint256"
        }
      ],
      "name": "approve",
      "outputs": [],
      "stateMutability": "nonpayable",
      "type": "function"
    },
    {
      "inputs": [
        {
          "internalType": "address",
          "name": "owner",
          "type": "address"
        }
      ],
      "name": "balanceOf",
      "outputs": [
        {
          "internalType": "uint256",
          "name": "",
          "type": "uint256"
        }
      ],
      "stateMutability": "view",
      "type": "function"
    },
    {
      "inputs": [
        {
          "internalType": "uint256",
          "name": "_leaseId",
          "type": "uint256"
        }
      ],
      "name": "burn",
      "outputs": [],
      "stateMutability": "nonpayable",
      "type": "function"
    },
    {
      "inputs": [
        {
          "internalType": "uint256",
          "name": "_leaseId",
          "type": "uint256"
        }
      ],
      "name": "exists",
      "outputs": [
        {
          "internalType": "bool",
          "name": "",
          "type": "bool"
        }
      ],
      "stateMutability": "view",
      "type": "function"
    },
    {
      "inputs": [
        {
          "internalType": "uint256",
          "name": "tokenId",
          "type": "uint256"
        }
      ],
      "name": "getApproved",
      "outputs": [
        {
          "internalType": "address",
          "name": "",
          "type": "address"
        }
      ],
      "stateMutability": "view",
      "type": "function"
    },
    {
      "inputs": [],
      "name": "hasAdminRole",
      "outputs": [
        {
          "internalType": "bool",
          "name": "",
          "type": "bool"
        }
      ],
      "stateMutability": "view",
      "type": "function"
    },
    {
      "inputs": [
        {
          "internalType": "bytes32",
          "name": "_role",
          "type": "bytes32"
        },
        {
          "internalType": "address",
          "name": "_address",
          "type": "address"
        }
      ],
      "name": "hasRole",
      "outputs": [
        {
          "internalType": "bool",
          "name": "",
          "type": "bool"
        }
      ],
      "stateMutability": "view",
      "type": "function"
    },
    {
      "inputs": [],
      "name": "hasValidatorRole",
      "outputs": [
        {
          "internalType": "bool",
          "name": "",
          "type": "bool"
        }
      ],
      "stateMutability": "view",
      "type": "function"
    },
    {
      "inputs": [
        {
          "internalType": "address",
          "name": "owner",
          "type": "address"
        },
        {
          "internalType": "address",
          "name": "operator",
          "type": "address"
        }
      ],
      "name": "isApprovedForAll",
      "outputs": [
        {
          "internalType": "bool",
          "name": "",
          "type": "bool"
        }
      ],
      "stateMutability": "view",
      "type": "function"
    },
    {
      "inputs": [
        {
          "internalType": "address",
          "name": "_to",
          "type": "address"
        },
        {
          "internalType": "uint256",
          "name": "_leaseId",
          "type": "uint256"
        }
      ],
      "name": "mint",
      "outputs": [],
      "stateMutability": "nonpayable",
      "type": "function"
    },
    {
      "inputs": [],
      "name": "name",
      "outputs": [
        {
          "internalType": "string",
          "name": "",
          "type": "string"
        }
      ],
      "stateMutability": "view",
      "type": "function"
    },
    {
      "inputs": [
        {
          "internalType": "uint256",
          "name": "tokenId",
          "type": "uint256"
        }
      ],
      "name": "ownerOf",
      "outputs": [
        {
          "internalType": "address",
          "name": "",
          "type": "address"
        }
      ],
      "stateMutability": "view",
      "type": "function"
    },
    {
      "inputs": [
        {
          "internalType": "address",
          "name": "from",
          "type": "address"
        },
        {
          "internalType": "address",
          "name": "to",
          "type": "address"
        },
        {
          "internalType": "uint256",
          "name": "tokenId",
          "type": "uint256"
        }
      ],
      "name": "safeTransferFrom",
      "outputs": [],
      "stateMutability": "nonpayable",
      "type": "function"
    },
    {
      "inputs": [
        {
          "internalType": "address",
          "name": "from",
          "type": "address"
        },
        {
          "internalType": "address",
          "name": "to",
          "type": "address"
        },
        {
          "internalType": "uint256",
          "name": "tokenId",
          "type": "uint256"
        },
        {
          "internalType": "bytes",
          "name": "data",
          "type": "bytes"
        }
      ],
      "name": "safeTransferFrom",
      "outputs": [],
      "stateMutability": "nonpayable",
      "type": "function"
    },
    {
      "inputs": [
        {
          "internalType": "address",
          "name": "operator",
          "type": "address"
        },
        {
          "internalType": "bool",
          "name": "approved",
          "type": "bool"
        }
      ],
      "name": "setApprovalForAll",
      "outputs": [],
      "stateMutability": "nonpayable",
      "type": "function"
    },
    {
      "inputs": [
        {
          "internalType": "address",
          "name": "_leaseAgreementAddress",
          "type": "address"
        }
      ],
      "name": "setLeaseAgreementAddress",
      "outputs": [],
      "stateMutability": "nonpayable",
      "type": "function"
    },
    {
      "inputs": [
        {
          "internalType": "bytes4",
          "name": "interfaceId",
          "type": "bytes4"
        }
      ],
      "name": "supportsInterface",
      "outputs": [
        {
          "internalType": "bool",
          "name": "",
          "type": "bool"
        }
      ],
      "stateMutability": "view",
      "type": "function"
    },
    {
      "inputs": [],
      "name": "symbol",
      "outputs": [
        {
          "internalType": "string",
          "name": "",
          "type": "string"
        }
      ],
      "stateMutability": "view",
      "type": "function"
    },
    {
      "inputs": [
        {
          "internalType": "uint256",
          "name": "tokenId",
          "type": "uint256"
        }
      ],
      "name": "tokenURI",
      "outputs": [
        {
          "internalType": "string",
          "name": "",
          "type": "string"
        }
      ],
      "stateMutability": "view",
      "type": "function"
    },
    {
      "inputs": [
        {
          "internalType": "address",
          "name": "from",
          "type": "address"
        },
        {
          "internalType": "address",
          "name": "to",
          "type": "address"
        },
        {
          "internalType": "uint256",
          "name": "tokenId",
          "type": "uint256"
        }
      ],
      "name": "transferFrom",
      "outputs": [],
      "stateMutability": "nonpayable",
      "type": "function"
    }
  ],
  "transactionHash": "0x1ffa51c8a7d481a9b8c46e9977b3edb80f853d1263dd729072f29ab1aabacbc4",
  "args": [
    "0xfea72a21b5a305b3A4c340E6EC76BD3a7fb6027a"
  ],
  "numDeployments": 6,
  "solcInputHash": "433c9f6eeed855c552629aba100f733a",
  "bytecode": "0x60806040523480156200001157600080fd5b5060405162001b1638038062001b168339810160408190526200003491620000c0565b80604051806040016040528060088152602001671319585cd953919560c21b815250604051806040016040528060058152602001644c4541534560d81b815250816000908162000085919062000197565b50600162000094828262000197565b5050600680546001600160a01b0319166001600160a01b03939093169290921790915550620002639050565b600060208284031215620000d357600080fd5b81516001600160a01b0381168114620000eb57600080fd5b9392505050565b634e487b7160e01b600052604160045260246000fd5b600181811c908216806200011d57607f821691505b6020821081036200013e57634e487b7160e01b600052602260045260246000fd5b50919050565b601f8211156200019257600081815260208120601f850160051c810160208610156200016d5750805b601f850160051c820191505b818110156200018e5782815560010162000179565b5050505b505050565b81516001600160401b03811115620001b357620001b3620000f2565b620001cb81620001c4845462000108565b8462000144565b602080601f831160018114620002035760008415620001ea5750858301515b600019600386901b1c1916600185901b1785556200018e565b600085815260208120601f198616915b82811015620002345788860151825594840194600190910190840162000213565b5085821015620002535787850151600019600388901b60f8161c191681555b5050505050600190811b01905550565b6118a380620002736000396000f3fe608060405234801561001057600080fd5b506004361061012c5760003560e01c806370a08231116100ad578063a22cb46511610071578063a22cb46514610277578063b88d4fde1461028a578063b99c23e31461029d578063c87b56dd146102a5578063e985e9c5146102b857600080fd5b806370a082311461022057806388b203071461024157806389b9e75f1461025457806391d148541461025c57806395d89b411461026f57600080fd5b806340c10f19116100f457806340c10f19146101c157806342842e0e146101d457806342966c68146101e75780634f558e79146101fa5780636352211e1461020d57600080fd5b806301ffc9a71461013157806306fdde0314610159578063081812fc1461016e578063095ea7b31461019957806323b872dd146101ae575b600080fd5b61014461013f3660046113cd565b6102f4565b60405190151581526020015b60405180910390f35b610161610346565b604051610150919061143a565b61018161017c36600461144d565b6103d8565b6040516001600160a01b039091168152602001610150565b6101ac6101a7366004611482565b6103ff565b005b6101ac6101bc3660046114ac565b610519565b6101ac6101cf366004611482565b61054a565b6101ac6101e23660046114ac565b610638565b6101ac6101f536600461144d565b610653565b61014461020836600461144d565b610725565b61018161021b36600461144d565b610744565b61023361022e3660046114e8565b6107a4565b604051908152602001610150565b6101ac61024f3660046114e8565b61082a565b610144610994565b61014461026a366004611503565b610a17565b610161610a94565b6101ac61028536600461153d565b610aa3565b6101ac61029836600461158a565b610ab2565b610144610aea565b6101616102b336600461144d565b610b04565b6101446102c6366004611666565b6001600160a01b03918216600090815260056020908152604080832093909416825291909152205460ff1690565b60006001600160e01b031982166380ac58cd60e01b148061032557506001600160e01b03198216635b5e139f60e01b145b8061034057506301ffc9a760e01b6001600160e01b03198316145b92915050565b60606000805461035590611690565b80601f016020809104026020016040519081016040528092919081815260200182805461038190611690565b80156103ce5780601f106103a3576101008083540402835291602001916103ce565b820191906000526020600020905b8154815290600101906020018083116103b157829003601f168201915b5050505050905090565b60006103e382610b77565b506000908152600460205260409020546001600160a01b031690565b600061040a82610744565b9050806001600160a01b0316836001600160a01b03160361047c5760405162461bcd60e51b815260206004820152602160248201527f4552433732313a20617070726f76616c20746f2063757272656e74206f776e656044820152603960f91b60648201526084015b60405180910390fd5b336001600160a01b0382161480610498575061049881336102c6565b61050a5760405162461bcd60e51b815260206004820152603d60248201527f4552433732313a20617070726f76652063616c6c6572206973206e6f7420746f60448201527f6b656e206f776e6572206f7220617070726f76656420666f7220616c6c0000006064820152608401610473565b6105148383610bd9565b505050565b6105233382610c47565b61053f5760405162461bcd60e51b8152600401610473906116ca565b610514838383610cc6565b610552610aea565b8061057057506007546001600160a01b0316336001600160a01b0316145b6105e25760405162461bcd60e51b815260206004820152603a60248201527f5b4c656173654e46545d204f6e6c79204c6561736541677265656d656e74206360448201527f6f6e74726163742063616e206d696e7420746865206c656173650000000000006064820152608401610473565b6105ec8282610e2a565b604080516001600160a01b038416815260208101839052338183015290517fa6b8a86b56aa258694b0296236995e87023b8a839e667182e07c029e560587a79181900360600190a15050565b61051483838360405180602001604052806000815250610ab2565b61065b610aea565b8061067957506007546001600160a01b0316336001600160a01b0316145b6106df5760405162461bcd60e51b815260206004820152603160248201527f5b4c656173654e46545d204f6e6c79204c6561736541677265656d656e742063604482015270616e206275726e20746865206c6561736560781b6064820152608401610473565b6106e881610fb5565b6040805182815233602082015281517fdecfbea6ba98892dab079b1507512cda02160c3509548e17fc5ae7c2c7de075a929181900390910190a150565b6000818152600260205260408120546001600160a01b03161515610340565b6000818152600260205260408120546001600160a01b0316806103405760405162461bcd60e51b8152602060048201526018602482015277115490cdcc8c4e881a5b9d985b1a59081d1bdad95b88125160421b6044820152606401610473565b60006001600160a01b03821661080e5760405162461bcd60e51b815260206004820152602960248201527f4552433732313a2061646472657373207a65726f206973206e6f7420612076616044820152683634b21037bbb732b960b91b6064820152608401610473565b506001600160a01b031660009081526003602052604090205490565b6006546040805163a217fddf60e01b815290516001600160a01b03909216916391d1485491839163a217fddf916004808201926020929091908290030181865afa15801561087c573d6000803e3d6000fd5b505050506040513d601f19601f820116820180604052508101906108a09190611717565b336040516001600160e01b031960e085901b16815260048101929092526001600160a01b03166024820152604401602060405180830381865afa1580156108eb573d6000803e3d6000fd5b505050506040513d601f19601f8201168201806040525081019061090f9190611730565b6109725760405162461bcd60e51b815260206004820152602e60248201527f5b4163636573734d616e6167656d656e745d204f6e6c79207468652061646d6960448201526d1b8818d85b881a5b9d195c9858dd60921b6064820152608401610473565b600780546001600160a01b0319166001600160a01b0392909216919091179055565b6006546000906001600160a01b031663940e1570335b6040516001600160e01b031960e084901b1681526001600160a01b039091166004820152602401602060405180830381865afa1580156109ee573d6000803e3d6000fd5b505050506040513d601f19601f82011682018060405250810190610a129190611730565b905090565b600654604051632474521560e21b8152600481018490526001600160a01b03838116602483015260009216906391d1485490604401602060405180830381865afa158015610a69573d6000803e3d6000fd5b505050506040513d601f19601f82011682018060405250810190610a8d9190611730565b9392505050565b60606001805461035590611690565b610aae33838361104a565b5050565b610abc3383610c47565b610ad85760405162461bcd60e51b8152600401610473906116ca565b610ae484848484611118565b50505050565b6006546000906001600160a01b031663c395fcb3336109aa565b6060610b0f82610b77565b6000610b2660408051602081019091526000815290565b90506000815111610b465760405180602001604052806000815250610a8d565b80610b508461114b565b604051602001610b6192919061174d565b6040516020818303038152906040529392505050565b6000818152600260205260409020546001600160a01b0316610bd65760405162461bcd60e51b8152602060048201526018602482015277115490cdcc8c4e881a5b9d985b1a59081d1bdad95b88125160421b6044820152606401610473565b50565b600081815260046020526040902080546001600160a01b0319166001600160a01b0384169081179091558190610c0e82610744565b6001600160a01b03167f8c5be1e5ebec7d5bd14f71427d1e84f3dd0314c0f7b2291e5b200ac8c7c3b92560405160405180910390a45050565b600080610c5383610744565b9050806001600160a01b0316846001600160a01b03161480610c9a57506001600160a01b0380821660009081526005602090815260408083209388168352929052205460ff165b80610cbe5750836001600160a01b0316610cb3846103d8565b6001600160a01b0316145b949350505050565b826001600160a01b0316610cd982610744565b6001600160a01b031614610cff5760405162461bcd60e51b81526004016104739061177c565b6001600160a01b038216610d615760405162461bcd60e51b8152602060048201526024808201527f4552433732313a207472616e7366657220746f20746865207a65726f206164646044820152637265737360e01b6064820152608401610473565b826001600160a01b0316610d7482610744565b6001600160a01b031614610d9a5760405162461bcd60e51b81526004016104739061177c565b600081815260046020908152604080832080546001600160a01b03199081169091556001600160a01b0387811680865260038552838620805460001901905590871680865283862080546001019055868652600290945282852080549092168417909155905184937fddf252ad1be2c89b69c2b068fc378daa952ba7f163c4a11628f55a4df523b3ef91a4505050565b6001600160a01b038216610e805760405162461bcd60e51b815260206004820181905260248201527f4552433732313a206d696e7420746f20746865207a65726f20616464726573736044820152606401610473565b6000818152600260205260409020546001600160a01b031615610ee55760405162461bcd60e51b815260206004820152601c60248201527f4552433732313a20746f6b656e20616c7265616479206d696e746564000000006044820152606401610473565b6000818152600260205260409020546001600160a01b031615610f4a5760405162461bcd60e51b815260206004820152601c60248201527f4552433732313a20746f6b656e20616c7265616479206d696e746564000000006044820152606401610473565b6001600160a01b038216600081815260036020908152604080832080546001019055848352600290915280822080546001600160a01b0319168417905551839291907fddf252ad1be2c89b69c2b068fc378daa952ba7f163c4a11628f55a4df523b3ef908290a45050565b6000610fc082610744565b9050610fcb82610744565b600083815260046020908152604080832080546001600160a01b03199081169091556001600160a01b0385168085526003845282852080546000190190558785526002909352818420805490911690555192935084927fddf252ad1be2c89b69c2b068fc378daa952ba7f163c4a11628f55a4df523b3ef908390a45050565b816001600160a01b0316836001600160a01b0316036110ab5760405162461bcd60e51b815260206004820152601960248201527f4552433732313a20617070726f766520746f2063616c6c6572000000000000006044820152606401610473565b6001600160a01b03838116600081815260056020908152604080832094871680845294825291829020805460ff191686151590811790915591519182527f17307eab39ab6107e8899845ad3d59bd9653f200f220920489ca2b5937696c31910160405180910390a3505050565b611123848484610cc6565b61112f848484846111de565b610ae45760405162461bcd60e51b8152600401610473906117c1565b60606000611158836112df565b600101905060008167ffffffffffffffff81111561117857611178611574565b6040519080825280601f01601f1916602001820160405280156111a2576020820181803683370190505b5090508181016020015b600019016f181899199a1a9b1b9c1cb0b131b232b360811b600a86061a8153600a85049450846111ac57509392505050565b60006001600160a01b0384163b156112d457604051630a85bd0160e11b81526001600160a01b0385169063150b7a0290611222903390899088908890600401611813565b6020604051808303816000875af192505050801561125d575060408051601f3d908101601f1916820190925261125a91810190611850565b60015b6112ba573d80801561128b576040519150601f19603f3d011682016040523d82523d6000602084013e611290565b606091505b5080516000036112b25760405162461bcd60e51b8152600401610473906117c1565b805181602001fd5b6001600160e01b031916630a85bd0160e11b149050610cbe565b506001949350505050565b60008072184f03e93ff9f4daa797ed6e38ed64bf6a1f0160401b831061131e5772184f03e93ff9f4daa797ed6e38ed64bf6a1f0160401b830492506040015b6d04ee2d6d415b85acef8100000000831061134a576d04ee2d6d415b85acef8100000000830492506020015b662386f26fc10000831061136857662386f26fc10000830492506010015b6305f5e1008310611380576305f5e100830492506008015b612710831061139457612710830492506004015b606483106113a6576064830492506002015b600a83106103405760010192915050565b6001600160e01b031981168114610bd657600080fd5b6000602082840312156113df57600080fd5b8135610a8d816113b7565b60005b838110156114055781810151838201526020016113ed565b50506000910152565b600081518084526114268160208601602086016113ea565b601f01601f19169290920160200192915050565b602081526000610a8d602083018461140e565b60006020828403121561145f57600080fd5b5035919050565b80356001600160a01b038116811461147d57600080fd5b919050565b6000806040838503121561149557600080fd5b61149e83611466565b946020939093013593505050565b6000806000606084860312156114c157600080fd5b6114ca84611466565b92506114d860208501611466565b9150604084013590509250925092565b6000602082840312156114fa57600080fd5b610a8d82611466565b6000806040838503121561151657600080fd5b8235915061152660208401611466565b90509250929050565b8015158114610bd657600080fd5b6000806040838503121561155057600080fd5b61155983611466565b915060208301356115698161152f565b809150509250929050565b634e487b7160e01b600052604160045260246000fd5b600080600080608085870312156115a057600080fd5b6115a985611466565b93506115b760208601611466565b925060408501359150606085013567ffffffffffffffff808211156115db57600080fd5b818701915087601f8301126115ef57600080fd5b81358181111561160157611601611574565b604051601f8201601f19908116603f0116810190838211818310171561162957611629611574565b816040528281528a602084870101111561164257600080fd5b82602086016020830137600060208483010152809550505050505092959194509250565b6000806040838503121561167957600080fd5b61168283611466565b915061152660208401611466565b600181811c908216806116a457607f821691505b6020821081036116c457634e487b7160e01b600052602260045260246000fd5b50919050565b6020808252602d908201527f4552433732313a2063616c6c6572206973206e6f7420746f6b656e206f776e6560408201526c1c881bdc88185c1c1c9bdd9959609a1b606082015260800190565b60006020828403121561172957600080fd5b5051919050565b60006020828403121561174257600080fd5b8151610a8d8161152f565b6000835161175f8184602088016113ea565b8351908301906117738183602088016113ea565b01949350505050565b60208082526025908201527f4552433732313a207472616e736665722066726f6d20696e636f72726563742060408201526437bbb732b960d91b606082015260800190565b60208082526032908201527f4552433732313a207472616e7366657220746f206e6f6e20455243373231526560408201527131b2b4bb32b91034b6b83632b6b2b73a32b960711b606082015260800190565b6001600160a01b03858116825284166020820152604081018390526080606082018190526000906118469083018461140e565b9695505050505050565b60006020828403121561186257600080fd5b8151610a8d816113b756fea26469706673582212204c8c71a8416c3ea0d917b400bdeeed32b1b9cb8bbb0a1a669df0448c878b0dc364736f6c63430008110033",
  "devdoc": {
    "kind": "dev",
    "methods": {
      "approve(address,uint256)": {
        "details": "See {IERC721-approve}."
      },
      "balanceOf(address)": {
        "details": "See {IERC721-balanceOf}."
      },
      "getApproved(uint256)": {
        "details": "See {IERC721-getApproved}."
      },
      "isApprovedForAll(address,address)": {
        "details": "See {IERC721-isApprovedForAll}."
      },
      "name()": {
        "details": "See {IERC721Metadata-name}."
      },
      "ownerOf(uint256)": {
        "details": "See {IERC721-ownerOf}."
      },
      "safeTransferFrom(address,address,uint256)": {
        "details": "See {IERC721-safeTransferFrom}."
      },
      "safeTransferFrom(address,address,uint256,bytes)": {
        "details": "See {IERC721-safeTransferFrom}."
      },
      "setApprovalForAll(address,bool)": {
        "details": "See {IERC721-setApprovalForAll}."
      },
      "supportsInterface(bytes4)": {
        "details": "See {IERC165-supportsInterface}."
      },
      "symbol()": {
        "details": "See {IERC721Metadata-symbol}."
      },
      "tokenURI(uint256)": {
        "details": "See {IERC721Metadata-tokenURI}."
      },
      "transferFrom(address,address,uint256)": {
        "details": "See {IERC721-transferFrom}."
      }
    },
    "version": 1
  },
  "userdoc": {
    "kind": "user",
    "methods": {},
    "version": 1
  },
  "storageLayout": {
    "storage": [
      {
        "astId": 3010,
        "contract": "contracts/LeaseNFT.sol:LeaseNFT",
        "label": "_name",
        "offset": 0,
        "slot": "0",
        "type": "t_string_storage"
      },
      {
        "astId": 3012,
        "contract": "contracts/LeaseNFT.sol:LeaseNFT",
        "label": "_symbol",
        "offset": 0,
        "slot": "1",
        "type": "t_string_storage"
      },
      {
        "astId": 3016,
        "contract": "contracts/LeaseNFT.sol:LeaseNFT",
        "label": "_owners",
        "offset": 0,
        "slot": "2",
        "type": "t_mapping(t_uint256,t_address)"
      },
      {
        "astId": 3020,
        "contract": "contracts/LeaseNFT.sol:LeaseNFT",
        "label": "_balances",
        "offset": 0,
        "slot": "3",
        "type": "t_mapping(t_address,t_uint256)"
      },
      {
        "astId": 3024,
        "contract": "contracts/LeaseNFT.sol:LeaseNFT",
        "label": "_tokenApprovals",
        "offset": 0,
        "slot": "4",
        "type": "t_mapping(t_uint256,t_address)"
      },
      {
        "astId": 3030,
        "contract": "contracts/LeaseNFT.sol:LeaseNFT",
        "label": "_operatorApprovals",
        "offset": 0,
        "slot": "5",
        "type": "t_mapping(t_address,t_mapping(t_address,t_bool))"
      },
      {
        "astId": 5948,
        "contract": "contracts/LeaseNFT.sol:LeaseNFT",
        "label": "accessManager",
        "offset": 0,
        "slot": "6",
        "type": "t_contract(AccessManager)5943"
      },
      {
        "astId": 8299,
        "contract": "contracts/LeaseNFT.sol:LeaseNFT",
        "label": "leaseAgreementAddress",
        "offset": 0,
        "slot": "7",
        "type": "t_address"
      }
    ],
    "types": {
      "t_address": {
        "encoding": "inplace",
        "label": "address",
        "numberOfBytes": "20"
      },
      "t_bool": {
        "encoding": "inplace",
        "label": "bool",
        "numberOfBytes": "1"
      },
      "t_contract(AccessManager)5943": {
        "encoding": "inplace",
        "label": "contract AccessManager",
        "numberOfBytes": "20"
      },
      "t_mapping(t_address,t_bool)": {
        "encoding": "mapping",
        "key": "t_address",
        "label": "mapping(address => bool)",
        "numberOfBytes": "32",
        "value": "t_bool"
      },
      "t_mapping(t_address,t_mapping(t_address,t_bool))": {
        "encoding": "mapping",
        "key": "t_address",
        "label": "mapping(address => mapping(address => bool))",
        "numberOfBytes": "32",
        "value": "t_mapping(t_address,t_bool)"
      },
      "t_mapping(t_address,t_uint256)": {
        "encoding": "mapping",
        "key": "t_address",
        "label": "mapping(address => uint256)",
        "numberOfBytes": "32",
        "value": "t_uint256"
      },
      "t_mapping(t_uint256,t_address)": {
        "encoding": "mapping",
        "key": "t_uint256",
        "label": "mapping(uint256 => address)",
        "numberOfBytes": "32",
        "value": "t_address"
      },
      "t_string_storage": {
        "encoding": "bytes",
        "label": "string",
        "numberOfBytes": "32"
      },
      "t_uint256": {
        "encoding": "inplace",
        "label": "uint256",
        "numberOfBytes": "32"
      }
    }
  }
}