{
  "address": "0xdd8dc0245d846d0f04350af055951396846c73ab",
  "abi": [
    {
      "inputs": [
        {
          "internalType": "address",
          "name": "_leaseNFT",
          "type": "address"
        },
        {
          "internalType": "address",
          "name": "_paymentToken",
          "type": "address"
        },
        {
          "internalType": "address",
          "name": "_deedNFT",
          "type": "address"
        },
        {
          "internalType": "address",
          "name": "_subdivisionNFT",
          "type": "address"
        },
        {
          "internalType": "address",
          "name": "_fundsManager",
          "type": "address"
        }
      ],
      "stateMutability": "nonpayable",
      "type": "constructor"
    },
    {
      "anonymous": false,
      "inputs": [
        {
          "indexed": false,
          "internalType": "uint256",
          "name": "leaseId",
          "type": "uint256"
        },
        {
          "indexed": false,
          "internalType": "address",
          "name": "agent",
          "type": "address"
        },
        {
          "indexed": false,
          "internalType": "uint256",
          "name": "percentage",
          "type": "uint256"
        }
      ],
      "name": "LeaseAgentAdded",
      "type": "event"
    },
    {
      "anonymous": false,
      "inputs": [
        {
          "indexed": false,
          "internalType": "uint256",
          "name": "leaseId",
          "type": "uint256"
        }
      ],
      "name": "LeaseAgentRemoved",
      "type": "event"
    },
    {
      "anonymous": false,
      "inputs": [
        {
          "indexed": false,
          "internalType": "uint256",
          "name": "leaseId",
          "type": "uint256"
        },
        {
          "components": [
            {
              "internalType": "address",
              "name": "lessor",
              "type": "address"
            },
            {
              "internalType": "address",
              "name": "lessee",
              "type": "address"
            },
            {
              "internalType": "uint256",
              "name": "rentAmount",
              "type": "uint256"
            },
            {
              "components": [
                {
                  "internalType": "uint256",
                  "name": "amount",
                  "type": "uint256"
                },
                {
                  "internalType": "bool",
                  "name": "paid",
                  "type": "bool"
                }
              ],
              "internalType": "struct LeaseAgreement.Deposit",
              "name": "securityDeposit",
              "type": "tuple"
            },
            {
              "internalType": "uint256",
              "name": "latePaymentFee",
              "type": "uint256"
            },
            {
              "internalType": "uint32",
              "name": "gracePeriod",
              "type": "uint32"
            },
            {
              "components": [
                {
                  "internalType": "uint256",
                  "name": "startDate",
                  "type": "uint256"
                },
                {
                  "internalType": "uint256",
                  "name": "endDate",
                  "type": "uint256"
                },
                {
                  "internalType": "uint256",
                  "name": "rentDueDate",
                  "type": "uint256"
                },
                {
                  "internalType": "uint256",
                  "name": "distributableDate",
                  "type": "uint256"
                }
              ],
              "internalType": "struct LeaseAgreement.LeaseDates",
              "name": "dates",
              "type": "tuple"
            },
            {
              "internalType": "uint256",
              "name": "extensionCount",
              "type": "uint256"
            },
            {
              "internalType": "uint256",
              "name": "propertyTokenId",
              "type": "uint256"
            },
            {
              "internalType": "address",
              "name": "agent",
              "type": "address"
            },
            {
              "internalType": "uint8",
              "name": "agentPercentage",
              "type": "uint8"
            },
            {
              "internalType": "uint256",
              "name": "unclaimedRentAmount",
              "type": "uint256"
            }
          ],
          "indexed": false,
          "internalType": "struct LeaseAgreement.Lease",
          "name": "lease",
          "type": "tuple"
        }
      ],
      "name": "LeaseCreated",
      "type": "event"
    },
    {
      "anonymous": false,
      "inputs": [
        {
          "indexed": false,
          "internalType": "uint256",
          "name": "leaseId",
          "type": "uint256"
        },
        {
          "indexed": false,
          "internalType": "uint256",
          "name": "amount",
          "type": "uint256"
        }
      ],
      "name": "LeaseDepositSubmited",
      "type": "event"
    },
    {
      "anonymous": false,
      "inputs": [
        {
          "indexed": false,
          "internalType": "uint256",
          "name": "leaseId",
          "type": "uint256"
        },
        {
          "indexed": false,
          "internalType": "uint256",
          "name": "newDueDate",
          "type": "uint256"
        }
      ],
      "name": "LeaseDueDateChanged",
      "type": "event"
    },
    {
      "anonymous": false,
      "inputs": [
        {
          "indexed": false,
          "internalType": "uint256",
          "name": "leaseId",
          "type": "uint256"
        },
        {
          "indexed": false,
          "internalType": "uint256",
          "name": "endDate",
          "type": "uint256"
        },
        {
          "indexed": false,
          "internalType": "uint256",
          "name": "rentAmount",
          "type": "uint256"
        },
        {
          "indexed": false,
          "internalType": "uint256",
          "name": "extensionCount",
          "type": "uint256"
        }
      ],
      "name": "LeaseExtended",
      "type": "event"
    },
    {
      "anonymous": false,
      "inputs": [
        {
          "indexed": false,
          "internalType": "address",
          "name": "fundsManager",
          "type": "address"
        }
      ],
      "name": "LeaseFundsManagerSet",
      "type": "event"
    },
    {
      "anonymous": false,
      "inputs": [
        {
          "indexed": false,
          "internalType": "uint256",
          "name": "leaseId",
          "type": "uint256"
        },
        {
          "indexed": false,
          "internalType": "uint256",
          "name": "amount",
          "type": "uint256"
        },
        {
          "indexed": false,
          "internalType": "uint256",
          "name": "unclaimedRentAmount",
          "type": "uint256"
        }
      ],
      "name": "LeasePaymentMade",
      "type": "event"
    },
    {
      "anonymous": false,
      "inputs": [
        {
          "indexed": false,
          "internalType": "address",
          "name": "paymentToken",
          "type": "address"
        }
      ],
      "name": "LeasePaymentTokenSet",
      "type": "event"
    },
    {
      "anonymous": false,
      "inputs": [
        {
          "indexed": false,
          "internalType": "uint256",
          "name": "leaseId",
          "type": "uint256"
        },
        {
          "indexed": false,
          "internalType": "uint256",
          "name": "lessorAmount",
          "type": "uint256"
        },
        {
          "indexed": false,
          "internalType": "uint256",
          "name": "agentAmount",
          "type": "uint256"
        },
        {
          "indexed": false,
          "internalType": "uint256",
          "name": "distributableDate",
          "type": "uint256"
        },
        {
          "indexed": false,
          "internalType": "uint256",
          "name": "timestamp",
          "type": "uint256"
        }
      ],
      "name": "LeaseRentDistributed",
      "type": "event"
    },
    {
      "anonymous": false,
      "inputs": [
        {
          "indexed": false,
          "internalType": "uint256",
          "name": "leaseId",
          "type": "uint256"
        }
      ],
      "name": "LeaseTerminated",
      "type": "event"
    },
    {
      "inputs": [
        {
          "internalType": "uint256",
          "name": "_leaseId",
          "type": "uint256"
        },
        {
          "internalType": "address",
          "name": "_agent",
          "type": "address"
        },
        {
          "internalType": "uint8",
          "name": "_percentage",
          "type": "uint8"
        }
      ],
      "name": "addAgent",
      "outputs": [],
      "stateMutability": "nonpayable",
      "type": "function"
    },
    {
      "inputs": [
        {
          "internalType": "uint256",
          "name": "_leaseId",
          "type": "uint256"
        }
      ],
      "name": "calculateRentPaymentInfo",
      "outputs": [
        {
          "components": [
            {
              "internalType": "uint256",
              "name": "rentAmount",
              "type": "uint256"
            },
            {
              "internalType": "uint256",
              "name": "totalBalance",
              "type": "uint256"
            },
            {
              "internalType": "uint32",
              "name": "unpaidMonths",
              "type": "uint32"
            },
            {
              "internalType": "uint256",
              "name": "rentDueDate",
              "type": "uint256"
            }
          ],
          "internalType": "struct LeaseAgreement.RentPaymentInfo",
          "name": "rentInfo",
          "type": "tuple"
        }
      ],
      "stateMutability": "view",
      "type": "function"
    },
    {
      "inputs": [
        {
          "internalType": "address",
          "name": "_lessee",
          "type": "address"
        },
        {
          "internalType": "uint256",
          "name": "_startDate",
          "type": "uint256"
        },
        {
          "internalType": "uint256",
          "name": "_endDate",
          "type": "uint256"
        },
        {
          "internalType": "uint256",
          "name": "_rentAmount",
          "type": "uint256"
        },
        {
          "internalType": "uint256",
          "name": "_securityDepositAmount",
          "type": "uint256"
        },
        {
          "internalType": "uint256",
          "name": "_propertyTokenId",
          "type": "uint256"
        },
        {
          "internalType": "uint256",
          "name": "_latePaymentFee",
          "type": "uint256"
        },
        {
          "internalType": "uint32",
          "name": "_gracePeriod",
          "type": "uint32"
        }
      ],
      "name": "createLease",
      "outputs": [],
      "stateMutability": "nonpayable",
      "type": "function"
    },
    {
      "inputs": [],
      "name": "deedNFT",
      "outputs": [
        {
          "internalType": "contract DeedNFT",
          "name": "",
          "type": "address"
        }
      ],
      "stateMutability": "view",
      "type": "function"
    },
    {
      "inputs": [
        {
          "internalType": "uint256",
          "name": "_leaseId",
          "type": "uint256"
        }
      ],
      "name": "distributeRent",
      "outputs": [],
      "stateMutability": "nonpayable",
      "type": "function"
    },
    {
      "inputs": [
        {
          "internalType": "uint256",
          "name": "_leaseId",
          "type": "uint256"
        },
        {
          "internalType": "uint256",
          "name": "_extensionPeriod",
          "type": "uint256"
        }
      ],
      "name": "extendLease",
      "outputs": [],
      "stateMutability": "nonpayable",
      "type": "function"
    },
    {
      "inputs": [],
      "name": "fundsManager",
      "outputs": [
        {
          "internalType": "contract FundsManager",
          "name": "",
          "type": "address"
        }
      ],
      "stateMutability": "view",
      "type": "function"
    },
    {
      "inputs": [],
      "name": "leaseCounter",
      "outputs": [
        {
          "internalType": "uint256",
          "name": "",
          "type": "uint256"
        }
      ],
      "stateMutability": "view",
      "type": "function"
    },
    {
      "inputs": [],
      "name": "leaseNFT",
      "outputs": [
        {
          "internalType": "contract ILeaseNFT",
          "name": "",
          "type": "address"
        }
      ],
      "stateMutability": "view",
      "type": "function"
    },
    {
      "inputs": [
        {
          "internalType": "uint256",
          "name": "",
          "type": "uint256"
        }
      ],
      "name": "leases",
      "outputs": [
        {
          "internalType": "address",
          "name": "lessor",
          "type": "address"
        },
        {
          "internalType": "address",
          "name": "lessee",
          "type": "address"
        },
        {
          "internalType": "uint256",
          "name": "rentAmount",
          "type": "uint256"
        },
        {
          "components": [
            {
              "internalType": "uint256",
              "name": "amount",
              "type": "uint256"
            },
            {
              "internalType": "bool",
              "name": "paid",
              "type": "bool"
            }
          ],
          "internalType": "struct LeaseAgreement.Deposit",
          "name": "securityDeposit",
          "type": "tuple"
        },
        {
          "internalType": "uint256",
          "name": "latePaymentFee",
          "type": "uint256"
        },
        {
          "internalType": "uint32",
          "name": "gracePeriod",
          "type": "uint32"
        },
        {
          "components": [
            {
              "internalType": "uint256",
              "name": "startDate",
              "type": "uint256"
            },
            {
              "internalType": "uint256",
              "name": "endDate",
              "type": "uint256"
            },
            {
              "internalType": "uint256",
              "name": "rentDueDate",
              "type": "uint256"
            },
            {
              "internalType": "uint256",
              "name": "distributableDate",
              "type": "uint256"
            }
          ],
          "internalType": "struct LeaseAgreement.LeaseDates",
          "name": "dates",
          "type": "tuple"
        },
        {
          "internalType": "uint256",
          "name": "extensionCount",
          "type": "uint256"
        },
        {
          "internalType": "uint256",
          "name": "propertyTokenId",
          "type": "uint256"
        },
        {
          "internalType": "address",
          "name": "agent",
          "type": "address"
        },
        {
          "internalType": "uint8",
          "name": "agentPercentage",
          "type": "uint8"
        },
        {
          "internalType": "uint256",
          "name": "unclaimedRentAmount",
          "type": "uint256"
        }
      ],
      "stateMutability": "view",
      "type": "function"
    },
    {
      "inputs": [
        {
          "internalType": "uint256",
          "name": "_leaseId",
          "type": "uint256"
        }
      ],
      "name": "payRent",
      "outputs": [],
      "stateMutability": "nonpayable",
      "type": "function"
    },
    {
      "inputs": [],
      "name": "paymentToken",
      "outputs": [
        {
          "internalType": "contract IERC20",
          "name": "",
          "type": "address"
        }
      ],
      "stateMutability": "view",
      "type": "function"
    },
    {
      "inputs": [
        {
          "internalType": "uint256",
          "name": "_leaseId",
          "type": "uint256"
        }
      ],
      "name": "removeAgent",
      "outputs": [],
      "stateMutability": "nonpayable",
      "type": "function"
    },
    {
      "inputs": [
        {
          "internalType": "uint256",
          "name": "_leaseId",
          "type": "uint256"
        },
        {
          "internalType": "uint256",
          "name": "_newDueDate",
          "type": "uint256"
        }
      ],
      "name": "setDueDate",
      "outputs": [],
      "stateMutability": "nonpayable",
      "type": "function"
    },
    {
      "inputs": [
        {
          "internalType": "address",
          "name": "_fundsManager",
          "type": "address"
        }
      ],
      "name": "setFundsManager",
      "outputs": [],
      "stateMutability": "nonpayable",
      "type": "function"
    },
    {
      "inputs": [
        {
          "internalType": "address",
          "name": "_paymentToken",
          "type": "address"
        }
      ],
      "name": "setPaymentToken",
      "outputs": [],
      "stateMutability": "nonpayable",
      "type": "function"
    },
    {
      "inputs": [],
      "name": "subdivisionNFT",
      "outputs": [
        {
          "internalType": "contract SubdivisionNFT",
          "name": "",
          "type": "address"
        }
      ],
      "stateMutability": "view",
      "type": "function"
    },
    {
      "inputs": [
        {
          "internalType": "uint256",
          "name": "_leaseId",
          "type": "uint256"
        }
      ],
      "name": "submitDeposit",
      "outputs": [],
      "stateMutability": "nonpayable",
      "type": "function"
    },
    {
      "inputs": [
        {
          "internalType": "uint256",
          "name": "_leaseId",
          "type": "uint256"
        }
      ],
      "name": "terminateLease",
      "outputs": [],
      "stateMutability": "nonpayable",
      "type": "function"
    }
  ],
  "transactionHash": "0x120e75ef5e72a5dba40c68b98ed79e13a8d01d20037e2d83f8963f688a16541c",
  "args": [
    "0x1323E965Da92a8FF36cF308e02b078F9023F3C8b",
    "0x2d467a24095B262787f58ce97d9B130ce7232B57",
    "0x9e4885D1399375870bBc3775F324B1AF9F653AAF",
    "0x8B5df1697E3d99F3d41ffd7B97CD2E8555Cf3D59",
    "0xC71F7B1cb487dC5518655C3874DC206E9F0D35E7"
  ],
  "numDeployments": 5,
  "solcInputHash": "7a4ede46c5f984d98a819db42e423ea5",
  "bytecode": "0x60806040523480156200001157600080fd5b506040516200252538038062002525833981016040819052620000349162000315565b60016000556001600160a01b038516620000a85760405162461bcd60e51b815260206004820152602a60248201527f5b4c656173652041677265656d656e745d20496e76616c6964204c656173654e6044820152694654206164647265737360b01b60648201526084015b60405180910390fd5b6001600160a01b038416620001155760405162461bcd60e51b815260206004820152602c60248201527f5b4c656173652041677265656d656e745d20496e76616c69642078446169207460448201526b6f6b656e206164647265737360a01b60648201526084016200009f565b6001600160a01b0383166200017f5760405162461bcd60e51b815260206004820152602960248201527f5b4c656173652041677265656d656e745d20496e76616c696420446565644e4660448201526854206164647265737360b81b60648201526084016200009f565b6001600160a01b038216620001f05760405162461bcd60e51b815260206004820152603060248201527f5b4c656173652041677265656d656e745d20496e76616c69642053756264697660448201526f6973696f6e4e4654206164647265737360801b60648201526084016200009f565b600380546001600160a01b038088166001600160a01b031992831617909255600580548684169083161790556006805492851692909116919091179055620002388462000254565b6200024381620002a9565b505060006002555062000385915050565b600480546001600160a01b0319166001600160a01b0383169081179091556040519081527ff316d79ea0865efd761a7a55594999c1d875d637946382fe22c8054d0fd76738906020015b60405180910390a150565b600780546001600160a01b0319166001600160a01b0383169081179091556040519081527fb0c676f9d7afa1a44d28b367dc30782ead78d7f8679914a2ba86d8565e6ba4d1906020016200029e565b80516001600160a01b03811681146200031057600080fd5b919050565b600080600080600060a086880312156200032e57600080fd5b6200033986620002f8565b94506200034960208701620002f8565b93506200035960408701620002f8565b92506200036960608701620002f8565b91506200037960808701620002f8565b90509295509295909350565b61219080620003956000396000f3fe608060405234801561001057600080fd5b50600436106101215760003560e01c806376a57da9116100ad578063b1a9cb1f11610071578063b1a9cb1f14610324578063c7f01cac14610370578063d9e8843f14610383578063dbeb201214610396578063f38eb110146103a957600080fd5b806376a57da9146101f4578063806d4a72146102075780638927a1061461021a57806399c7e2e8146102fe578063b049b40d1461031157600080fd5b80633abdb63d116100f45780633abdb63d146101955780633c29ce32146101a8578063588e00a5146101bb5780635e53e4fc146101ce5780636a326ab1146101e157600080fd5b806304368923146101265780630d116652146101425780632eb9f7881461016d5780633013ce2914610182575b600080fd5b61012f60025481565b6040519081526020015b60405180910390f35b600754610155906001600160a01b031681565b6040516001600160a01b039091168152602001610139565b61018061017b366004611e41565b6103bc565b005b600454610155906001600160a01b031681565b6101806101a3366004611e63565b61053b565b6101806101b6366004611e63565b610646565b6101806101c9366004611e63565b610a27565b600654610155906001600160a01b031681565b6101806101ef366004611e91565b610e05565b600354610155906001600160a01b031681565b610180610215366004611e41565b610e5a565b6102e6610228366004611e63565b60016020818152600092835260409283902080549281015460028201548551808701875260038401548152600484015460ff908116151582870152600585015460068601548951608081018b5260078801548152600888015498810198909852600987015499880199909952600a8601546060880152600b860154600c870154600d880154600e909801546001600160a01b039a8b169b978b169a96999598939763ffffffff16969294919392831692600160a01b9004909116908c565b6040516101399c9b9a99989796959493929190611eae565b61018061030c366004611e91565b6110a8565b61018061031f366004611f61565b6110f6565b610337610332366004611e63565b611586565b6040516101399190815181526020808301519082015260408083015163ffffffff16908201526060918201519181019190915260800190565b600554610155906001600160a01b031681565b610180610391366004611e63565b61169b565b6101806103a4366004611e63565b61198f565b6101806103b7366004611fdd565b611b6e565b600082815260016020526040902080546001600160a01b0316336001600160a01b03161461044c5760405162461bcd60e51b815260206004820152603260248201527f5b4c656173652041677265656d656e745d204f6e6c7920746865204c6573736f604482015271722063616e2073657420647565206461746560701b60648201526084015b60405180910390fd5b61045a622835c0600161203b565b60098201546104699190612052565b8210156104f55760405162461bcd60e51b815260206004820152604e60248201527f5b4c656173652041677265656d656e745d204e65772072656e7420647565206460448201527f617465206d757374206265206174206c656173742061206d6f6e74682061667460648201526d65722063757272656e74206f6e6560901b608482015260a401610443565b6009810182905560408051848152602081018490527f73cbadd90979700c98b0b0afcdb764c8e7f9ef93fed005c4c56b518cadf16c5e91015b60405180910390a1505050565b600081815260016020526040902080546001600160a01b0316336001600160a01b0316148061057f5750600d8101546001600160a01b0316336001600160a01b0316145b6105fd5760405162461bcd60e51b815260206004820152604360248201527f5b4c656173652041677265656d656e745d206f6e6c7920746865204c6573736f60448201527f72206f7220746865204167656e742063616e2072656d6f766520746865204167606482015262195b9d60ea1b608482015260a401610443565b600d810180546001600160a81b03191690556040518281527f0540bbb37573216745eb48a44ed32130826b55add66000fd372744dafe9839c49060200160405180910390a15050565b61064e611cda565b600081815260016020526040902080546001600160a01b0316336001600160a01b031614806106925750600d8101546001600160a01b0316336001600160a01b0316145b6107045760405162461bcd60e51b815260206004820152603860248201527f5b4c656173652041677265656d656e745d2043616c6c6572206d75737420626560448201527f20746865204c6573736f72206f7220746865204167656e7400000000000000006064820152608401610443565b600081600e0154116107685760405162461bcd60e51b815260206004820152602760248201527f5b4c656173652041677265656d656e745d204e6f2072656e7420746f206469736044820152667472696275746560c81b6064820152608401610443565b600a81015460009042116107f75760405162461bcd60e51b815260206004820152604a60248201527f5b4c656173652041677265656d656e745d2052656e742063616e206f6e6c792060448201527f62652064697374726962757465642070617374207468652064697374726962756064820152697461626c65206461746560b01b608482015260a401610443565b610805622835c0600161203b565b600a8301546108149042612065565b61081e9190612078565b610829906001612052565b600e830154600d840154919250906000906001600160a01b0316156108f257600d84015460649061086490600160a01b900460ff168461203b565b61086e9190612078565b60075460048054600d880154604051631f91981f60e31b81529283018a90526001600160a01b03918216602484015263ffffffff851660448401528116606483015292935091169063fc8cc0f890608401600060405180830381600087803b1580156108d957600080fd5b505af11580156108ed573d6000803e3d6000fd5b505050505b60006108fe8284612065565b600754600480548854604051631f91981f60e31b81529283018b90526001600160a01b03918216602484015263ffffffff851660448401528116606483015292935091169063fc8cc0f890608401600060405180830381600087803b15801561096657600080fd5b505af115801561097a573d6000803e3d6000fd5b50506000600e880155506109949050622835c0600161203b565b61099e908561203b565b600a860180546000906109b2908490612052565b9091555050600a8501546040805188815263ffffffff808516602083015285169181019190915260608101919091524260808201527fca7acf90700b58a2ac1015ec8e4ba3cefd7f1728f745950965293d473549fb509060a0015b60405180910390a15050505050610a246001600055565b50565b610a2f611cda565b600081815260016020526040902080546001600160a01b0316336001600160a01b031614610ac55760405162461bcd60e51b815260206004820152603960248201527f5b4c656173652041677265656d656e745d204f6e6c7920746865204c6573736f60448201527f722063616e207465726d696e61746520746865206c65617365000000000000006064820152608401610443565b6007810154421015610b2d5760405162461bcd60e51b815260206004820152602b60248201527f5b4c656173652041677265656d656e745d204c6561736520686173206e6f742060448201526a1cdd185c9d1959081e595d60aa1b6064820152608401610443565b6000610b3883611586565b905060006003826040015163ffffffff1610159050600081610b675760018401546001600160a01b0316610b73565b83546001600160a01b03165b600754600480546003880154604051631f91981f60e31b81529495506001600160a01b039384169463fc8cc0f894610bb4948c94909116929188910161209a565b600060405180830381600087803b158015610bce57600080fd5b505af1158015610be2573d6000803e3d6000fd5b505060075460048054604051631b2b776160e11b81529182018a90526001600160a01b039081166024830152600094509091169150633656eec290604401602060405180830381865afa158015610c3d573d6000803e3d6000fd5b505050506040513d601f19601f82011682018060405250810190610c6191906120c1565b90508015610cda57600754600480548754604051631f91981f60e31b81526001600160a01b039485169463fc8cc0f894610ca7948d94908316938993909116910161209a565b600060405180830381600087803b158015610cc157600080fd5b505af1158015610cd5573d6000803e3d6000fd5b505050505b600354604051630852cd8d60e31b8152600481018890526001600160a01b03909116906342966c6890602401600060405180830381600087803b158015610d2057600080fd5b505af1158015610d34573d6000803e3d6000fd5b505050600087815260016020818152604080842080546001600160a01b031990811682559381018054909416909355600283018490556003830184905560048301805460ff191690556005830184905560068301805463ffffffff19169055600783018490556008830184905560098301849055600a8301849055600b8301849055600c8301849055600d830180546001600160a81b0319169055600e90920192909255518881527f903320d9d82a125a682f110695a1306646295d73a1f595ea334d198446086d8c925001610a0d565b600480546001600160a01b0319166001600160a01b0383169081179091556040519081527ff316d79ea0865efd761a7a55594999c1d875d637946382fe22c8054d0fd76738906020015b60405180910390a150565b6000828152600160208190526040909120908101546001600160a01b0316336001600160a01b031614610eee5760405162461bcd60e51b815260206004820152603660248201527f5b4c656173652041677265656d656e745d204f6e6c7920746865204c65737365604482015275652063616e20657874656e6420746865206c6561736560501b6064820152608401610443565b6008810154610f0190623b538090612065565b421015610f845760405162461bcd60e51b815260206004820152604560248201527f5b4c656173652041677265656d656e745d20457874656e73696f6e2063616e2060448201527f6f6e6c792062652072657175657374656420696e20746865206c617374203435606482015264206461797360d81b608482015260a401610443565b600281600b015410610fed5760405162461bcd60e51b815260206004820152602c60248201527f5b4c656173652041677265656d656e745d204d6178696d756d20657874656e7360448201526b1a5bdb9cc81c995858da195960a21b6064820152608401610443565b818160070160010160008282546110049190612052565b9091555050600281015460649061101c90600361203b565b6110269190612078565b8160020160008282546110399190612052565b9091555050600b81018054906000611050836120da565b909155505060088101546002820154600b83015460408051878152602081019490945283019190915260608201527f33687519bb2ab0520901057529f171472e2a36ae6179d81a50e5cc40798fe3049060800161052e565b600780546001600160a01b0319166001600160a01b0383169081179091556040519081527fb0c676f9d7afa1a44d28b367dc30782ead78d7f8679914a2ba86d8565e6ba4d190602001610e4f565b6001600160a01b03881661115d5760405162461bcd60e51b815260206004820152602860248201527f5b4c656173652041677265656d656e745d20496e76616c6964206c6573736565604482015267206164647265737360c01b6064820152608401610443565b8587106111c25760405162461bcd60e51b815260206004820152602d60248201527f5b4c656173652041677265656d656e745d20496e76616c69642073746172742060448201526c616e6420656e6420646174657360981b6064820152608401610443565b6111d0622835c0600161203b565b6111da8888612065565b116112585760405162461bcd60e51b815260206004820152604260248201527f5b4c656173652041677265656d656e745d20456e64206461746520616e64207360448201527f7461727420646174652073686f756c642062652031206d6f6e746820617070616064820152611c9d60f21b608482015260a401610443565b60038163ffffffff16101561126c57600080fd5b600f82111561127a57600080fd5b60006112863385611d33565b905060006112943386611dc4565b9050818061129f5750805b6113065760405162461bcd60e51b815260206004820152603260248201527f5b4c656173652041677265656d656e745d204c6573736f72206d757374206f776044820152711b881d1a19481c1c9bdc195c9d1e4813919560721b6064820152608401610443565b600280549081906000611318836120da565b90915550506000818152600160205260409020338160000160006101000a8154816001600160a01b0302191690836001600160a01b031602179055508b8160010160006101000a8154816001600160a01b0302191690836001600160a01b031602179055508a8160070160000181905550898160070160010181905550888160020181905550878160030160000181905550622835c060016113ba919061203b565b6113c4908c612052565b60098201556000600b820155600c8101879055600481018054891560ff199091161790556005810186905560068101805463ffffffff191663ffffffff87161790556003546001600160a01b03166340c10f19336040516001600160e01b031960e084901b1681526001600160a01b03909116600482015260248101859052604401600060405180830381600087803b15801561146057600080fd5b505af1158015611474573d6000803e3d6000fd5b505050506009810154600a82018190556040805184815283546001600160a01b03908116602083015260018501548116828401526002850154606083015260038501546080830152600485015460ff908116151560a080850191909152600587015460c0850152600687015463ffffffff1660e0850152600787015461010085015260088701546101208501526101408401869052610160840195909552600b860154610180840152600c8601546101a0840152600d8601549182166101c0840152931c9092166101e0830152600e830154610200830152517f83c011ee35382a2e7fc715cbbe60efbe406451362671050c0b3d9c3709f8d1b8918190036102200190a1505050505050505050505050565b6115b760405180608001604052806000815260200160008152602001600063ffffffff168152602001600081525090565b60008281526001602052604090206002810154825260068101546115e49063ffffffff16620151806120f3565b60098201546115f99163ffffffff1690612052565b42111561168657606481600501548260020154611616919061203b565b6116209190612078565b8251839061162f908390612052565b905250611640622835c0600161203b565b600982015461164f9042612065565b6116599190612078565b611664906001612052565b63ffffffff1660408301819052825161167c9161203b565b6020830152611695565b60016040830152815160208301525b50919050565b6116a3611cda565b6000818152600160208190526040909120908101546001600160a01b0316336001600160a01b03161461172f5760405162461bcd60e51b815260206004820152602e60248201527f5b4c656173652041677265656d656e745d204f6e6c7920746865204c6573736560448201526d194818d85b881c185e481c995b9d60921b6064820152608401610443565b600481015460ff166117a15760405162461bcd60e51b815260206004820152603560248201527f5b4c656173652041677265656d656e745d205365637572697479206465706f736044820152741a5d081b5d5cdd081899481c185a5908199a5c9cdd605a1b6064820152608401610443565b600781015442108015906117b9575060088101544211155b6118195760405162461bcd60e51b815260206004820152602b60248201527f5b4c656173652041677265656d656e745d204f757473696465206f66206c656160448201526a39b290323ab930ba34b7b760a91b6064820152608401610443565b600061182483611586565b9050806020015182600e01600082825461183e9190612052565b909155506118529050622835c0600161203b565b816040015163ffffffff16611867919061203b565b60098301805460009061187b908490612052565b9091555050600754600480546020840151604051634671b0e360e01b81526001600160a01b0394851694634671b0e3946118bc948a9492169233910161209a565b600060405180830381600087803b1580156118d657600080fd5b505af11580156118ea573d6000803e3d6000fd5b50505060098301546040517f73cbadd90979700c98b0b0afcdb764c8e7f9ef93fed005c4c56b518cadf16c5e925061192a91868252602082015260400190565b60405180910390a16020810151600e8301546040517f3238c0c9490ceb260a0b0b63c836df59652b9d663e364c9155ee07bfea24f3f09261197b928783526020830191909152604082015260600190565b60405180910390a15050610a246001600055565b611997611cda565b6000818152600160208190526040909120908101546001600160a01b0316336001600160a01b031614611a325760405162461bcd60e51b815260206004820152603860248201527f5b4c656173652041677265656d656e745d204f6e6c7920746865204c6573736560448201527f652063616e207375626d697420746865206465706f73697400000000000000006064820152608401610443565b600481015460ff1615611a9f5760405162461bcd60e51b815260206004820152602f60248201527f5b4c656173652041677265656d656e745d205365637572697479206465706f7360448201526e1a5d08185b1c9958591e481c185a59608a1b6064820152608401610443565b600754600480546003840154604051634671b0e360e01b81526001600160a01b0394851694634671b0e394611adb94899492169233910161209a565b600060405180830381600087803b158015611af557600080fd5b505af1158015611b09573d6000803e3d6000fd5b50505060048201805460ff191660011790555060038101546040517fdf8484d85a50945d4406aa408d13dbbe5b5c8e89da96e4c19cd0e855baadd8b691611b5b91859190918252602082015260400190565b60405180910390a150610a246001600055565b600083815260016020526040902080546001600160a01b0316336001600160a01b031614611bfa5760405162461bcd60e51b815260206004820152603360248201527f5b4c656173652041677265656d656e745d204f6e6c7920746865204c6573736f6044820152721c8818d85b881cd95d081d1a19481059d95b9d606a1b6064820152608401610443565b60648260ff161115611c615760405162461bcd60e51b815260206004820152602a60248201527f5b4c656173652041677265656d656e745d20496e76616c6964206167656e742060448201526970657263656e7461676560b01b6064820152608401610443565b600d810180546001600160a01b0385166001600160a81b03199091168117600160a01b60ff8616908102919091179092556040805187815260208101929092528101919091527fc7a8e7ae5ebbb2c0d99074e5be2fb4119a1144376d9a8694125a9300b110939f9060600160405180910390a150505050565b600260005403611d2c5760405162461bcd60e51b815260206004820152601f60248201527f5265656e7472616e637947756172643a207265656e7472616e742063616c6c006044820152606401610443565b6002600055565b6005546040516331a9108f60e11b8152600481018390526000916001600160a01b031690636352211e90602401602060405180830381865afa925050508015611d99575060408051601f3d908101601f19168201909252611d969181019061211b565b60015b611da557506000611dbe565b836001600160a01b0316816001600160a01b0316149150505b92915050565b600654604051631ae3d99d60e11b81526001600160a01b0384811660048301526024820184905260009216906335c7b33a90604401602060405180830381865afa158015611e16573d6000803e3d6000fd5b505050506040513d601f19601f82011682018060405250810190611e3a9190612138565b9392505050565b60008060408385031215611e5457600080fd5b50508035926020909101359150565b600060208284031215611e7557600080fd5b5035919050565b6001600160a01b0381168114610a2457600080fd5b600060208284031215611ea357600080fd5b8135611e3a81611e7c565b6001600160a01b038d811682528c16602080830191909152604082018c90528a5160608301528a01511515608082015260a0810189905263ffffffff881660c08201526102008101875160e08301526020880151610100830152604088015161012083015260608801516101408301528661016083015285610180830152611f426101a08301866001600160a01b03169052565b60ff939093166101c08201526101e001529a9950505050505050505050565b600080600080600080600080610100898b031215611f7e57600080fd5b8835611f8981611e7c565b97506020890135965060408901359550606089013594506080890135935060a0890135925060c0890135915060e089013563ffffffff81168114611fcc57600080fd5b809150509295985092959890939650565b600080600060608486031215611ff257600080fd5b83359250602084013561200481611e7c565b9150604084013560ff8116811461201a57600080fd5b809150509250925092565b634e487b7160e01b600052601160045260246000fd5b8082028115828204841417611dbe57611dbe612025565b80820180821115611dbe57611dbe612025565b81810381811115611dbe57611dbe612025565b60008261209557634e487b7160e01b600052601260045260246000fd5b500490565b9384526001600160a01b039283166020850152604084019190915216606082015260800190565b6000602082840312156120d357600080fd5b5051919050565b6000600182016120ec576120ec612025565b5060010190565b63ffffffff81811683821602808216919082811461211357612113612025565b505092915050565b60006020828403121561212d57600080fd5b8151611e3a81611e7c565b60006020828403121561214a57600080fd5b81518015158114611e3a57600080fdfea2646970667358221220fba273289c8307353afb827db0aec42479b3d664f86f4f9a7fe587e0c9e0c21464736f6c63430008110033",
  "devdoc": {
    "kind": "dev",
    "methods": {},
    "version": 1
  },
  "userdoc": {
    "kind": "user",
    "methods": {},
    "version": 1
  },
  "storageLayout": {
    "storage": [
      {
        "astId": 512,
        "contract": "contracts/LeaseAgreement.sol:LeaseAgreement",
        "label": "_status",
        "offset": 0,
        "slot": "0",
        "type": "t_uint256"
      },
      {
        "astId": 5651,
        "contract": "contracts/LeaseAgreement.sol:LeaseAgreement",
        "label": "leases",
        "offset": 0,
        "slot": "1",
        "type": "t_mapping(t_uint256,t_struct(Lease)5637_storage)"
      },
      {
        "astId": 5653,
        "contract": "contracts/LeaseAgreement.sol:LeaseAgreement",
        "label": "leaseCounter",
        "offset": 0,
        "slot": "2",
        "type": "t_uint256"
      },
      {
        "astId": 5656,
        "contract": "contracts/LeaseAgreement.sol:LeaseAgreement",
        "label": "leaseNFT",
        "offset": 0,
        "slot": "3",
        "type": "t_contract(ILeaseNFT)5589"
      },
      {
        "astId": 5659,
        "contract": "contracts/LeaseAgreement.sol:LeaseAgreement",
        "label": "paymentToken",
        "offset": 0,
        "slot": "4",
        "type": "t_contract(IERC20)2034"
      },
      {
        "astId": 5662,
        "contract": "contracts/LeaseAgreement.sol:LeaseAgreement",
        "label": "deedNFT",
        "offset": 0,
        "slot": "5",
        "type": "t_contract(DeedNFT)5325"
      },
      {
        "astId": 5665,
        "contract": "contracts/LeaseAgreement.sol:LeaseAgreement",
        "label": "subdivisionNFT",
        "offset": 0,
        "slot": "6",
        "type": "t_contract(SubdivisionNFT)7322"
      },
      {
        "astId": 5668,
        "contract": "contracts/LeaseAgreement.sol:LeaseAgreement",
        "label": "fundsManager",
        "offset": 0,
        "slot": "7",
        "type": "t_contract(FundsManager)5568"
      }
    ],
    "types": {
      "t_address": {
        "encoding": "inplace",
        "label": "address",
        "numberOfBytes": "20"
      },
      "t_bool": {
        "encoding": "inplace",
        "label": "bool",
        "numberOfBytes": "1"
      },
      "t_contract(DeedNFT)5325": {
        "encoding": "inplace",
        "label": "contract DeedNFT",
        "numberOfBytes": "20"
      },
      "t_contract(FundsManager)5568": {
        "encoding": "inplace",
        "label": "contract FundsManager",
        "numberOfBytes": "20"
      },
      "t_contract(IERC20)2034": {
        "encoding": "inplace",
        "label": "contract IERC20",
        "numberOfBytes": "20"
      },
      "t_contract(ILeaseNFT)5589": {
        "encoding": "inplace",
        "label": "contract ILeaseNFT",
        "numberOfBytes": "20"
      },
      "t_contract(SubdivisionNFT)7322": {
        "encoding": "inplace",
        "label": "contract SubdivisionNFT",
        "numberOfBytes": "20"
      },
      "t_mapping(t_uint256,t_struct(Lease)5637_storage)": {
        "encoding": "mapping",
        "key": "t_uint256",
        "label": "mapping(uint256 => struct LeaseAgreement.Lease)",
        "numberOfBytes": "32",
        "value": "t_struct(Lease)5637_storage"
      },
      "t_struct(Deposit)5610_storage": {
        "encoding": "inplace",
        "label": "struct LeaseAgreement.Deposit",
        "members": [
          {
            "astId": 5607,
            "contract": "contracts/LeaseAgreement.sol:LeaseAgreement",
            "label": "amount",
            "offset": 0,
            "slot": "0",
            "type": "t_uint256"
          },
          {
            "astId": 5609,
            "contract": "contracts/LeaseAgreement.sol:LeaseAgreement",
            "label": "paid",
            "offset": 0,
            "slot": "1",
            "type": "t_bool"
          }
        ],
        "numberOfBytes": "64"
      },
      "t_struct(Lease)5637_storage": {
        "encoding": "inplace",
        "label": "struct LeaseAgreement.Lease",
        "members": [
          {
            "astId": 5612,
            "contract": "contracts/LeaseAgreement.sol:LeaseAgreement",
            "label": "lessor",
            "offset": 0,
            "slot": "0",
            "type": "t_address"
          },
          {
            "astId": 5614,
            "contract": "contracts/LeaseAgreement.sol:LeaseAgreement",
            "label": "lessee",
            "offset": 0,
            "slot": "1",
            "type": "t_address"
          },
          {
            "astId": 5616,
            "contract": "contracts/LeaseAgreement.sol:LeaseAgreement",
            "label": "rentAmount",
            "offset": 0,
            "slot": "2",
            "type": "t_uint256"
          },
          {
            "astId": 5619,
            "contract": "contracts/LeaseAgreement.sol:LeaseAgreement",
            "label": "securityDeposit",
            "offset": 0,
            "slot": "3",
            "type": "t_struct(Deposit)5610_storage"
          },
          {
            "astId": 5621,
            "contract": "contracts/LeaseAgreement.sol:LeaseAgreement",
            "label": "latePaymentFee",
            "offset": 0,
            "slot": "5",
            "type": "t_uint256"
          },
          {
            "astId": 5623,
            "contract": "contracts/LeaseAgreement.sol:LeaseAgreement",
            "label": "gracePeriod",
            "offset": 0,
            "slot": "6",
            "type": "t_uint32"
          },
          {
            "astId": 5626,
            "contract": "contracts/LeaseAgreement.sol:LeaseAgreement",
            "label": "dates",
            "offset": 0,
            "slot": "7",
            "type": "t_struct(LeaseDates)5605_storage"
          },
          {
            "astId": 5628,
            "contract": "contracts/LeaseAgreement.sol:LeaseAgreement",
            "label": "extensionCount",
            "offset": 0,
            "slot": "11",
            "type": "t_uint256"
          },
          {
            "astId": 5630,
            "contract": "contracts/LeaseAgreement.sol:LeaseAgreement",
            "label": "propertyTokenId",
            "offset": 0,
            "slot": "12",
            "type": "t_uint256"
          },
          {
            "astId": 5632,
            "contract": "contracts/LeaseAgreement.sol:LeaseAgreement",
            "label": "agent",
            "offset": 0,
            "slot": "13",
            "type": "t_address"
          },
          {
            "astId": 5634,
            "contract": "contracts/LeaseAgreement.sol:LeaseAgreement",
            "label": "agentPercentage",
            "offset": 20,
            "slot": "13",
            "type": "t_uint8"
          },
          {
            "astId": 5636,
            "contract": "contracts/LeaseAgreement.sol:LeaseAgreement",
            "label": "unclaimedRentAmount",
            "offset": 0,
            "slot": "14",
            "type": "t_uint256"
          }
        ],
        "numberOfBytes": "480"
      },
      "t_struct(LeaseDates)5605_storage": {
        "encoding": "inplace",
        "label": "struct LeaseAgreement.LeaseDates",
        "members": [
          {
            "astId": 5598,
            "contract": "contracts/LeaseAgreement.sol:LeaseAgreement",
            "label": "startDate",
            "offset": 0,
            "slot": "0",
            "type": "t_uint256"
          },
          {
            "astId": 5600,
            "contract": "contracts/LeaseAgreement.sol:LeaseAgreement",
            "label": "endDate",
            "offset": 0,
            "slot": "1",
            "type": "t_uint256"
          },
          {
            "astId": 5602,
            "contract": "contracts/LeaseAgreement.sol:LeaseAgreement",
            "label": "rentDueDate",
            "offset": 0,
            "slot": "2",
            "type": "t_uint256"
          },
          {
            "astId": 5604,
            "contract": "contracts/LeaseAgreement.sol:LeaseAgreement",
            "label": "distributableDate",
            "offset": 0,
            "slot": "3",
            "type": "t_uint256"
          }
        ],
        "numberOfBytes": "128"
      },
      "t_uint256": {
        "encoding": "inplace",
        "label": "uint256",
        "numberOfBytes": "32"
      },
      "t_uint32": {
        "encoding": "inplace",
        "label": "uint32",
        "numberOfBytes": "4"
      },
      "t_uint8": {
        "encoding": "inplace",
        "label": "uint8",
        "numberOfBytes": "1"
      }
    }
  }
}