{
  "address": "0xC1A4F476954014ccc467eB7a31c9345238BFb16b",
  "abi": [
    {
      "inputs": [
        {
          "internalType": "address",
          "name": "_leaseNFT",
          "type": "address"
        },
        {
          "internalType": "address",
          "name": "_paymentToken",
          "type": "address"
        },
        {
          "internalType": "address",
          "name": "_deedNFT",
          "type": "address"
        },
        {
          "internalType": "address",
          "name": "_subdivisionNFT",
          "type": "address"
        },
        {
          "internalType": "address",
          "name": "_fundsManager",
          "type": "address"
        }
      ],
      "stateMutability": "nonpayable",
      "type": "constructor"
    },
    {
      "anonymous": false,
      "inputs": [
        {
          "indexed": false,
          "internalType": "uint256",
          "name": "leaseId",
          "type": "uint256"
        }
      ],
      "name": "AgentRemoved",
      "type": "event"
    },
    {
      "anonymous": false,
      "inputs": [
        {
          "indexed": false,
          "internalType": "uint256",
          "name": "leaseId",
          "type": "uint256"
        },
        {
          "indexed": false,
          "internalType": "address",
          "name": "agent",
          "type": "address"
        },
        {
          "indexed": false,
          "internalType": "uint256",
          "name": "percentage",
          "type": "uint256"
        }
      ],
      "name": "AgentSet",
      "type": "event"
    },
    {
      "anonymous": false,
      "inputs": [
        {
          "indexed": false,
          "internalType": "uint256",
          "name": "leaseId",
          "type": "uint256"
        },
        {
          "indexed": false,
          "internalType": "uint256",
          "name": "newDueDate",
          "type": "uint256"
        }
      ],
      "name": "DueDateChanged",
      "type": "event"
    },
    {
      "anonymous": false,
      "inputs": [
        {
          "indexed": false,
          "internalType": "address",
          "name": "fundsManager",
          "type": "address"
        }
      ],
      "name": "FundsManagerSet",
      "type": "event"
    },
    {
      "anonymous": false,
      "inputs": [
        {
          "indexed": false,
          "internalType": "uint256",
          "name": "leaseId",
          "type": "uint256"
        }
      ],
      "name": "LeaseCreated",
      "type": "event"
    },
    {
      "anonymous": false,
      "inputs": [
        {
          "indexed": false,
          "internalType": "uint256",
          "name": "leaseId",
          "type": "uint256"
        }
      ],
      "name": "LeaseTerminated",
      "type": "event"
    },
    {
      "anonymous": false,
      "inputs": [
        {
          "indexed": false,
          "internalType": "uint256",
          "name": "leaseId",
          "type": "uint256"
        },
        {
          "indexed": false,
          "internalType": "uint256",
          "name": "amount",
          "type": "uint256"
        }
      ],
      "name": "PaymentMade",
      "type": "event"
    },
    {
      "anonymous": false,
      "inputs": [
        {
          "indexed": false,
          "internalType": "uint256",
          "name": "leaseId",
          "type": "uint256"
        },
        {
          "indexed": false,
          "internalType": "uint256",
          "name": "lessorAmount",
          "type": "uint256"
        },
        {
          "indexed": false,
          "internalType": "uint256",
          "name": "agentAmount",
          "type": "uint256"
        },
        {
          "indexed": false,
          "internalType": "uint256",
          "name": "timestamp",
          "type": "uint256"
        }
      ],
      "name": "RentDistributed",
      "type": "event"
    },
    {
      "inputs": [
        {
          "internalType": "uint256",
          "name": "leaseId",
          "type": "uint256"
        }
      ],
      "name": "calculateRentPaymentInfo",
      "outputs": [
        {
          "components": [
            {
              "internalType": "uint256",
              "name": "rentAmount",
              "type": "uint256"
            },
            {
              "internalType": "uint256",
              "name": "totalBalance",
              "type": "uint256"
            },
            {
              "internalType": "uint32",
              "name": "unpaidMonths",
              "type": "uint32"
            },
            {
              "internalType": "uint256",
              "name": "rentDueDate",
              "type": "uint256"
            }
          ],
          "internalType": "struct LeaseAgreement.RentPaymentInfo",
          "name": "rentInfo",
          "type": "tuple"
        }
      ],
      "stateMutability": "view",
      "type": "function"
    },
    {
      "inputs": [
        {
          "internalType": "address",
          "name": "_lessee",
          "type": "address"
        },
        {
          "internalType": "uint256",
          "name": "_startDate",
          "type": "uint256"
        },
        {
          "internalType": "uint256",
          "name": "_endDate",
          "type": "uint256"
        },
        {
          "internalType": "uint256",
          "name": "_rentAmount",
          "type": "uint256"
        },
        {
          "internalType": "uint256",
          "name": "_securityDepositAmount",
          "type": "uint256"
        },
        {
          "internalType": "uint256",
          "name": "_propertyTokenId",
          "type": "uint256"
        },
        {
          "internalType": "uint256",
          "name": "_latePaymentFee",
          "type": "uint256"
        },
        {
          "internalType": "uint32",
          "name": "_gracePeriod",
          "type": "uint32"
        }
      ],
      "name": "createLease",
      "outputs": [],
      "stateMutability": "nonpayable",
      "type": "function"
    },
    {
      "inputs": [],
      "name": "deedNFT",
      "outputs": [
        {
          "internalType": "contract DeedNFT",
          "name": "",
          "type": "address"
        }
      ],
      "stateMutability": "view",
      "type": "function"
    },
    {
      "inputs": [
        {
          "internalType": "uint256",
          "name": "leaseId",
          "type": "uint256"
        }
      ],
      "name": "distributeRent",
      "outputs": [],
      "stateMutability": "nonpayable",
      "type": "function"
    },
    {
      "inputs": [
        {
          "internalType": "uint256",
          "name": "leaseId",
          "type": "uint256"
        },
        {
          "internalType": "uint256",
          "name": "extensionPeriod",
          "type": "uint256"
        }
      ],
      "name": "extendLease",
      "outputs": [],
      "stateMutability": "nonpayable",
      "type": "function"
    },
    {
      "inputs": [],
      "name": "fundsManager",
      "outputs": [
        {
          "internalType": "contract FundsManager",
          "name": "",
          "type": "address"
        }
      ],
      "stateMutability": "view",
      "type": "function"
    },
    {
      "inputs": [],
      "name": "leaseCounter",
      "outputs": [
        {
          "internalType": "uint256",
          "name": "",
          "type": "uint256"
        }
      ],
      "stateMutability": "view",
      "type": "function"
    },
    {
      "inputs": [],
      "name": "leaseNFT",
      "outputs": [
        {
          "internalType": "contract ILeaseNFT",
          "name": "",
          "type": "address"
        }
      ],
      "stateMutability": "view",
      "type": "function"
    },
    {
      "inputs": [
        {
          "internalType": "uint256",
          "name": "",
          "type": "uint256"
        }
      ],
      "name": "leases",
      "outputs": [
        {
          "internalType": "address",
          "name": "lessor",
          "type": "address"
        },
        {
          "internalType": "address",
          "name": "lessee",
          "type": "address"
        },
        {
          "internalType": "uint256",
          "name": "rentAmount",
          "type": "uint256"
        },
        {
          "components": [
            {
              "internalType": "uint256",
              "name": "amount",
              "type": "uint256"
            },
            {
              "internalType": "bool",
              "name": "paid",
              "type": "bool"
            }
          ],
          "internalType": "struct LeaseAgreement.Deposit",
          "name": "securityDeposit",
          "type": "tuple"
        },
        {
          "internalType": "uint256",
          "name": "latePaymentFee",
          "type": "uint256"
        },
        {
          "internalType": "uint32",
          "name": "gracePeriod",
          "type": "uint32"
        },
        {
          "components": [
            {
              "internalType": "uint256",
              "name": "startDate",
              "type": "uint256"
            },
            {
              "internalType": "uint256",
              "name": "endDate",
              "type": "uint256"
            },
            {
              "internalType": "uint256",
              "name": "rentDueDate",
              "type": "uint256"
            },
            {
              "internalType": "uint256",
              "name": "distributableDate",
              "type": "uint256"
            }
          ],
          "internalType": "struct LeaseAgreement.LeaseDates",
          "name": "dates",
          "type": "tuple"
        },
        {
          "internalType": "uint256",
          "name": "extensionCount",
          "type": "uint256"
        },
        {
          "internalType": "uint256",
          "name": "propertyTokenId",
          "type": "uint256"
        },
        {
          "internalType": "address",
          "name": "agent",
          "type": "address"
        },
        {
          "internalType": "uint8",
          "name": "agentPercentage",
          "type": "uint8"
        },
        {
          "internalType": "uint256",
          "name": "unclaimedRentAmount",
          "type": "uint256"
        }
      ],
      "stateMutability": "view",
      "type": "function"
    },
    {
      "inputs": [
        {
          "internalType": "uint256",
          "name": "_leaseId",
          "type": "uint256"
        }
      ],
      "name": "payRent",
      "outputs": [],
      "stateMutability": "nonpayable",
      "type": "function"
    },
    {
      "inputs": [],
      "name": "paymentToken",
      "outputs": [
        {
          "internalType": "contract IERC20",
          "name": "",
          "type": "address"
        }
      ],
      "stateMutability": "view",
      "type": "function"
    },
    {
      "inputs": [
        {
          "internalType": "uint256",
          "name": "leaseId",
          "type": "uint256"
        }
      ],
      "name": "removeAgent",
      "outputs": [],
      "stateMutability": "nonpayable",
      "type": "function"
    },
    {
      "inputs": [
        {
          "internalType": "uint256",
          "name": "leaseId",
          "type": "uint256"
        },
        {
          "internalType": "address",
          "name": "_agent",
          "type": "address"
        },
        {
          "internalType": "uint8",
          "name": "_percentage",
          "type": "uint8"
        }
      ],
      "name": "setAgent",
      "outputs": [],
      "stateMutability": "nonpayable",
      "type": "function"
    },
    {
      "inputs": [
        {
          "internalType": "uint256",
          "name": "_leaseId",
          "type": "uint256"
        },
        {
          "internalType": "uint256",
          "name": "_newDueDate",
          "type": "uint256"
        }
      ],
      "name": "setDueDate",
      "outputs": [],
      "stateMutability": "nonpayable",
      "type": "function"
    },
    {
      "inputs": [
        {
          "internalType": "address",
          "name": "_fundsManager",
          "type": "address"
        }
      ],
      "name": "setFundsManager",
      "outputs": [],
      "stateMutability": "nonpayable",
      "type": "function"
    },
    {
      "inputs": [],
      "name": "subdivisionNFT",
      "outputs": [
        {
          "internalType": "contract SubdivisionNFT",
          "name": "",
          "type": "address"
        }
      ],
      "stateMutability": "view",
      "type": "function"
    },
    {
      "inputs": [
        {
          "internalType": "uint256",
          "name": "leaseId",
          "type": "uint256"
        }
      ],
      "name": "submitDeposit",
      "outputs": [],
      "stateMutability": "nonpayable",
      "type": "function"
    },
    {
      "inputs": [
        {
          "internalType": "uint256",
          "name": "leaseId",
          "type": "uint256"
        }
      ],
      "name": "terminateLease",
      "outputs": [],
      "stateMutability": "nonpayable",
      "type": "function"
    }
  ],
  "transactionHash": "0x6385de42c3ae83f516e3a75a8587ab9a6bb5b99b7925c5711448763098dd6a19",
  "args": [
    "0xe854CE12372002BAB69bcb43CE08B2af9aCA5164",
    "0x2d467a24095B262787f58ce97d9B130ce7232B57",
    "0x53DaE5F925a230f0bcb6ec62F6c92AeDF965d8e1",
    "0x1654FAaD6D9E8457fE578ad1EC7d7a92d43751ad",
    "0x17537ba48b0AD82c59A0fe95Cd24cfDC28C9506d"
  ],
  "numDeployments": 1,
  "solcInputHash": "ea504505a6bfd045cb9e3e645519f273",
  "bytecode": "0x60806040523480156200001157600080fd5b506040516200229b3803806200229b8339810160408190526200003491620002c7565b60016000556001600160a01b038516620000a85760405162461bcd60e51b815260206004820152602a60248201527f5b4c656173652041677265656d656e745d20496e76616c6964204c656173654e6044820152694654206164647265737360b01b60648201526084015b60405180910390fd5b6001600160a01b038416620001155760405162461bcd60e51b815260206004820152602c60248201527f5b4c656173652041677265656d656e745d20496e76616c69642078446169207460448201526b6f6b656e206164647265737360a01b60648201526084016200009f565b6001600160a01b0383166200017f5760405162461bcd60e51b815260206004820152602960248201527f5b4c656173652041677265656d656e745d20496e76616c696420446565644e4660448201526854206164647265737360b81b60648201526084016200009f565b6001600160a01b038216620001f05760405162461bcd60e51b815260206004820152603060248201527f5b4c656173652041677265656d656e745d20496e76616c69642053756264697660448201526f6973696f6e4e4654206164647265737360801b60648201526084016200009f565b600380546001600160a01b038088166001600160a01b03199283161790925560048054878416908316179055600580548684169083161790556006805492851692909116919091179055620002458162000256565b505060006002555062000337915050565b600780546001600160a01b0319166001600160a01b0383169081179091556040519081527fc397eeaf510a492077cc768e93a68e564ff24984314623cc03ac433cd446a3599060200160405180910390a150565b80516001600160a01b0381168114620002c257600080fd5b919050565b600080600080600060a08688031215620002e057600080fd5b620002eb86620002aa565b9450620002fb60208701620002aa565b93506200030b60408701620002aa565b92506200031b60608701620002aa565b91506200032b60808701620002aa565b90509295509295909350565b611f5480620003476000396000f3fe608060405234801561001057600080fd5b50600436106101165760003560e01c8063806d4a72116100a2578063b1a9cb1f11610071578063b1a9cb1f14610306578063c7f01cac14610352578063d9e8843f14610365578063dbeb201214610378578063ec96f16c1461038b57600080fd5b8063806d4a72146101e95780638927a106146101fc57806399c7e2e8146102e0578063b049b40d146102f357600080fd5b80633abdb63d116100e95780633abdb63d1461018a5780633c29ce321461019d578063588e00a5146101b05780635e53e4fc146101c357806376a57da9146101d657600080fd5b8063043689231461011b5780630d116652146101375780632eb9f788146101625780633013ce2914610177575b600080fd5b61012460025481565b6040519081526020015b60405180910390f35b60075461014a906001600160a01b031681565b6040516001600160a01b03909116815260200161012e565b610175610170366004611c05565b61039e565b005b60045461014a906001600160a01b031681565b610175610198366004611c27565b610513565b6101756101ab366004611c27565b61060c565b6101756101be366004611c27565b6109ce565b60065461014a906001600160a01b031681565b60035461014a906001600160a01b031681565b6101756101f7366004611c05565b610da3565b6102c861020a366004611c27565b60016020818152600092835260409283902080549281015460028201548551808701875260038401548152600484015460ff908116151582870152600585015460068601548951608081018b5260078801548152600888015498810198909852600987015499880199909952600a8601546060880152600b860154600c870154600d880154600e909801546001600160a01b039a8b169b978b169a96999598939763ffffffff16969294919392831692600160a01b9004909116908c565b60405161012e9c9b9a99989796959493929190611c40565b6101756102ee366004611d08565b610f9a565b610175610301366004611d25565b610fee565b610319610314366004611c27565b6113b7565b60405161012e9190815181526020808301519082015260408083015163ffffffff16908201526060918201519181019190915260800190565b60055461014a906001600160a01b031681565b610175610373366004611c27565b6114cc565b610175610386366004611c27565b6117ac565b610175610399366004611da1565b61193b565b600082815260016020526040902080546001600160a01b031633146104255760405162461bcd60e51b815260206004820152603260248201527f5b4c656173652041677265656d656e745d204f6e6c7920746865204c6573736f604482015271722063616e2073657420647565206461746560701b60648201526084015b60405180910390fd5b610433622835c06001611dff565b60098201546104429190611e16565b8210156104ce5760405162461bcd60e51b815260206004820152604e60248201527f5b4c656173652041677265656d656e745d204e65772072656e7420647565206460448201527f617465206d757374206265206174206c656173742061206d6f6e74682061667460648201526d65722063757272656e74206f6e6560901b608482015260a40161041c565b6009810182905560408051848152602081018490527ff3aa3a4b4037868185dea8cc957157def464ac0dbc8ae5f432059c290bd94d9b910160405180910390a1505050565b600081815260016020526040902080546001600160a01b03163314806105455750600d8101546001600160a01b031633145b6105c35760405162461bcd60e51b815260206004820152604360248201527f5b4c656173652041677265656d656e745d206f6e6c7920746865204c6573736f60448201527f72206f7220746865204167656e742063616e2072656d6f766520746865204167606482015262195b9d60ea1b608482015260a40161041c565b600d810180546001600160a81b03191690556040518281527f9be1bdc9b9cee420b2d72cb0766cda507569d0e2b16bc96c5e66be4f875859179060200160405180910390a15050565b610614611a9e565b600081815260016020526040902080546001600160a01b03163314806106465750600d8101546001600160a01b031633145b6106b85760405162461bcd60e51b815260206004820152603860248201527f5b4c656173652041677265656d656e745d2043616c6c6572206d75737420626560448201527f20746865204c6573736f72206f7220746865204167656e740000000000000000606482015260840161041c565b600081600e01541161071c5760405162461bcd60e51b815260206004820152602760248201527f5b4c656173652041677265656d656e745d204e6f2072656e7420746f206469736044820152667472696275746560c81b606482015260840161041c565b600a81015460009042116107ab5760405162461bcd60e51b815260206004820152604a60248201527f5b4c656173652041677265656d656e745d2052656e742063616e206f6e6c792060448201527f62652064697374726962757465642070617374207468652064697374726962756064820152697461626c65206461746560b01b608482015260a40161041c565b6107b9622835c06001611dff565b600a8301546107c89042611e29565b6107d29190611e3c565b6107dd906001611e16565b600e830154600d840154919250906000906001600160a01b0316156108a657600d84015460649061081890600160a01b900460ff1684611dff565b6108229190611e3c565b60075460048054600d880154604051631f91981f60e31b81529283018a90526001600160a01b03918216602484015263ffffffff851660448401528116606483015292935091169063fc8cc0f890608401600060405180830381600087803b15801561088d57600080fd5b505af11580156108a1573d6000803e3d6000fd5b505050505b60006108b28284611e29565b600754600480548854604051631f91981f60e31b81529283018b90526001600160a01b03918216602484015263ffffffff851660448401528116606483015292935091169063fc8cc0f890608401600060405180830381600087803b15801561091a57600080fd5b505af115801561092e573d6000803e3d6000fd5b50506000600e880155506109489050622835c06001611dff565b6109529085611dff565b600a86018054600090610966908490611e16565b90915550506040805187815263ffffffff80841660208301528416918101919091524260608201527f8f4f1990135f578a27bb9cb597213a52bbb131954aacb42061d824a4735811c6906080015b60405180910390a150505050506109cb6001600055565b50565b6109d6611a9e565b600081815260016020526040902080546001600160a01b03163314610a635760405162461bcd60e51b815260206004820152603960248201527f5b4c656173652041677265656d656e745d204f6e6c7920746865204c6573736f60448201527f722063616e207465726d696e61746520746865206c6561736500000000000000606482015260840161041c565b6007810154421015610acb5760405162461bcd60e51b815260206004820152602b60248201527f5b4c656173652041677265656d656e745d204c6561736520686173206e6f742060448201526a1cdd185c9d1959081e595d60aa1b606482015260840161041c565b6000610ad6836113b7565b905060006003826040015163ffffffff1610159050600081610b055760018401546001600160a01b0316610b11565b83546001600160a01b03165b600754600480546003880154604051631f91981f60e31b81529495506001600160a01b039384169463fc8cc0f894610b52948c949091169291889101611e5e565b600060405180830381600087803b158015610b6c57600080fd5b505af1158015610b80573d6000803e3d6000fd5b505060075460048054604051631b2b776160e11b81529182018a90526001600160a01b039081166024830152600094509091169150633656eec290604401602060405180830381865afa158015610bdb573d6000803e3d6000fd5b505050506040513d601f19601f82011682018060405250810190610bff9190611e85565b90508015610c7857600754600480548754604051631f91981f60e31b81526001600160a01b039485169463fc8cc0f894610c45948d949083169389939091169101611e5e565b600060405180830381600087803b158015610c5f57600080fd5b505af1158015610c73573d6000803e3d6000fd5b505050505b600354604051630852cd8d60e31b8152600481018890526001600160a01b03909116906342966c6890602401600060405180830381600087803b158015610cbe57600080fd5b505af1158015610cd2573d6000803e3d6000fd5b505050600087815260016020818152604080842080546001600160a01b031990811682559381018054909416909355600283018490556003830184905560048301805460ff191690556005830184905560068301805463ffffffff19169055600783018490556008830184905560098301849055600a8301849055600b8301849055600c8301849055600d830180546001600160a81b0319169055600e90920192909255518881527f903320d9d82a125a682f110695a1306646295d73a1f595ea334d198446086d8c9250016109b4565b6000828152600160208190526040909120908101546001600160a01b03163314610e2e5760405162461bcd60e51b815260206004820152603660248201527f5b4c656173652041677265656d656e745d204f6e6c7920746865204c65737365604482015275652063616e20657874656e6420746865206c6561736560501b606482015260840161041c565b6008810154610e4190623b538090611e29565b421015610ec45760405162461bcd60e51b815260206004820152604560248201527f5b4c656173652041677265656d656e745d20457874656e73696f6e2063616e2060448201527f6f6e6c792062652072657175657374656420696e20746865206c617374203435606482015264206461797360d81b608482015260a40161041c565b600281600b015410610f2d5760405162461bcd60e51b815260206004820152602c60248201527f5b4c656173652041677265656d656e745d204d6178696d756d20657874656e7360448201526b1a5bdb9cc81c995858da195960a21b606482015260840161041c565b81816007016001016000828254610f449190611e16565b90915550506002810154606490610f5c906003611dff565b610f669190611e3c565b816002016000828254610f799190611e16565b9091555050600b81018054906000610f9083611e9e565b9190505550505050565b600780546001600160a01b0319166001600160a01b0383169081179091556040519081527fc397eeaf510a492077cc768e93a68e564ff24984314623cc03ac433cd446a3599060200160405180910390a150565b6001600160a01b0388166110555760405162461bcd60e51b815260206004820152602860248201527f5b4c656173652041677265656d656e745d20496e76616c6964206c6573736565604482015267206164647265737360c01b606482015260840161041c565b8587106110ba5760405162461bcd60e51b815260206004820152602d60248201527f5b4c656173652041677265656d656e745d20496e76616c69642073746172742060448201526c616e6420656e6420646174657360981b606482015260840161041c565b6110c8622835c06001611dff565b6110d28888611e29565b116111505760405162461bcd60e51b815260206004820152604260248201527f5b4c656173652041677265656d656e745d20456e64206461746520616e64207360448201527f7461727420646174652073686f756c642062652031206d6f6e746820617070616064820152611c9d60f21b608482015260a40161041c565b60038163ffffffff16101561116457600080fd5b600f82111561117257600080fd5b600061117e3385611af7565b9050600061118c3386611b88565b905081806111975750805b6111fe5760405162461bcd60e51b815260206004820152603260248201527f5b4c656173652041677265656d656e745d204c6573736f72206d757374206f776044820152711b881d1a19481c1c9bdc195c9d1e4813919560721b606482015260840161041c565b60028054908190600061121083611e9e565b91905055506000600160008381526020019081526020016000209050338160000160006101000a8154816001600160a01b0302191690836001600160a01b031602179055508b8160010160006101000a8154816001600160a01b0302191690836001600160a01b031602179055508a8160070160000181905550898160070160010181905550888160020181905550878160030160000181905550622835c060016112bb9190611dff565b6112c5908c611e16565b60098201556000600b820155600c8101879055600480820180548a1560ff199091161790556005820187905560068201805463ffffffff191663ffffffff8816179055600354604051630f38ca0d60e31b81523392810192909252602482018490526001600160a01b0316906379c6506890604401600060405180830381600087803b15801561135457600080fd5b505af1158015611368573d6000803e3d6000fd5b505050506009810154600a8201556040518281527f238b084dad7a3ce57ab3285fd5f2822eeb24f9d0c48faeeb0f62a71b0fba6f8e9060200160405180910390a1505050505050505050505050565b6113e860405180608001604052806000815260200160008152602001600063ffffffff168152602001600081525090565b60008281526001602052604090206002810154825260068101546114159063ffffffff1662015180611eb7565b600982015461142a9163ffffffff1690611e16565b4211156114b7576064816005015482600201546114479190611dff565b6114519190611e3c565b82518390611460908390611e16565b905250611471622835c06001611dff565b60098201546114809042611e29565b61148a9190611e3c565b611495906001611e16565b63ffffffff166040830181905282516114ad91611dff565b60208301526114c6565b60016040830152815160208301525b50919050565b6114d4611a9e565b6000818152600160208190526040909120908101546001600160a01b031633146115575760405162461bcd60e51b815260206004820152602e60248201527f5b4c656173652041677265656d656e745d204f6e6c7920746865204c6573736560448201526d194818d85b881c185e481c995b9d60921b606482015260840161041c565b600481015460ff166115c95760405162461bcd60e51b815260206004820152603560248201527f5b4c656173652041677265656d656e745d205365637572697479206465706f736044820152741a5d081b5d5cdd081899481c185a5908199a5c9cdd605a1b606482015260840161041c565b600781015442108015906115e1575060088101544211155b6116415760405162461bcd60e51b815260206004820152602b60248201527f5b4c656173652041677265656d656e745d204f757473696465206f66206c656160448201526a39b290323ab930ba34b7b760a91b606482015260840161041c565b600061164c836113b7565b9050806020015182600e0160008282546116669190611e16565b9091555061167a9050622835c06001611dff565b816040015163ffffffff1661168f9190611dff565b6009830180546000906116a3908490611e16565b9091555050600754600480546020840151604051634671b0e360e01b81526001600160a01b0394851694634671b0e3946116e4948a94921692339101611e5e565b600060405180830381600087803b1580156116fe57600080fd5b505af1158015611712573d6000803e3d6000fd5b50505060098301546040517ff3aa3a4b4037868185dea8cc957157def464ac0dbc8ae5f432059c290bd94d9b925061175291868252602082015260400190565b60405180910390a17f0e9e4ec6fa83fe2a2893fd5d6517a890df20f72cc0ba40495b21e65d12223503838260200151604051611798929190918252602082015260400190565b60405180910390a150506109cb6001600055565b6117b4611a9e565b6000818152600160208190526040909120908101546001600160a01b031633146118465760405162461bcd60e51b815260206004820152603860248201527f5b4c656173652041677265656d656e745d204f6e6c7920746865204c6573736560448201527f652063616e207375626d697420746865206465706f7369740000000000000000606482015260840161041c565b600481015460ff16156118b35760405162461bcd60e51b815260206004820152602f60248201527f5b4c656173652041677265656d656e745d205365637572697479206465706f7360448201526e1a5d08185b1c9958591e481c185a59608a1b606482015260840161041c565b600754600480546003840154604051634671b0e360e01b81526001600160a01b0394851694634671b0e3946118ef948994921692339101611e5e565b600060405180830381600087803b15801561190957600080fd5b505af115801561191d573d6000803e3d6000fd5b5050506004909101805460ff19166001179055506109cb6001600055565b600083815260016020526040902080546001600160a01b031633146119be5760405162461bcd60e51b815260206004820152603360248201527f5b4c656173652041677265656d656e745d204f6e6c7920746865204c6573736f6044820152721c8818d85b881cd95d081d1a19481059d95b9d606a1b606482015260840161041c565b60648260ff161115611a255760405162461bcd60e51b815260206004820152602a60248201527f5b4c656173652041677265656d656e745d20496e76616c6964206167656e742060448201526970657263656e7461676560b01b606482015260840161041c565b600d810180546001600160a01b0385166001600160a81b03199091168117600160a01b60ff8616908102919091179092556040805187815260208101929092528101919091527fc21e6a3464584627b5a17d3256c554a5861d0d3005e188d5ae319632cb62b3829060600160405180910390a150505050565b600260005403611af05760405162461bcd60e51b815260206004820152601f60248201527f5265656e7472616e637947756172643a207265656e7472616e742063616c6c00604482015260640161041c565b6002600055565b6005546040516331a9108f60e11b8152600481018390526000916001600160a01b031690636352211e90602401602060405180830381865afa925050508015611b5d575060408051601f3d908101601f19168201909252611b5a91810190611edf565b60015b611b6957506000611b82565b836001600160a01b0316816001600160a01b0316149150505b92915050565b600654604051631ae3d99d60e11b81526001600160a01b0384811660048301526024820184905260009216906335c7b33a90604401602060405180830381865afa158015611bda573d6000803e3d6000fd5b505050506040513d601f19601f82011682018060405250810190611bfe9190611efc565b9392505050565b60008060408385031215611c1857600080fd5b50508035926020909101359150565b600060208284031215611c3957600080fd5b5035919050565b6001600160a01b038d811682528c16602080830191909152604082018c90528a5160608301528a01511515608082015260a0810189905263ffffffff881660c08201526102008101875160e08301526020880151610100830152604088015161012083015260608801516101408301528661016083015285610180830152611cd46101a08301866001600160a01b03169052565b60ff939093166101c08201526101e001529a9950505050505050505050565b6001600160a01b03811681146109cb57600080fd5b600060208284031215611d1a57600080fd5b8135611bfe81611cf3565b600080600080600080600080610100898b031215611d4257600080fd5b8835611d4d81611cf3565b97506020890135965060408901359550606089013594506080890135935060a0890135925060c0890135915060e089013563ffffffff81168114611d9057600080fd5b809150509295985092959890939650565b600080600060608486031215611db657600080fd5b833592506020840135611dc881611cf3565b9150604084013560ff81168114611dde57600080fd5b809150509250925092565b634e487b7160e01b600052601160045260246000fd5b8082028115828204841417611b8257611b82611de9565b80820180821115611b8257611b82611de9565b81810381811115611b8257611b82611de9565b600082611e5957634e487b7160e01b600052601260045260246000fd5b500490565b9384526001600160a01b039283166020850152604084019190915216606082015260800190565b600060208284031215611e9757600080fd5b5051919050565b600060018201611eb057611eb0611de9565b5060010190565b63ffffffff818116838216028082169190828114611ed757611ed7611de9565b505092915050565b600060208284031215611ef157600080fd5b8151611bfe81611cf3565b600060208284031215611f0e57600080fd5b81518015158114611bfe57600080fdfea26469706673582212200b0f5d172f11b2b00cdc4a2d681b216f024059af67f3bc8883116bcf26671ad864736f6c63430008110033",
  "devdoc": {
    "kind": "dev",
    "methods": {},
    "version": 1
  },
  "userdoc": {
    "kind": "user",
    "methods": {},
    "version": 1
  },
  "storageLayout": {
    "storage": [
      {
        "astId": 399,
        "contract": "contracts/LeaseAgreement.sol:LeaseAgreement",
        "label": "_status",
        "offset": 0,
        "slot": "0",
        "type": "t_uint256"
      },
      {
        "astId": 5460,
        "contract": "contracts/LeaseAgreement.sol:LeaseAgreement",
        "label": "leases",
        "offset": 0,
        "slot": "1",
        "type": "t_mapping(t_uint256,t_struct(Lease)5446_storage)"
      },
      {
        "astId": 5462,
        "contract": "contracts/LeaseAgreement.sol:LeaseAgreement",
        "label": "leaseCounter",
        "offset": 0,
        "slot": "2",
        "type": "t_uint256"
      },
      {
        "astId": 5465,
        "contract": "contracts/LeaseAgreement.sol:LeaseAgreement",
        "label": "leaseNFT",
        "offset": 0,
        "slot": "3",
        "type": "t_contract(ILeaseNFT)5400"
      },
      {
        "astId": 5468,
        "contract": "contracts/LeaseAgreement.sol:LeaseAgreement",
        "label": "paymentToken",
        "offset": 0,
        "slot": "4",
        "type": "t_contract(IERC20)1921"
      },
      {
        "astId": 5471,
        "contract": "contracts/LeaseAgreement.sol:LeaseAgreement",
        "label": "deedNFT",
        "offset": 0,
        "slot": "5",
        "type": "t_contract(DeedNFT)5138"
      },
      {
        "astId": 5474,
        "contract": "contracts/LeaseAgreement.sol:LeaseAgreement",
        "label": "subdivisionNFT",
        "offset": 0,
        "slot": "6",
        "type": "t_contract(SubdivisionNFT)6946"
      },
      {
        "astId": 5477,
        "contract": "contracts/LeaseAgreement.sol:LeaseAgreement",
        "label": "fundsManager",
        "offset": 0,
        "slot": "7",
        "type": "t_contract(FundsManager)5379"
      }
    ],
    "types": {
      "t_address": {
        "encoding": "inplace",
        "label": "address",
        "numberOfBytes": "20"
      },
      "t_bool": {
        "encoding": "inplace",
        "label": "bool",
        "numberOfBytes": "1"
      },
      "t_contract(DeedNFT)5138": {
        "encoding": "inplace",
        "label": "contract DeedNFT",
        "numberOfBytes": "20"
      },
      "t_contract(FundsManager)5379": {
        "encoding": "inplace",
        "label": "contract FundsManager",
        "numberOfBytes": "20"
      },
      "t_contract(IERC20)1921": {
        "encoding": "inplace",
        "label": "contract IERC20",
        "numberOfBytes": "20"
      },
      "t_contract(ILeaseNFT)5400": {
        "encoding": "inplace",
        "label": "contract ILeaseNFT",
        "numberOfBytes": "20"
      },
      "t_contract(SubdivisionNFT)6946": {
        "encoding": "inplace",
        "label": "contract SubdivisionNFT",
        "numberOfBytes": "20"
      },
      "t_mapping(t_uint256,t_struct(Lease)5446_storage)": {
        "encoding": "mapping",
        "key": "t_uint256",
        "label": "mapping(uint256 => struct LeaseAgreement.Lease)",
        "numberOfBytes": "32",
        "value": "t_struct(Lease)5446_storage"
      },
      "t_struct(Deposit)5419_storage": {
        "encoding": "inplace",
        "label": "struct LeaseAgreement.Deposit",
        "members": [
          {
            "astId": 5416,
            "contract": "contracts/LeaseAgreement.sol:LeaseAgreement",
            "label": "amount",
            "offset": 0,
            "slot": "0",
            "type": "t_uint256"
          },
          {
            "astId": 5418,
            "contract": "contracts/LeaseAgreement.sol:LeaseAgreement",
            "label": "paid",
            "offset": 0,
            "slot": "1",
            "type": "t_bool"
          }
        ],
        "numberOfBytes": "64"
      },
      "t_struct(Lease)5446_storage": {
        "encoding": "inplace",
        "label": "struct LeaseAgreement.Lease",
        "members": [
          {
            "astId": 5421,
            "contract": "contracts/LeaseAgreement.sol:LeaseAgreement",
            "label": "lessor",
            "offset": 0,
            "slot": "0",
            "type": "t_address"
          },
          {
            "astId": 5423,
            "contract": "contracts/LeaseAgreement.sol:LeaseAgreement",
            "label": "lessee",
            "offset": 0,
            "slot": "1",
            "type": "t_address"
          },
          {
            "astId": 5425,
            "contract": "contracts/LeaseAgreement.sol:LeaseAgreement",
            "label": "rentAmount",
            "offset": 0,
            "slot": "2",
            "type": "t_uint256"
          },
          {
            "astId": 5428,
            "contract": "contracts/LeaseAgreement.sol:LeaseAgreement",
            "label": "securityDeposit",
            "offset": 0,
            "slot": "3",
            "type": "t_struct(Deposit)5419_storage"
          },
          {
            "astId": 5430,
            "contract": "contracts/LeaseAgreement.sol:LeaseAgreement",
            "label": "latePaymentFee",
            "offset": 0,
            "slot": "5",
            "type": "t_uint256"
          },
          {
            "astId": 5432,
            "contract": "contracts/LeaseAgreement.sol:LeaseAgreement",
            "label": "gracePeriod",
            "offset": 0,
            "slot": "6",
            "type": "t_uint32"
          },
          {
            "astId": 5435,
            "contract": "contracts/LeaseAgreement.sol:LeaseAgreement",
            "label": "dates",
            "offset": 0,
            "slot": "7",
            "type": "t_struct(LeaseDates)5414_storage"
          },
          {
            "astId": 5437,
            "contract": "contracts/LeaseAgreement.sol:LeaseAgreement",
            "label": "extensionCount",
            "offset": 0,
            "slot": "11",
            "type": "t_uint256"
          },
          {
            "astId": 5439,
            "contract": "contracts/LeaseAgreement.sol:LeaseAgreement",
            "label": "propertyTokenId",
            "offset": 0,
            "slot": "12",
            "type": "t_uint256"
          },
          {
            "astId": 5441,
            "contract": "contracts/LeaseAgreement.sol:LeaseAgreement",
            "label": "agent",
            "offset": 0,
            "slot": "13",
            "type": "t_address"
          },
          {
            "astId": 5443,
            "contract": "contracts/LeaseAgreement.sol:LeaseAgreement",
            "label": "agentPercentage",
            "offset": 20,
            "slot": "13",
            "type": "t_uint8"
          },
          {
            "astId": 5445,
            "contract": "contracts/LeaseAgreement.sol:LeaseAgreement",
            "label": "unclaimedRentAmount",
            "offset": 0,
            "slot": "14",
            "type": "t_uint256"
          }
        ],
        "numberOfBytes": "480"
      },
      "t_struct(LeaseDates)5414_storage": {
        "encoding": "inplace",
        "label": "struct LeaseAgreement.LeaseDates",
        "members": [
          {
            "astId": 5407,
            "contract": "contracts/LeaseAgreement.sol:LeaseAgreement",
            "label": "startDate",
            "offset": 0,
            "slot": "0",
            "type": "t_uint256"
          },
          {
            "astId": 5409,
            "contract": "contracts/LeaseAgreement.sol:LeaseAgreement",
            "label": "endDate",
            "offset": 0,
            "slot": "1",
            "type": "t_uint256"
          },
          {
            "astId": 5411,
            "contract": "contracts/LeaseAgreement.sol:LeaseAgreement",
            "label": "rentDueDate",
            "offset": 0,
            "slot": "2",
            "type": "t_uint256"
          },
          {
            "astId": 5413,
            "contract": "contracts/LeaseAgreement.sol:LeaseAgreement",
            "label": "distributableDate",
            "offset": 0,
            "slot": "3",
            "type": "t_uint256"
          }
        ],
        "numberOfBytes": "128"
      },
      "t_uint256": {
        "encoding": "inplace",
        "label": "uint256",
        "numberOfBytes": "32"
      },
      "t_uint32": {
        "encoding": "inplace",
        "label": "uint32",
        "numberOfBytes": "4"
      },
      "t_uint8": {
        "encoding": "inplace",
        "label": "uint8",
        "numberOfBytes": "1"
      }
    }
  }
}