{
  "address": "0xA162E61A04f23C2B71a0001526A3472cCc0836A4",
  "abi": [
    {
      "inputs": [
        {
          "internalType": "address",
          "name": "_leaseNFT",
          "type": "address"
        },
        {
          "internalType": "address",
          "name": "_paymentToken",
          "type": "address"
        },
        {
          "internalType": "address",
          "name": "_deedNFT",
          "type": "address"
        },
        {
          "internalType": "address",
          "name": "_subdivisionNFT",
          "type": "address"
        },
        {
          "internalType": "address",
          "name": "_fundsManager",
          "type": "address"
        },
        {
          "internalType": "address",
          "name": "_accessManager",
          "type": "address"
        }
      ],
      "stateMutability": "nonpayable",
      "type": "constructor"
    },
    {
      "inputs": [],
      "name": "ReentrancyGuardReentrantCall",
      "type": "error"
    },
    {
      "anonymous": false,
      "inputs": [
        {
          "indexed": false,
          "internalType": "uint256",
          "name": "leaseId",
          "type": "uint256"
        },
        {
          "components": [
            {
              "internalType": "address[]",
              "name": "lesseeList",
              "type": "address[]"
            },
            {
              "internalType": "uint256",
              "name": "rentAmount",
              "type": "uint256"
            },
            {
              "components": [
                {
                  "internalType": "uint256",
                  "name": "amount",
                  "type": "uint256"
                },
                {
                  "internalType": "bool",
                  "name": "paid",
                  "type": "bool"
                }
              ],
              "internalType": "struct LeaseAgreement.Deposit",
              "name": "securityDeposit",
              "type": "tuple"
            },
            {
              "internalType": "uint256",
              "name": "latePaymentFee",
              "type": "uint256"
            },
            {
              "internalType": "uint32",
              "name": "gracePeriod",
              "type": "uint32"
            },
            {
              "components": [
                {
                  "internalType": "uint256",
                  "name": "startDate",
                  "type": "uint256"
                },
                {
                  "internalType": "uint256",
                  "name": "endDate",
                  "type": "uint256"
                },
                {
                  "internalType": "uint256",
                  "name": "rentDueDate",
                  "type": "uint256"
                },
                {
                  "internalType": "uint256",
                  "name": "distributableDate",
                  "type": "uint256"
                }
              ],
              "internalType": "struct LeaseAgreement.LeaseDates",
              "name": "dates",
              "type": "tuple"
            },
            {
              "internalType": "uint256",
              "name": "extensionCount",
              "type": "uint256"
            },
            {
              "internalType": "uint256",
              "name": "deedId",
              "type": "uint256"
            },
            {
              "internalType": "address",
              "name": "manager",
              "type": "address"
            },
            {
              "internalType": "uint8",
              "name": "managerPercentage",
              "type": "uint8"
            },
            {
              "internalType": "uint256",
              "name": "unclaimedRentAmount",
              "type": "uint256"
            },
            {
              "internalType": "bool",
              "name": "isArchived",
              "type": "bool"
            }
          ],
          "indexed": false,
          "internalType": "struct LeaseAgreement.Lease",
          "name": "lease",
          "type": "tuple"
        }
      ],
      "name": "LeaseCreated",
      "type": "event"
    },
    {
      "anonymous": false,
      "inputs": [
        {
          "indexed": false,
          "internalType": "uint256",
          "name": "leaseId",
          "type": "uint256"
        },
        {
          "indexed": false,
          "internalType": "uint256",
          "name": "amount",
          "type": "uint256"
        }
      ],
      "name": "LeaseDepositSubmited",
      "type": "event"
    },
    {
      "anonymous": false,
      "inputs": [
        {
          "indexed": false,
          "internalType": "uint256",
          "name": "leaseId",
          "type": "uint256"
        },
        {
          "indexed": false,
          "internalType": "uint256",
          "name": "newDueDate",
          "type": "uint256"
        }
      ],
      "name": "LeaseDueDateChanged",
      "type": "event"
    },
    {
      "anonymous": false,
      "inputs": [
        {
          "indexed": false,
          "internalType": "uint256",
          "name": "leaseId",
          "type": "uint256"
        },
        {
          "indexed": false,
          "internalType": "uint256",
          "name": "endDate",
          "type": "uint256"
        },
        {
          "indexed": false,
          "internalType": "uint256",
          "name": "rentAmount",
          "type": "uint256"
        },
        {
          "indexed": false,
          "internalType": "uint256",
          "name": "extensionCount",
          "type": "uint256"
        }
      ],
      "name": "LeaseExtended",
      "type": "event"
    },
    {
      "anonymous": false,
      "inputs": [
        {
          "indexed": false,
          "internalType": "address",
          "name": "fundsManager",
          "type": "address"
        }
      ],
      "name": "LeaseFundsManagerSet",
      "type": "event"
    },
    {
      "anonymous": false,
      "inputs": [
        {
          "indexed": false,
          "internalType": "uint256",
          "name": "leaseId",
          "type": "uint256"
        },
        {
          "indexed": false,
          "internalType": "address",
          "name": "manager",
          "type": "address"
        },
        {
          "indexed": false,
          "internalType": "uint256",
          "name": "percentage",
          "type": "uint256"
        }
      ],
      "name": "LeaseManagerSet",
      "type": "event"
    },
    {
      "anonymous": false,
      "inputs": [
        {
          "indexed": false,
          "internalType": "uint256",
          "name": "leaseId",
          "type": "uint256"
        }
      ],
      "name": "LeaseManagerUnset",
      "type": "event"
    },
    {
      "anonymous": false,
      "inputs": [
        {
          "indexed": false,
          "internalType": "uint256",
          "name": "leaseId",
          "type": "uint256"
        },
        {
          "indexed": false,
          "internalType": "uint256",
          "name": "amount",
          "type": "uint256"
        },
        {
          "indexed": false,
          "internalType": "uint256",
          "name": "unclaimedRentAmount",
          "type": "uint256"
        }
      ],
      "name": "LeasePaymentMade",
      "type": "event"
    },
    {
      "anonymous": false,
      "inputs": [
        {
          "indexed": false,
          "internalType": "address",
          "name": "paymentToken",
          "type": "address"
        }
      ],
      "name": "LeasePaymentTokenSet",
      "type": "event"
    },
    {
      "anonymous": false,
      "inputs": [
        {
          "indexed": false,
          "internalType": "uint256",
          "name": "leaseId",
          "type": "uint256"
        },
        {
          "indexed": false,
          "internalType": "uint256",
          "name": "lessorAmount",
          "type": "uint256"
        },
        {
          "indexed": false,
          "internalType": "uint256",
          "name": "managerAmount",
          "type": "uint256"
        },
        {
          "indexed": false,
          "internalType": "uint256",
          "name": "distributableDate",
          "type": "uint256"
        }
      ],
      "name": "LeaseRentDistributed",
      "type": "event"
    },
    {
      "anonymous": false,
      "inputs": [
        {
          "indexed": false,
          "internalType": "uint256",
          "name": "leaseId",
          "type": "uint256"
        }
      ],
      "name": "LeaseTerminated",
      "type": "event"
    },
    {
      "inputs": [
        {
          "internalType": "uint256",
          "name": "_leaseId",
          "type": "uint256"
        }
      ],
      "name": "burnLease",
      "outputs": [],
      "stateMutability": "nonpayable",
      "type": "function"
    },
    {
      "inputs": [
        {
          "internalType": "uint256",
          "name": "_leaseId",
          "type": "uint256"
        }
      ],
      "name": "calculateRentPaymentInfo",
      "outputs": [
        {
          "components": [
            {
              "internalType": "uint256",
              "name": "rentAmount",
              "type": "uint256"
            },
            {
              "internalType": "uint256",
              "name": "totalBalance",
              "type": "uint256"
            },
            {
              "internalType": "uint32",
              "name": "unpaidMonths",
              "type": "uint32"
            },
            {
              "internalType": "uint256",
              "name": "rentDueDate",
              "type": "uint256"
            }
          ],
          "internalType": "struct LeaseAgreement.RentPaymentInfo",
          "name": "rentInfo",
          "type": "tuple"
        }
      ],
      "stateMutability": "view",
      "type": "function"
    },
    {
      "inputs": [
        {
          "internalType": "address[]",
          "name": "_lesseeList",
          "type": "address[]"
        },
        {
          "internalType": "uint256",
          "name": "_startDate",
          "type": "uint256"
        },
        {
          "internalType": "uint256",
          "name": "_endDate",
          "type": "uint256"
        },
        {
          "internalType": "uint256",
          "name": "_rentAmount",
          "type": "uint256"
        },
        {
          "internalType": "uint256",
          "name": "_securityDepositAmount",
          "type": "uint256"
        },
        {
          "internalType": "uint256",
          "name": "_deedId",
          "type": "uint256"
        },
        {
          "internalType": "uint256",
          "name": "_latePaymentFee",
          "type": "uint256"
        },
        {
          "internalType": "uint32",
          "name": "_gracePeriod",
          "type": "uint32"
        }
      ],
      "name": "createLease",
      "outputs": [],
      "stateMutability": "nonpayable",
      "type": "function"
    },
    {
      "inputs": [],
      "name": "deedNFT",
      "outputs": [
        {
          "internalType": "contract DeedNFT",
          "name": "",
          "type": "address"
        }
      ],
      "stateMutability": "view",
      "type": "function"
    },
    {
      "inputs": [
        {
          "internalType": "uint256",
          "name": "_leaseId",
          "type": "uint256"
        }
      ],
      "name": "distributeRent",
      "outputs": [],
      "stateMutability": "nonpayable",
      "type": "function"
    },
    {
      "inputs": [
        {
          "internalType": "uint256",
          "name": "_leaseId",
          "type": "uint256"
        },
        {
          "internalType": "uint256",
          "name": "_extensionPeriod",
          "type": "uint256"
        }
      ],
      "name": "extendLease",
      "outputs": [],
      "stateMutability": "nonpayable",
      "type": "function"
    },
    {
      "inputs": [],
      "name": "fundsManager",
      "outputs": [
        {
          "internalType": "contract FundsManager",
          "name": "",
          "type": "address"
        }
      ],
      "stateMutability": "view",
      "type": "function"
    },
    {
      "inputs": [
        {
          "internalType": "uint256",
          "name": "_leaseId",
          "type": "uint256"
        }
      ],
      "name": "getLesseeList",
      "outputs": [
        {
          "internalType": "address[]",
          "name": "",
          "type": "address[]"
        }
      ],
      "stateMutability": "view",
      "type": "function"
    },
    {
      "inputs": [],
      "name": "hasAdminRole",
      "outputs": [
        {
          "internalType": "bool",
          "name": "",
          "type": "bool"
        }
      ],
      "stateMutability": "view",
      "type": "function"
    },
    {
      "inputs": [
        {
          "internalType": "bytes32",
          "name": "_role",
          "type": "bytes32"
        },
        {
          "internalType": "address",
          "name": "_address",
          "type": "address"
        }
      ],
      "name": "hasRole",
      "outputs": [
        {
          "internalType": "bool",
          "name": "",
          "type": "bool"
        }
      ],
      "stateMutability": "view",
      "type": "function"
    },
    {
      "inputs": [],
      "name": "hasValidatorRole",
      "outputs": [
        {
          "internalType": "bool",
          "name": "",
          "type": "bool"
        }
      ],
      "stateMutability": "view",
      "type": "function"
    },
    {
      "inputs": [],
      "name": "leaseCounter",
      "outputs": [
        {
          "internalType": "uint256",
          "name": "",
          "type": "uint256"
        }
      ],
      "stateMutability": "view",
      "type": "function"
    },
    {
      "inputs": [],
      "name": "leaseNFT",
      "outputs": [
        {
          "internalType": "contract LeaseNFT",
          "name": "",
          "type": "address"
        }
      ],
      "stateMutability": "view",
      "type": "function"
    },
    {
      "inputs": [
        {
          "internalType": "uint256",
          "name": "",
          "type": "uint256"
        }
      ],
      "name": "leases",
      "outputs": [
        {
          "internalType": "uint256",
          "name": "rentAmount",
          "type": "uint256"
        },
        {
          "components": [
            {
              "internalType": "uint256",
              "name": "amount",
              "type": "uint256"
            },
            {
              "internalType": "bool",
              "name": "paid",
              "type": "bool"
            }
          ],
          "internalType": "struct LeaseAgreement.Deposit",
          "name": "securityDeposit",
          "type": "tuple"
        },
        {
          "internalType": "uint256",
          "name": "latePaymentFee",
          "type": "uint256"
        },
        {
          "internalType": "uint32",
          "name": "gracePeriod",
          "type": "uint32"
        },
        {
          "components": [
            {
              "internalType": "uint256",
              "name": "startDate",
              "type": "uint256"
            },
            {
              "internalType": "uint256",
              "name": "endDate",
              "type": "uint256"
            },
            {
              "internalType": "uint256",
              "name": "rentDueDate",
              "type": "uint256"
            },
            {
              "internalType": "uint256",
              "name": "distributableDate",
              "type": "uint256"
            }
          ],
          "internalType": "struct LeaseAgreement.LeaseDates",
          "name": "dates",
          "type": "tuple"
        },
        {
          "internalType": "uint256",
          "name": "extensionCount",
          "type": "uint256"
        },
        {
          "internalType": "uint256",
          "name": "deedId",
          "type": "uint256"
        },
        {
          "internalType": "address",
          "name": "manager",
          "type": "address"
        },
        {
          "internalType": "uint8",
          "name": "managerPercentage",
          "type": "uint8"
        },
        {
          "internalType": "uint256",
          "name": "unclaimedRentAmount",
          "type": "uint256"
        },
        {
          "internalType": "bool",
          "name": "isArchived",
          "type": "bool"
        }
      ],
      "stateMutability": "view",
      "type": "function"
    },
    {
      "inputs": [
        {
          "internalType": "uint256",
          "name": "_leaseId",
          "type": "uint256"
        }
      ],
      "name": "payRent",
      "outputs": [],
      "stateMutability": "nonpayable",
      "type": "function"
    },
    {
      "inputs": [],
      "name": "paymentToken",
      "outputs": [
        {
          "internalType": "contract IERC20",
          "name": "",
          "type": "address"
        }
      ],
      "stateMutability": "view",
      "type": "function"
    },
    {
      "inputs": [
        {
          "internalType": "uint256",
          "name": "_leaseId",
          "type": "uint256"
        },
        {
          "internalType": "uint256",
          "name": "_newDueDate",
          "type": "uint256"
        }
      ],
      "name": "setDueDate",
      "outputs": [],
      "stateMutability": "nonpayable",
      "type": "function"
    },
    {
      "inputs": [
        {
          "internalType": "address",
          "name": "_fundsManager",
          "type": "address"
        }
      ],
      "name": "setFundsManager",
      "outputs": [],
      "stateMutability": "nonpayable",
      "type": "function"
    },
    {
      "inputs": [
        {
          "internalType": "uint256",
          "name": "_leaseId",
          "type": "uint256"
        },
        {
          "internalType": "address",
          "name": "_manager",
          "type": "address"
        },
        {
          "internalType": "uint8",
          "name": "_percentage",
          "type": "uint8"
        }
      ],
      "name": "setManager",
      "outputs": [],
      "stateMutability": "nonpayable",
      "type": "function"
    },
    {
      "inputs": [
        {
          "internalType": "address",
          "name": "_paymentToken",
          "type": "address"
        }
      ],
      "name": "setPaymentToken",
      "outputs": [],
      "stateMutability": "nonpayable",
      "type": "function"
    },
    {
      "inputs": [],
      "name": "subdivisionNFT",
      "outputs": [
        {
          "internalType": "contract SubdivisionNFT",
          "name": "",
          "type": "address"
        }
      ],
      "stateMutability": "view",
      "type": "function"
    },
    {
      "inputs": [
        {
          "internalType": "uint256",
          "name": "_leaseId",
          "type": "uint256"
        }
      ],
      "name": "submitDeposit",
      "outputs": [],
      "stateMutability": "nonpayable",
      "type": "function"
    },
    {
      "inputs": [
        {
          "internalType": "uint256",
          "name": "_leaseId",
          "type": "uint256"
        }
      ],
      "name": "terminateLease",
      "outputs": [],
      "stateMutability": "nonpayable",
      "type": "function"
    },
    {
      "inputs": [
        {
          "internalType": "uint256",
          "name": "_leaseId",
          "type": "uint256"
        },
        {
          "internalType": "address[]",
          "name": "_newLesseeList",
          "type": "address[]"
        }
      ],
      "name": "transferLease",
      "outputs": [],
      "stateMutability": "nonpayable",
      "type": "function"
    },
    {
      "inputs": [
        {
          "internalType": "uint256",
          "name": "_leaseId",
          "type": "uint256"
        }
      ],
      "name": "unsetManager",
      "outputs": [],
      "stateMutability": "nonpayable",
      "type": "function"
    },
    {
      "inputs": [
        {
          "internalType": "uint256",
          "name": "_leaseId",
          "type": "uint256"
        }
      ],
      "name": "withdrawDeposit",
      "outputs": [],
      "stateMutability": "nonpayable",
      "type": "function"
    }
  ],
  "transactionHash": "0x2cb03a6d0948aee60b336929a7b1ff7b1951fd1e78fb166e28490823ade91cf6",
  "args": [
    "0x4a3127598257B5A0404b858E134Cf5e1c3cAe137",
    "0x2d467a24095B262787f58ce97d9B130ce7232B57",
    "0xd8D142f13E58dFEedaF96418C0B6843108d46B94",
    "0xF7Ca580B38D60B00eaC495D6f932C5affa55A418",
    "0xE4C45c797e15B7B5ae134b26F7b03dE8bb046a1a",
    "0x351a9ED0C54bb2aFE7Ad1AAB5Ce8732248C99f00"
  ],
  "numDeployments": 9,
  "solcInputHash": "d5cc4ed7f5f73218f2a2102d5a7d11a5",
  "bytecode": "0x608060405234801562000010575f80fd5b5060405162003080380380620030808339810160408190526200003391620002fa565b60015f81905580546001600160a01b0319166001600160a01b03838116919091179091558616620000be5760405162461bcd60e51b815260206004820152602a60248201527f5b4c656173652041677265656d656e745d20496e76616c6964204c656173654e6044820152694654206164647265737360b01b60648201526084015b60405180910390fd5b6001600160a01b038516620001265760405162461bcd60e51b815260206004820152602760248201527f5b4c656173652041677265656d656e745d20496e76616c696420746f6b656e206044820152666164647265737360c81b6064820152608401620000b5565b6001600160a01b038416620001905760405162461bcd60e51b815260206004820152602960248201527f5b4c656173652041677265656d656e745d20496e76616c696420446565644e4660448201526854206164647265737360b81b6064820152608401620000b5565b6001600160a01b038316620002015760405162461bcd60e51b815260206004820152603060248201527f5b4c656173652041677265656d656e745d20496e76616c69642053756264697660448201526f6973696f6e4e4654206164647265737360801b6064820152608401620000b5565b600480546001600160a01b038881166001600160a01b03199283161790925560068054878416908316179055600780548684169083161790556005805492881692909116821790556040519081527ff316d79ea0865efd761a7a55594999c1d875d637946382fe22c8054d0fd767389060200160405180910390a1600880546001600160a01b0319166001600160a01b0384169081179091556040519081527fb0c676f9d7afa1a44d28b367dc30782ead78d7f8679914a2ba86d8565e6ba4d19060200160405180910390a150505f600355506200037792505050565b80516001600160a01b0381168114620002f5575f80fd5b919050565b5f805f805f8060c0878903121562000310575f80fd5b6200031b87620002de565b95506200032b60208801620002de565b94506200033b60408801620002de565b93506200034b60608801620002de565b92506200035b60808801620002de565b91506200036b60a08801620002de565b90509295509295509295565b612cfb80620003855f395ff3fe608060405234801561000f575f80fd5b5060043610610187575f3560e01c80637cf9f990116100d95780639e80977011610093578063b99c23e31161006e578063b99c23e314610464578063c7f01cac1461046c578063d9e8843f1461047f578063dbeb201214610492575f80fd5b80639e809770146103f2578063ac0c3a9314610405578063b1a9cb1f14610418575f80fd5b80637cf9f990146102b2578063806d4a72146102c55780638927a106146102d857806389b9e75f146103b457806391d14854146103cc57806399c7e2e8146103df575f80fd5b8063326a4eff11610144578063588e00a51161011f578063588e00a5146102665780635e53e4fc146102795780636a326ab11461028c57806376a57da91461029f575f80fd5b8063326a4eff1461022d57806333289a46146102405780633c29ce3214610253575f80fd5b8063043689231461018b5780630d116652146101a75780630e931f9f146101d2578063115511e9146101f25780632eb9f788146102075780633013ce291461021a575b5f80fd5b61019460035481565b6040519081526020015b60405180910390f35b6008546101ba906001600160a01b031681565b6040516001600160a01b03909116815260200161019e565b6101e56101e03660046125ea565b6104a5565b60405161019e9190612601565b610205610200366004612724565b610513565b005b610205610215366004612768565b6105e2565b6005546101ba906001600160a01b031681565b61020561023b366004612788565b61077c565b61020561024e3660046125ea565b610909565b6102056102613660046125ea565b610b23565b6102056102743660046125ea565b610fc8565b6007546101ba906001600160a01b031681565b61020561029a3660046127cc565b611232565b6004546101ba906001600160a01b031681565b6102056102c03660046125ea565b611333565b6102056102d3366004612768565b6114a4565b61039d6102e63660046125ea565b600260208181525f928352604092839020600181015484518086018652938201548452600382015460ff9081161515858501526004830154600584015487516080810189526006860154815260078601549681019690965260088501549786019790975260098401546060860152600a840154600b850154600c860154600d870154600e909701549599939763ffffffff909416969395929491936001600160a01b03821693600160a01b9092048316929091168b565b60405161019e9b9a999897969594939291906127ee565b6103bc61172a565b604051901515815260200161019e565b6103bc6103da366004612898565b6117aa565b6102056103ed3660046127cc565b611827565b6102056104003660046128c6565b6118f6565b6102056104133660046125ea565b611c15565b61042b6104263660046125ea565b611da8565b60405161019e9190815181526020808301519082015260408083015163ffffffff16908201526060918201519181019190915260800190565b6103bc611eb8565b6006546101ba906001600160a01b031681565b61020561048d3660046125ea565b611ed1565b6102056104a03660046125ea565b612203565b5f818152600260209081526040918290208054835181840281018401909452808452606093919283919083018282801561050657602002820191905f5260205f20905b81546001600160a01b031681526001909101906020018083116104e8575b5050505050915050919050565b600480546040516331a9108f60e11b815291820184905283916001600160a01b0390911690636352211e90602401602060405180830381865afa15801561055c573d5f803e3d5ffd5b505050506040513d601f19601f820116820180604052508101906105809190612954565b6001600160a01b0316336001600160a01b0316146105b95760405162461bcd60e51b81526004016105b09061296f565b60405180910390fd5b5f838152600260209081526040909120835190916105db918391860190612573565b5050505050565b600480546040516331a9108f60e11b815291820184905283916001600160a01b0390911690636352211e90602401602060405180830381865afa15801561062b573d5f803e3d5ffd5b505050506040513d601f19601f8201168201806040525081019061064f9190612954565b6001600160a01b0316336001600160a01b03161461067f5760405162461bcd60e51b81526004016105b09061296f565b5f83815260026020526040902061069a622835c060016129ca565b60088201546106a991906129e1565b8310156107355760405162461bcd60e51b815260206004820152604e60248201527f5b4c656173652041677265656d656e745d204e65772072656e7420647565206460448201527f617465206d757374206265206174206c656173742061206d6f6e74682061667460648201526d65722063757272656e74206f6e6560901b608482015260a4016105b0565b6008810183905560408051858152602081018590527f73cbadd90979700c98b0b0afcdb764c8e7f9ef93fed005c4c56b518cadf16c5e91015b60405180910390a150505050565b600480546040516331a9108f60e11b815291820185905284916001600160a01b0390911690636352211e90602401602060405180830381865afa1580156107c5573d5f803e3d5ffd5b505050506040513d601f19601f820116820180604052508101906107e99190612954565b6001600160a01b0316336001600160a01b0316146108195760405162461bcd60e51b81526004016105b09061296f565b5f84815260026020526040902060648360ff16111561088f5760405162461bcd60e51b815260206004820152602c60248201527f5b4c656173652041677265656d656e745d20496e76616c6964204d616e61676560448201526b722070657263656e7461676560a01b60648201526084016105b0565b600c810180546001600160a01b0386166001600160a81b03199091168117600160a01b60ff8716908102919091179092556040805188815260208101929092528101919091527fa420ecd2d752d1dc944f88752a923fa27a28d142c4d7f32f8ea95355ca3f03f99060600160405180910390a15050505050565b610911612423565b5f818152600260205260409020600e81015460ff16806109345750600781015442115b6109a65760405162461bcd60e51b815260206004820152603f60248201527f5b4c656173652041677265656d656e745d2043616e6e6f74207769746864726160448201527f77206465706f736974206966204c65617365207374696c6c206163746976650060648201526084016105b0565b610a0f815f018054806020026020016040519081016040528092919081815260200182805480156109fe57602002820191905f5260205f20905b81546001600160a01b031681526001909101906020018083116109e0575b5050505050610a0a3390565b61244b565b610a775760405162461bcd60e51b815260206004820152603360248201527f5b4c656173652041677265656d656e745d2043616c6c6572206d757374206265604482015272206f6e65206f6620746865206c65737365657360681b60648201526084016105b0565b5f610a8183611da8565b90505f6003826040015163ffffffff161015905080610b07576008546005546002850154604051635f0f48bd60e01b81526001600160a01b0393841693635f0f48bd93610ad9938a93929091169133906004016129f4565b5f604051808303815f87803b158015610af0575f80fd5b505af1158015610b02573d5f803e3d5ffd5b505050505b5050600e01805460ff19166001179055610b2060015f55565b50565b610b2b612423565b5f81815260026020526040908190206004805492516331a9108f60e11b815290810184905290916001600160a01b031690636352211e90602401602060405180830381865afa158015610b80573d5f803e3d5ffd5b505050506040513d601f19601f82011682018060405250810190610ba49190612954565b6001600160a01b0316336001600160a01b03161480610bd85750600c8101546001600160a01b0316336001600160a01b0316145b610c4a5760405162461bcd60e51b815260206004820152603a60248201527f5b4c656173652041677265656d656e745d2043616c6c6572206d75737420626560448201527f20746865204c6573736f72206f7220746865204d616e6167657200000000000060648201526084016105b0565b5f81600d015411610cad5760405162461bcd60e51b815260206004820152602760248201527f5b4c656173652041677265656d656e745d204e6f2072656e7420746f206469736044820152667472696275746560c81b60648201526084016105b0565b60098101545f904211610d3b5760405162461bcd60e51b815260206004820152604a60248201527f5b4c656173652041677265656d656e745d2052656e742063616e206f6e6c792060448201527f62652064697374726962757465642070617374207468652064697374726962756064820152697461626c65206461746560b01b608482015260a4016105b0565b610d49622835c060016129ca565b6009830154610d589042612a1b565b610d629190612a2e565b610d6d9060016129e1565b600d830154600c840154919250905f906001600160a01b031615610e3057600c840154606490610da790600160a01b900460ff16846129ca565b610db19190612a2e565b600854600554600c870154604051635f0f48bd60e01b8152600481018a90526001600160a01b03928316602482015263ffffffff8516604482015290821660648201529293501690635f0f48bd906084015f604051808303815f87803b158015610e19575f80fd5b505af1158015610e2b573d5f803e3d5ffd5b505050505b5f610e3b8284612a1b565b600854600554600480546040516331a9108f60e11b81529182018b90529394506001600160a01b0392831693635f0f48bd938b9381169287929190911690636352211e90602401602060405180830381865afa158015610e9d573d5f803e3d5ffd5b505050506040513d601f19601f82011682018060405250810190610ec19190612954565b6040516001600160e01b031960e087901b16815260048101949094526001600160a01b03928316602485015263ffffffff9190911660448401521660648201526084015f604051808303815f87803b158015610f1b575f80fd5b505af1158015610f2d573d5f803e3d5ffd5b50505f600d88015550610f469050622835c060016129ca565b610f5090856129ca565b6009860180545f90610f639084906129e1565b909155505060098501546040805188815263ffffffff84811660208301528516818301526060810192909252517f1a69d265dcc92f1f5ebe48293744cff6c23a10b54757d101368e5dfcc197455a9181900360800190a15050505050610b2060015f55565b610fd0612423565b600480546040516331a9108f60e11b815291820183905282916001600160a01b0390911690636352211e90602401602060405180830381865afa158015611019573d5f803e3d5ffd5b505050506040513d601f19601f8201168201806040525081019061103d9190612954565b6001600160a01b0316336001600160a01b03161461106d5760405162461bcd60e51b81526004016105b09061296f565b5f82815260026020526040902060068101544210156110e25760405162461bcd60e51b815260206004820152602b60248201527f5b4c656173652041677265656d656e745d204c6561736520686173206e6f742060448201526a1cdd185c9d1959081e595d60aa1b60648201526084016105b0565b5f6110ec84611da8565b90505f6003826040015163ffffffff161015905080156111dc576008546005546002850154600480546040516331a9108f60e11b81529182018a90526001600160a01b0394851694635f0f48bd948b949082169390929190911690636352211e90602401602060405180830381865afa15801561116b573d5f803e3d5ffd5b505050506040513d601f19601f8201168201806040525081019061118f9190612954565b6040518563ffffffff1660e01b81526004016111ae94939291906129f4565b5f604051808303815f87803b1580156111c5575f80fd5b505af11580156111d7573d5f803e3d5ffd5b505050505b600e8301805460ff191660011790556040517f903320d9d82a125a682f110695a1306646295d73a1f595ea334d198446086d8c9061121d9087815260200190565b60405180910390a150505050610b2060015f55565b6001546040805163a217fddf60e01b81529051636a326ab160e01b926112b1926001600160a01b039091169163a217fddf916004808201926020929091908290030181865afa158015611287573d5f803e3d5ffd5b505050506040513d601f19601f820116820180604052508101906112ab9190612a4d565b336117aa565b806112c157506112c181336117aa565b6112dd5760405162461bcd60e51b81526004016105b090612a64565b600580546001600160a01b0319166001600160a01b0384169081179091556040519081527ff316d79ea0865efd761a7a55594999c1d875d637946382fe22c8054d0fd76738906020015b60405180910390a15050565b5f81815260026020526040908190206004805492516331a9108f60e11b815290810184905290916001600160a01b031690636352211e90602401602060405180830381865afa158015611388573d5f803e3d5ffd5b505050506040513d601f19601f820116820180604052508101906113ac9190612954565b6001600160a01b0316336001600160a01b031614806113e05750600c8101546001600160a01b0316336001600160a01b0316145b6114625760405162461bcd60e51b815260206004820152604760248201527f5b4c656173652041677265656d656e745d204f6e6c7920746865204c6573736f60448201527f72206f7220746865204d616e616765722063616e2072656d6f7665207468652060648201526626b0b730b3b2b960c91b608482015260a4016105b0565b600c810180546001600160a81b03191690556040518281527fd5e25901100960f260695b30300c70d714e4f1e70dca7612394f20f0eeb68c5490602001611327565b600480546040516331a9108f60e11b815291820184905283916001600160a01b0390911690636352211e90602401602060405180830381865afa1580156114ed573d5f803e3d5ffd5b505050506040513d601f19601f820116820180604052508101906115119190612954565b6001600160a01b0316336001600160a01b0316146115415760405162461bcd60e51b81526004016105b09061296f565b5f838152600260205260409020600e81015460ff16156115735760405162461bcd60e51b81526004016105b090612ad2565b600781015461158690623b538090612a1b565b4210156116095760405162461bcd60e51b815260206004820152604560248201527f5b4c656173652041677265656d656e745d20457874656e73696f6e2063616e2060448201527f6f6e6c792062652072657175657374656420696e20746865206c617374203435606482015264206461797360d81b608482015260a4016105b0565b600281600a0154106116725760405162461bcd60e51b815260206004820152602c60248201527f5b4c656173652041677265656d656e745d204d6178696d756d20657874656e7360448201526b1a5bdb9cc81c995858da195960a21b60648201526084016105b0565b82816006016001015f82825461168891906129e1565b909155505060018101546064906116a09060036129ca565b6116aa9190612a2e565b816001015f8282546116bc91906129e1565b9091555050600a81018054905f6116d283612b1b565b909155505060078101546001820154600a83015460408051888152602081019490945283019190915260608201527f33687519bb2ab0520901057529f171472e2a36ae6179d81a50e5cc40798fe3049060800161076e565b6001545f906001600160a01b031663940e1570335b6040516001600160e01b031960e084901b1681526001600160a01b039091166004820152602401602060405180830381865afa158015611781573d5f803e3d5ffd5b505050506040513d601f19601f820116820180604052508101906117a59190612b33565b905090565b600154604051632474521560e21b8152600481018490526001600160a01b0383811660248301525f9216906391d14854906044015b602060405180830381865afa1580156117fa573d5f803e3d5ffd5b505050506040513d601f19601f8201168201806040525081019061181e9190612b33565b90505b92915050565b6001546040805163a217fddf60e01b81529051631338fc5d60e31b9261187c926001600160a01b039091169163a217fddf916004808201926020929091908290030181865afa158015611287573d5f803e3d5ffd5b8061188c575061188c81336117aa565b6118a85760405162461bcd60e51b81526004016105b090612a64565b600880546001600160a01b0319166001600160a01b0384169081179091556040519081527fb0c676f9d7afa1a44d28b367dc30782ead78d7f8679914a2ba86d8565e6ba4d190602001611327565b85871061195b5760405162461bcd60e51b815260206004820152602d60248201527f5b4c656173652041677265656d656e745d20496e76616c69642073746172742060448201526c616e6420656e6420646174657360981b60648201526084016105b0565b611969622835c060016129ca565b6119738888612a1b565b116119f15760405162461bcd60e51b815260206004820152604260248201527f5b4c656173652041677265656d656e745d20456e64206461746520616e64207360448201527f7461727420646174652073686f756c642062652031206d6f6e746820617070616064820152611c9d60f21b608482015260a4016105b0565b60038163ffffffff161015611a04575f80fd5b600f821115611a11575f80fd5b5f611a1c33856124ad565b90505f611a29338661253a565b90508180611a345750805b611a9b5760405162461bcd60e51b815260206004820152603260248201527f5b4c656173652041677265656d656e745d204c6573736f72206d757374206f776044820152711b881d1a19481c1c9bdc195c9d1e4813919560721b60648201526084016105b0565b600380549081905f611aac83612b1b565b90915550505f8181526002602090815260409091208c519091611ad39183918f0190612573565b50600681018b9055600781018a905560018082018a905560028201899055611aff90622835c0906129ca565b611b09908c6129e1565b60088201555f600a820155600b8101879055600381018054891560ff1991821617909155600480830188905560058301805463ffffffff191663ffffffff8916179055600e83018054909216909155546001600160a01b03166340c10f19336040516001600160e01b031960e084901b1681526001600160a01b039091166004820152602481018590526044015f604051808303815f87803b158015611bad575f80fd5b505af1158015611bbf573d5f803e3d5ffd5b50505060088201546009830155506040517fd49c0e4c8d3cc20343f7638374606b650aa572502b847d73335d9e9db4b4f6af90611bff9084908490612b97565b60405180910390a1505050505050505050505050565b5f81815260026020526040908190206004805492516331a9108f60e11b815290810184905290916001600160a01b031690636352211e90602401602060405180830381865afa158015611c6a573d5f803e3d5ffd5b505050506040513d601f19601f82011682018060405250810190611c8e9190612954565b6001600160a01b0316336001600160a01b03161480611cc25750600c8101546001600160a01b0316336001600160a01b0316145b611d295760405162461bcd60e51b815260206004820152603260248201527f5b4c656173652041677265656d656e745d2053656e646572206d7573742062656044820152711036b0b730b3b2b91037b9103632b9b9b7b960711b60648201526084016105b0565b600e81015460ff16611d4d5760405162461bcd60e51b81526004016105b090612ad2565b60048054604051630852cd8d60e31b81529182018490526001600160a01b0316906342966c68906024015f604051808303815f87803b158015611d8e575f80fd5b505af1158015611da0573d5f803e3d5ffd5b505050505050565b611dd560405180608001604052805f81526020015f81526020015f63ffffffff1681526020015f81525090565b5f828152600260205260409020600181015482526005810154611e019063ffffffff1662015180612c89565b6008820154611e169163ffffffff16906129e1565b421115611ea357606481600401548260010154611e3391906129ca565b611e3d9190612a2e565b82518390611e4c9083906129e1565b905250611e5d622835c060016129ca565b6008820154611e6c9042612a1b565b611e769190612a2e565b611e819060016129e1565b63ffffffff16604083018190528251611e99916129ca565b6020830152611eb2565b60016040830152815160208301525b50919050565b6001545f906001600160a01b031663c395fcb33361173f565b611ed9612423565b5f8181526002602090815260409182902080548351818402810184019094528084529092611f4692909184918301828280156109fe57602002820191905f5260205f209081546001600160a01b031681526001909101906020018083116109e0575050505050610a0a3390565b611fa95760405162461bcd60e51b815260206004820152602e60248201527f5b4c656173652041677265656d656e745d204f6e6c7920746865204c6573736560448201526d194818d85b881c185e481c995b9d60921b60648201526084016105b0565b600381015460ff1661201b5760405162461bcd60e51b815260206004820152603560248201527f5b4c656173652041677265656d656e745d205365637572697479206465706f736044820152741a5d081b5d5cdd081899481c185a5908199a5c9cdd605a1b60648201526084016105b0565b60068101544210801590612033575060078101544211155b6120935760405162461bcd60e51b815260206004820152602b60248201527f5b4c656173652041677265656d656e745d204f757473696465206f66206c656160448201526a39b290323ab930ba34b7b760a91b60648201526084016105b0565b5f61209d83611da8565b9050806020015182600d015f8282546120b691906129e1565b909155506120ca9050622835c060016129ca565b816040015163ffffffff166120df91906129ca565b6008830180545f906120f29084906129e1565b90915550506008546005546020830151604051634671b0e360e01b81526001600160a01b0393841693634671b0e393612136938993929091169133906004016129f4565b5f604051808303815f87803b15801561214d575f80fd5b505af115801561215f573d5f803e3d5ffd5b50505060088301546040517f73cbadd90979700c98b0b0afcdb764c8e7f9ef93fed005c4c56b518cadf16c5e925061219f91868252602082015260400190565b60405180910390a16020810151600d8301546040517f3238c0c9490ceb260a0b0b63c836df59652b9d663e364c9155ee07bfea24f3f0926121f0928783526020830191909152604082015260600190565b60405180910390a15050610b2060015f55565b61220b612423565b5f818152600260209081526040918290208054835181840281018401909452808452909261227892909184918301828280156109fe57602002820191905f5260205f209081546001600160a01b031681526001909101906020018083116109e0575050505050610a0a3390565b6122ea5760405162461bcd60e51b815260206004820152603860248201527f5b4c656173652041677265656d656e745d204f6e6c7920746865204c6573736560448201527f652063616e207375626d697420746865206465706f736974000000000000000060648201526084016105b0565b600381015460ff16156123575760405162461bcd60e51b815260206004820152602f60248201527f5b4c656173652041677265656d656e745d205365637572697479206465706f7360448201526e1a5d08185b1c9958591e481c185a59608a1b60648201526084016105b0565b6008546005546002830154604051634671b0e360e01b81526001600160a01b0393841693634671b0e393612396938893929091169133906004016129f4565b5f604051808303815f87803b1580156123ad575f80fd5b505af11580156123bf573d5f803e3d5ffd5b50505060038201805460ff191660011790555060028101546040517fdf8484d85a50945d4406aa408d13dbbe5b5c8e89da96e4c19cd0e855baadd8b69161241191859190918252602082015260400190565b60405180910390a150610b2060015f55565b60025f540361244557604051633ee5aeb560e01b815260040160405180910390fd5b60025f55565b5f80805b84518110156124a557836001600160a01b031685828151811061247457612474612cb1565b60200260200101516001600160a01b03160361249357600191506124a5565b8061249d81612b1b565b91505061244f565b509392505050565b6006546040516331a9108f60e11b8152600481018390525f916001600160a01b031690636352211e90602401602060405180830381865afa925050508015612512575060408051601f3d908101601f1916820190925261250f91810190612954565b60015b61251d57505f611821565b836001600160a01b0316816001600160a01b031614915050611821565b600754604051631ae3d99d60e11b81526001600160a01b038481166004830152602482018490525f9216906335c7b33a906044016117df565b828054828255905f5260205f209081019282156125c6579160200282015b828111156125c657825182546001600160a01b0319166001600160a01b03909116178255602090920191600190910190612591565b506125d29291506125d6565b5090565b5b808211156125d2575f81556001016125d7565b5f602082840312156125fa575f80fd5b5035919050565b602080825282518282018190525f9190848201906040850190845b818110156126415783516001600160a01b03168352928401929184019160010161261c565b50909695505050505050565b634e487b7160e01b5f52604160045260245ffd5b6001600160a01b0381168114610b20575f80fd5b803561268081612661565b919050565b5f82601f830112612694575f80fd5b8135602067ffffffffffffffff808311156126b1576126b161264d565b8260051b604051601f19603f830116810181811084821117156126d6576126d661264d565b6040529384528581018301938381019250878511156126f3575f80fd5b83870191505b848210156127195761270a82612675565b835291830191908301906126f9565b979650505050505050565b5f8060408385031215612735575f80fd5b82359150602083013567ffffffffffffffff811115612752575f80fd5b61275e85828601612685565b9150509250929050565b5f8060408385031215612779575f80fd5b50508035926020909101359150565b5f805f6060848603121561279a575f80fd5b8335925060208401356127ac81612661565b9150604084013560ff811681146127c1575f80fd5b809150509250925092565b5f602082840312156127dc575f80fd5b81356127e781612661565b9392505050565b5f6101e0820190508c82528b51602083015260208c0151151560408301528a606083015263ffffffff8a166080830152885160a0830152602089015160c0830152604089015160e0830152606089015161010083015287610120830152866101408301526128686101608301876001600160a01b03169052565b60ff8516610180830152836101a08301526128886101c083018415159052565b9c9b505050505050505050505050565b5f80604083850312156128a9575f80fd5b8235915060208301356128bb81612661565b809150509250929050565b5f805f805f805f80610100898b0312156128de575f80fd5b883567ffffffffffffffff8111156128f4575f80fd5b6129008b828c01612685565b9850506020890135965060408901359550606089013594506080890135935060a0890135925060c0890135915060e089013563ffffffff81168114612943575f80fd5b809150509295985092959890939650565b5f60208284031215612964575f80fd5b81516127e781612661565b60208082526027908201527f5b4c656173652041677265656d656e745d2053656e646572206d757374206265604082015266102632b9b9b7b960c91b606082015260800190565b634e487b7160e01b5f52601160045260245ffd5b8082028115828204841417611821576118216129b6565b80820180821115611821576118216129b6565b9384526001600160a01b039283166020850152604084019190915216606082015260800190565b81810381811115611821576118216129b6565b5f82612a4857634e487b7160e01b5f52601260045260245ffd5b500490565b5f60208284031215612a5d575f80fd5b5051919050565b60208082526048908201527f5b4163636573734d616e61676572426173655d204f6e6c79207468652041646d60408201527f696e206f722066756e6374696f6e206772616e74656420757365722063616e206060820152671a5b9d195c9858dd60c21b608082015260a00190565b60208082526029908201527f5b4c656173652041677265656d656e745d204c6561736520686173206265656e60408201526808185c98da1a5d995960ba1b606082015260800190565b5f60018201612b2c57612b2c6129b6565b5060010190565b5f60208284031215612b43575f80fd5b815180151581146127e7575f80fd5b5f815480845260208085019450835f52805f205f5b83811015612b8c5781546001600160a01b031687529582019560019182019101612b67565b509495945050505050565b828152604060208201525f610200806040840152612bb9610240840185612b52565b6001850154606085015260028501546080850152600385015460ff16151560a0850152600485015460c0850152600585015463ffffffff1663ffffffff811660e0860152506006850154610100850152600785015461012085015260088501546101408501526009850154610160850152600a850154610180850152600b8501546101a0850152600c8501546001600160a01b0381166101c086015260a081901c60ff166101e086015250600d85015484830152600e85015460ff16801515610220860152915095945050505050565b63ffffffff818116838216028082169190828114612ca957612ca96129b6565b505092915050565b634e487b7160e01b5f52603260045260245ffdfea264697066735822122044f2c150156a5b932ef96701daa7a4bd1ba2b6bc117f72a1f24cfd719194295d64736f6c63430008140033",
  "devdoc": {
    "errors": {
      "ReentrancyGuardReentrantCall()": [
        {
          "details": "Unauthorized reentrant call."
        }
      ]
    },
    "kind": "dev",
    "methods": {},
    "version": 1
  },
  "userdoc": {
    "kind": "user",
    "methods": {},
    "version": 1
  },
  "storageLayout": {
    "storage": [
      {
        "astId": 4491,
        "contract": "contracts/LeaseAgreement.sol:LeaseAgreement",
        "label": "_status",
        "offset": 0,
        "slot": "0",
        "type": "t_uint256"
      },
      {
        "astId": 6241,
        "contract": "contracts/LeaseAgreement.sol:LeaseAgreement",
        "label": "accessManager",
        "offset": 0,
        "slot": "1",
        "type": "t_contract(AccessManager)6236"
      },
      {
        "astId": 7181,
        "contract": "contracts/LeaseAgreement.sol:LeaseAgreement",
        "label": "leases",
        "offset": 0,
        "slot": "2",
        "type": "t_mapping(t_uint256,t_struct(Lease)7123_storage)"
      },
      {
        "astId": 7183,
        "contract": "contracts/LeaseAgreement.sol:LeaseAgreement",
        "label": "leaseCounter",
        "offset": 0,
        "slot": "3",
        "type": "t_uint256"
      },
      {
        "astId": 7186,
        "contract": "contracts/LeaseAgreement.sol:LeaseAgreement",
        "label": "leaseNFT",
        "offset": 0,
        "slot": "4",
        "type": "t_contract(LeaseNFT)8722"
      },
      {
        "astId": 7189,
        "contract": "contracts/LeaseAgreement.sol:LeaseAgreement",
        "label": "paymentToken",
        "offset": 0,
        "slot": "5",
        "type": "t_contract(IERC20)2372"
      },
      {
        "astId": 7192,
        "contract": "contracts/LeaseAgreement.sol:LeaseAgreement",
        "label": "deedNFT",
        "offset": 0,
        "slot": "6",
        "type": "t_contract(DeedNFT)6796"
      },
      {
        "astId": 7195,
        "contract": "contracts/LeaseAgreement.sol:LeaseAgreement",
        "label": "subdivisionNFT",
        "offset": 0,
        "slot": "7",
        "type": "t_contract(SubdivisionNFT)9047"
      },
      {
        "astId": 7198,
        "contract": "contracts/LeaseAgreement.sol:LeaseAgreement",
        "label": "fundsManager",
        "offset": 0,
        "slot": "8",
        "type": "t_contract(FundsManager)7051"
      }
    ],
    "types": {
      "t_address": {
        "encoding": "inplace",
        "label": "address",
        "numberOfBytes": "20"
      },
      "t_array(t_address)dyn_storage": {
        "base": "t_address",
        "encoding": "dynamic_array",
        "label": "address[]",
        "numberOfBytes": "32"
      },
      "t_bool": {
        "encoding": "inplace",
        "label": "bool",
        "numberOfBytes": "1"
      },
      "t_contract(AccessManager)6236": {
        "encoding": "inplace",
        "label": "contract AccessManager",
        "numberOfBytes": "20"
      },
      "t_contract(DeedNFT)6796": {
        "encoding": "inplace",
        "label": "contract DeedNFT",
        "numberOfBytes": "20"
      },
      "t_contract(FundsManager)7051": {
        "encoding": "inplace",
        "label": "contract FundsManager",
        "numberOfBytes": "20"
      },
      "t_contract(IERC20)2372": {
        "encoding": "inplace",
        "label": "contract IERC20",
        "numberOfBytes": "20"
      },
      "t_contract(LeaseNFT)8722": {
        "encoding": "inplace",
        "label": "contract LeaseNFT",
        "numberOfBytes": "20"
      },
      "t_contract(SubdivisionNFT)9047": {
        "encoding": "inplace",
        "label": "contract SubdivisionNFT",
        "numberOfBytes": "20"
      },
      "t_mapping(t_uint256,t_struct(Lease)7123_storage)": {
        "encoding": "mapping",
        "key": "t_uint256",
        "label": "mapping(uint256 => struct LeaseAgreement.Lease)",
        "numberOfBytes": "32",
        "value": "t_struct(Lease)7123_storage"
      },
      "t_struct(Deposit)7095_storage": {
        "encoding": "inplace",
        "label": "struct LeaseAgreement.Deposit",
        "members": [
          {
            "astId": 7092,
            "contract": "contracts/LeaseAgreement.sol:LeaseAgreement",
            "label": "amount",
            "offset": 0,
            "slot": "0",
            "type": "t_uint256"
          },
          {
            "astId": 7094,
            "contract": "contracts/LeaseAgreement.sol:LeaseAgreement",
            "label": "paid",
            "offset": 0,
            "slot": "1",
            "type": "t_bool"
          }
        ],
        "numberOfBytes": "64"
      },
      "t_struct(Lease)7123_storage": {
        "encoding": "inplace",
        "label": "struct LeaseAgreement.Lease",
        "members": [
          {
            "astId": 7098,
            "contract": "contracts/LeaseAgreement.sol:LeaseAgreement",
            "label": "lesseeList",
            "offset": 0,
            "slot": "0",
            "type": "t_array(t_address)dyn_storage"
          },
          {
            "astId": 7100,
            "contract": "contracts/LeaseAgreement.sol:LeaseAgreement",
            "label": "rentAmount",
            "offset": 0,
            "slot": "1",
            "type": "t_uint256"
          },
          {
            "astId": 7103,
            "contract": "contracts/LeaseAgreement.sol:LeaseAgreement",
            "label": "securityDeposit",
            "offset": 0,
            "slot": "2",
            "type": "t_struct(Deposit)7095_storage"
          },
          {
            "astId": 7105,
            "contract": "contracts/LeaseAgreement.sol:LeaseAgreement",
            "label": "latePaymentFee",
            "offset": 0,
            "slot": "4",
            "type": "t_uint256"
          },
          {
            "astId": 7107,
            "contract": "contracts/LeaseAgreement.sol:LeaseAgreement",
            "label": "gracePeriod",
            "offset": 0,
            "slot": "5",
            "type": "t_uint32"
          },
          {
            "astId": 7110,
            "contract": "contracts/LeaseAgreement.sol:LeaseAgreement",
            "label": "dates",
            "offset": 0,
            "slot": "6",
            "type": "t_struct(LeaseDates)7090_storage"
          },
          {
            "astId": 7112,
            "contract": "contracts/LeaseAgreement.sol:LeaseAgreement",
            "label": "extensionCount",
            "offset": 0,
            "slot": "10",
            "type": "t_uint256"
          },
          {
            "astId": 7114,
            "contract": "contracts/LeaseAgreement.sol:LeaseAgreement",
            "label": "deedId",
            "offset": 0,
            "slot": "11",
            "type": "t_uint256"
          },
          {
            "astId": 7116,
            "contract": "contracts/LeaseAgreement.sol:LeaseAgreement",
            "label": "manager",
            "offset": 0,
            "slot": "12",
            "type": "t_address"
          },
          {
            "astId": 7118,
            "contract": "contracts/LeaseAgreement.sol:LeaseAgreement",
            "label": "managerPercentage",
            "offset": 20,
            "slot": "12",
            "type": "t_uint8"
          },
          {
            "astId": 7120,
            "contract": "contracts/LeaseAgreement.sol:LeaseAgreement",
            "label": "unclaimedRentAmount",
            "offset": 0,
            "slot": "13",
            "type": "t_uint256"
          },
          {
            "astId": 7122,
            "contract": "contracts/LeaseAgreement.sol:LeaseAgreement",
            "label": "isArchived",
            "offset": 0,
            "slot": "14",
            "type": "t_bool"
          }
        ],
        "numberOfBytes": "480"
      },
      "t_struct(LeaseDates)7090_storage": {
        "encoding": "inplace",
        "label": "struct LeaseAgreement.LeaseDates",
        "members": [
          {
            "astId": 7083,
            "contract": "contracts/LeaseAgreement.sol:LeaseAgreement",
            "label": "startDate",
            "offset": 0,
            "slot": "0",
            "type": "t_uint256"
          },
          {
            "astId": 7085,
            "contract": "contracts/LeaseAgreement.sol:LeaseAgreement",
            "label": "endDate",
            "offset": 0,
            "slot": "1",
            "type": "t_uint256"
          },
          {
            "astId": 7087,
            "contract": "contracts/LeaseAgreement.sol:LeaseAgreement",
            "label": "rentDueDate",
            "offset": 0,
            "slot": "2",
            "type": "t_uint256"
          },
          {
            "astId": 7089,
            "contract": "contracts/LeaseAgreement.sol:LeaseAgreement",
            "label": "distributableDate",
            "offset": 0,
            "slot": "3",
            "type": "t_uint256"
          }
        ],
        "numberOfBytes": "128"
      },
      "t_uint256": {
        "encoding": "inplace",
        "label": "uint256",
        "numberOfBytes": "32"
      },
      "t_uint32": {
        "encoding": "inplace",
        "label": "uint32",
        "numberOfBytes": "4"
      },
      "t_uint8": {
        "encoding": "inplace",
        "label": "uint8",
        "numberOfBytes": "1"
      }
    }
  }
}