{
  "address": "0x01f6A50D6c6A62F524745050DfaFc3425518Bf12",
  "abi": [
    {
      "inputs": [
        {
          "internalType": "address",
          "name": "_deedNFT",
          "type": "address"
        },
        {
          "internalType": "address",
          "name": "_accessManager",
          "type": "address"
        }
      ],
      "stateMutability": "nonpayable",
      "type": "constructor"
    },
    {
      "anonymous": false,
      "inputs": [
        {
          "indexed": true,
          "internalType": "address",
          "name": "account",
          "type": "address"
        },
        {
          "indexed": true,
          "internalType": "address",
          "name": "operator",
          "type": "address"
        },
        {
          "indexed": false,
          "internalType": "bool",
          "name": "approved",
          "type": "bool"
        }
      ],
      "name": "ApprovalForAll",
      "type": "event"
    },
    {
      "anonymous": false,
      "inputs": [
        {
          "indexed": false,
          "internalType": "address",
          "name": "account",
          "type": "address"
        },
        {
          "indexed": false,
          "internalType": "uint256",
          "name": "subdivisionId",
          "type": "uint256"
        },
        {
          "indexed": false,
          "internalType": "uint256",
          "name": "deedId",
          "type": "uint256"
        },
        {
          "indexed": false,
          "internalType": "bytes",
          "name": "ipfsDetailsHash",
          "type": "bytes"
        }
      ],
      "name": "SubdivisionBurned",
      "type": "event"
    },
    {
      "anonymous": false,
      "inputs": [
        {
          "indexed": false,
          "internalType": "uint256",
          "name": "tokenId",
          "type": "uint256"
        },
        {
          "components": [
            {
              "internalType": "bytes",
              "name": "ipfsDetailsHash",
              "type": "bytes"
            },
            {
              "internalType": "address",
              "name": "owner",
              "type": "address"
            },
            {
              "internalType": "uint256",
              "name": "parentDeed",
              "type": "uint256"
            }
          ],
          "indexed": false,
          "internalType": "struct SubdivisionNFT.SubdivisionInfo",
          "name": "info",
          "type": "tuple"
        }
      ],
      "name": "SubdivisionInfoSet",
      "type": "event"
    },
    {
      "anonymous": false,
      "inputs": [
        {
          "indexed": false,
          "internalType": "address",
          "name": "subdivisionOwner",
          "type": "address"
        },
        {
          "indexed": false,
          "internalType": "uint256",
          "name": "subdivisionId",
          "type": "uint256"
        },
        {
          "indexed": false,
          "internalType": "uint256",
          "name": "deedId",
          "type": "uint256"
        },
        {
          "indexed": false,
          "internalType": "bytes",
          "name": "ipfsDetailsHash",
          "type": "bytes"
        },
        {
          "indexed": false,
          "internalType": "address",
          "name": "minter",
          "type": "address"
        }
      ],
      "name": "SubdivisionMinted",
      "type": "event"
    },
    {
      "anonymous": false,
      "inputs": [
        {
          "indexed": true,
          "internalType": "address",
          "name": "operator",
          "type": "address"
        },
        {
          "indexed": true,
          "internalType": "address",
          "name": "from",
          "type": "address"
        },
        {
          "indexed": true,
          "internalType": "address",
          "name": "to",
          "type": "address"
        },
        {
          "indexed": false,
          "internalType": "uint256[]",
          "name": "ids",
          "type": "uint256[]"
        },
        {
          "indexed": false,
          "internalType": "uint256[]",
          "name": "values",
          "type": "uint256[]"
        }
      ],
      "name": "TransferBatch",
      "type": "event"
    },
    {
      "anonymous": false,
      "inputs": [
        {
          "indexed": true,
          "internalType": "address",
          "name": "operator",
          "type": "address"
        },
        {
          "indexed": true,
          "internalType": "address",
          "name": "from",
          "type": "address"
        },
        {
          "indexed": true,
          "internalType": "address",
          "name": "to",
          "type": "address"
        },
        {
          "indexed": false,
          "internalType": "uint256",
          "name": "id",
          "type": "uint256"
        },
        {
          "indexed": false,
          "internalType": "uint256",
          "name": "value",
          "type": "uint256"
        }
      ],
      "name": "TransferSingle",
      "type": "event"
    },
    {
      "anonymous": false,
      "inputs": [
        {
          "indexed": false,
          "internalType": "string",
          "name": "value",
          "type": "string"
        },
        {
          "indexed": true,
          "internalType": "uint256",
          "name": "id",
          "type": "uint256"
        }
      ],
      "name": "URI",
      "type": "event"
    },
    {
      "inputs": [],
      "name": "MINTER_ROLE",
      "outputs": [
        {
          "internalType": "bytes32",
          "name": "",
          "type": "bytes32"
        }
      ],
      "stateMutability": "view",
      "type": "function"
    },
    {
      "inputs": [
        {
          "internalType": "address",
          "name": "account",
          "type": "address"
        },
        {
          "internalType": "uint256",
          "name": "id",
          "type": "uint256"
        }
      ],
      "name": "balanceOf",
      "outputs": [
        {
          "internalType": "uint256",
          "name": "",
          "type": "uint256"
        }
      ],
      "stateMutability": "view",
      "type": "function"
    },
    {
      "inputs": [
        {
          "internalType": "address[]",
          "name": "accounts",
          "type": "address[]"
        },
        {
          "internalType": "uint256[]",
          "name": "ids",
          "type": "uint256[]"
        }
      ],
      "name": "balanceOfBatch",
      "outputs": [
        {
          "internalType": "uint256[]",
          "name": "",
          "type": "uint256[]"
        }
      ],
      "stateMutability": "view",
      "type": "function"
    },
    {
      "inputs": [
        {
          "components": [
            {
              "internalType": "bytes",
              "name": "ipfsDetailsHash",
              "type": "bytes"
            },
            {
              "internalType": "address",
              "name": "owner",
              "type": "address"
            },
            {
              "internalType": "uint256",
              "name": "parentDeed",
              "type": "uint256"
            }
          ],
          "internalType": "struct SubdivisionNFT.SubdivisionInfo[]",
          "name": "_infos",
          "type": "tuple[]"
        }
      ],
      "name": "batchMint",
      "outputs": [],
      "stateMutability": "nonpayable",
      "type": "function"
    },
    {
      "inputs": [
        {
          "internalType": "uint256",
          "name": "_subTokenId",
          "type": "uint256"
        }
      ],
      "name": "burnSubdivision",
      "outputs": [],
      "stateMutability": "nonpayable",
      "type": "function"
    },
    {
      "inputs": [],
      "name": "deedNFT",
      "outputs": [
        {
          "internalType": "contract DeedNFT",
          "name": "",
          "type": "address"
        }
      ],
      "stateMutability": "view",
      "type": "function"
    },
    {
      "inputs": [
        {
          "internalType": "uint256",
          "name": "_subTokenId",
          "type": "uint256"
        }
      ],
      "name": "getParentDeed",
      "outputs": [
        {
          "internalType": "uint256",
          "name": "",
          "type": "uint256"
        }
      ],
      "stateMutability": "view",
      "type": "function"
    },
    {
      "inputs": [],
      "name": "hasAdminRole",
      "outputs": [
        {
          "internalType": "bool",
          "name": "",
          "type": "bool"
        }
      ],
      "stateMutability": "view",
      "type": "function"
    },
    {
      "inputs": [
        {
          "internalType": "bytes32",
          "name": "_role",
          "type": "bytes32"
        },
        {
          "internalType": "address",
          "name": "_address",
          "type": "address"
        }
      ],
      "name": "hasRole",
      "outputs": [
        {
          "internalType": "bool",
          "name": "",
          "type": "bool"
        }
      ],
      "stateMutability": "view",
      "type": "function"
    },
    {
      "inputs": [],
      "name": "hasValidatorRole",
      "outputs": [
        {
          "internalType": "bool",
          "name": "",
          "type": "bool"
        }
      ],
      "stateMutability": "view",
      "type": "function"
    },
    {
      "inputs": [
        {
          "internalType": "address",
          "name": "account",
          "type": "address"
        },
        {
          "internalType": "address",
          "name": "operator",
          "type": "address"
        }
      ],
      "name": "isApprovedForAll",
      "outputs": [
        {
          "internalType": "bool",
          "name": "",
          "type": "bool"
        }
      ],
      "stateMutability": "view",
      "type": "function"
    },
    {
      "inputs": [
        {
          "internalType": "address",
          "name": "_owner",
          "type": "address"
        },
        {
          "internalType": "uint256",
          "name": "_subTokenId",
          "type": "uint256"
        }
      ],
      "name": "isOwnerOfSubdivision",
      "outputs": [
        {
          "internalType": "bool",
          "name": "",
          "type": "bool"
        }
      ],
      "stateMutability": "view",
      "type": "function"
    },
    {
      "inputs": [
        {
          "components": [
            {
              "internalType": "bytes",
              "name": "ipfsDetailsHash",
              "type": "bytes"
            },
            {
              "internalType": "address",
              "name": "owner",
              "type": "address"
            },
            {
              "internalType": "uint256",
              "name": "parentDeed",
              "type": "uint256"
            }
          ],
          "internalType": "struct SubdivisionNFT.SubdivisionInfo",
          "name": "_info",
          "type": "tuple"
        }
      ],
      "name": "mintSubdivision",
      "outputs": [],
      "stateMutability": "nonpayable",
      "type": "function"
    },
    {
      "inputs": [
        {
          "internalType": "address",
          "name": "from",
          "type": "address"
        },
        {
          "internalType": "address",
          "name": "to",
          "type": "address"
        },
        {
          "internalType": "uint256[]",
          "name": "ids",
          "type": "uint256[]"
        },
        {
          "internalType": "uint256[]",
          "name": "amounts",
          "type": "uint256[]"
        },
        {
          "internalType": "bytes",
          "name": "data",
          "type": "bytes"
        }
      ],
      "name": "safeBatchTransferFrom",
      "outputs": [],
      "stateMutability": "nonpayable",
      "type": "function"
    },
    {
      "inputs": [
        {
          "internalType": "address",
          "name": "from",
          "type": "address"
        },
        {
          "internalType": "address",
          "name": "to",
          "type": "address"
        },
        {
          "internalType": "uint256",
          "name": "id",
          "type": "uint256"
        },
        {
          "internalType": "uint256",
          "name": "amount",
          "type": "uint256"
        },
        {
          "internalType": "bytes",
          "name": "data",
          "type": "bytes"
        }
      ],
      "name": "safeTransferFrom",
      "outputs": [],
      "stateMutability": "nonpayable",
      "type": "function"
    },
    {
      "inputs": [
        {
          "internalType": "address",
          "name": "operator",
          "type": "address"
        },
        {
          "internalType": "bool",
          "name": "approved",
          "type": "bool"
        }
      ],
      "name": "setApprovalForAll",
      "outputs": [],
      "stateMutability": "nonpayable",
      "type": "function"
    },
    {
      "inputs": [
        {
          "internalType": "uint256",
          "name": "_subTokenId",
          "type": "uint256"
        },
        {
          "components": [
            {
              "internalType": "bytes",
              "name": "ipfsDetailsHash",
              "type": "bytes"
            },
            {
              "internalType": "address",
              "name": "owner",
              "type": "address"
            },
            {
              "internalType": "uint256",
              "name": "parentDeed",
              "type": "uint256"
            }
          ],
          "internalType": "struct SubdivisionNFT.SubdivisionInfo",
          "name": "_newInfo",
          "type": "tuple"
        }
      ],
      "name": "setInfo",
      "outputs": [],
      "stateMutability": "nonpayable",
      "type": "function"
    },
    {
      "inputs": [
        {
          "internalType": "bytes4",
          "name": "_interfaceId",
          "type": "bytes4"
        }
      ],
      "name": "supportsInterface",
      "outputs": [
        {
          "internalType": "bool",
          "name": "",
          "type": "bool"
        }
      ],
      "stateMutability": "view",
      "type": "function"
    },
    {
      "inputs": [
        {
          "internalType": "uint256",
          "name": "",
          "type": "uint256"
        }
      ],
      "name": "uri",
      "outputs": [
        {
          "internalType": "string",
          "name": "",
          "type": "string"
        }
      ],
      "stateMutability": "view",
      "type": "function"
    }
  ],
  "transactionHash": "0x8540eae5543ad460a43fcd4aeaaeac297639018cbacfe20055f24395d005676a",
  "args": [
    "0xa879C641a8ba6c41c6dcc6C1Fea74d78E8Ad3308",
    "0xfea72a21b5a305b3A4c340E6EC76BD3a7fb6027a"
  ],
  "numDeployments": 7,
  "solcInputHash": "433c9f6eeed855c552629aba100f733a",
  "bytecode": "0x60806040523480156200001157600080fd5b50604051620024db380380620024db83398101604081905262000034916200012c565b60408051602081019091526000815281906200005081620000fd565b50600380546001600160a01b0319166001600160a01b039283161790558216620000d15760405162461bcd60e51b815260206004820152602860248201527f5b5375626469766973696f6e4e46545d20496e76616c696420446565644e4654604482015267206164647265737360c01b606482015260840160405180910390fd5b506001600455600680546001600160a01b0319166001600160a01b0392909216919091179055620002d5565b60026200010b828262000209565b5050565b80516001600160a01b03811681146200012757600080fd5b919050565b600080604083850312156200014057600080fd5b6200014b836200010f565b91506200015b602084016200010f565b90509250929050565b634e487b7160e01b600052604160045260246000fd5b600181811c908216806200018f57607f821691505b602082108103620001b057634e487b7160e01b600052602260045260246000fd5b50919050565b601f8211156200020457600081815260208120601f850160051c81016020861015620001df5750805b601f850160051c820191505b818110156200020057828155600101620001eb565b5050505b505050565b81516001600160401b0381111562000225576200022562000164565b6200023d816200023684546200017a565b84620001b6565b602080601f8311600181146200027557600084156200025c5750858301515b600019600386901b1c1916600185901b17855562000200565b600085815260208120601f198616915b82811015620002a65788860151825594840194600190910190840162000285565b5085821015620002c55787850151600019600388901b60f8161c191681555b5050505050600190811b01905550565b6121f680620002e56000396000f3fe608060405234801561001057600080fd5b50600436106101205760003560e01c806391d14854116100ad578063c7f01cac11610071578063c7f01cac14610268578063d539139314610293578063e552a251146102ba578063e985e9c5146102cd578063f242432a1461030957600080fd5b806391d14854146102045780639a2be06914610217578063a22cb4651461022a578063b2e2f20b1461023d578063b99c23e31461026057600080fd5b806333bafc0f116100f457806333bafc0f146101a357806335c7b33a146101b657806343f02a55146101c95780634e1273f4146101dc57806389b9e75f146101fc57600080fd5b8062fdd58e1461012557806301ffc9a71461014b5780630e89341c1461016e5780632eb2c2d61461018e575b600080fd5b610138610133366004611563565b61031c565b6040519081526020015b60405180910390f35b61015e6101593660046115a5565b6103b5565b6040519015158152602001610142565b61018161017c3660046115c2565b6103c0565b6040516101429190611621565b6101a161019c36600461177d565b610454565b005b6101a16101b13660046118ab565b6104a0565b61015e6101c4366004611563565b61073b565b6101a16101d73660046115c2565b610750565b6101ef6101ea3660046118e7565b61083b565b60405161014291906119ee565b61015e610964565b61015e610212366004611a01565b6109e7565b6101a1610225366004611a31565b610a64565b6101a1610238366004611a7b565b610b75565b61013861024b3660046115c2565b60009081526005602052604090206002015490565b61015e610b84565b60065461027b906001600160a01b031681565b6040516001600160a01b039091168152602001610142565b6101387f9f2df0fed2c77648de5860a4cc508cd0818c85b8b8a1ab4ceeef8d981c8956a681565b6101a16102c8366004611aa9565b610b9e565b61015e6102db366004611b64565b6001600160a01b03918216600090815260016020908152604080832093909416825291909152205460ff1690565b6101a1610317366004611b92565b610bde565b60006001600160a01b03831661038c5760405162461bcd60e51b815260206004820152602a60248201527f455243313135353a2061646472657373207a65726f206973206e6f742061207660448201526930b634b21037bbb732b960b11b60648201526084015b60405180910390fd5b506000818152602081815260408083206001600160a01b03861684529091529020545b92915050565b60006103af82610c23565b6060600280546103cf90611bfa565b80601f01602080910402602001604051908101604052809291908181526020018280546103fb90611bfa565b80156104485780601f1061041d57610100808354040283529160200191610448565b820191906000526020600020905b81548152906001019060200180831161042b57829003601f168201915b50505050509050919050565b6001600160a01b038516331480610470575061047085336102db565b61048c5760405162461bcd60e51b815260040161038390611c34565b6104998585858585610c73565b5050505050565b60065460408083015190516331a9108f60e11b81526001600160a01b0390921691636352211e916104d79160040190815260200190565b602060405180830381865afa1580156104f4573d6000803e3d6000fd5b505050506040513d601f19601f820116820180604052508101906105189190611c82565b6001600160a01b0316336001600160a01b03161461059e5760405162461bcd60e51b815260206004820152603c60248201527f5b5375626469766973696f6e4e46545d2053656e646572206d7573742062652060448201527f746865206f776e6572206f662074686520706172656e742064656564000000006064820152608401610383565b600654604080830151905163b82c356960e01b81526001600160a01b039092169163b82c3569916105d59160040190815260200190565b602060405180830381865afa1580156105f2573d6000803e3d6000fd5b505050506040513d601f19601f820116820180604052508101906106169190611c9f565b61067e5760405162461bcd60e51b815260206004820152603360248201527f5b5375626469766973696f6e4e46545d20506172656e742064656564206d757360448201527274206265206c616e64206f722065737461746560681b6064820152608401610383565b610695816020015160045460018460000151610e50565b6004546000908152600560205260409020815181906106b49082611d07565b5060208201516001820180546001600160a01b0319166001600160a01b03831617905560408301516002830181905560045484517fbc54ac92f20f9659877e75b13d50d5476432987420822b3c4e6f863b58a23fd49392903360405161071e959493929190611dc6565b60405180910390a1600454610734906001611e1f565b6004555050565b600080610748848461031c565b119392505050565b61075a338261073b565b15156001146107dd5760405162461bcd60e51b815260206004820152604360248201527f5b5375626469766973696f6e4e46545d2053656e646572206d7573742062652060448201527f6f776e6572206f6620746865207375626469766973696f6e20746f206275726e606482015262081a5d60ea1b608482015260a401610383565b6107e933826001610f64565b7fb909c32df26127183a7030ec03442037e16cc04ea6977d9dcce5848f0d26c82e336000838152600560205260409081902060028101549151610830939286929091611e32565b60405180910390a150565b606081518351146108a05760405162461bcd60e51b815260206004820152602960248201527f455243313135353a206163636f756e747320616e6420696473206c656e677468604482015268040dad2e6dac2e8c6d60bb1b6064820152608401610383565b600083516001600160401b038111156108bb576108bb611634565b6040519080825280602002602001820160405280156108e4578160200160208202803683370190505b50905060005b845181101561095c5761092f85828151811061090857610908611edb565b602002602001015185838151811061092257610922611edb565b602002602001015161031c565b82828151811061094157610941611edb565b602090810291909101015261095581611ef1565b90506108ea565b509392505050565b6003546000906001600160a01b031663940e1570335b6040516001600160e01b031960e084901b1681526001600160a01b039091166004820152602401602060405180830381865afa1580156109be573d6000803e3d6000fd5b505050506040513d601f19601f820116820180604052508101906109e29190611c9f565b905090565b600354604051632474521560e21b8152600481018490526001600160a01b03838116602483015260009216906391d1485490604401602060405180830381865afa158015610a39573d6000803e3d6000fd5b505050506040513d601f19601f82011682018060405250810190610a5d9190611c9f565b9392505050565b610a6e338361073b565b1515600114610ae7576040805162461bcd60e51b81526020600482015260248101919091527f5b5375626469766973696f6e4e46545d2053656e646572204d7573742062652060448201527f6f776e6572206f66207375626469766973696f6e20746f2073657420696e666f6064820152608401610383565b600082815260056020526040902081518291908190610b069082611d07565b5060208201516001820180546001600160a01b0319166001600160a01b03909216919091179055604091820151600290910155517f21ed0e57b83a7d39842ea0927c2fb61a955a02c8685b35f5e0a352504a393e9890610b699084908490611f0a565b60405180910390a15050565b610b803383836110e0565b5050565b6003546000906001600160a01b031663c395fcb33361097a565b60005b8151811015610b8057610bcc828281518110610bbf57610bbf611edb565b60200260200101516104a0565b80610bd681611ef1565b915050610ba1565b6001600160a01b038516331480610bfa5750610bfa85336102db565b610c165760405162461bcd60e51b815260040161038390611c34565b61049985858585856111c0565b60006001600160e01b03198216636cdb3d1360e11b1480610c5457506001600160e01b031982166303a24d0760e21b145b806103af57506301ffc9a760e01b6001600160e01b03198316146103af565b8151835114610cd55760405162461bcd60e51b815260206004820152602860248201527f455243313135353a2069647320616e6420616d6f756e7473206c656e677468206044820152670dad2e6dac2e8c6d60c31b6064820152608401610383565b6001600160a01b038416610cfb5760405162461bcd60e51b815260040161038390611f56565b3360005b8451811015610de2576000858281518110610d1c57610d1c611edb565b602002602001015190506000858381518110610d3a57610d3a611edb565b602090810291909101810151600084815280835260408082206001600160a01b038e168352909352919091205490915081811015610d8a5760405162461bcd60e51b815260040161038390611f9b565b6000838152602081815260408083206001600160a01b038e8116855292528083208585039055908b16825281208054849290610dc7908490611e1f565b9250508190555050505080610ddb90611ef1565b9050610cff565b50846001600160a01b0316866001600160a01b0316826001600160a01b03167f4a39dc06d4c0dbc64b70af90fd698a233a518aa5d07e595d983b8c0526c8f7fb8787604051610e32929190611fe5565b60405180910390a4610e488187878787876112ea565b505050505050565b6001600160a01b038416610eb05760405162461bcd60e51b815260206004820152602160248201527f455243313135353a206d696e7420746f20746865207a65726f206164647265736044820152607360f81b6064820152608401610383565b336000610ebc85611445565b90506000610ec985611445565b90506000868152602081815260408083206001600160a01b038b16845290915281208054879290610efb908490611e1f565b909155505060408051878152602081018790526001600160a01b03808a1692600092918716917fc3d58168c5ae7397731d063d5bbf3d657854427343f4c083240f7aacaa2d0f62910160405180910390a4610f5b83600089898989611490565b50505050505050565b6001600160a01b038316610fc65760405162461bcd60e51b815260206004820152602360248201527f455243313135353a206275726e2066726f6d20746865207a65726f206164647260448201526265737360e81b6064820152608401610383565b336000610fd284611445565b90506000610fdf84611445565b60408051602080820183526000918290528882528181528282206001600160a01b038b16835290522054909150848110156110685760405162461bcd60e51b8152602060048201526024808201527f455243313135353a206275726e20616d6f756e7420657863656564732062616c604482015263616e636560e01b6064820152608401610383565b6000868152602081815260408083206001600160a01b038b81168086529184528285208a8703905582518b81529384018a90529092908816917fc3d58168c5ae7397731d063d5bbf3d657854427343f4c083240f7aacaa2d0f62910160405180910390a4604080516020810190915260009052610f5b565b816001600160a01b0316836001600160a01b0316036111535760405162461bcd60e51b815260206004820152602960248201527f455243313135353a2073657474696e6720617070726f76616c20737461747573604482015268103337b91039b2b63360b91b6064820152608401610383565b6001600160a01b03838116600081815260016020908152604080832094871680845294825291829020805460ff191686151590811790915591519182527f17307eab39ab6107e8899845ad3d59bd9653f200f220920489ca2b5937696c31910160405180910390a3505050565b6001600160a01b0384166111e65760405162461bcd60e51b815260040161038390611f56565b3360006111f285611445565b905060006111ff85611445565b90506000868152602081815260408083206001600160a01b038c168452909152902054858110156112425760405162461bcd60e51b815260040161038390611f9b565b6000878152602081815260408083206001600160a01b038d8116855292528083208985039055908a1682528120805488929061127f908490611e1f565b909155505060408051888152602081018890526001600160a01b03808b16928c821692918816917fc3d58168c5ae7397731d063d5bbf3d657854427343f4c083240f7aacaa2d0f62910160405180910390a46112df848a8a8a8a8a611490565b505050505050505050565b6001600160a01b0384163b15610e485760405163bc197c8160e01b81526001600160a01b0385169063bc197c819061132e9089908990889088908890600401612013565b6020604051808303816000875af1925050508015611369575060408051601f3d908101601f1916820190925261136691810190612071565b60015b6114155761137561208e565b806308c379a0036113ae57506113896120aa565b8061139457506113b0565b8060405162461bcd60e51b81526004016103839190611621565b505b60405162461bcd60e51b815260206004820152603460248201527f455243313135353a207472616e7366657220746f206e6f6e2d455243313135356044820152732932b1b2b4bb32b91034b6b83632b6b2b73a32b960611b6064820152608401610383565b6001600160e01b0319811663bc197c8160e01b14610f5b5760405162461bcd60e51b815260040161038390612133565b6040805160018082528183019092526060916000919060208083019080368337019050509050828160008151811061147f5761147f611edb565b602090810291909101015292915050565b6001600160a01b0384163b15610e485760405163f23a6e6160e01b81526001600160a01b0385169063f23a6e61906114d4908990899088908890889060040161217b565b6020604051808303816000875af192505050801561150f575060408051601f3d908101601f1916820190925261150c91810190612071565b60015b61151b5761137561208e565b6001600160e01b0319811663f23a6e6160e01b14610f5b5760405162461bcd60e51b815260040161038390612133565b6001600160a01b038116811461156057600080fd5b50565b6000806040838503121561157657600080fd5b82356115818161154b565b946020939093013593505050565b6001600160e01b03198116811461156057600080fd5b6000602082840312156115b757600080fd5b8135610a5d8161158f565b6000602082840312156115d457600080fd5b5035919050565b6000815180845260005b81811015611601576020818501810151868301820152016115e5565b506000602082860101526020601f19601f83011685010191505092915050565b602081526000610a5d60208301846115db565b634e487b7160e01b600052604160045260246000fd5b601f8201601f191681016001600160401b038111828210171561166f5761166f611634565b6040525050565b60006001600160401b0382111561168f5761168f611634565b5060051b60200190565b600082601f8301126116aa57600080fd5b813560206116b782611676565b6040516116c4828261164a565b83815260059390931b85018201928281019150868411156116e457600080fd5b8286015b848110156116ff57803583529183019183016116e8565b509695505050505050565b600082601f83011261171b57600080fd5b81356001600160401b0381111561173457611734611634565b60405161174b601f8301601f19166020018261164a565b81815284602083860101111561176057600080fd5b816020850160208301376000918101602001919091529392505050565b600080600080600060a0868803121561179557600080fd5b85356117a08161154b565b945060208601356117b08161154b565b935060408601356001600160401b03808211156117cc57600080fd5b6117d889838a01611699565b945060608801359150808211156117ee57600080fd5b6117fa89838a01611699565b9350608088013591508082111561181057600080fd5b5061181d8882890161170a565b9150509295509295909350565b60006060828403121561183c57600080fd5b604051606081016001600160401b03828210818311171561185f5761185f611634565b81604052829350843591508082111561187757600080fd5b506118848582860161170a565b82525060208301356118958161154b565b6020820152604092830135920191909152919050565b6000602082840312156118bd57600080fd5b81356001600160401b038111156118d357600080fd5b6118df8482850161182a565b949350505050565b600080604083850312156118fa57600080fd5b82356001600160401b038082111561191157600080fd5b818501915085601f83011261192557600080fd5b8135602061193282611676565b60405161193f828261164a565b83815260059390931b850182019282810191508984111561195f57600080fd5b948201945b838610156119865785356119778161154b565b82529482019490820190611964565b9650508601359250508082111561199c57600080fd5b506119a985828601611699565b9150509250929050565b600081518084526020808501945080840160005b838110156119e3578151875295820195908201906001016119c7565b509495945050505050565b602081526000610a5d60208301846119b3565b60008060408385031215611a1457600080fd5b823591506020830135611a268161154b565b809150509250929050565b60008060408385031215611a4457600080fd5b8235915060208301356001600160401b03811115611a6157600080fd5b6119a98582860161182a565b801515811461156057600080fd5b60008060408385031215611a8e57600080fd5b8235611a998161154b565b91506020830135611a2681611a6d565b60006020808385031215611abc57600080fd5b82356001600160401b0380821115611ad357600080fd5b818501915085601f830112611ae757600080fd5b8135611af281611676565b604051611aff828261164a565b82815260059290921b8401850191858101915088831115611b1f57600080fd5b8585015b83811015611b5757803585811115611b3b5760008081fd5b611b498b89838a010161182a565b845250918601918601611b23565b5098975050505050505050565b60008060408385031215611b7757600080fd5b8235611b828161154b565b91506020830135611a268161154b565b600080600080600060a08688031215611baa57600080fd5b8535611bb58161154b565b94506020860135611bc58161154b565b9350604086013592506060860135915060808601356001600160401b03811115611bee57600080fd5b61181d8882890161170a565b600181811c90821680611c0e57607f821691505b602082108103611c2e57634e487b7160e01b600052602260045260246000fd5b50919050565b6020808252602e908201527f455243313135353a2063616c6c6572206973206e6f7420746f6b656e206f776e60408201526d195c881bdc88185c1c1c9bdd995960921b606082015260800190565b600060208284031215611c9457600080fd5b8151610a5d8161154b565b600060208284031215611cb157600080fd5b8151610a5d81611a6d565b601f821115611d0257600081815260208120601f850160051c81016020861015611ce35750805b601f850160051c820191505b81811015610e4857828155600101611cef565b505050565b81516001600160401b03811115611d2057611d20611634565b611d3481611d2e8454611bfa565b84611cbc565b602080601f831160018114611d695760008415611d515750858301515b600019600386901b1c1916600185901b178555610e48565b600085815260208120601f198616915b82811015611d9857888601518255948401946001909101908401611d79565b5085821015611db65787850151600019600388901b60f8161c191681555b5050505050600190811b01905550565b600060018060a01b03808816835286602084015285604084015260a06060840152611df460a08401866115db565b91508084166080840152509695505050505050565b634e487b7160e01b600052601160045260246000fd5b808201808211156103af576103af611e09565b60018060a01b03851681526000602085818401528460408401526080606084015260008454611e6081611bfa565b80608087015260a0600180841660008114611e825760018114611e9c57611eca565b60ff1985168984015283151560051b890183019550611eca565b896000528660002060005b85811015611ec25781548b8201860152908301908801611ea7565b8a0184019650505b50939b9a5050505050505050505050565b634e487b7160e01b600052603260045260246000fd5b600060018201611f0357611f03611e09565b5060010190565b828152604060208201526000825160606040840152611f2c60a08401826115db565b60208501516001600160a01b03166060850152604090940151608090930192909252509092915050565b60208082526025908201527f455243313135353a207472616e7366657220746f20746865207a65726f206164604082015264647265737360d81b606082015260800190565b6020808252602a908201527f455243313135353a20696e73756666696369656e742062616c616e636520666f60408201526939103a3930b739b332b960b11b606082015260800190565b604081526000611ff860408301856119b3565b828103602084015261200a81856119b3565b95945050505050565b6001600160a01b0386811682528516602082015260a06040820181905260009061203f908301866119b3565b828103606084015261205181866119b3565b9050828103608084015261206581856115db565b98975050505050505050565b60006020828403121561208357600080fd5b8151610a5d8161158f565b600060033d11156120a75760046000803e5060005160e01c5b90565b600060443d10156120b85790565b6040516003193d81016004833e81513d6001600160401b0381602484011181841117156120e757505050505090565b82850191508151818111156120ff5750505050505090565b843d87010160208285010111156121195750505050505090565b6121286020828601018761164a565b509095945050505050565b60208082526028908201527f455243313135353a204552433131353552656365697665722072656a656374656040820152676420746f6b656e7360c01b606082015260800190565b6001600160a01b03868116825285166020820152604081018490526060810183905260a0608082018190526000906121b5908301846115db565b97965050505050505056fea2646970667358221220a89a2ea37b3b365ecf568be96f8365075235a6556325c40969c9b9c7869994ca64736f6c63430008110033",
  "devdoc": {
    "kind": "dev",
    "methods": {
      "balanceOf(address,uint256)": {
        "details": "See {IERC1155-balanceOf}. Requirements: - `account` cannot be the zero address."
      },
      "balanceOfBatch(address[],uint256[])": {
        "details": "See {IERC1155-balanceOfBatch}. Requirements: - `accounts` and `ids` must have the same length."
      },
      "isApprovedForAll(address,address)": {
        "details": "See {IERC1155-isApprovedForAll}."
      },
      "safeBatchTransferFrom(address,address,uint256[],uint256[],bytes)": {
        "details": "See {IERC1155-safeBatchTransferFrom}."
      },
      "safeTransferFrom(address,address,uint256,uint256,bytes)": {
        "details": "See {IERC1155-safeTransferFrom}."
      },
      "setApprovalForAll(address,bool)": {
        "details": "See {IERC1155-setApprovalForAll}."
      },
      "uri(uint256)": {
        "details": "See {IERC1155MetadataURI-uri}. This implementation returns the same URI for *all* token types. It relies on the token type ID substitution mechanism https://eips.ethereum.org/EIPS/eip-1155#metadata[defined in the EIP]. Clients calling this function must replace the `\\{id\\}` substring with the actual token type ID."
      }
    },
    "version": 1
  },
  "userdoc": {
    "kind": "user",
    "methods": {},
    "version": 1
  },
  "storageLayout": {
    "storage": [
      {
        "astId": 507,
        "contract": "contracts/SubdivisionNFT.sol:SubdivisionNFT",
        "label": "_balances",
        "offset": 0,
        "slot": "0",
        "type": "t_mapping(t_uint256,t_mapping(t_address,t_uint256))"
      },
      {
        "astId": 513,
        "contract": "contracts/SubdivisionNFT.sol:SubdivisionNFT",
        "label": "_operatorApprovals",
        "offset": 0,
        "slot": "1",
        "type": "t_mapping(t_address,t_mapping(t_address,t_bool))"
      },
      {
        "astId": 515,
        "contract": "contracts/SubdivisionNFT.sol:SubdivisionNFT",
        "label": "_uri",
        "offset": 0,
        "slot": "2",
        "type": "t_string_storage"
      },
      {
        "astId": 5948,
        "contract": "contracts/SubdivisionNFT.sol:SubdivisionNFT",
        "label": "accessManager",
        "offset": 0,
        "slot": "3",
        "type": "t_contract(AccessManager)5943"
      },
      {
        "astId": 8434,
        "contract": "contracts/SubdivisionNFT.sol:SubdivisionNFT",
        "label": "_nextsubTokenID",
        "offset": 0,
        "slot": "4",
        "type": "t_uint256"
      },
      {
        "astId": 8439,
        "contract": "contracts/SubdivisionNFT.sol:SubdivisionNFT",
        "label": "subdivisionInfoMap",
        "offset": 0,
        "slot": "5",
        "type": "t_mapping(t_uint256,t_struct(SubdivisionInfo)8432_storage)"
      },
      {
        "astId": 8447,
        "contract": "contracts/SubdivisionNFT.sol:SubdivisionNFT",
        "label": "deedNFT",
        "offset": 0,
        "slot": "6",
        "type": "t_contract(DeedNFT)6506"
      }
    ],
    "types": {
      "t_address": {
        "encoding": "inplace",
        "label": "address",
        "numberOfBytes": "20"
      },
      "t_bool": {
        "encoding": "inplace",
        "label": "bool",
        "numberOfBytes": "1"
      },
      "t_bytes_storage": {
        "encoding": "bytes",
        "label": "bytes",
        "numberOfBytes": "32"
      },
      "t_contract(AccessManager)5943": {
        "encoding": "inplace",
        "label": "contract AccessManager",
        "numberOfBytes": "20"
      },
      "t_contract(DeedNFT)6506": {
        "encoding": "inplace",
        "label": "contract DeedNFT",
        "numberOfBytes": "20"
      },
      "t_mapping(t_address,t_bool)": {
        "encoding": "mapping",
        "key": "t_address",
        "label": "mapping(address => bool)",
        "numberOfBytes": "32",
        "value": "t_bool"
      },
      "t_mapping(t_address,t_mapping(t_address,t_bool))": {
        "encoding": "mapping",
        "key": "t_address",
        "label": "mapping(address => mapping(address => bool))",
        "numberOfBytes": "32",
        "value": "t_mapping(t_address,t_bool)"
      },
      "t_mapping(t_address,t_uint256)": {
        "encoding": "mapping",
        "key": "t_address",
        "label": "mapping(address => uint256)",
        "numberOfBytes": "32",
        "value": "t_uint256"
      },
      "t_mapping(t_uint256,t_mapping(t_address,t_uint256))": {
        "encoding": "mapping",
        "key": "t_uint256",
        "label": "mapping(uint256 => mapping(address => uint256))",
        "numberOfBytes": "32",
        "value": "t_mapping(t_address,t_uint256)"
      },
      "t_mapping(t_uint256,t_struct(SubdivisionInfo)8432_storage)": {
        "encoding": "mapping",
        "key": "t_uint256",
        "label": "mapping(uint256 => struct SubdivisionNFT.SubdivisionInfo)",
        "numberOfBytes": "32",
        "value": "t_struct(SubdivisionInfo)8432_storage"
      },
      "t_string_storage": {
        "encoding": "bytes",
        "label": "string",
        "numberOfBytes": "32"
      },
      "t_struct(SubdivisionInfo)8432_storage": {
        "encoding": "inplace",
        "label": "struct SubdivisionNFT.SubdivisionInfo",
        "members": [
          {
            "astId": 8427,
            "contract": "contracts/SubdivisionNFT.sol:SubdivisionNFT",
            "label": "ipfsDetailsHash",
            "offset": 0,
            "slot": "0",
            "type": "t_bytes_storage"
          },
          {
            "astId": 8429,
            "contract": "contracts/SubdivisionNFT.sol:SubdivisionNFT",
            "label": "owner",
            "offset": 0,
            "slot": "1",
            "type": "t_address"
          },
          {
            "astId": 8431,
            "contract": "contracts/SubdivisionNFT.sol:SubdivisionNFT",
            "label": "parentDeed",
            "offset": 0,
            "slot": "2",
            "type": "t_uint256"
          }
        ],
        "numberOfBytes": "96"
      },
      "t_uint256": {
        "encoding": "inplace",
        "label": "uint256",
        "numberOfBytes": "32"
      }
    }
  }
}