{
  "address": "0x415f0b76ACa44EA545Db667Cc22fc61C4106C302",
  "abi": [
    {
      "inputs": [
        {
          "internalType": "string",
          "name": "_uri",
          "type": "string"
        },
        {
          "internalType": "address",
          "name": "_deedNFT",
          "type": "address"
        }
      ],
      "stateMutability": "nonpayable",
      "type": "constructor"
    },
    {
      "anonymous": false,
      "inputs": [
        {
          "indexed": true,
          "internalType": "address",
          "name": "account",
          "type": "address"
        },
        {
          "indexed": true,
          "internalType": "address",
          "name": "operator",
          "type": "address"
        },
        {
          "indexed": false,
          "internalType": "bool",
          "name": "approved",
          "type": "bool"
        }
      ],
      "name": "ApprovalForAll",
      "type": "event"
    },
    {
      "anonymous": false,
      "inputs": [
        {
          "indexed": true,
          "internalType": "bytes32",
          "name": "role",
          "type": "bytes32"
        },
        {
          "indexed": true,
          "internalType": "bytes32",
          "name": "previousAdminRole",
          "type": "bytes32"
        },
        {
          "indexed": true,
          "internalType": "bytes32",
          "name": "newAdminRole",
          "type": "bytes32"
        }
      ],
      "name": "RoleAdminChanged",
      "type": "event"
    },
    {
      "anonymous": false,
      "inputs": [
        {
          "indexed": true,
          "internalType": "bytes32",
          "name": "role",
          "type": "bytes32"
        },
        {
          "indexed": true,
          "internalType": "address",
          "name": "account",
          "type": "address"
        },
        {
          "indexed": true,
          "internalType": "address",
          "name": "sender",
          "type": "address"
        }
      ],
      "name": "RoleGranted",
      "type": "event"
    },
    {
      "anonymous": false,
      "inputs": [
        {
          "indexed": true,
          "internalType": "bytes32",
          "name": "role",
          "type": "bytes32"
        },
        {
          "indexed": true,
          "internalType": "address",
          "name": "account",
          "type": "address"
        },
        {
          "indexed": true,
          "internalType": "address",
          "name": "sender",
          "type": "address"
        }
      ],
      "name": "RoleRevoked",
      "type": "event"
    },
    {
      "anonymous": false,
      "inputs": [
        {
          "indexed": false,
          "internalType": "address",
          "name": "account",
          "type": "address"
        },
        {
          "indexed": false,
          "internalType": "uint256",
          "name": "subdivisionId",
          "type": "uint256"
        },
        {
          "indexed": false,
          "internalType": "uint256",
          "name": "deedId",
          "type": "uint256"
        },
        {
          "indexed": false,
          "internalType": "bytes",
          "name": "ipfsDetailsHash",
          "type": "bytes"
        }
      ],
      "name": "SubdivisionBurned",
      "type": "event"
    },
    {
      "anonymous": false,
      "inputs": [
        {
          "indexed": false,
          "internalType": "uint256",
          "name": "tokenId",
          "type": "uint256"
        },
        {
          "components": [
            {
              "internalType": "bytes",
              "name": "ipfsDetailsHash",
              "type": "bytes"
            },
            {
              "internalType": "address",
              "name": "owner",
              "type": "address"
            },
            {
              "internalType": "uint256",
              "name": "parentDeed",
              "type": "uint256"
            }
          ],
          "indexed": false,
          "internalType": "struct SubdivisionNFT.SubdivisionInfo",
          "name": "info",
          "type": "tuple"
        }
      ],
      "name": "SubdivisionInfoSet",
      "type": "event"
    },
    {
      "anonymous": false,
      "inputs": [
        {
          "indexed": false,
          "internalType": "address",
          "name": "subdivisionOwner",
          "type": "address"
        },
        {
          "indexed": false,
          "internalType": "uint256",
          "name": "subdivisionId",
          "type": "uint256"
        },
        {
          "indexed": false,
          "internalType": "uint256",
          "name": "deedId",
          "type": "uint256"
        },
        {
          "indexed": false,
          "internalType": "bytes",
          "name": "ipfsDetailsHash",
          "type": "bytes"
        },
        {
          "indexed": false,
          "internalType": "address",
          "name": "minter",
          "type": "address"
        }
      ],
      "name": "SubdivisionMinted",
      "type": "event"
    },
    {
      "anonymous": false,
      "inputs": [
        {
          "indexed": true,
          "internalType": "address",
          "name": "operator",
          "type": "address"
        },
        {
          "indexed": true,
          "internalType": "address",
          "name": "from",
          "type": "address"
        },
        {
          "indexed": true,
          "internalType": "address",
          "name": "to",
          "type": "address"
        },
        {
          "indexed": false,
          "internalType": "uint256[]",
          "name": "ids",
          "type": "uint256[]"
        },
        {
          "indexed": false,
          "internalType": "uint256[]",
          "name": "values",
          "type": "uint256[]"
        }
      ],
      "name": "TransferBatch",
      "type": "event"
    },
    {
      "anonymous": false,
      "inputs": [
        {
          "indexed": true,
          "internalType": "address",
          "name": "operator",
          "type": "address"
        },
        {
          "indexed": true,
          "internalType": "address",
          "name": "from",
          "type": "address"
        },
        {
          "indexed": true,
          "internalType": "address",
          "name": "to",
          "type": "address"
        },
        {
          "indexed": false,
          "internalType": "uint256",
          "name": "id",
          "type": "uint256"
        },
        {
          "indexed": false,
          "internalType": "uint256",
          "name": "value",
          "type": "uint256"
        }
      ],
      "name": "TransferSingle",
      "type": "event"
    },
    {
      "anonymous": false,
      "inputs": [
        {
          "indexed": false,
          "internalType": "string",
          "name": "value",
          "type": "string"
        },
        {
          "indexed": true,
          "internalType": "uint256",
          "name": "id",
          "type": "uint256"
        }
      ],
      "name": "URI",
      "type": "event"
    },
    {
      "inputs": [],
      "name": "DEFAULT_ADMIN_ROLE",
      "outputs": [
        {
          "internalType": "bytes32",
          "name": "",
          "type": "bytes32"
        }
      ],
      "stateMutability": "view",
      "type": "function"
    },
    {
      "inputs": [],
      "name": "MINTER_ROLE",
      "outputs": [
        {
          "internalType": "bytes32",
          "name": "",
          "type": "bytes32"
        }
      ],
      "stateMutability": "view",
      "type": "function"
    },
    {
      "inputs": [
        {
          "internalType": "address",
          "name": "account",
          "type": "address"
        },
        {
          "internalType": "uint256",
          "name": "id",
          "type": "uint256"
        }
      ],
      "name": "balanceOf",
      "outputs": [
        {
          "internalType": "uint256",
          "name": "",
          "type": "uint256"
        }
      ],
      "stateMutability": "view",
      "type": "function"
    },
    {
      "inputs": [
        {
          "internalType": "address[]",
          "name": "accounts",
          "type": "address[]"
        },
        {
          "internalType": "uint256[]",
          "name": "ids",
          "type": "uint256[]"
        }
      ],
      "name": "balanceOfBatch",
      "outputs": [
        {
          "internalType": "uint256[]",
          "name": "",
          "type": "uint256[]"
        }
      ],
      "stateMutability": "view",
      "type": "function"
    },
    {
      "inputs": [
        {
          "components": [
            {
              "internalType": "bytes",
              "name": "ipfsDetailsHash",
              "type": "bytes"
            },
            {
              "internalType": "address",
              "name": "owner",
              "type": "address"
            },
            {
              "internalType": "uint256",
              "name": "parentDeed",
              "type": "uint256"
            }
          ],
          "internalType": "struct SubdivisionNFT.SubdivisionInfo[]",
          "name": "_infos",
          "type": "tuple[]"
        }
      ],
      "name": "batchMint",
      "outputs": [],
      "stateMutability": "nonpayable",
      "type": "function"
    },
    {
      "inputs": [
        {
          "internalType": "uint256",
          "name": "_subTokenId",
          "type": "uint256"
        }
      ],
      "name": "burnSubdivision",
      "outputs": [],
      "stateMutability": "nonpayable",
      "type": "function"
    },
    {
      "inputs": [],
      "name": "deedNFT",
      "outputs": [
        {
          "internalType": "contract DeedNFT",
          "name": "",
          "type": "address"
        }
      ],
      "stateMutability": "view",
      "type": "function"
    },
    {
      "inputs": [
        {
          "internalType": "uint256",
          "name": "_subTokenId",
          "type": "uint256"
        }
      ],
      "name": "getParentDeed",
      "outputs": [
        {
          "internalType": "uint256",
          "name": "",
          "type": "uint256"
        }
      ],
      "stateMutability": "view",
      "type": "function"
    },
    {
      "inputs": [
        {
          "internalType": "bytes32",
          "name": "role",
          "type": "bytes32"
        }
      ],
      "name": "getRoleAdmin",
      "outputs": [
        {
          "internalType": "bytes32",
          "name": "",
          "type": "bytes32"
        }
      ],
      "stateMutability": "view",
      "type": "function"
    },
    {
      "inputs": [
        {
          "internalType": "bytes32",
          "name": "role",
          "type": "bytes32"
        },
        {
          "internalType": "address",
          "name": "account",
          "type": "address"
        }
      ],
      "name": "grantRole",
      "outputs": [],
      "stateMutability": "nonpayable",
      "type": "function"
    },
    {
      "inputs": [
        {
          "internalType": "bytes32",
          "name": "role",
          "type": "bytes32"
        },
        {
          "internalType": "address",
          "name": "account",
          "type": "address"
        }
      ],
      "name": "hasRole",
      "outputs": [
        {
          "internalType": "bool",
          "name": "",
          "type": "bool"
        }
      ],
      "stateMutability": "view",
      "type": "function"
    },
    {
      "inputs": [
        {
          "internalType": "address",
          "name": "account",
          "type": "address"
        },
        {
          "internalType": "address",
          "name": "operator",
          "type": "address"
        }
      ],
      "name": "isApprovedForAll",
      "outputs": [
        {
          "internalType": "bool",
          "name": "",
          "type": "bool"
        }
      ],
      "stateMutability": "view",
      "type": "function"
    },
    {
      "inputs": [
        {
          "internalType": "address",
          "name": "_owner",
          "type": "address"
        },
        {
          "internalType": "uint256",
          "name": "_subTokenId",
          "type": "uint256"
        }
      ],
      "name": "isOwnerOfSubdivision",
      "outputs": [
        {
          "internalType": "bool",
          "name": "",
          "type": "bool"
        }
      ],
      "stateMutability": "view",
      "type": "function"
    },
    {
      "inputs": [
        {
          "components": [
            {
              "internalType": "bytes",
              "name": "ipfsDetailsHash",
              "type": "bytes"
            },
            {
              "internalType": "address",
              "name": "owner",
              "type": "address"
            },
            {
              "internalType": "uint256",
              "name": "parentDeed",
              "type": "uint256"
            }
          ],
          "internalType": "struct SubdivisionNFT.SubdivisionInfo",
          "name": "_info",
          "type": "tuple"
        }
      ],
      "name": "mintSubdivision",
      "outputs": [],
      "stateMutability": "nonpayable",
      "type": "function"
    },
    {
      "inputs": [
        {
          "internalType": "bytes32",
          "name": "role",
          "type": "bytes32"
        },
        {
          "internalType": "address",
          "name": "account",
          "type": "address"
        }
      ],
      "name": "renounceRole",
      "outputs": [],
      "stateMutability": "nonpayable",
      "type": "function"
    },
    {
      "inputs": [
        {
          "internalType": "bytes32",
          "name": "role",
          "type": "bytes32"
        },
        {
          "internalType": "address",
          "name": "account",
          "type": "address"
        }
      ],
      "name": "revokeRole",
      "outputs": [],
      "stateMutability": "nonpayable",
      "type": "function"
    },
    {
      "inputs": [
        {
          "internalType": "address",
          "name": "from",
          "type": "address"
        },
        {
          "internalType": "address",
          "name": "to",
          "type": "address"
        },
        {
          "internalType": "uint256[]",
          "name": "ids",
          "type": "uint256[]"
        },
        {
          "internalType": "uint256[]",
          "name": "amounts",
          "type": "uint256[]"
        },
        {
          "internalType": "bytes",
          "name": "data",
          "type": "bytes"
        }
      ],
      "name": "safeBatchTransferFrom",
      "outputs": [],
      "stateMutability": "nonpayable",
      "type": "function"
    },
    {
      "inputs": [
        {
          "internalType": "address",
          "name": "from",
          "type": "address"
        },
        {
          "internalType": "address",
          "name": "to",
          "type": "address"
        },
        {
          "internalType": "uint256",
          "name": "id",
          "type": "uint256"
        },
        {
          "internalType": "uint256",
          "name": "amount",
          "type": "uint256"
        },
        {
          "internalType": "bytes",
          "name": "data",
          "type": "bytes"
        }
      ],
      "name": "safeTransferFrom",
      "outputs": [],
      "stateMutability": "nonpayable",
      "type": "function"
    },
    {
      "inputs": [
        {
          "internalType": "address",
          "name": "operator",
          "type": "address"
        },
        {
          "internalType": "bool",
          "name": "approved",
          "type": "bool"
        }
      ],
      "name": "setApprovalForAll",
      "outputs": [],
      "stateMutability": "nonpayable",
      "type": "function"
    },
    {
      "inputs": [
        {
          "internalType": "uint256",
          "name": "_subTokenId",
          "type": "uint256"
        },
        {
          "components": [
            {
              "internalType": "bytes",
              "name": "ipfsDetailsHash",
              "type": "bytes"
            },
            {
              "internalType": "address",
              "name": "owner",
              "type": "address"
            },
            {
              "internalType": "uint256",
              "name": "parentDeed",
              "type": "uint256"
            }
          ],
          "internalType": "struct SubdivisionNFT.SubdivisionInfo",
          "name": "_newInfo",
          "type": "tuple"
        }
      ],
      "name": "setInfo",
      "outputs": [],
      "stateMutability": "nonpayable",
      "type": "function"
    },
    {
      "inputs": [
        {
          "internalType": "bytes4",
          "name": "_interfaceId",
          "type": "bytes4"
        }
      ],
      "name": "supportsInterface",
      "outputs": [
        {
          "internalType": "bool",
          "name": "",
          "type": "bool"
        }
      ],
      "stateMutability": "view",
      "type": "function"
    },
    {
      "inputs": [
        {
          "internalType": "uint256",
          "name": "",
          "type": "uint256"
        }
      ],
      "name": "uri",
      "outputs": [
        {
          "internalType": "string",
          "name": "",
          "type": "string"
        }
      ],
      "stateMutability": "view",
      "type": "function"
    }
  ],
  "transactionHash": "0x59b6c34ae9d8013220c6aef1b8ed315444308ad33e3f936062b9d95cb174287a",
  "args": [
    "",
    "0x72D760c1a000EfA3156C361AB30FBB7772cC0Cfd"
  ],
  "numDeployments": 6,
  "solcInputHash": "2023d978e00460423266283257df70e6",
  "bytecode": "0x60806040523480156200001157600080fd5b5060405162002a6038038062002a608339810160408190526200003491620001f7565b81620000408162000105565b506001600160a01b038116620000ad5760405162461bcd60e51b815260206004820152602860248201527f5b5375626469766973696f6e4e46545d20496e76616c696420446565644e4654604482015267206164647265737360c01b606482015260840160405180910390fd5b6001600455620000de7f9f2df0fed2c77648de5860a4cc508cd0818c85b8b8a1ab4ceeef8d981c8956a63362000117565b600680546001600160a01b0319166001600160a01b0392909216919091179055506200043a565b60026200011382826200036e565b5050565b60008281526003602090815260408083206001600160a01b038516845290915290205462000113908390839060ff16620001135760008281526003602090815260408083206001600160a01b03851684529091529020805460ff19166001179055620001803390565b6001600160a01b0316816001600160a01b0316837f2f8788117e7eff1d82e926ec794901d17c78024a50270940304540a733656f0d60405160405180910390a45050565b634e487b7160e01b600052604160045260246000fd5b80516001600160a01b0381168114620001f257600080fd5b919050565b600080604083850312156200020b57600080fd5b82516001600160401b03808211156200022357600080fd5b818501915085601f8301126200023857600080fd5b8151818111156200024d576200024d620001c4565b604051601f8201601f19908116603f01168101908382118183101715620002785762000278620001c4565b816040528281526020935088848487010111156200029557600080fd5b600091505b82821015620002b957848201840151818301850152908301906200029a565b6000848483010152809650505050620002d4818601620001da565b925050509250929050565b600181811c90821680620002f457607f821691505b6020821081036200031557634e487b7160e01b600052602260045260246000fd5b50919050565b601f8211156200036957600081815260208120601f850160051c81016020861015620003445750805b601f850160051c820191505b81811015620003655782815560010162000350565b5050505b505050565b81516001600160401b038111156200038a576200038a620001c4565b620003a2816200039b8454620002df565b846200031b565b602080601f831160018114620003da5760008415620003c15750858301515b600019600386901b1c1916600185901b17855562000365565b600085815260208120601f198616915b828110156200040b57888601518255948401946001909101908401620003ea565b50858210156200042a5787850151600019600388901b60f8161c191681555b5050505050600190811b01905550565b612616806200044a6000396000f3fe608060405234801561001057600080fd5b50600436106101415760003560e01c806391d14854116100b8578063c7f01cac1161007c578063c7f01cac146102ca578063d5391393146102f5578063d547741f1461031c578063e552a2511461032f578063e985e9c514610342578063f242432a1461037e57600080fd5b806391d14854146102665780639a2be06914610279578063a217fddf1461028c578063a22cb46514610294578063b2e2f20b146102a757600080fd5b80632f2ff15d1161010a5780632f2ff15d146101e757806333bafc0f146101fa57806335c7b33a1461020d57806336568abe1461022057806343f02a55146102335780634e1273f41461024657600080fd5b8062fdd58e1461014657806301ffc9a71461016c5780630e89341c1461018f578063248a9ca3146101af5780632eb2c2d6146101d2575b600080fd5b6101596101543660046118db565b610391565b6040519081526020015b60405180910390f35b61017f61017a36600461191d565b61042a565b6040519015158152602001610163565b6101a261019d36600461193a565b610435565b60405161016391906119a3565b6101596101bd36600461193a565b60009081526003602052604090206001015490565b6101e56101e0366004611aff565b6104c9565b005b6101e56101f5366004611bac565b610515565b6101e5610208366004611c5d565b61053f565b61017f61021b3660046118db565b6107da565b6101e561022e366004611bac565b6107ef565b6101e561024136600461193a565b61086d565b610259610254366004611c99565b610958565b6040516101639190611da0565b61017f610274366004611bac565b610a81565b6101e5610287366004611db3565b610aac565b610159600081565b6101e56102a2366004611dfd565b610bbd565b6101596102b536600461193a565b60009081526005602052604090206002015490565b6006546102dd906001600160a01b031681565b6040516001600160a01b039091168152602001610163565b6101597f9f2df0fed2c77648de5860a4cc508cd0818c85b8b8a1ab4ceeef8d981c8956a681565b6101e561032a366004611bac565b610bc8565b6101e561033d366004611e2b565b610bed565b61017f610350366004611ee6565b6001600160a01b03918216600090815260016020908152604080832093909416825291909152205460ff1690565b6101e561038c366004611f14565b610c2d565b60006001600160a01b0383166104015760405162461bcd60e51b815260206004820152602a60248201527f455243313135353a2061646472657373207a65726f206973206e6f742061207660448201526930b634b21037bbb732b960b11b60648201526084015b60405180910390fd5b506000818152602081815260408083206001600160a01b03861684529091529020545b92915050565b600061042482610c72565b60606002805461044490611f7c565b80601f016020809104026020016040519081016040528092919081815260200182805461047090611f7c565b80156104bd5780601f10610492576101008083540402835291602001916104bd565b820191906000526020600020905b8154815290600101906020018083116104a057829003601f168201915b50505050509050919050565b6001600160a01b0385163314806104e557506104e58533610350565b6105015760405162461bcd60e51b81526004016103f890611fb6565b61050e8585858585610c97565b5050505050565b60008281526003602052604090206001015461053081610e74565b61053a8383610e81565b505050565b60065460408083015190516331a9108f60e11b81526001600160a01b0390921691636352211e916105769160040190815260200190565b602060405180830381865afa158015610593573d6000803e3d6000fd5b505050506040513d601f19601f820116820180604052508101906105b79190612004565b6001600160a01b0316336001600160a01b03161461063d5760405162461bcd60e51b815260206004820152603c60248201527f5b5375626469766973696f6e4e46545d2053656e646572206d7573742062652060448201527f746865206f776e6572206f662074686520706172656e7420646565640000000060648201526084016103f8565b600654604080830151905163b82c356960e01b81526001600160a01b039092169163b82c3569916106749160040190815260200190565b602060405180830381865afa158015610691573d6000803e3d6000fd5b505050506040513d601f19601f820116820180604052508101906106b59190612021565b61071d5760405162461bcd60e51b815260206004820152603360248201527f5b5375626469766973696f6e4e46545d20506172656e742064656564206d757360448201527274206265206c616e64206f722065737461746560681b60648201526084016103f8565b610734816020015160045460018460000151610f07565b6004546000908152600560205260409020815181906107539082612084565b5060208201516001820180546001600160a01b0319166001600160a01b03831617905560408301516002830181905560045484517fbc54ac92f20f9659877e75b13d50d5476432987420822b3c4e6f863b58a23fd4939290336040516107bd959493929190612143565b60405180910390a16004546107d390600161219c565b6004555050565b6000806107e78484610391565b119392505050565b6001600160a01b038116331461085f5760405162461bcd60e51b815260206004820152602f60248201527f416363657373436f6e74726f6c3a2063616e206f6e6c792072656e6f756e636560448201526e103937b632b9903337b91039b2b63360891b60648201526084016103f8565b610869828261101b565b5050565b61087733826107da565b15156001146108fa5760405162461bcd60e51b815260206004820152604360248201527f5b5375626469766973696f6e4e46545d2053656e646572206d7573742062652060448201527f6f776e6572206f6620746865207375626469766973696f6e20746f206275726e606482015262081a5d60ea1b608482015260a4016103f8565b61090633826001611082565b7fb909c32df26127183a7030ec03442037e16cc04ea6977d9dcce5848f0d26c82e33600083815260056020526040908190206002810154915161094d9392869290916121af565b60405180910390a150565b606081518351146109bd5760405162461bcd60e51b815260206004820152602960248201527f455243313135353a206163636f756e747320616e6420696473206c656e677468604482015268040dad2e6dac2e8c6d60bb1b60648201526084016103f8565b600083516001600160401b038111156109d8576109d86119b6565b604051908082528060200260200182016040528015610a01578160200160208202803683370190505b50905060005b8451811015610a7957610a4c858281518110610a2557610a25612258565b6020026020010151858381518110610a3f57610a3f612258565b6020026020010151610391565b828281518110610a5e57610a5e612258565b6020908102919091010152610a728161226e565b9050610a07565b509392505050565b60009182526003602090815260408084206001600160a01b0393909316845291905290205460ff1690565b610ab633836107da565b1515600114610b2f576040805162461bcd60e51b81526020600482015260248101919091527f5b5375626469766973696f6e4e46545d2053656e646572204d7573742062652060448201527f6f776e6572206f66207375626469766973696f6e20746f2073657420696e666f60648201526084016103f8565b600082815260056020526040902081518291908190610b4e9082612084565b5060208201516001820180546001600160a01b0319166001600160a01b03909216919091179055604091820151600290910155517f21ed0e57b83a7d39842ea0927c2fb61a955a02c8685b35f5e0a352504a393e9890610bb19084908490612287565b60405180910390a15050565b6108693383836111fe565b600082815260036020526040902060010154610be381610e74565b61053a838361101b565b60005b815181101561086957610c1b828281518110610c0e57610c0e612258565b602002602001015161053f565b80610c258161226e565b915050610bf0565b6001600160a01b038516331480610c495750610c498533610350565b610c655760405162461bcd60e51b81526004016103f890611fb6565b61050e85858585856112de565b60006001600160e01b03198216637965db0b60e01b1480610424575061042482611408565b8151835114610cf95760405162461bcd60e51b815260206004820152602860248201527f455243313135353a2069647320616e6420616d6f756e7473206c656e677468206044820152670dad2e6dac2e8c6d60c31b60648201526084016103f8565b6001600160a01b038416610d1f5760405162461bcd60e51b81526004016103f8906122d3565b3360005b8451811015610e06576000858281518110610d4057610d40612258565b602002602001015190506000858381518110610d5e57610d5e612258565b602090810291909101810151600084815280835260408082206001600160a01b038e168352909352919091205490915081811015610dae5760405162461bcd60e51b81526004016103f890612318565b6000838152602081815260408083206001600160a01b038e8116855292528083208585039055908b16825281208054849290610deb90849061219c565b9250508190555050505080610dff9061226e565b9050610d23565b50846001600160a01b0316866001600160a01b0316826001600160a01b03167f4a39dc06d4c0dbc64b70af90fd698a233a518aa5d07e595d983b8c0526c8f7fb8787604051610e56929190612362565b60405180910390a4610e6c818787878787611458565b505050505050565b610e7e81336115b3565b50565b610e8b8282610a81565b6108695760008281526003602090815260408083206001600160a01b03851684529091529020805460ff19166001179055610ec33390565b6001600160a01b0316816001600160a01b0316837f2f8788117e7eff1d82e926ec794901d17c78024a50270940304540a733656f0d60405160405180910390a45050565b6001600160a01b038416610f675760405162461bcd60e51b815260206004820152602160248201527f455243313135353a206d696e7420746f20746865207a65726f206164647265736044820152607360f81b60648201526084016103f8565b336000610f738561160c565b90506000610f808561160c565b90506000868152602081815260408083206001600160a01b038b16845290915281208054879290610fb290849061219c565b909155505060408051878152602081018790526001600160a01b03808a1692600092918716917fc3d58168c5ae7397731d063d5bbf3d657854427343f4c083240f7aacaa2d0f62910160405180910390a461101283600089898989611657565b50505050505050565b6110258282610a81565b156108695760008281526003602090815260408083206001600160a01b0385168085529252808320805460ff1916905551339285917ff6391f5c32d9c69d2a47ea670b442974b53935d1edc7fd64eb21e047a839171b9190a45050565b6001600160a01b0383166110e45760405162461bcd60e51b815260206004820152602360248201527f455243313135353a206275726e2066726f6d20746865207a65726f206164647260448201526265737360e81b60648201526084016103f8565b3360006110f08461160c565b905060006110fd8461160c565b60408051602080820183526000918290528882528181528282206001600160a01b038b16835290522054909150848110156111865760405162461bcd60e51b8152602060048201526024808201527f455243313135353a206275726e20616d6f756e7420657863656564732062616c604482015263616e636560e01b60648201526084016103f8565b6000868152602081815260408083206001600160a01b038b81168086529184528285208a8703905582518b81529384018a90529092908816917fc3d58168c5ae7397731d063d5bbf3d657854427343f4c083240f7aacaa2d0f62910160405180910390a4604080516020810190915260009052611012565b816001600160a01b0316836001600160a01b0316036112715760405162461bcd60e51b815260206004820152602960248201527f455243313135353a2073657474696e6720617070726f76616c20737461747573604482015268103337b91039b2b63360b91b60648201526084016103f8565b6001600160a01b03838116600081815260016020908152604080832094871680845294825291829020805460ff191686151590811790915591519182527f17307eab39ab6107e8899845ad3d59bd9653f200f220920489ca2b5937696c31910160405180910390a3505050565b6001600160a01b0384166113045760405162461bcd60e51b81526004016103f8906122d3565b3360006113108561160c565b9050600061131d8561160c565b90506000868152602081815260408083206001600160a01b038c168452909152902054858110156113605760405162461bcd60e51b81526004016103f890612318565b6000878152602081815260408083206001600160a01b038d8116855292528083208985039055908a1682528120805488929061139d90849061219c565b909155505060408051888152602081018890526001600160a01b03808b16928c821692918816917fc3d58168c5ae7397731d063d5bbf3d657854427343f4c083240f7aacaa2d0f62910160405180910390a46113fd848a8a8a8a8a611657565b505050505050505050565b60006001600160e01b03198216636cdb3d1360e11b148061143957506001600160e01b031982166303a24d0760e21b145b8061042457506301ffc9a760e01b6001600160e01b0319831614610424565b6001600160a01b0384163b15610e6c5760405163bc197c8160e01b81526001600160a01b0385169063bc197c819061149c9089908990889088908890600401612390565b6020604051808303816000875af19250505080156114d7575060408051601f3d908101601f191682019092526114d4918101906123ee565b60015b611583576114e361240b565b806308c379a00361151c57506114f7612427565b80611502575061151e565b8060405162461bcd60e51b81526004016103f891906119a3565b505b60405162461bcd60e51b815260206004820152603460248201527f455243313135353a207472616e7366657220746f206e6f6e2d455243313135356044820152732932b1b2b4bb32b91034b6b83632b6b2b73a32b960611b60648201526084016103f8565b6001600160e01b0319811663bc197c8160e01b146110125760405162461bcd60e51b81526004016103f8906124b0565b6115bd8282610a81565b610869576115ca81611712565b6115d5836020611724565b6040516020016115e69291906124f8565b60408051601f198184030181529082905262461bcd60e51b82526103f8916004016119a3565b6040805160018082528183019092526060916000919060208083019080368337019050509050828160008151811061164657611646612258565b602090810291909101015292915050565b6001600160a01b0384163b15610e6c5760405163f23a6e6160e01b81526001600160a01b0385169063f23a6e619061169b908990899088908890889060040161256d565b6020604051808303816000875af19250505080156116d6575060408051601f3d908101601f191682019092526116d3918101906123ee565b60015b6116e2576114e361240b565b6001600160e01b0319811663f23a6e6160e01b146110125760405162461bcd60e51b81526004016103f8906124b0565b60606104246001600160a01b03831660145b606060006117338360026125b2565b61173e90600261219c565b6001600160401b03811115611755576117556119b6565b6040519080825280601f01601f19166020018201604052801561177f576020820181803683370190505b509050600360fc1b8160008151811061179a5761179a612258565b60200101906001600160f81b031916908160001a905350600f60fb1b816001815181106117c9576117c9612258565b60200101906001600160f81b031916908160001a90535060006117ed8460026125b2565b6117f890600161219c565b90505b6001811115611870576f181899199a1a9b1b9c1cb0b131b232b360811b85600f166010811061182c5761182c612258565b1a60f81b82828151811061184257611842612258565b60200101906001600160f81b031916908160001a90535060049490941c93611869816125c9565b90506117fb565b5083156118bf5760405162461bcd60e51b815260206004820181905260248201527f537472696e67733a20686578206c656e67746820696e73756666696369656e7460448201526064016103f8565b9392505050565b6001600160a01b0381168114610e7e57600080fd5b600080604083850312156118ee57600080fd5b82356118f9816118c6565b946020939093013593505050565b6001600160e01b031981168114610e7e57600080fd5b60006020828403121561192f57600080fd5b81356118bf81611907565b60006020828403121561194c57600080fd5b5035919050565b60005b8381101561196e578181015183820152602001611956565b50506000910152565b6000815180845261198f816020860160208601611953565b601f01601f19169290920160200192915050565b6020815260006118bf6020830184611977565b634e487b7160e01b600052604160045260246000fd5b601f8201601f191681016001600160401b03811182821017156119f1576119f16119b6565b6040525050565b60006001600160401b03821115611a1157611a116119b6565b5060051b60200190565b600082601f830112611a2c57600080fd5b81356020611a39826119f8565b604051611a4682826119cc565b83815260059390931b8501820192828101915086841115611a6657600080fd5b8286015b84811015611a815780358352918301918301611a6a565b509695505050505050565b600082601f830112611a9d57600080fd5b81356001600160401b03811115611ab657611ab66119b6565b604051611acd601f8301601f1916602001826119cc565b818152846020838601011115611ae257600080fd5b816020850160208301376000918101602001919091529392505050565b600080600080600060a08688031215611b1757600080fd5b8535611b22816118c6565b94506020860135611b32816118c6565b935060408601356001600160401b0380821115611b4e57600080fd5b611b5a89838a01611a1b565b94506060880135915080821115611b7057600080fd5b611b7c89838a01611a1b565b93506080880135915080821115611b9257600080fd5b50611b9f88828901611a8c565b9150509295509295909350565b60008060408385031215611bbf57600080fd5b823591506020830135611bd1816118c6565b809150509250929050565b600060608284031215611bee57600080fd5b604051606081016001600160401b038282108183111715611c1157611c116119b6565b816040528293508435915080821115611c2957600080fd5b50611c3685828601611a8c565b8252506020830135611c47816118c6565b6020820152604092830135920191909152919050565b600060208284031215611c6f57600080fd5b81356001600160401b03811115611c8557600080fd5b611c9184828501611bdc565b949350505050565b60008060408385031215611cac57600080fd5b82356001600160401b0380821115611cc357600080fd5b818501915085601f830112611cd757600080fd5b81356020611ce4826119f8565b604051611cf182826119cc565b83815260059390931b8501820192828101915089841115611d1157600080fd5b948201945b83861015611d38578535611d29816118c6565b82529482019490820190611d16565b96505086013592505080821115611d4e57600080fd5b50611d5b85828601611a1b565b9150509250929050565b600081518084526020808501945080840160005b83811015611d9557815187529582019590820190600101611d79565b509495945050505050565b6020815260006118bf6020830184611d65565b60008060408385031215611dc657600080fd5b8235915060208301356001600160401b03811115611de357600080fd5b611d5b85828601611bdc565b8015158114610e7e57600080fd5b60008060408385031215611e1057600080fd5b8235611e1b816118c6565b91506020830135611bd181611def565b60006020808385031215611e3e57600080fd5b82356001600160401b0380821115611e5557600080fd5b818501915085601f830112611e6957600080fd5b8135611e74816119f8565b604051611e8182826119cc565b82815260059290921b8401850191858101915088831115611ea157600080fd5b8585015b83811015611ed957803585811115611ebd5760008081fd5b611ecb8b89838a0101611bdc565b845250918601918601611ea5565b5098975050505050505050565b60008060408385031215611ef957600080fd5b8235611f04816118c6565b91506020830135611bd1816118c6565b600080600080600060a08688031215611f2c57600080fd5b8535611f37816118c6565b94506020860135611f47816118c6565b9350604086013592506060860135915060808601356001600160401b03811115611f7057600080fd5b611b9f88828901611a8c565b600181811c90821680611f9057607f821691505b602082108103611fb057634e487b7160e01b600052602260045260246000fd5b50919050565b6020808252602e908201527f455243313135353a2063616c6c6572206973206e6f7420746f6b656e206f776e60408201526d195c881bdc88185c1c1c9bdd995960921b606082015260800190565b60006020828403121561201657600080fd5b81516118bf816118c6565b60006020828403121561203357600080fd5b81516118bf81611def565b601f82111561053a57600081815260208120601f850160051c810160208610156120655750805b601f850160051c820191505b81811015610e6c57828155600101612071565b81516001600160401b0381111561209d5761209d6119b6565b6120b1816120ab8454611f7c565b8461203e565b602080601f8311600181146120e657600084156120ce5750858301515b600019600386901b1c1916600185901b178555610e6c565b600085815260208120601f198616915b82811015612115578886015182559484019460019091019084016120f6565b50858210156121335787850151600019600388901b60f8161c191681555b5050505050600190811b01905550565b600060018060a01b03808816835286602084015285604084015260a0606084015261217160a0840186611977565b91508084166080840152509695505050505050565b634e487b7160e01b600052601160045260246000fd5b8082018082111561042457610424612186565b60018060a01b038516815260006020858184015284604084015260806060840152600084546121dd81611f7c565b80608087015260a06001808416600081146121ff576001811461221957612247565b60ff1985168984015283151560051b890183019550612247565b896000528660002060005b8581101561223f5781548b8201860152908301908801612224565b8a0184019650505b50939b9a5050505050505050505050565b634e487b7160e01b600052603260045260246000fd5b60006001820161228057612280612186565b5060010190565b8281526040602082015260008251606060408401526122a960a0840182611977565b60208501516001600160a01b03166060850152604090940151608090930192909252509092915050565b60208082526025908201527f455243313135353a207472616e7366657220746f20746865207a65726f206164604082015264647265737360d81b606082015260800190565b6020808252602a908201527f455243313135353a20696e73756666696369656e742062616c616e636520666f60408201526939103a3930b739b332b960b11b606082015260800190565b6040815260006123756040830185611d65565b82810360208401526123878185611d65565b95945050505050565b6001600160a01b0386811682528516602082015260a0604082018190526000906123bc90830186611d65565b82810360608401526123ce8186611d65565b905082810360808401526123e28185611977565b98975050505050505050565b60006020828403121561240057600080fd5b81516118bf81611907565b600060033d11156124245760046000803e5060005160e01c5b90565b600060443d10156124355790565b6040516003193d81016004833e81513d6001600160401b03816024840111818411171561246457505050505090565b828501915081518181111561247c5750505050505090565b843d87010160208285010111156124965750505050505090565b6124a5602082860101876119cc565b509095945050505050565b60208082526028908201527f455243313135353a204552433131353552656365697665722072656a656374656040820152676420746f6b656e7360c01b606082015260800190565b7f416363657373436f6e74726f6c3a206163636f756e7420000000000000000000815260008351612530816017850160208801611953565b7001034b99036b4b9b9b4b733903937b6329607d1b6017918401918201528351612561816028840160208801611953565b01602801949350505050565b6001600160a01b03868116825285166020820152604081018490526060810183905260a0608082018190526000906125a790830184611977565b979650505050505050565b808202811582820484141761042457610424612186565b6000816125d8576125d8612186565b50600019019056fea264697066735822122031893ae9185d6018ca8e0e38311d27c122f1e1acc923cc696a9ff775a4fc99ef64736f6c63430008110033",
  "devdoc": {
    "kind": "dev",
    "methods": {
      "balanceOf(address,uint256)": {
        "details": "See {IERC1155-balanceOf}. Requirements: - `account` cannot be the zero address."
      },
      "balanceOfBatch(address[],uint256[])": {
        "details": "See {IERC1155-balanceOfBatch}. Requirements: - `accounts` and `ids` must have the same length."
      },
      "getRoleAdmin(bytes32)": {
        "details": "Returns the admin role that controls `role`. See {grantRole} and {revokeRole}. To change a role's admin, use {_setRoleAdmin}."
      },
      "grantRole(bytes32,address)": {
        "details": "Grants `role` to `account`. If `account` had not been already granted `role`, emits a {RoleGranted} event. Requirements: - the caller must have ``role``'s admin role. May emit a {RoleGranted} event."
      },
      "hasRole(bytes32,address)": {
        "details": "Returns `true` if `account` has been granted `role`."
      },
      "isApprovedForAll(address,address)": {
        "details": "See {IERC1155-isApprovedForAll}."
      },
      "renounceRole(bytes32,address)": {
        "details": "Revokes `role` from the calling account. Roles are often managed via {grantRole} and {revokeRole}: this function's purpose is to provide a mechanism for accounts to lose their privileges if they are compromised (such as when a trusted device is misplaced). If the calling account had been revoked `role`, emits a {RoleRevoked} event. Requirements: - the caller must be `account`. May emit a {RoleRevoked} event."
      },
      "revokeRole(bytes32,address)": {
        "details": "Revokes `role` from `account`. If `account` had been granted `role`, emits a {RoleRevoked} event. Requirements: - the caller must have ``role``'s admin role. May emit a {RoleRevoked} event."
      },
      "safeBatchTransferFrom(address,address,uint256[],uint256[],bytes)": {
        "details": "See {IERC1155-safeBatchTransferFrom}."
      },
      "safeTransferFrom(address,address,uint256,uint256,bytes)": {
        "details": "See {IERC1155-safeTransferFrom}."
      },
      "setApprovalForAll(address,bool)": {
        "details": "See {IERC1155-setApprovalForAll}."
      },
      "uri(uint256)": {
        "details": "See {IERC1155MetadataURI-uri}. This implementation returns the same URI for *all* token types. It relies on the token type ID substitution mechanism https://eips.ethereum.org/EIPS/eip-1155#metadata[defined in the EIP]. Clients calling this function must replace the `\\{id\\}` substring with the actual token type ID."
      }
    },
    "version": 1
  },
  "userdoc": {
    "kind": "user",
    "methods": {},
    "version": 1
  },
  "storageLayout": {
    "storage": [
      {
        "astId": 468,
        "contract": "contracts/SubdivisionNFT.sol:SubdivisionNFT",
        "label": "_balances",
        "offset": 0,
        "slot": "0",
        "type": "t_mapping(t_uint256,t_mapping(t_address,t_uint256))"
      },
      {
        "astId": 474,
        "contract": "contracts/SubdivisionNFT.sol:SubdivisionNFT",
        "label": "_operatorApprovals",
        "offset": 0,
        "slot": "1",
        "type": "t_mapping(t_address,t_mapping(t_address,t_bool))"
      },
      {
        "astId": 476,
        "contract": "contracts/SubdivisionNFT.sol:SubdivisionNFT",
        "label": "_uri",
        "offset": 0,
        "slot": "2",
        "type": "t_string_storage"
      },
      {
        "astId": 24,
        "contract": "contracts/SubdivisionNFT.sol:SubdivisionNFT",
        "label": "_roles",
        "offset": 0,
        "slot": "3",
        "type": "t_mapping(t_bytes32,t_struct(RoleData)19_storage)"
      },
      {
        "astId": 6778,
        "contract": "contracts/SubdivisionNFT.sol:SubdivisionNFT",
        "label": "_nextsubTokenID",
        "offset": 0,
        "slot": "4",
        "type": "t_uint256"
      },
      {
        "astId": 6783,
        "contract": "contracts/SubdivisionNFT.sol:SubdivisionNFT",
        "label": "subdivisionInfoMap",
        "offset": 0,
        "slot": "5",
        "type": "t_mapping(t_uint256,t_struct(SubdivisionInfo)6776_storage)"
      },
      {
        "astId": 6791,
        "contract": "contracts/SubdivisionNFT.sol:SubdivisionNFT",
        "label": "deedNFT",
        "offset": 0,
        "slot": "6",
        "type": "t_contract(DeedNFT)5208"
      }
    ],
    "types": {
      "t_address": {
        "encoding": "inplace",
        "label": "address",
        "numberOfBytes": "20"
      },
      "t_bool": {
        "encoding": "inplace",
        "label": "bool",
        "numberOfBytes": "1"
      },
      "t_bytes32": {
        "encoding": "inplace",
        "label": "bytes32",
        "numberOfBytes": "32"
      },
      "t_bytes_storage": {
        "encoding": "bytes",
        "label": "bytes",
        "numberOfBytes": "32"
      },
      "t_contract(DeedNFT)5208": {
        "encoding": "inplace",
        "label": "contract DeedNFT",
        "numberOfBytes": "20"
      },
      "t_mapping(t_address,t_bool)": {
        "encoding": "mapping",
        "key": "t_address",
        "label": "mapping(address => bool)",
        "numberOfBytes": "32",
        "value": "t_bool"
      },
      "t_mapping(t_address,t_mapping(t_address,t_bool))": {
        "encoding": "mapping",
        "key": "t_address",
        "label": "mapping(address => mapping(address => bool))",
        "numberOfBytes": "32",
        "value": "t_mapping(t_address,t_bool)"
      },
      "t_mapping(t_address,t_uint256)": {
        "encoding": "mapping",
        "key": "t_address",
        "label": "mapping(address => uint256)",
        "numberOfBytes": "32",
        "value": "t_uint256"
      },
      "t_mapping(t_bytes32,t_struct(RoleData)19_storage)": {
        "encoding": "mapping",
        "key": "t_bytes32",
        "label": "mapping(bytes32 => struct AccessControl.RoleData)",
        "numberOfBytes": "32",
        "value": "t_struct(RoleData)19_storage"
      },
      "t_mapping(t_uint256,t_mapping(t_address,t_uint256))": {
        "encoding": "mapping",
        "key": "t_uint256",
        "label": "mapping(uint256 => mapping(address => uint256))",
        "numberOfBytes": "32",
        "value": "t_mapping(t_address,t_uint256)"
      },
      "t_mapping(t_uint256,t_struct(SubdivisionInfo)6776_storage)": {
        "encoding": "mapping",
        "key": "t_uint256",
        "label": "mapping(uint256 => struct SubdivisionNFT.SubdivisionInfo)",
        "numberOfBytes": "32",
        "value": "t_struct(SubdivisionInfo)6776_storage"
      },
      "t_string_storage": {
        "encoding": "bytes",
        "label": "string",
        "numberOfBytes": "32"
      },
      "t_struct(RoleData)19_storage": {
        "encoding": "inplace",
        "label": "struct AccessControl.RoleData",
        "members": [
          {
            "astId": 16,
            "contract": "contracts/SubdivisionNFT.sol:SubdivisionNFT",
            "label": "members",
            "offset": 0,
            "slot": "0",
            "type": "t_mapping(t_address,t_bool)"
          },
          {
            "astId": 18,
            "contract": "contracts/SubdivisionNFT.sol:SubdivisionNFT",
            "label": "adminRole",
            "offset": 0,
            "slot": "1",
            "type": "t_bytes32"
          }
        ],
        "numberOfBytes": "64"
      },
      "t_struct(SubdivisionInfo)6776_storage": {
        "encoding": "inplace",
        "label": "struct SubdivisionNFT.SubdivisionInfo",
        "members": [
          {
            "astId": 6771,
            "contract": "contracts/SubdivisionNFT.sol:SubdivisionNFT",
            "label": "ipfsDetailsHash",
            "offset": 0,
            "slot": "0",
            "type": "t_bytes_storage"
          },
          {
            "astId": 6773,
            "contract": "contracts/SubdivisionNFT.sol:SubdivisionNFT",
            "label": "owner",
            "offset": 0,
            "slot": "1",
            "type": "t_address"
          },
          {
            "astId": 6775,
            "contract": "contracts/SubdivisionNFT.sol:SubdivisionNFT",
            "label": "parentDeed",
            "offset": 0,
            "slot": "2",
            "type": "t_uint256"
          }
        ],
        "numberOfBytes": "96"
      },
      "t_uint256": {
        "encoding": "inplace",
        "label": "uint256",
        "numberOfBytes": "32"
      }
    }
  }
}