{
  "address": "0xf8A230a96EDEB176b3e3d8b1Fa0A8412EDaF867c",
  "arguments": [],
  "_format": "hh-sol-artifact-1",
  "contractName": "AccessManager",
  "sourceName": "contracts/AccessManager.sol",
  "abi": [
    {
      "inputs": [],
      "stateMutability": "nonpayable",
      "type": "constructor"
    },
    {
      "inputs": [],
      "name": "AccessControlBadConfirmation",
      "type": "error"
    },
    {
      "inputs": [
        {
          "internalType": "address",
          "name": "account",
          "type": "address"
        },
        {
          "internalType": "bytes32",
          "name": "neededRole",
          "type": "bytes32"
        }
      ],
      "name": "AccessControlUnauthorizedAccount",
      "type": "error"
    },
    {
      "inputs": [],
      "name": "InvalidInitialization",
      "type": "error"
    },
    {
      "inputs": [],
      "name": "NotInitializing",
      "type": "error"
    },
    {
      "anonymous": false,
      "inputs": [
        {
          "indexed": false,
          "internalType": "uint64",
          "name": "version",
          "type": "uint64"
        }
      ],
      "name": "Initialized",
      "type": "event"
    },
    {
      "anonymous": false,
      "inputs": [
        {
          "indexed": true,
          "internalType": "bytes32",
          "name": "role",
          "type": "bytes32"
        },
        {
          "indexed": true,
          "internalType": "bytes32",
          "name": "previousAdminRole",
          "type": "bytes32"
        },
        {
          "indexed": true,
          "internalType": "bytes32",
          "name": "newAdminRole",
          "type": "bytes32"
        }
      ],
      "name": "RoleAdminChanged",
      "type": "event"
    },
    {
      "anonymous": false,
      "inputs": [
        {
          "indexed": true,
          "internalType": "bytes32",
          "name": "role",
          "type": "bytes32"
        },
        {
          "indexed": true,
          "internalType": "address",
          "name": "account",
          "type": "address"
        },
        {
          "indexed": true,
          "internalType": "address",
          "name": "sender",
          "type": "address"
        }
      ],
      "name": "RoleGranted",
      "type": "event"
    },
    {
      "anonymous": false,
      "inputs": [
        {
          "indexed": true,
          "internalType": "bytes32",
          "name": "role",
          "type": "bytes32"
        },
        {
          "indexed": true,
          "internalType": "address",
          "name": "account",
          "type": "address"
        },
        {
          "indexed": true,
          "internalType": "address",
          "name": "sender",
          "type": "address"
        }
      ],
      "name": "RoleRevoked",
      "type": "event"
    },
    {
      "inputs": [],
      "name": "AGENT_ROLE",
      "outputs": [
        {
          "internalType": "bytes32",
          "name": "",
          "type": "bytes32"
        }
      ],
      "stateMutability": "view",
      "type": "function"
    },
    {
      "inputs": [],
      "name": "DEFAULT_ADMIN_ROLE",
      "outputs": [
        {
          "internalType": "bytes32",
          "name": "",
          "type": "bytes32"
        }
      ],
      "stateMutability": "view",
      "type": "function"
    },
    {
      "inputs": [],
      "name": "VALIDATOR_ROLE",
      "outputs": [
        {
          "internalType": "bytes32",
          "name": "",
          "type": "bytes32"
        }
      ],
      "stateMutability": "view",
      "type": "function"
    },
    {
      "inputs": [
        {
          "internalType": "address",
          "name": "_validator",
          "type": "address"
        }
      ],
      "name": "addValidator",
      "outputs": [],
      "stateMutability": "nonpayable",
      "type": "function"
    },
    {
      "inputs": [
        {
          "internalType": "bytes32",
          "name": "role",
          "type": "bytes32"
        }
      ],
      "name": "getRoleAdmin",
      "outputs": [
        {
          "internalType": "bytes32",
          "name": "",
          "type": "bytes32"
        }
      ],
      "stateMutability": "view",
      "type": "function"
    },
    {
      "inputs": [
        {
          "internalType": "bytes32",
          "name": "role",
          "type": "bytes32"
        },
        {
          "internalType": "address",
          "name": "account",
          "type": "address"
        }
      ],
      "name": "grantRole",
      "outputs": [],
      "stateMutability": "nonpayable",
      "type": "function"
    },
    {
      "inputs": [
        {
          "internalType": "address",
          "name": "_address",
          "type": "address"
        }
      ],
      "name": "hasAdminRole",
      "outputs": [
        {
          "internalType": "bool",
          "name": "",
          "type": "bool"
        }
      ],
      "stateMutability": "view",
      "type": "function"
    },
    {
      "inputs": [
        {
          "internalType": "bytes32",
          "name": "role",
          "type": "bytes32"
        },
        {
          "internalType": "address",
          "name": "account",
          "type": "address"
        }
      ],
      "name": "hasRole",
      "outputs": [
        {
          "internalType": "bool",
          "name": "",
          "type": "bool"
        }
      ],
      "stateMutability": "view",
      "type": "function"
    },
    {
      "inputs": [
        {
          "internalType": "address",
          "name": "_address",
          "type": "address"
        }
      ],
      "name": "hasValidatorRole",
      "outputs": [
        {
          "internalType": "bool",
          "name": "",
          "type": "bool"
        }
      ],
      "stateMutability": "view",
      "type": "function"
    },
    {
      "inputs": [
        {
          "internalType": "address",
          "name": "admin",
          "type": "address"
        }
      ],
      "name": "initialize",
      "outputs": [],
      "stateMutability": "nonpayable",
      "type": "function"
    },
    {
      "inputs": [
        {
          "internalType": "address",
          "name": "_validator",
          "type": "address"
        }
      ],
      "name": "removeValidator",
      "outputs": [],
      "stateMutability": "nonpayable",
      "type": "function"
    },
    {
      "inputs": [
        {
          "internalType": "bytes32",
          "name": "role",
          "type": "bytes32"
        },
        {
          "internalType": "address",
          "name": "callerConfirmation",
          "type": "address"
        }
      ],
      "name": "renounceRole",
      "outputs": [],
      "stateMutability": "nonpayable",
      "type": "function"
    },
    {
      "inputs": [
        {
          "internalType": "bytes32",
          "name": "role",
          "type": "bytes32"
        },
        {
          "internalType": "address",
          "name": "account",
          "type": "address"
        }
      ],
      "name": "revokeRole",
      "outputs": [],
      "stateMutability": "nonpayable",
      "type": "function"
    },
    {
      "inputs": [
        {
          "internalType": "bytes4",
          "name": "_interfaceId",
          "type": "bytes4"
        }
      ],
      "name": "supportsInterface",
      "outputs": [
        {
          "internalType": "bool",
          "name": "",
          "type": "bool"
        }
      ],
      "stateMutability": "view",
      "type": "function"
    }
  ],
  "linkReferences": {},
  "deployedLinkReferences": {},
  "devdoc": {
    "errors": {
      "AccessControlBadConfirmation()": [
        {
          "details": "The caller of a function is not the expected one. NOTE: Don't confuse with {AccessControlUnauthorizedAccount}."
        }
      ],
      "AccessControlUnauthorizedAccount(address,bytes32)": [
        {
          "details": "The `account` is missing a role."
        }
      ],
      "InvalidInitialization()": [
        {
          "details": "The contract is already initialized."
        }
      ],
      "NotInitializing()": [
        {
          "details": "The contract is not initializing."
        }
      ]
    },
    "events": {
      "Initialized(uint64)": {
        "details": "Triggered when the contract has been initialized or reinitialized."
      },
      "RoleAdminChanged(bytes32,bytes32,bytes32)": {
        "details": "Emitted when `newAdminRole` is set as ``role``'s admin role, replacing `previousAdminRole` `DEFAULT_ADMIN_ROLE` is the starting admin for all roles, despite {RoleAdminChanged} not being emitted signaling this."
      },
      "RoleGranted(bytes32,address,address)": {
        "details": "Emitted when `account` is granted `role`. `sender` is the account that originated the contract call, an admin role bearer except when using {AccessControl-_setupRole}."
      },
      "RoleRevoked(bytes32,address,address)": {
        "details": "Emitted when `account` is revoked `role`. `sender` is the account that originated the contract call:   - if using `revokeRole`, it is the admin role bearer   - if using `renounceRole`, it is the role bearer (i.e. `account`)"
      }
    },
    "kind": "dev",
    "methods": {
      "addValidator(address)": {
        "details": "Add a validator to the contract"
      },
      "constructor": {
        "custom:oz-upgrades-unsafe-allow": "constructor"
      },
      "getRoleAdmin(bytes32)": {
        "details": "Returns the admin role that controls `role`. See {grantRole} and {revokeRole}. To change a role's admin, use {_setRoleAdmin}."
      },
      "grantRole(bytes32,address)": {
        "details": "Grants `role` to `account`. If `account` had not been already granted `role`, emits a {RoleGranted} event. Requirements: - the caller must have ``role``'s admin role. May emit a {RoleGranted} event."
      },
      "hasAdminRole(address)": {
        "details": "Check if an address has the admin role"
      },
      "hasRole(bytes32,address)": {
        "details": "Returns `true` if `account` has been granted `role`."
      },
      "hasValidatorRole(address)": {
        "details": "Check if an address has the validator role",
        "params": {
          "_address": "The address to check"
        }
      },
      "removeValidator(address)": {
        "details": "Remove a validator from the contract"
      },
      "renounceRole(bytes32,address)": {
        "details": "Revokes `role` from the calling account. Roles are often managed via {grantRole} and {revokeRole}: this function's purpose is to provide a mechanism for accounts to lose their privileges if they are compromised (such as when a trusted device is misplaced). If the calling account had been revoked `role`, emits a {RoleRevoked} event. Requirements: - the caller must be `callerConfirmation`. May emit a {RoleRevoked} event."
      },
      "revokeRole(bytes32,address)": {
        "details": "Revokes `role` from `account`. If `account` had been granted `role`, emits a {RoleRevoked} event. Requirements: - the caller must have ``role``'s admin role. May emit a {RoleRevoked} event."
      },
      "supportsInterface(bytes4)": {
        "details": "See {IERC165-supportsInterface}."
      }
    },
    "version": 1
  },
  "evm": {
    "bytecode": {
      "linkReferences": {},
      "object": "608060405234801561001057600080fd5b5061001961001e565b6100d0565b7ff0c57e16840df040f15088dc2f81fe391c3923bec73e23a9662efc9c229c6a00805468010000000000000000900460ff161561006e5760405163f92ee8a960e01b815260040160405180910390fd5b80546001600160401b03908116146100cd5780546001600160401b0319166001600160401b0390811782556040519081527fc7f505b2f371ae2175ee4913f4499e1f2633a7b5936321eed1cdaeb6115181d29060200160405180910390a15b50565b61082a806100df6000396000f3fe608060405234801561001057600080fd5b50600436106100ea5760003560e01c806391d148541161008c578063c395fcb311610066578063c395fcb3146101db578063c49baebe146101ee578063c4d66de814610203578063d547741f1461021657600080fd5b806391d14854146101ad578063940e1570146101c0578063a217fddf146101d357600080fd5b80632f2ff15d116100c85780632f2ff15d1461015f57806336568abe1461017457806340a141ff146101875780634d238c8e1461019a57600080fd5b806301ffc9a7146100ef57806322459e1814610117578063248a9ca31461014c575b600080fd5b6101026100fd36600461069a565b610229565b60405190151581526020015b60405180910390f35b61013e7fcab5a0bfe0b79d2c4b1c2e02599fa044d115b7511f9659307cb427695096770981565b60405190815260200161010e565b61013e61015a3660046106cb565b61023a565b61017261016d366004610700565b61025c565b005b610172610182366004610700565b61027e565b61017261019536600461072c565b6102b6565b6101726101a836600461072c565b610316565b6101026101bb366004610700565b61036d565b6101026101ce36600461072c565b6103a5565b61013e600081565b6101026101e936600461072c565b6103bf565b61013e6000805160206107b583398151915281565b61017261021136600461072c565b6103cb565b610172610224366004610700565b6104de565b6000610234826104fa565b92915050565b60009081526000805160206107d5833981519152602052604090206001015490565b6102658261023a565b61026e8161052f565b610278838361053c565b50505050565b6001600160a01b03811633146102a75760405163334bd91960e11b815260040160405180910390fd5b6102b182826105e1565b505050565b6340a141ff60e01b6102c960003361036d565b806102d957506102d9813361036d565b6102fe5760405162461bcd60e51b81526004016102f590610747565b60405180910390fd5b6102b16000805160206107b5833981519152836105e1565b632691c64760e11b61032960003361036d565b806103395750610339813361036d565b6103555760405162461bcd60e51b81526004016102f590610747565b6102b16000805160206107b58339815191528361053c565b60009182526000805160206107d5833981519152602090815260408084206001600160a01b0393909316845291905290205460ff1690565b60006102346000805160206107b58339815191528361036d565b6000610234818361036d565b7ff0c57e16840df040f15088dc2f81fe391c3923bec73e23a9662efc9c229c6a008054600160401b810460ff16159067ffffffffffffffff166000811580156104115750825b905060008267ffffffffffffffff16600114801561042e5750303b155b90508115801561043c575080155b1561045a5760405163f92ee8a960e01b815260040160405180910390fd5b845467ffffffffffffffff19166001178555831561048457845460ff60401b1916600160401b1785555b61048f60008761053c565b5083156104d657845460ff60401b19168555604051600181527fc7f505b2f371ae2175ee4913f4499e1f2633a7b5936321eed1cdaeb6115181d29060200160405180910390a15b505050505050565b6104e78261023a565b6104f08161052f565b61027883836105e1565b60006001600160e01b03198216637965db0b60e01b148061023457506301ffc9a760e01b6001600160e01b0319831614610234565b610539813361065d565b50565b60006000805160206107d5833981519152610557848461036d565b6105d7576000848152602082815260408083206001600160a01b03871684529091529020805460ff1916600117905561058d3390565b6001600160a01b0316836001600160a01b0316857f2f8788117e7eff1d82e926ec794901d17c78024a50270940304540a733656f0d60405160405180910390a46001915050610234565b6000915050610234565b60006000805160206107d58339815191526105fc848461036d565b156105d7576000848152602082815260408083206001600160a01b0387168085529252808320805460ff1916905551339287917ff6391f5c32d9c69d2a47ea670b442974b53935d1edc7fd64eb21e047a839171b9190a46001915050610234565b610667828261036d565b6106965760405163e2517d3f60e01b81526001600160a01b0382166004820152602481018390526044016102f5565b5050565b6000602082840312156106ac57600080fd5b81356001600160e01b0319811681146106c457600080fd5b9392505050565b6000602082840312156106dd57600080fd5b5035919050565b80356001600160a01b03811681146106fb57600080fd5b919050565b6000806040838503121561071357600080fd5b82359150610723602084016106e4565b90509250929050565b60006020828403121561073e57600080fd5b6106c4826106e4565b60208082526047908201527f5b4163636573734d616e6167656d656e745d204f6e6c79207468652041646d6960408201527f6e206f722066756e6374696f6e206772616e74656420757365722063616e20696060820152661b9d195c9858dd60ca1b608082015260a0019056fe21702c8af46127c7fa207f89d0b0a8441bb32959a0ac7df790e9ab1a25c9892602dd7bc7dec4dceedda775e58dd541e08a116c6c53815c0bd028192f7b626800a2646970667358221220159846675cfbb4d2605881569c8efd513d33f071e6c5bad13f08a1dd6846dd6764736f6c63430008140033",
      "opcodes": "PUSH1 0x80 PUSH1 0x40 MSTORE CALLVALUE DUP1 ISZERO PUSH2 0x10 JUMPI PUSH1 0x0 DUP1 REVERT JUMPDEST POP PUSH2 0x19 PUSH2 0x1E JUMP JUMPDEST PUSH2 0xD0 JUMP JUMPDEST PUSH32 0xF0C57E16840DF040F15088DC2F81FE391C3923BEC73E23A9662EFC9C229C6A00 DUP1 SLOAD PUSH9 0x10000000000000000 SWAP1 DIV PUSH1 0xFF AND ISZERO PUSH2 0x6E JUMPI PUSH1 0x40 MLOAD PUSH4 0xF92EE8A9 PUSH1 0xE0 SHL DUP2 MSTORE PUSH1 0x4 ADD PUSH1 0x40 MLOAD DUP1 SWAP2 SUB SWAP1 REVERT JUMPDEST DUP1 SLOAD PUSH1 0x1 PUSH1 0x1 PUSH1 0x40 SHL SUB SWAP1 DUP2 AND EQ PUSH2 0xCD JUMPI DUP1 SLOAD PUSH1 0x1 PUSH1 0x1 PUSH1 0x40 SHL SUB NOT AND PUSH1 0x1 PUSH1 0x1 PUSH1 0x40 SHL SUB SWAP1 DUP2 OR DUP3 SSTORE PUSH1 0x40 MLOAD SWAP1 DUP2 MSTORE PUSH32 0xC7F505B2F371AE2175EE4913F4499E1F2633A7B5936321EED1CDAEB6115181D2 SWAP1 PUSH1 0x20 ADD PUSH1 0x40 MLOAD DUP1 SWAP2 SUB SWAP1 LOG1 JUMPDEST POP JUMP JUMPDEST PUSH2 0x82A DUP1 PUSH2 0xDF PUSH1 0x0 CODECOPY PUSH1 0x0 RETURN INVALID PUSH1 0x80 PUSH1 0x40 MSTORE CALLVALUE DUP1 ISZERO PUSH2 0x10 JUMPI PUSH1 0x0 DUP1 REVERT JUMPDEST POP PUSH1 0x4 CALLDATASIZE LT PUSH2 0xEA JUMPI PUSH1 0x0 CALLDATALOAD PUSH1 0xE0 SHR DUP1 PUSH4 0x91D14854 GT PUSH2 0x8C JUMPI DUP1 PUSH4 0xC395FCB3 GT PUSH2 0x66 JUMPI DUP1 PUSH4 0xC395FCB3 EQ PUSH2 0x1DB JUMPI DUP1 PUSH4 0xC49BAEBE EQ PUSH2 0x1EE JUMPI DUP1 PUSH4 0xC4D66DE8 EQ PUSH2 0x203 JUMPI DUP1 PUSH4 0xD547741F EQ PUSH2 0x216 JUMPI PUSH1 0x0 DUP1 REVERT JUMPDEST DUP1 PUSH4 0x91D14854 EQ PUSH2 0x1AD JUMPI DUP1 PUSH4 0x940E1570 EQ PUSH2 0x1C0 JUMPI DUP1 PUSH4 0xA217FDDF EQ PUSH2 0x1D3 JUMPI PUSH1 0x0 DUP1 REVERT JUMPDEST DUP1 PUSH4 0x2F2FF15D GT PUSH2 0xC8 JUMPI DUP1 PUSH4 0x2F2FF15D EQ PUSH2 0x15F JUMPI DUP1 PUSH4 0x36568ABE EQ PUSH2 0x174 JUMPI DUP1 PUSH4 0x40A141FF EQ PUSH2 0x187 JUMPI DUP1 PUSH4 0x4D238C8E EQ PUSH2 0x19A JUMPI PUSH1 0x0 DUP1 REVERT JUMPDEST DUP1 PUSH4 0x1FFC9A7 EQ PUSH2 0xEF JUMPI DUP1 PUSH4 0x22459E18 EQ PUSH2 0x117 JUMPI DUP1 PUSH4 0x248A9CA3 EQ PUSH2 0x14C JUMPI JUMPDEST PUSH1 0x0 DUP1 REVERT JUMPDEST PUSH2 0x102 PUSH2 0xFD CALLDATASIZE PUSH1 0x4 PUSH2 0x69A JUMP JUMPDEST PUSH2 0x229 JUMP JUMPDEST PUSH1 0x40 MLOAD SWAP1 ISZERO ISZERO DUP2 MSTORE PUSH1 0x20 ADD JUMPDEST PUSH1 0x40 MLOAD DUP1 SWAP2 SUB SWAP1 RETURN JUMPDEST PUSH2 0x13E PUSH32 0xCAB5A0BFE0B79D2C4B1C2E02599FA044D115B7511F9659307CB4276950967709 DUP2 JUMP JUMPDEST PUSH1 0x40 MLOAD SWAP1 DUP2 MSTORE PUSH1 0x20 ADD PUSH2 0x10E JUMP JUMPDEST PUSH2 0x13E PUSH2 0x15A CALLDATASIZE PUSH1 0x4 PUSH2 0x6CB JUMP JUMPDEST PUSH2 0x23A JUMP JUMPDEST PUSH2 0x172 PUSH2 0x16D CALLDATASIZE PUSH1 0x4 PUSH2 0x700 JUMP JUMPDEST PUSH2 0x25C JUMP JUMPDEST STOP JUMPDEST PUSH2 0x172 PUSH2 0x182 CALLDATASIZE PUSH1 0x4 PUSH2 0x700 JUMP JUMPDEST PUSH2 0x27E JUMP JUMPDEST PUSH2 0x172 PUSH2 0x195 CALLDATASIZE PUSH1 0x4 PUSH2 0x72C JUMP JUMPDEST PUSH2 0x2B6 JUMP JUMPDEST PUSH2 0x172 PUSH2 0x1A8 CALLDATASIZE PUSH1 0x4 PUSH2 0x72C JUMP JUMPDEST PUSH2 0x316 JUMP JUMPDEST PUSH2 0x102 PUSH2 0x1BB CALLDATASIZE PUSH1 0x4 PUSH2 0x700 JUMP JUMPDEST PUSH2 0x36D JUMP JUMPDEST PUSH2 0x102 PUSH2 0x1CE CALLDATASIZE PUSH1 0x4 PUSH2 0x72C JUMP JUMPDEST PUSH2 0x3A5 JUMP JUMPDEST PUSH2 0x13E PUSH1 0x0 DUP2 JUMP JUMPDEST PUSH2 0x102 PUSH2 0x1E9 CALLDATASIZE PUSH1 0x4 PUSH2 0x72C JUMP JUMPDEST PUSH2 0x3BF JUMP JUMPDEST PUSH2 0x13E PUSH1 0x0 DUP1 MLOAD PUSH1 0x20 PUSH2 0x7B5 DUP4 CODECOPY DUP2 MLOAD SWAP2 MSTORE DUP2 JUMP JUMPDEST PUSH2 0x172 PUSH2 0x211 CALLDATASIZE PUSH1 0x4 PUSH2 0x72C JUMP JUMPDEST PUSH2 0x3CB JUMP JUMPDEST PUSH2 0x172 PUSH2 0x224 CALLDATASIZE PUSH1 0x4 PUSH2 0x700 JUMP JUMPDEST PUSH2 0x4DE JUMP JUMPDEST PUSH1 0x0 PUSH2 0x234 DUP3 PUSH2 0x4FA JUMP JUMPDEST SWAP3 SWAP2 POP POP JUMP JUMPDEST PUSH1 0x0 SWAP1 DUP2 MSTORE PUSH1 0x0 DUP1 MLOAD PUSH1 0x20 PUSH2 0x7D5 DUP4 CODECOPY DUP2 MLOAD SWAP2 MSTORE PUSH1 0x20 MSTORE PUSH1 0x40 SWAP1 KECCAK256 PUSH1 0x1 ADD SLOAD SWAP1 JUMP JUMPDEST PUSH2 0x265 DUP3 PUSH2 0x23A JUMP JUMPDEST PUSH2 0x26E DUP2 PUSH2 0x52F JUMP JUMPDEST PUSH2 0x278 DUP4 DUP4 PUSH2 0x53C JUMP JUMPDEST POP POP POP POP JUMP JUMPDEST PUSH1 0x1 PUSH1 0x1 PUSH1 0xA0 SHL SUB DUP2 AND CALLER EQ PUSH2 0x2A7 JUMPI PUSH1 0x40 MLOAD PUSH4 0x334BD919 PUSH1 0xE1 SHL DUP2 MSTORE PUSH1 0x4 ADD PUSH1 0x40 MLOAD DUP1 SWAP2 SUB SWAP1 REVERT JUMPDEST PUSH2 0x2B1 DUP3 DUP3 PUSH2 0x5E1 JUMP JUMPDEST POP POP POP JUMP JUMPDEST PUSH4 0x40A141FF PUSH1 0xE0 SHL PUSH2 0x2C9 PUSH1 0x0 CALLER PUSH2 0x36D JUMP JUMPDEST DUP1 PUSH2 0x2D9 JUMPI POP PUSH2 0x2D9 DUP2 CALLER PUSH2 0x36D JUMP JUMPDEST PUSH2 0x2FE JUMPI PUSH1 0x40 MLOAD PUSH3 0x461BCD PUSH1 0xE5 SHL DUP2 MSTORE PUSH1 0x4 ADD PUSH2 0x2F5 SWAP1 PUSH2 0x747 JUMP JUMPDEST PUSH1 0x40 MLOAD DUP1 SWAP2 SUB SWAP1 REVERT JUMPDEST PUSH2 0x2B1 PUSH1 0x0 DUP1 MLOAD PUSH1 0x20 PUSH2 0x7B5 DUP4 CODECOPY DUP2 MLOAD SWAP2 MSTORE DUP4 PUSH2 0x5E1 JUMP JUMPDEST PUSH4 0x2691C647 PUSH1 0xE1 SHL PUSH2 0x329 PUSH1 0x0 CALLER PUSH2 0x36D JUMP JUMPDEST DUP1 PUSH2 0x339 JUMPI POP PUSH2 0x339 DUP2 CALLER PUSH2 0x36D JUMP JUMPDEST PUSH2 0x355 JUMPI PUSH1 0x40 MLOAD PUSH3 0x461BCD PUSH1 0xE5 SHL DUP2 MSTORE PUSH1 0x4 ADD PUSH2 0x2F5 SWAP1 PUSH2 0x747 JUMP JUMPDEST PUSH2 0x2B1 PUSH1 0x0 DUP1 MLOAD PUSH1 0x20 PUSH2 0x7B5 DUP4 CODECOPY DUP2 MLOAD SWAP2 MSTORE DUP4 PUSH2 0x53C JUMP JUMPDEST PUSH1 0x0 SWAP2 DUP3 MSTORE PUSH1 0x0 DUP1 MLOAD PUSH1 0x20 PUSH2 0x7D5 DUP4 CODECOPY DUP2 MLOAD SWAP2 MSTORE PUSH1 0x20 SWAP1 DUP2 MSTORE PUSH1 0x40 DUP1 DUP5 KECCAK256 PUSH1 0x1 PUSH1 0x1 PUSH1 0xA0 SHL SUB SWAP4 SWAP1 SWAP4 AND DUP5 MSTORE SWAP2 SWAP1 MSTORE SWAP1 KECCAK256 SLOAD PUSH1 0xFF AND SWAP1 JUMP JUMPDEST PUSH1 0x0 PUSH2 0x234 PUSH1 0x0 DUP1 MLOAD PUSH1 0x20 PUSH2 0x7B5 DUP4 CODECOPY DUP2 MLOAD SWAP2 MSTORE DUP4 PUSH2 0x36D JUMP JUMPDEST PUSH1 0x0 PUSH2 0x234 DUP2 DUP4 PUSH2 0x36D JUMP JUMPDEST PUSH32 0xF0C57E16840DF040F15088DC2F81FE391C3923BEC73E23A9662EFC9C229C6A00 DUP1 SLOAD PUSH1 0x1 PUSH1 0x40 SHL DUP2 DIV PUSH1 0xFF AND ISZERO SWAP1 PUSH8 0xFFFFFFFFFFFFFFFF AND PUSH1 0x0 DUP2 ISZERO DUP1 ISZERO PUSH2 0x411 JUMPI POP DUP3 JUMPDEST SWAP1 POP PUSH1 0x0 DUP3 PUSH8 0xFFFFFFFFFFFFFFFF AND PUSH1 0x1 EQ DUP1 ISZERO PUSH2 0x42E JUMPI POP ADDRESS EXTCODESIZE ISZERO JUMPDEST SWAP1 POP DUP2 ISZERO DUP1 ISZERO PUSH2 0x43C JUMPI POP DUP1 ISZERO JUMPDEST ISZERO PUSH2 0x45A JUMPI PUSH1 0x40 MLOAD PUSH4 0xF92EE8A9 PUSH1 0xE0 SHL DUP2 MSTORE PUSH1 0x4 ADD PUSH1 0x40 MLOAD DUP1 SWAP2 SUB SWAP1 REVERT JUMPDEST DUP5 SLOAD PUSH8 0xFFFFFFFFFFFFFFFF NOT AND PUSH1 0x1 OR DUP6 SSTORE DUP4 ISZERO PUSH2 0x484 JUMPI DUP5 SLOAD PUSH1 0xFF PUSH1 0x40 SHL NOT AND PUSH1 0x1 PUSH1 0x40 SHL OR DUP6 SSTORE JUMPDEST PUSH2 0x48F PUSH1 0x0 DUP8 PUSH2 0x53C JUMP JUMPDEST POP DUP4 ISZERO PUSH2 0x4D6 JUMPI DUP5 SLOAD PUSH1 0xFF PUSH1 0x40 SHL NOT AND DUP6 SSTORE PUSH1 0x40 MLOAD PUSH1 0x1 DUP2 MSTORE PUSH32 0xC7F505B2F371AE2175EE4913F4499E1F2633A7B5936321EED1CDAEB6115181D2 SWAP1 PUSH1 0x20 ADD PUSH1 0x40 MLOAD DUP1 SWAP2 SUB SWAP1 LOG1 JUMPDEST POP POP POP POP POP POP JUMP JUMPDEST PUSH2 0x4E7 DUP3 PUSH2 0x23A JUMP JUMPDEST PUSH2 0x4F0 DUP2 PUSH2 0x52F JUMP JUMPDEST PUSH2 0x278 DUP4 DUP4 PUSH2 0x5E1 JUMP JUMPDEST PUSH1 0x0 PUSH1 0x1 PUSH1 0x1 PUSH1 0xE0 SHL SUB NOT DUP3 AND PUSH4 0x7965DB0B PUSH1 0xE0 SHL EQ DUP1 PUSH2 0x234 JUMPI POP PUSH4 0x1FFC9A7 PUSH1 0xE0 SHL PUSH1 0x1 PUSH1 0x1 PUSH1 0xE0 SHL SUB NOT DUP4 AND EQ PUSH2 0x234 JUMP JUMPDEST PUSH2 0x539 DUP2 CALLER PUSH2 0x65D JUMP JUMPDEST POP JUMP JUMPDEST PUSH1 0x0 PUSH1 0x0 DUP1 MLOAD PUSH1 0x20 PUSH2 0x7D5 DUP4 CODECOPY DUP2 MLOAD SWAP2 MSTORE PUSH2 0x557 DUP5 DUP5 PUSH2 0x36D JUMP JUMPDEST PUSH2 0x5D7 JUMPI PUSH1 0x0 DUP5 DUP2 MSTORE PUSH1 0x20 DUP3 DUP2 MSTORE PUSH1 0x40 DUP1 DUP4 KECCAK256 PUSH1 0x1 PUSH1 0x1 PUSH1 0xA0 SHL SUB DUP8 AND DUP5 MSTORE SWAP1 SWAP2 MSTORE SWAP1 KECCAK256 DUP1 SLOAD PUSH1 0xFF NOT AND PUSH1 0x1 OR SWAP1 SSTORE PUSH2 0x58D CALLER SWAP1 JUMP JUMPDEST PUSH1 0x1 PUSH1 0x1 PUSH1 0xA0 SHL SUB AND DUP4 PUSH1 0x1 PUSH1 0x1 PUSH1 0xA0 SHL SUB AND DUP6 PUSH32 0x2F8788117E7EFF1D82E926EC794901D17C78024A50270940304540A733656F0D PUSH1 0x40 MLOAD PUSH1 0x40 MLOAD DUP1 SWAP2 SUB SWAP1 LOG4 PUSH1 0x1 SWAP2 POP POP PUSH2 0x234 JUMP JUMPDEST PUSH1 0x0 SWAP2 POP POP PUSH2 0x234 JUMP JUMPDEST PUSH1 0x0 PUSH1 0x0 DUP1 MLOAD PUSH1 0x20 PUSH2 0x7D5 DUP4 CODECOPY DUP2 MLOAD SWAP2 MSTORE PUSH2 0x5FC DUP5 DUP5 PUSH2 0x36D JUMP JUMPDEST ISZERO PUSH2 0x5D7 JUMPI PUSH1 0x0 DUP5 DUP2 MSTORE PUSH1 0x20 DUP3 DUP2 MSTORE PUSH1 0x40 DUP1 DUP4 KECCAK256 PUSH1 0x1 PUSH1 0x1 PUSH1 0xA0 SHL SUB DUP8 AND DUP1 DUP6 MSTORE SWAP3 MSTORE DUP1 DUP4 KECCAK256 DUP1 SLOAD PUSH1 0xFF NOT AND SWAP1 SSTORE MLOAD CALLER SWAP3 DUP8 SWAP2 PUSH32 0xF6391F5C32D9C69D2A47EA670B442974B53935D1EDC7FD64EB21E047A839171B SWAP2 SWAP1 LOG4 PUSH1 0x1 SWAP2 POP POP PUSH2 0x234 JUMP JUMPDEST PUSH2 0x667 DUP3 DUP3 PUSH2 0x36D JUMP JUMPDEST PUSH2 0x696 JUMPI PUSH1 0x40 MLOAD PUSH4 0xE2517D3F PUSH1 0xE0 SHL DUP2 MSTORE PUSH1 0x1 PUSH1 0x1 PUSH1 0xA0 SHL SUB DUP3 AND PUSH1 0x4 DUP3 ADD MSTORE PUSH1 0x24 DUP2 ADD DUP4 SWAP1 MSTORE PUSH1 0x44 ADD PUSH2 0x2F5 JUMP JUMPDEST POP POP JUMP JUMPDEST PUSH1 0x0 PUSH1 0x20 DUP3 DUP5 SUB SLT ISZERO PUSH2 0x6AC JUMPI PUSH1 0x0 DUP1 REVERT JUMPDEST DUP2 CALLDATALOAD PUSH1 0x1 PUSH1 0x1 PUSH1 0xE0 SHL SUB NOT DUP2 AND DUP2 EQ PUSH2 0x6C4 JUMPI PUSH1 0x0 DUP1 REVERT JUMPDEST SWAP4 SWAP3 POP POP POP JUMP JUMPDEST PUSH1 0x0 PUSH1 0x20 DUP3 DUP5 SUB SLT ISZERO PUSH2 0x6DD JUMPI PUSH1 0x0 DUP1 REVERT JUMPDEST POP CALLDATALOAD SWAP2 SWAP1 POP JUMP JUMPDEST DUP1 CALLDATALOAD PUSH1 0x1 PUSH1 0x1 PUSH1 0xA0 SHL SUB DUP2 AND DUP2 EQ PUSH2 0x6FB JUMPI PUSH1 0x0 DUP1 REVERT JUMPDEST SWAP2 SWAP1 POP JUMP JUMPDEST PUSH1 0x0 DUP1 PUSH1 0x40 DUP4 DUP6 SUB SLT ISZERO PUSH2 0x713 JUMPI PUSH1 0x0 DUP1 REVERT JUMPDEST DUP3 CALLDATALOAD SWAP2 POP PUSH2 0x723 PUSH1 0x20 DUP5 ADD PUSH2 0x6E4 JUMP JUMPDEST SWAP1 POP SWAP3 POP SWAP3 SWAP1 POP JUMP JUMPDEST PUSH1 0x0 PUSH1 0x20 DUP3 DUP5 SUB SLT ISZERO PUSH2 0x73E JUMPI PUSH1 0x0 DUP1 REVERT JUMPDEST PUSH2 0x6C4 DUP3 PUSH2 0x6E4 JUMP JUMPDEST PUSH1 0x20 DUP1 DUP3 MSTORE PUSH1 0x47 SWAP1 DUP3 ADD MSTORE PUSH32 0x5B4163636573734D616E6167656D656E745D204F6E6C79207468652041646D69 PUSH1 0x40 DUP3 ADD MSTORE PUSH32 0x6E206F722066756E6374696F6E206772616E74656420757365722063616E2069 PUSH1 0x60 DUP3 ADD MSTORE PUSH7 0x1B9D195C9858DD PUSH1 0xCA SHL PUSH1 0x80 DUP3 ADD MSTORE PUSH1 0xA0 ADD SWAP1 JUMP INVALID 0x21 PUSH17 0x2C8AF46127C7FA207F89D0B0A8441BB329 MSIZE LOG0 0xAC PUSH30 0xF790E9AB1A25C9892602DD7BC7DEC4DCEEDDA775E58DD541E08A116C6C53 DUP2 0x5C SIGNEXTEND 0xD0 0x28 NOT 0x2F PUSH28 0x626800A2646970667358221220159846675CFBB4D2605881569C8EFD MLOAD RETURNDATASIZE CALLER CREATE PUSH18 0xE6C5BAD13F08A1DD6846DD6764736F6C6343 STOP ADDMOD EQ STOP CALLER "
    },
    "gasEstimates": {
      "creation": {
        "codeDepositCost": "418000",
        "executionCost": "30079",
        "totalCost": "448079"
      },
      "external": {
        "AGENT_ROLE()": "241",
        "DEFAULT_ADMIN_ROLE()": "262",
        "VALIDATOR_ROLE()": "infinite",
        "addValidator(address)": "infinite",
        "getRoleAdmin(bytes32)": "infinite",
        "grantRole(bytes32,address)": "infinite",
        "hasAdminRole(address)": "infinite",
        "hasRole(bytes32,address)": "infinite",
        "hasValidatorRole(address)": "infinite",
        "initialize(address)": "infinite",
        "removeValidator(address)": "infinite",
        "renounceRole(bytes32,address)": "29145",
        "revokeRole(bytes32,address)": "infinite",
        "supportsInterface(bytes4)": "infinite"
      }
    },
    "methodIdentifiers": {
      "AGENT_ROLE()": "22459e18",
      "DEFAULT_ADMIN_ROLE()": "a217fddf",
      "VALIDATOR_ROLE()": "c49baebe",
      "addValidator(address)": "4d238c8e",
      "getRoleAdmin(bytes32)": "248a9ca3",
      "grantRole(bytes32,address)": "2f2ff15d",
      "hasAdminRole(address)": "c395fcb3",
      "hasRole(bytes32,address)": "91d14854",
      "hasValidatorRole(address)": "940e1570",
      "initialize(address)": "c4d66de8",
      "removeValidator(address)": "40a141ff",
      "renounceRole(bytes32,address)": "36568abe",
      "revokeRole(bytes32,address)": "d547741f",
      "supportsInterface(bytes4)": "01ffc9a7"
    }
  },
  "storageLayout": {
    "storage": [
      {
        "astId": 7557,
        "contract": "contracts/AccessManager.sol:AccessManager",
        "label": "__gap",
        "offset": 0,
        "slot": "0",
        "type": "t_array(t_uint256)48_storage"
      }
    ],
    "types": {
      "t_array(t_uint256)48_storage": {
        "base": "t_uint256",
        "encoding": "inplace",
        "label": "uint256[48]",
        "numberOfBytes": "1536"
      },
      "t_uint256": {
        "encoding": "inplace",
        "label": "uint256",
        "numberOfBytes": "32"
      }
    }
  },
  "userdoc": {
    "kind": "user",
    "methods": {},
    "version": 1
  },
  "solcInputHash": "3f76a84a5e30538a0b837e70abfb240b",
  "tx": "0x1259877dc02910db49c27f5d756cd18b07f975e17a3cf1f57e8ea4c42d8f3358"
}